:020000040800F2
:1000000000000220752400089D1900089F190008AF
:10001000A1190008A3190008A51900080000000094
:10002000000000000000000000000000C1430008C4
:10003000A7190008000000006144000809410008F9
:10004000C5240008C5240008C5240008C5240008EC
:10005000C5240008C5240008C5240008C5240008DC
:10006000C5240008C5240008C5240008C5240008CC
:10007000C5240008C5240008C5240008C5240008BC
:10008000C5240008C5240008C5240008C5240008AC
:10009000C5240008C5240008C5240008C52400089C
:1000A000A9190008C1190008D9190008C5240008B9
:1000B000F1190008011A0008111A0008C5240008E7
:1000C000C5240008C5240008C5240008C52400086C
:1000D000C5240008C5240008211A0008C52400080A
:1000E000C5240008C5240008C5240008C52400084C
:1000F000C5240008C5240008C5240008C52400083C
:10010000C5240008C5240008311A0008C5240008C9
:10011000C5240008C5240008411A0008511A000827
:10012000C5240008C5240008C5240008C52400080B
:10013000C5240008C5240008C5240008C5240008FB
:10014000C5240008C5240008C5240008C5240008EB
:10015000C5240008C5240008C5240008611A000849
:10016000C5240008C5240008C5240008C5240008CB
:10017000C5240008C5240008C524000800000000AC
:08018000C5240008C524000895
:1001C00081F0004102E000BF83F0004330B54FEA08
:1001D00041044FEA430594EA050F08BF90EA020F75
:1001E0001FBF54EA000C55EA020C7FEA645C7FEA08
:1001F000655C00F0E2804FEA5454D4EB5555B8BF2B
:100200006D420CDD2C4480EA020281EA030382EA9B
:10021000000083EA010180EA020281EA0303362D2D
:1002200088BF30BD11F0004F4FEA01314FF4801C00
:100230004CEA113102D0404261EB410113F0004F12
:100240004FEA03334CEA133302D0524263EB4303C9
:1002500094EA050F00F0A780A4F10104D5F1200E67
:100260000DDB02FA0EFC22FA05F2801841F10001C2
:1002700003FA0EF2801843FA05F359410EE0A5F196
:1002800020050EF1200E012A03FA0EFC28BF4CF0C7
:10029000020C43FA05F3C01851EBE37101F000457D
:1002A00007D54FF0000EDCF1000C7EEB00006EEB8A
:1002B0000101B1F5801F1BD3B1F5001F0CD3490814
:1002C0005FEA30004FEA3C0C04F101044FEA44526B
:1002D00012F5800F80F09A80BCF1004F08BF5FEAF2
:1002E000500C50F1000041EB045141EA050130BDD2
:1002F0005FEA4C0C404141EB0101013C28BFB1F5E4
:10030000801FE9D291F0000F04BF01460020B1FA2E
:1003100081F308BF2033A3F10B03B3F120020CDA01
:100320000C3208DD02F1140CC2F10C0201FA0CF0DF
:1003300021FA02F10CE002F11402D8BFC2F1200C44
:1003400001FA02F120FA0CFCDCBF41EA0C019040FA
:10035000E41AA2BF01EB0451294330BD6FEA040443
:100360001F3C1CDA0C340EDC04F11404C4F120022E
:1003700020FA04F001FA02F340EA030021FA04F340
:1003800045EA030130BDC4F10C04C4F1200220FA97
:1003900002F001FA04F340EA0300294630BD21FAD5
:1003A00004F0294630BD94F0000F83F4801306BF9B
:1003B00081F480110134013D4EE77FEA645C18BF8F
:1003C0007FEA655C29D094EA050F08BF90EA020F26
:1003D00005D054EA000C04BF1946104630BD91EA1E
:1003E000030F1EBF0021002030BD5FEA545C05D121
:1003F0004000494128BF41F0004130BD14F5800460
:100400003CBF01F5801130BD01F0004545F0FE41D3
:1004100041F470014FF0000030BD7FEA645C1ABF08
:10042000194610467FEA655C1CBF0B46024650EA3F
:10043000013406BF52EA033591EA030F41F400216B
:1004400030BD00BF90F0000F04BF0021704730B5F1
:100450004FF4806404F132044FF000054FF00001C6
:1004600050E700BF90F0000F04BF0021704730B587
:100470004FF4806404F1320410F0004548BF40425C
:100480004FF000013EE700BF42004FEAE2014FEAB1
:1004900031014FEA02701FBF12F07F4393F07F4F8C
:1004A00081F06051704732F07F4208BF704793F08F
:1004B0007F4F04BF41F40021704730B54FF46074A2
:1004C00001F0004521F000411CE700BF50EA0102A5
:1004D00008BF704730B54FF000050AE050EA01024E
:1004E00008BF704730B511F0004502D5404261EBBE
:1004F00041014FF4806404F132045FEA915C3FF4FF
:10050000D8AE4FF003025FEADC0C18BF03325FEA9B
:10051000DC0C18BF033202EBDC02C2F1200300FA4C
:1005200003FC20FA02F001FA03FE40EA0E0021FA71
:1005300002F11444BDE600BF4FEA4102B2F1E043CC
:1005400024BFB3F5001CDCF1FE5C0DD901F0004CBA
:100550004FEAC0024CEA5070B2F1004F40EB83000A
:1005600008BF20F00100704711F0804F21D113F136
:100570003872BCBF01F00040704741F480114FEA6F
:100580005252C2F11802C2F1200C10FA0CF320FAF8
:1005900002F018BF40F001004FEAC1234FEAD32315
:1005A00003FA0CFC40EA0C0023FA02F34FEA43037F
:1005B000CCE77FEA625307D150EA01331EBF4FF008
:1005C000FE4040F44000704701F0004040F0FE4023
:1005D00040F40000704700BF53B94AB9002908BF72
:1005E00000281CBF4FF0FF314FF0FF3000F074B90E
:1005F000ADF1080C6DE904CE00F006F8DDF804E07A
:10060000DDE9022304B070472DE9F047089D044658
:100610008E46002B4DD18A42944669D9B2FA82F2B5
:1006200052B101FA02F3C2F1200120FA01F10CFAF1
:1006300002FC41EA030E94404FEA1C48210CBEFB29
:10064000F8F61FFA8CF708FB16E341EA034306FBB2
:1006500007F199420AD91CEB030306F1FF3080F041
:100660001F81994240F21C81023E63445B1AA4B28E
:10067000B3FBF8F008FB103344EA034400FB07F730
:10068000A7420AD91CEB040400F1FF3380F00A8171
:10069000A74240F207816444023840EA0640E41B66
:1006A00000261DB1D4400023C5E900433146BDE812
:1006B000F0878B4209D9002D00F0EF800026C5E9B4
:1006C000000130463146BDE8F087B3FA83F6002ECC
:1006D0004AD18B4202D3824200F2F980841A61EB44
:1006E000030301209E46002DE0D0C5E9004EDDE762
:1006F00002B9FFDEB2FA82F2002A40F09280A1EB4A
:100700000C014FEA1C471FFA8CFE0126200CB1FB9E
:10071000F7F307FB131140EA01410EFB03F0884297
:1007200008D91CEB010103F1FF3802D2884200F224
:10073000CB804346091AA4B2B1FBF7F007FB1011B6
:1007400044EA01440EFB00FEA64508D91CEB040454
:1007500000F1FF3102D2A64500F2BB800846A4EBAF
:100760000E0440EA03409CE7C6F12007B34022FA9A
:1007700007FC4CEA030C20FA07F401FA06F31C43C9
:10078000F9404FEA1C4900FA06F3B1FBF9F8200CD6
:100790001FFA8CFE09FB181140EA014108FB0EF01C
:1007A000884202FA06F20BD91CEB010108F1FF3A6C
:1007B00080F08880884240F28580A8F10208614478
:1007C000091AA4B2B1FBF9F009FB101144EA014186
:1007D00000FB0EFE8E4508D91CEB010100F1FF3431
:1007E0006CD28E456AD90238614440EA0840A0FBC9
:1007F0000294A1EB0E01A142C846A64656D353D09F
:100800005DB1B3EB080261EB0E0101FA07F722FAC2
:1008100006F3F1401F43C5E9007100263146BDE8EB
:10082000F087C2F12003D8400CFA02FC21FA03F34E
:10083000914001434FEA1C471FFA8CFEB3FBF7F0CF
:1008400007FB10360B0C43EA064300FB0EF69E42F4
:1008500004FA02F408D91CEB030300F1FF382FD28D
:100860009E422DD9023863449B1B89B2B3FBF7F635
:1008700007FB163341EA034106FB0EF38B4208D90E
:100880001CEB010106F1FF3816D28B4214D9023E4F
:100890006144C91A46EA004638E72E46284605E76D
:1008A0000646E3E61846F8E64B45A9D2B9EB02083E
:1008B00064EB0C0E0138A3E74646EAE7204694E7CE
:1008C0004046D1E7D0467BE7023B614432E7304601
:1008D00009E76444023842E7704700BF844641EAB2
:1008E000000313F003036DD1403A41D351F8043BA8
:1008F00040F8043B51F8043B40F8043B51F8043BFA
:1009000040F8043B51F8043B40F8043B51F8043BE9
:1009100040F8043B51F8043B40F8043B51F8043BD9
:1009200040F8043B51F8043B40F8043B51F8043BC9
:1009300040F8043B51F8043B40F8043B51F8043BB9
:1009400040F8043B51F8043B40F8043B51F8043BA9
:1009500040F8043B51F8043B40F8043B51F8043B99
:1009600040F8043B51F8043B40F8043B403ABDD208
:10097000303211D351F8043B40F8043B51F8043BAA
:1009800040F8043B51F8043B40F8043B51F8043B69
:1009900040F8043B103AEDD20C3205D351F8043B39
:1009A00040F8043B043AF9D2043208D0D2071CBF05
:1009B00011F8013B00F8013B01D30B88038060462E
:1009C000704700BF082A13D38B078DD010F00303A4
:1009D0008AD0C3F10403D21ADB071CBF11F8013B14
:1009E00000F8013B80D331F8023B20F8023B7BE763
:1009F000043AD9D3013A11F8013B00F8013BF9D28E
:100A00000B7803704B7843708B7883706046704727
:100A100001F0FF01102A2BDB10F0070F08D010F8AF
:100A2000013B013A8B422DD010F0070F42B3F6D1B3
:100A3000F0B441EA012141EA014122F007047FF0CC
:100A400000070023F0E80256083C85EA010586EA23
:100A5000010685FA47F5A3FA87F586FA47F6A5FA5F
:100A600087F68EB9EED1F0BC01F0FF0102F007026B
:100A700032B110F8013B013A83EA010313B1F8D116
:100A80000020704701387047002D06BF35460338F7
:100A9000073815F0010F07D1013015F4807F02BF30
:100AA000013015F4C03F0130F0BC0138704700BF81
:100AB0000000000000000000000000000000000036
:100AC00090F800F06DE9024520F007016FF0000C8E
:100AD00010F0070491F820F040F049804FF0000436
:100AE0006FF00700D1E9002391F840F000F1080011
:100AF00082FA4CF2A4FA8CF283FA4CF3A2FA8CF349
:100B00004BBBD1E9022382FA4CF200F10800A4FAAF
:100B10008CF283FA4CF3A2FA8CF3E3B9D1E9042303
:100B200082FA4CF200F10800A4FA8CF283FA4CF33A
:100B3000A2FA8CF37BB9D1E9062301F1200182FAF4
:100B40004CF200F10800A4FA8CF283FA4CF3A2FAFA
:100B50008CF3002BC6D0002A04BF04301A4612BA08
:100B6000B2FA82F2FDE8024500EBD2007047D1E90B
:100B7000002304F00305C4F100004FEAC50514F09A
:100B8000040F91F840F00CFA05F562EA05021CBF6B
:100B900063EA050362464FF00004A9E770B54FF021
:100BA000FF0C4CF4E06C1CEA11541DBF1CEA1355F9
:100BB00094EA0C0F95EA0C0F00F0DEF82C4481EA61
:100BC000030621EA4C5123EA4C5350EA013518BF81
:100BD00052EA033541F4801143F4801338D0A0FB6E
:100BE00002CE4FF00005E1FB02E506F00042E0FB1B
:100BF00003E54FF00006E1FB03569CF0000F18BF21
:100C00004EF0010EA4F1FF04B6F5007F64F54074C8
:100C100004D25FEA4E0E6D4146EB060642EAC6215B
:100C200041EA55514FEAC52040EA5E504FEACE2EC8
:100C3000B4F1FD0C88BFBCF5E06F1ED8BEF1004FCB
:100C400008BF5FEA500E50F1000041EB045170BD47
:100C500006F0004646EA010140EA020081EA03018B
:100C6000B4EB5C04C2BFD4EB0C0541EA045170BD87
:100C700041F480114FF0000E013C00F3AB8014F101
:100C8000360FDEBF002001F0004170BDC4F100044A
:100C9000203C35DA0C341BDC04F11404C4F12005CB
:100CA00000FA05F320FA04F001FA05F240EA020026
:100CB00001F0004221F0004110EBD37021FA04F65C
:100CC00042EB06015EEA430E08BF20EAD37070BD16
:100CD000C4F10C04C4F1200500FA04F320FA05F075
:100CE00001FA04F240EA020001F0004110EBD37077
:100CF00041F100015EEA430E08BF20EAD37070BDE7
:100D0000C4F1200500FA05F24EEA020E20FA04F3BF
:100D100001FA05F243EA020321FA04F001F000416E
:100D200021FA04F220EA020000EBD3705EEA430EDF
:100D300008BF20EAD37070BD94F0000F0FD101F00E
:100D40000046400041EB010111F4801F08BF013C47
:100D5000F7D041EA060195F0000F18BF704703F085
:100D60000046520043EB030313F4801F08BF013D0C
:100D7000F7D043EA0603704794EA0C0F0CEA1355C8
:100D800018BF95EA0C0F0CD050EA410618BF52EA82
:100D90004306D1D181EA030101F000414FF0000088
:100DA00070BD50EA410606BF1046194652EA430696
:100DB00019D094EA0C0F02D150EA013613D195EA0A
:100DC0000C0F05D152EA03361CBF104619460AD152
:100DD00081EA030101F0004141F0FE4141F470015C
:100DE0004FF0000070BD41F0FE4141F4780170BD4C
:100DF00070B54FF0FF0C4CF4E06C1CEA11541DBFB1
:100E00001CEA135594EA0C0F95EA0C0F00F0A7F8B2
:100E1000A4EB050481EA030E52EA03354FEA0131DF
:100E200000F088804FEA03334FF0805545EA1313F2
:100E300043EA12634FEA022245EA111545EA1065BA
:100E40004FEA00260EF000419D4208BF964244F151
:100E5000FD0404F5407402D25B084FEA3202B61A70
:100E600065EB03055B084FEA32024FF480104FF444
:100E7000002CB6EB020E75EB030E22BFB61A7546B8
:100E800040EA0C005B084FEA3202B6EB020E75EB4B
:100E9000030E22BFB61A754640EA5C005B084FEAB3
:100EA0003202B6EB020E75EB030E22BFB61A754680
:100EB00040EA9C005B084FEA3202B6EB020E75EB8B
:100EC000030E22BFB61A754640EADC0055EA060E4C
:100ED00018D04FEA051545EA16754FEA06164FEA8F
:100EE000C30343EA52734FEAC2025FEA1C1CC0D13B
:100EF00011F4801F0BD141EA00014FF000004FF0C8
:100F0000004CB6E711F4801F04BF01430020B4F188
:100F1000FD0C88BFBCF5E06F3FF6AFAEB5EB030C40
:100F200004BFB6EB020C5FEA500C50F1000041EB3D
:100F3000045170BD0EF0004E4EEA113114EB5C040A
:100F4000C2BFD4EB0C0541EA045170BD41F48011DD
:100F50004FF0000E013C90E645EA060E8DE60CEAE5
:100F6000135594EA0C0F08BF95EA0C0F3FF43BAF02
:100F700094EA0C0F0AD150EA01347FF434AF95EAB9
:100F80000C0F7FF425AF104619462CE795EA0C0F9D
:100F900006D152EA03353FF4FDAE1046194622E76A
:100FA00050EA410618BF52EA43067FF4C5AE50EA44
:100FB00041047FF40DAF52EA43057FF4EBAE12E734
:100FC0004FF0FF3C06E000BF4FF0010C02E000BF15
:100FD0004FF0010C4DF804CD4FEA410C7FEA6C5CF8
:100FE0004FEA430C18BF7FEA6C5C1BD001B050EA9B
:100FF000410C0CBF52EA430C91EA030F02BF90EA86
:10100000020F0020704710F1000F91EA030F58BF44
:10101000994208BF90422CBFD8176FEAE37040F0A6
:10102000010070474FEA410C7FEA6C5C02D150EA44
:10103000013C07D14FEA430C7FEA6C5CD6D152EAFF
:10104000033CD3D05DF8040B704700BF84461046C4
:1010500062468C461946634600E000BF01B5FFF7C3
:10106000B7FF002848BF10F1000F01BD4DF808ED93
:10107000FFF7F4FF0CBF012000205DF808FB00BF64
:101080004DF808EDFFF7EAFF34BF012000205DF8BE
:1010900008FB00BF4DF808EDFFF7E0FF94BF01200B
:1010A00000205DF808FB00BF4DF808EDFFF7CEFF0C
:1010B00094BF012000205DF808FB00BF4DF808ED4B
:1010C000FFF7C4FF34BF012000205DF808FB00BF1C
:1010D0004FEA410C7FEA6C5C02D150EA013C0AD134
:1010E0004FEA430C7FEA6C5C02D152EA033C02D126
:1010F0004FF0000070474FF0010070474FEA410287
:1011000012F5001215D211D56FF47873B3EB625259
:1011100012D94FEAC12343F0004343EA505311F080
:10112000004F23FA02F018BF404270474FF0000012
:10113000704750EA013005D111F0004008BF6FF050
:10114000004070474FF00000704700BF08B5012015
:1011500003F073F8FBE7000080B58AB0154B9E687A
:10116000154AD7681868FFF78FF904460D46134BE8
:101170001B780893124B1868FFF786F9CDE9060132
:101180003846FFF781F9CDE904010E4B1868FFF7E7
:101190007BF9CDE902013046FFF776F9CDE9000190
:1011A00022462B46084805F025FD372004F0A2FA18
:1011B000D4E700BF40600020F0600020EC60002019
:1011C00010600020E80A0020E8CD000810B582B0C9
:1011D000194805F023FC05F077FB05F00BF8002219
:1011E00001210A2003F0AFFC144B1860144A0021BF
:1011F000144802F0C3FF144B1860144B01931824D9
:101200000094002380221249124804F0D2F8124BB5
:1012100001930094002380221049114804F0C9F87A
:10122000104B01930094002380220F490F4804F0D3
:10123000C0F802B010BD00BF140E0020F00900205D
:1012400040CE00084D110008E8090020F8090020F0
:101250000CCE000859110008EC09002018CE000837
:10126000C9630008F409002028CE0008A968000816
:10127000F0B58BB000240594069407940894099463
:101280000094334B1A6B42F010021A631A6B02F08F
:1012900010020092009A01941A6B42F080021A63C5
:1012A0001A6B02F080020192019A02941A6B42F0CA
:1012B00004021A631A6B02F004020292029A039467
:1012C0001A6B42F001021A631A6B02F001020392D8
:1012D000039A04941A6B42F002021A631B6B03F028
:1012E00002030493049B1B4F22460E21384601F053
:1012F000C6FA194E22464FF48851304601F0BFFA23
:10130000012505950694079505A9384601F0BEF913
:101310000E230593069507940223089305A93846E2
:1013200001F0B4F94FF4807305930695079408947F
:1013300005A9304601F0AAF94FF4805305930695AC
:101340000795089405A9304601F0A0F90BB0F0BD4F
:1013500000380240000802400000024002681A4BB8
:101360009A4200D0704710B5184B1988013189B2E4
:1013700019804A1E164B1B7816488354212B07D020
:10138000134900230B700122134802F0AAFE10BD7E
:10139000124805F02FFC002406E00E4B1A5D214692
:1013A0000F4805F027FC0134084B1B88A342F4DCEE
:1013B000012004F0ADFEC8220021064805F0C8FB5C
:1013C000024B00221A80DBE700140140C60A00200D
:1013D000C40A0020FC090020140E002064CE00087E
:1013E00070CE00082DE9F04F85B00446B64B984208
:1013F00007D02268B54B9A4200F0638105B0BDE882
:10140000F08FB34B1868421C01921A60B14BD3F8AD
:1014100000E0DEF8241009B2AF4B1980AF4BD3F8CF
:1014200000C0DCF8242012B2AD4B1A80AD4B1F680F
:101430007B6A1BB2AC4D2B80AC4D2E680296756A50
:101440002DB22846AA4D03902880AA4D686800EB6B
:101450000108C5F80480DFF8D482D8F8040000EB56
:101460000209C8F80490DFF8CC92D9F8040000EB28
:10147000030AC9F804A0DFF8C4A2DAF804600398EC
:1014800006EB000BCAF804B04FF0000BCEF824B006
:10149000CCF824B0C7F824B0029EC6F824B007EEFA
:1014A000901AF8EEE77A9FED945AC7EE850ADFEDC1
:1014B000935A60EEA50A9FED926A60EE860AC5ED2A
:1014C000030A07EE902AF8EEE76A86EE857A27EEA1
:1014D000257A27EE067A88ED037A07EE903AF8EE41
:1014E000E76A86EE857A27EE257A27EE067A89ED79
:1014F000037A07EE900AB8EEE77AC7EE057A67EE50
:10150000A57A67EE867ACAED037A019B0A2B7FF4EF
:1015100070AF6F4BC3F800B07A4BD3ED007A7A4BC3
:1015200093ED007AF4EEC77AF1EE10FA40F18E8076
:10153000764B93ED007A77EE277A724BC3ED007A03
:10154000734BD3ED007A734B93ED007AF4EEC77AC8
:10155000F1EE10FA40F189806C4B93ED007A77EE52
:10156000277A6B4BC3ED007A6B4BD3ED007A6B4B54
:1015700093ED007AF4EEC77AF1EE10FA40F1848030
:10158000624B93ED007A77EE277A634BC3ED007AD6
:10159000634BD3ED007A634B93ED007AF4EEC77A98
:1015A000F1EE10FA7FD5594B93ED007A77EE277A5A
:1015B0005B4BC3ED007ADFF88881524B93ED000A54
:1015C000404604F06DFE524B93ED000A564F574BC8
:1015D000D3ED030AB1EE400A384604F061FE544EE2
:1015E000544BD3ED030A4C4B93ED000A304604F004
:1015F00057FE4B4B93ED000A4F4D504BD3ED030A72
:10160000B1EE400A284604F04BFED8ED077AFDEE15
:10161000E77A17EE900A05F0ABF9D7ED077AFDEE01
:10162000E77A17EE900A05F0BDF9D6ED077AFDEEE0
:10163000E77A17EE900A05F0C9F9D5ED077AFDEEC5
:10164000E77A17EE900A05F0D5F9D2E6F4EEC77AFC
:10165000F1EE10FA7FF774AF2C4B93ED007A77EE32
:10166000C77A284BC3ED007A6AE7F4EEC77AF1EE49
:1016700010FA7FF779AF254B93ED007A77EEC77AB2
:10168000234BC3ED007A6FE7F4EEC77AF1EE10FA60
:101690007FF77EAF1D4B93ED007A77EEC77A1E4B36
:1016A000C3ED007A74E7F4EEC77AF1EE10FA82DD4A
:1016B000164B93ED007A77EEC77A194BC3ED007A9B
:1016C00079E700F01BFF99E63C0D00200014004074
:1016D000F40A00201C0C0020EC0A0020640C0020FE
:1016E000EE0A0020AC0C0020F00A0020F40C0020D0
:1016F000F20A0020F060002000606A4700007A448F
:1017000000007042CC0A0020C80A0020000000201F
:10171000D40A0020D00A0020DC0A0020D80A0020C9
:10172000E40A0020E00A0020686000200461002034
:101730009060002018610020B86000202C6100201B
:101740004060002072B6FEE700B595B0302200215F
:1017500008A805F0FDF9002303930493059306936D
:1017600007930193204A116C41F080511164126C6F
:1017700002F080520192019A02931C4B1A6842F4C3
:1017800080421A601B6803F480430293029B01238A
:1017900008934FF48033099302220E924FF4800392
:1017A0000F9304231093A82111911292139308A868
:1017B00001F06CF898B90F230393022304930023DC
:1017C00005934FF4A05306934FF4805307930521DC
:1017D00003A801F0C1FA20B915B05DF804FBFFF7CA
:1017E000B1FFFFF7AFFF00BF0038024000700040BC
:1017F00008B500F069FEFFF7A7FFFFF739FD00F01D
:1018000065FC00F073F900F0A3F900F0D3F900F0E3
:1018100003FA00F0D3FC00F00FFD00F049FD00F0EA
:1018200083FD00F09BFD00F029FA05F02DF81A4821
:1018300001F01AFC194C0021204601F0E3FE0421BE
:10184000204601F0DFFE0821204601F0DBFE0C21DE
:10185000204601F0D7FE124C0021204601F0D2FEB6
:101860000421204601F0CEFE00210E4801F0CAFE00
:1018700000210D4801F0C6FE0C4C204605F0CEF8C4
:1018800001220B49204602F02CFC02F049FCFFF734
:101890009DFC02F057FCFEE73C0D0020440B0020AD
:1018A000840D00208C0B0020D40B0020140E00208F
:1018B000C40A002000B583B0002200920D4B596C81
:1018C00041F480415964596C01F4804100910099C0
:1018D0000192196C41F0805119641B6C03F0805324
:1018E0000193019B0F216FF0010000F02BFE03B06C
:1018F0005DF804FB0038024030B589B0044600238F
:101900000193214B1A6C42F020021A641B6C03F005
:1019100020030193019B02A903A801F0F3FA069B9F
:10192000CBB901F0CFFA03461848A0FB03239B0C68
:10193000013B1748174A026040F2E732C260436039
:10194000002303618360836101F0F2FC054630B13E
:10195000284609B030BD01F0B5FA4300E4E70C4871
:1019600001F082FB05460028F2D1372000F022FE6C
:101970000F2C01D90125EBE700222146372000F08A
:10198000E1FD054B1C60E3E70038024083DE1B43AA
:10199000F80A0020001400400C000020FEE7FEE7DB
:1019A000FEE7FEE7FEE7704708B5034801F0A4FB39
:1019B000024801F0A1FB08BD440B0020840D00206B
:1019C00008B5034801F098FB024801F095FB08BDFB
:1019D000440B00208C0B002008B5034801F08CFB61
:1019E000024801F089FB08BD440B0020D40B002005
:1019F00008B5024801F080FB08BD00BF1C0C0020A8
:101A000008B5024801F078FB08BD00BF640C002057
:101A100008B5024801F070FB08BD00BFAC0C002007
:101A200008B5024802F0FEF908BD00BFCC0D002049
:101A300008B5024801F060FB08BD00BFF40C0020AF
:101A400008B5024801F058FB08BD00BF3C0D00205E
:101A500008B5024801F050FB08BD00BFF80A00209D
:101A600008B5024802F0DEF908BD00BF140E0020E0
:101A70000120704708B505F041F8162303604FF0C8
:101A8000FF3008BD08B54FF0FF31FFF7F3FFFEE769
:101A900010B503460C4A0D490D48006840B10C488A
:101AA00000680344521A934206D8094A136010BDD5
:101AB0000748084C0460F2E705F020F80C230360A7
:101AC0004FF0FF30F3E700BF0000022000040000E9
:101AD000400B002088610020034AD2F8883043F48C
:101AE0007003C2F88830704700ED00E000B58DB09B
:101AF0002422002103A805F02BF800230193029370
:101B000012484FF080420260436083604FF0FF3222
:101B1000C260036183610323039301230593099347
:101B200003A901F05DFC50B900230193029301A9C0
:101B3000064801F04FFE28B90DB05DF804FBFFF731
:101B400001FEF1E7FFF7FEFDF6E700BF1C0C0020E9
:101B500000B58DB02422002103A804F0F9FF002372
:101B6000019302931148124A0260436083604FF66A
:101B7000FF72C26003618361032303930123059312
:101B8000099303A901F02CFC50B90023019302939F
:101B900001A9064801F01EFE28B90DB05DF804FB4E
:101BA000FFF7D0FDF1E7FFF7CDFDF6E7640C00206D
:101BB0000004004000B58DB02422002103A804F0E9
:101BC000C7FF0023019302931148124A0260436049
:101BD00083604FF6FF72C260036183610323039346
:101BE00001230593099303A901F0FAFB50B90023DF
:101BF0000193029301A9064801F0ECFD28B90DB04C
:101C00005DF804FBFFF79EFDF1E7FFF79BFDF6E7AC
:101C1000AC0C00200008004000B58DB0242200214B
:101C200003A804F095FF0023019302931148124A80
:101C30000260436083604FF0FF32C26003618361E2
:101C40000323039301230593099303A901F0C8FB20
:101C500050B900230193029301A9064801F0BAFD8F
:101C600028B90DB05DF804FBFFF76CFDF1E7FFF755
:101C700069FDF6E7F40C0020000C004000B583B0CD
:101C80000023009301930F480F4A0260A72242608D
:101C9000836040F2E733C3608023836101F048FB37
:101CA00050B90023009301936946064801F092FD64
:101CB00028B903B05DF804FBFFF744FDF1E7FFF737
:101CC00041FDF6E73C0D00200010004010B582B049
:101CD0000368204A934204D01F4A934226D002B0A0
:101CE00010BD002400941D4B5A6C42F001025A644E
:101CF0005B6C03F001030093009B22460621182031
:101D000000F020FC182000F055FC22460621192086
:101D100000F018FC192000F04DFC224606211A2084
:101D200000F010FC1A2000F045FCD8E700220192D8
:101D30000A4B596C41F4803159645B6C03F4803375
:101D40000193019B0621182000F0FCFB182000F0F5
:101D500031FCC4E70000014000400140003802406F
:101D600070B58EB0002309930A930B930C930D93D7
:101D70000368B3F1804F0BD0614A934247D0614A68
:101D800093426CD0604A934200F091800EB070BDD7
:101D90000024009403F50E331A6C42F001021A6419
:101DA0001A6C02F001020092009A01941A6B42F040
:101DB00001021A631A6B02F001020192019A029465
:101DC0001A6B42F002021A631B6B03F002030293C8
:101DD000029B4FF40043099302260A9601250D95B4
:101DE00009A94A4800F052FC082309930A960B946B
:101DF0000C940D9509A9464800F048FC224606219E
:101E00001C2000F09FFB1C2000F0D4FBBEE7002448
:101E10000394404B1A6C42F002021A641A6C02F0EE
:101E200002020392039A04941A6B42F002021A63AC
:101E30001B6B03F002030493049B302309930223DA
:101E40000A930D9309A9324800F020FC224606218E
:101E50001D2000F077FB1D2000F0ACFB96E700246E
:101E600005942C4B1A6C42F004021A641A6C02F0AE
:101E700004020592059A06941A6B42F002021A6354
:101E80001B6B03F002030693069BC02309930223F6
:101E90000A930D9309A91E4800F0F8FB224606217B
:101EA0001E2000F04FFB1E2000F084FB6EE7002494
:101EB0000794184B1A6C42F008021A641A6C02F06C
:101EC00008020792079A08941A6B42F001021A63FB
:101ED0001B6B03F001030893089B03230993022360
:101EE0000A930D9309A9094800F0D0FB2246062168
:101EF000322000F027FB322000F05CFB46E700BFF9
:101F00000004004000080040000C004000000240B7
:101F1000000402400038024000B585B00368244A3E
:101F2000934208D0234A934219D0234A93422AD09D
:101F300005B05DF804FB00220192204B196C41F0C2
:101F4000100119641B6C03F010030193019B052120
:101F5000362000F0F7FA362000F02CFBE8E70022EC
:101F60000292164B596C41F4003159645B6C03F4D6
:101F700000330293029B0621192000F0E3FA192096
:101F800000F018FBD4E7002203920C4B596C41F48B
:101F9000802159645B6C03F480230393039B062127
:101FA0001A2000F0CFFA1A2000F004FBC0E700BFAF
:101FB0000010004000440140004801400038024049
:101FC00000B58BB0002305930693079308930993FC
:101FD0000368374A93420BD0364A934220D0364AA0
:101FE000934234D0354A934249D00BB05DF804FB9C
:101FF00000230193324B1A6B42F010021A631B6BE1
:1020000003F010030193019B4FF4D4430593022383
:1020100006930123099305A92A4800F037FBE4E75A
:1020200000230293264B1A6B42F010021A631B6BBB
:1020300003F010030293029B60230593022306938F
:102040000323099305A91F4800F020FBCDE70023D7
:1020500003931B4B1A6B42F002021A631B6B03F0D3
:1020600002030393039B4FF48073059302230693AB
:102070000323099305A9144800F008FBB5E70023E2
:1020800004930F4B1A6B42F002021A631B6B03F0AE
:1020900002030493049B4FF40073059302230693F9
:1020A0000323099305A9084800F0F0FA9DE700BF53
:1020B0000000014000400140004401400048014050
:1020C00000380240001002400004024010B592B0F7
:1020D00000241094119409940A940B940C940D9478
:1020E0000E940F942022214601A804F031FD3148BE
:1020F000314B0360A7234360846040F2E733C36041
:10210000046144618023836101F03EF900283CD1E1
:1021100000231093119310A9264801F05BFB0028BF
:1021200036D16023099300220A920B920C920D92F1
:102130000E920F9209A91F4801F0E6F958BB04223C
:1021400009A91C4801F0E0F940BB082209A9194877
:1021500001F0DAF928BB0C2209A9164801F0D4F9DC
:1021600010BB0023019302930393049305934FF450
:1021700000520692089301A90E4801F071FBB0B914
:102180000C48FFF71DFF12B010BDFFF7DBFABFE7E9
:10219000FFF7D8FAC5E7FFF7D5FAD0E7FFF7D2FA8D
:1021A000D3E7FFF7CFFAD6E7FFF7CCFAD9E7FFF787
:1021B000C9FAE5E7440B00200000014000B589B0F2
:1021C00000230193029303930493059306930793CB
:1021D0001748184A0260A7224260836040F2E73243
:1021E000C26003618023836101F0CEF8B8B9602337
:1021F0000193002202920392059201A90C4801F07A
:1022000083F978B904220DEB0201094801F07CF949
:1022100058B90748FFF7D4FE09B05DF804FBFFF793
:1022200091FAE4E7FFF78EFAECE7FFF78BFAF0E7B5
:10223000840D00200040014000B589B000230193C7
:102240000293039304930593069307931648174A42
:102250000260A7224260836040F2E732C2600361FD
:102260008023836101F064F8A0B90F4801F08CF875
:1022700098B960230193002202920392059201A96A
:10228000094801F041F958B90748FFF799FE09B02C
:102290005DF804FBFFF756FAE7E7FFF753FAE8E7C4
:1022A000FFF750FAF0E700BF8C0B0020004401401C
:1022B00000B589B00023019302930393049305931F
:1022C000069307931648174A0260A722426083606C
:1022D00040F2E732C26003618023836101F028F895
:1022E000A0B90F4801F050F898B96023019300227B
:1022F00002920392059201A9094801F005F958B923
:102300000748FFF75DFE09B05DF804FBFFF71AFA16
:10231000E7E7FFF717FAE8E7FFF714FAF0E700BF7F
:10232000D40B00200048014008B50A480A4B03605E
:102330004FF4E133436000238360C36003610C22E8
:1023400042618361C36101F0E2FB00B908BDFFF7A0
:10235000F9F9FBE7CC0D00200044004008B50A481D
:102360000A4B03604FF4E133436000238360C36092
:1023700003610C2242618361C36101F0C8FB00B9B3
:1023800008BDFFF7DFF9FBE7140E00200014014041
:1023900010B58AB000230593069307930893099319
:1023A00003682F4A934204D02E4A93422CD00AB09D
:1023B00010BD002401942C4B1A6C42F400321A64B4
:1023C0001A6C02F400320192019A02941A6B42F0E4
:1023D00001021A631B6B03F001030293029B0C239F
:1023E000059302230693032308930723099305A962
:1023F0001E4800F04BF922460621262000F0A2F8E4
:10240000262000F0D7F8D2E700240394164B5A6C2C
:1024100042F020025A645A6C02F020020392039A9E
:1024200004941A6B42F004021A631B6B03F004035A
:102430000493049BC023059302230693032308936C
:102440000823099305A90A4800F020F9224605212E
:10245000472000F077F8472000F0ACF8A7E700BF6E
:1024600000440040001401400038024000000240D7
:1024700000080240DFF834D0FFF72EFB0C480D496E
:102480000D4A002302E0D458C4500433C4188C42CF
:10249000F9D30A4A0A4C002301E013600432A24235
:1024A000FBD304F031FBFFF7A3F9704700000220D3
:1024B00000000020E4090020C0D20008E809002044
:1024C00088610020FEE7000008B50B4B1A6842F453
:1024D00000721A601A6842F480621A601A6842F444
:1024E00080721A60032000F01BF80F20FFF704FA37
:1024F000FFF7E0F9002008BD003C0240034A1168E4
:10250000034B1B780B441360704700BF5C0E002028
:1025100008000020014B1868704700BF5C0E0020C7
:10252000074AD36823F4E0631B041B0C000200F489
:10253000E060034343F0BF6343F40033D36070476C
:1025400000ED00E000B5194BDB68C3F30223C3F1D3
:10255000070CBCF1040F28BF4FF0040C03F1040E6C
:10256000BEF1060F18D9033B4FF0FF3E0EFA0CFCEC
:1025700021EA0C0199400EFA03F322EA03031943FE
:1025800000280BDB0901C9B200F1604000F5614091
:1025900080F800135DF804FB0023E5E700F00F006E
:1025A0000901C9B2024B1954F4E700BF00ED00E085
:1025B00014ED00E0002807DB00F01F0240090123B2
:1025C0009340024A42F82030704700BF00E100E02B
:1025D00070B50446866DFFF79DFF94F83530DBB289
:1025E000022B06D080236365002384F83430012059
:1025F00070BD05462268136823F016031360226835
:10260000536923F080035361236CE3B1226813689C
:1026100023F0080313602268136823F0010313609A
:1026200023681B6813F0010F11D0FFF773FF431BE2
:10263000052BF5D920236365032084F8350000239A
:1026400084F83430D4E7A36C002BDFD1E3E7E26DEC
:102650003F239340B360012384F83530002084F891
:102660003400C5E790F83530DBB2022B03D080236D
:10267000436501207047052380F8353002681368F0
:1026800023F00103136000207047000000230F2B8C
:1026900000F2E48070B582B060E085685E000324DB
:1026A000B44025EA0405CC68B4402C4384604568F6
:1026B00025EA02054C68C4F300129A402A4342609E
:1026C0005AE0DC08083450F8246003F00702950053
:1026D0000F22AA4026EA020E0A69AA4042EA0E0226
:1026E00040F824205CE0072200E0002202FA0EF20B
:1026F0002A4302345A4D45F824205A4A94686FEA16
:102700000C0224EA0C054E6816F4801F01D04CEA36
:102710000405544CA560E46802EA04054E6816F40A
:10272000001F01D04CEA04054E4CE560646802EAE3
:1027300004054E6816F4003F01D04CEA0405494CEC
:102740006560246822404D6815F4803F01D04CEA52
:102750000402444C226001330F2B7DD801229A40A1
:102760000C6804EA020C32EA0404F4D14C6804F068
:102770000304013C012C90D94A6802F00302032AA9
:1027800009D0C4685D000322AA4024EA02048A68D2
:10279000AA402243C2604A6802F00302022A90D093
:1027A00004684FEA430E032202FA0EF224EA0204FE
:1027B0004A6802F0030202FA0EF2224302604A68FB
:1027C00012F4403FC7D000220192274A546C44F4CF
:1027D00080445464526C02F480420192019A9C0835
:1027E000A51C1F4A52F8255003F003024FEA820E3F
:1027F0000F2202FA0EF225EA02051C4A90423FF42B
:1028000074AF02F5806290421AD002F58062904265
:1028100018D002F58062904216D002F58062904294
:1028200014D002F58062904212D002F5806290428C
:1028300010D002F5806290423FF455AF082255E770
:10284000012253E7022251E703224FE704224DE71A
:1028500005224BE7062249E702B070BD704700BF72
:1028600000380140003C01400038024000000240B6
:102870000369194201D001207047002070470AB156
:10288000816170470904816170470000002800F0F1
:10289000E08170B582B00446036813F0010F3BD0AD
:1028A0009F4B9B6803F00C03042B2CD09C4B9B6824
:1028B00003F00C03082B21D06368B3F5803F4FD0A1
:1028C000B3F5A02F52D0964B1A6822F480321A60CA
:1028D0001A6822F480221A606368002B50D0FFF738
:1028E00019FE05468E4B1B6813F4003F14D1FFF709
:1028F00011FE401B6428F5D90320B1E1884B5B68C9
:1029000013F4800FD8D0864B1B6813F4003F03D01C
:102910006368002B00F09F81236813F0020F54D0EE
:102920007F4B9B6813F00C0F3ED07D4B9B6803F0F0
:102930000C03082B33D0E368002B68D0794B0122BD
:102940001A60FFF7E7FD0546754B1B6813F0020F91
:1029500054D1FFF7DFFD401B0228F5D903207FE1AA
:102960006F4A136843F480331360B5E76C4B1A6801
:1029700042F480221A601A6842F480321A60ABE78F
:10298000FFF7C8FD0546664B1B6813F4003FC3D034
:10299000FFF7C0FD401B6428F5D9032060E1604BC0
:1029A0005B6813F4800FC6D15D4B1B6813F0020FF8
:1029B00003D0E368012B40F05081594A136823F09B
:1029C000F803216943EAC1031360236813F0080F79
:1029D00042D063696BB3534B0122C3F8802EFFF7DB
:1029E00099FD05464E4B5B6F13F0020F34D1FFF794
:1029F00091FD401B0228F5D9032031E1484A1368B4
:102A000023F0F803216943EAC1031360DDE7454B76
:102A100000221A60FFF77EFD0546414B1B6813F04C
:102A2000020FD2D0FFF776FD401B0228F5D9032014
:102A300016E13C4B0022C3F8802EFFF76BFD0546E4
:102A4000374B5B6F13F0020F06D0FFF763FD401B9F
:102A50000228F5D9032003E1236813F0040F77D08F
:102A60002F4B1B6C13F0805F33D1002301932C4B51
:102A70001A6C42F080521A641B6C03F0805301936D
:102A8000019B0125284B1B6813F4807F23D0A3688A
:102A9000012B34D0052B38D0214B1A6F22F00102C4
:102AA0001A671A6F22F004021A67A368002B3DD040
:102AB000FFF730FD06461A4B1B6F13F0020F46D18D
:102AC000FFF728FD801B41F288339842F3D9032099
:102AD000C6E00025D6E7144A136843F480731360F8
:102AE000FFF718FD0646104B1B6813F4807FCED10C
:102AF000FFF710FD801B0228F5D90320B0E0084A3B
:102B0000136F43F001031367CFE7054B1A6F42F0D1
:102B100004021A671A6F42F001021A67C5E700BF84
:102B2000003802400000474200700040FFF7F2FC0E
:102B30000646524B1B6F13F0020F08D0FFF7EAFC5A
:102B4000801B41F288339842F3D9032088E0EDB925
:102B5000A369002B00F08380484A926802F00C02BF
:102B6000082A51D0022B17D0454B00221A66FFF7D6
:102B7000D1FC0446414B1B6813F0007F42D0FFF7A5
:102B8000C9FC001B0228F5D9032069E03B4A136CFD
:102B900023F080531364DBE7394B00221A66FFF7FA
:102BA000B9FC0546354B1B6813F0007F06D0FFF7D4
:102BB000B1FC401B0228F5D9032051E0E369226AE9
:102BC0001343626A43EA8213A26A5208013A43EA53
:102BD0000243E26A43EA0263284A5360284B012217
:102BE0001A66FFF797FC0446244B1B6813F0007F1E
:102BF00006D1FFF78FFC001B0228F5D903202FE038
:102C000000202DE000202BE0012B2BD01B4B5B681C
:102C100003F48001E269914226D103F03F02216A68
:102C20008A4223D1616A47F6C0721A40B2EB811F13
:102C30001ED103F44031A26A5208013AB1EB024FAF
:102C400018D103F07063E26AB3EB026F14D1002075
:102C500006E001207047012002E0012000E0002092
:102C600002B070BD0120FBE70120F9E70120F7E782
:102C70000120F5E70120F3E70120F1E700380240E9
:102C80000000474208B5314B9B6803F00C03042B4E
:102C900057D0082B57D12D4B5A6802F03F025B6882
:102CA00013F4800F2AD0294B5968C1F3881C4FEACE
:102CB0004C11B1EB0C006EEB0E0E4FEA8E1343EA93
:102CC00090638101091A63EB0E03DB0043EA517341
:102CD000C90011EB0C0C43F10003590200234FEA29
:102CE0004C2041EADC51FDF777FC184B5B68C3F3DD
:102CF000014301335B00B0FBF3F025E0134B59684F
:102D0000C1F3881C4FEA4C11B1EB0C006EEB0E0EB8
:102D10004FEA8E1343EA90638101091A63EB0E03B5
:102D2000DB0043EA5173C90011EB0C0C43F10003C3
:102D3000990200234FEA8C2041EA9C51FDF74CFC9C
:102D4000D3E7034800E0034808BD00BF0038024055
:102D500000127A000024F400002800F09B8070B577
:102D60000D4604464F4B1B6803F007038B4208D205
:102D7000CBB24C4A1370136803F007038B4240F048
:102D80008B80236813F0020F17D013F0040F04D0C8
:102D9000454A936843F4E0539360236813F0080FA7
:102DA00004D0414A936843F4604393603E4A936879
:102DB00023F0F003A1680B439360236813F0010F25
:102DC00032D06368012B21D09A1E012A25D9364AB8
:102DD000126812F0020F61D033498A6822F00302B0
:102DE00013438B60FFF796FB06462F4B9B6803F05F
:102DF0000C036268B3EB820F16D0FFF78BFB801BCE
:102E000041F288339842F0D9032042E0264A126802
:102E100012F4003FE0D101203BE0234A126812F097
:102E2000007FD9D1012034E01E4B1B6803F007035B
:102E3000AB4207D9EAB21B4B1A701B6803F00703B9
:102E4000AB422DD1236813F0040F06D0164A9368C5
:102E500023F4E053E1680B439360236813F0080FF9
:102E600007D0114A936823F46043216943EAC10300
:102E70009360FFF707FF0C4B9B68C3F303130B4AE8
:102E8000D35CD8400A4B18600A4B1868FEF734FD33
:102E9000002070BD012070470120FAE70120F8E70B
:102EA0000120F6E7003C0240003802408CCE0008CA
:102EB000040000200C000020014B1868704700BF80
:102EC0000400002008B5FFF7F7FF044B9B68C3F32D
:102ED0008223034AD35CD84008BD00BF00380240BB
:102EE0009CCE000808B5FFF7E7FF044B9B68C3F3CF
:102EF0004233034AD35CD84008BD00BF00380240CB
:102F00009CCE00080F2303600B4B9A6802F003026B
:102F100042609A6802F0F00282609A6802F4E0521D
:102F2000C2609B68DB0803F4E0530361034B1B683A
:102F300003F007030B60704700380240003C02407A
:102F400030B4036A026A22F00102026242688469B4
:102F500024F073040D682C4323F0020C8B6843EAC1
:102F60000C03104DA84203D005F58065A84205D199
:102F700023F00803CD682B4323F00403094DA84236
:102F800003D005F58065A84205D122F440724D6951
:102F90002A438D692A43426084614A68426303621E
:102FA00030BC70470000014030B4036A026A22F46A
:102FB000807202624268C46924F0730C0C6844EAAF
:102FC0000C0523F400738C6843EA0423114CA042DF
:102FD00003D004F58064A04206D123F40063CC68DA
:102FE00043EA042323F480630A4CA04203D004F58F
:102FF0008064A04207D122F440524C6942EA041294
:103000008C6942EA04124260C5614A68C263036285
:1030100030BC70470000014030B4036A026A22F4F9
:10302000805202624468C26922F4E6420D6842EAB4
:10303000052223F400538D6843EA0533094DA84265
:1030400003D005F58065A84204D124F480444D697D
:1030500044EA85144460C2614A680264036230BC79
:10306000704700BF0000014090F83D30DBB2012BFB
:1030700037D1022380F83D300268D36843F0010362
:10308000D3600368194A934220D0B3F1804F1DD01A
:10309000A2F57C42934219D002F58062934215D08A
:1030A00002F58062934211D002F5784293420DD02E
:1030B00002F57052934209D0A2F59432934205D0A2
:1030C0001A6842F001021A60002070479A6802F004
:1030D0000702062A07D01A6842F001021A6000208F
:1030E0007047012070470020704700BF000001407A
:1030F000704770477047704770B504460368DE68D4
:103100001D6915F0020F10D016F0020F0DD06FF0F0
:1031100002021A610123037703689B6913F0030F0E
:103120005ED0FFF7E6FF0023237715F0040F12D0DF
:1031300016F0040F0FD023686FF004021A61022307
:10314000237723689B6913F4407F4FD02046FFF715
:10315000D0FF0023237715F0080F12D016F0080FC8
:103160000FD023686FF008021A61042323772368C5
:10317000DB6913F0030F40D02046FFF7BAFF0023AE
:10318000237715F0100F12D016F0100F0FD0236810
:103190006FF010021A61082323772368DB6913F4A8
:1031A000407F31D02046FFF7A4FF0023237715F09E
:1031B000010F02D016F0010F2DD115F0800F02D0B3
:1031C00016F0800F2FD115F0400F02D016F0400FEF
:1031D00031D115F0200F02D016F0200F33D170BD81
:1031E000FFF786FF2046FFF785FF9CE72046FFF7A5
:1031F0007FFF2046FFF77EFFABE72046FFF778FF13
:103200002046FFF777FFBAE72046FFF771FF204619
:10321000FFF770FFC9E723686FF001021A612046CB
:10322000FEF7E0F8C9E723686FF080021A612046D4
:1032300000F040FBC7E723686FF040021A612046A8
:10324000FFF759FFC5E723686FF020021A61204697
:1032500000F02FFBC3E700000368344A904212D00D
:10326000B0F1804F0FD0A2F57C4290420BD002F516
:103270008062904207D002F58062904203D002F54E
:103280007842904203D123F070034A681343274ADF
:1032900090422AD0B0F1804F27D0A2F57C429042D4
:1032A00023D002F5806290421FD002F580629042E6
:1032B0001BD002F57842904217D002F5705290422E
:1032C00013D002F5806290420FD002F580629042E6
:1032D0000BD0A2F59832904207D002F5806290425E
:1032E00003D002F58062904203D123F44073CA6890
:1032F000134323F080034A69134303608B68C3625E
:103300000B688362094B984203D003F580639842AF
:1033100001D10B69036301234361036913F0010FBA
:1033200003D0036923F001030361704700000140EB
:1033300040B310B5044690F83D30F3B1022384F851
:103340003D30214651F8040BFFF786FF012384F836
:10335000463084F83E3084F83F3084F8403084F8BA
:10336000413084F8423084F8433084F8443084F8A3
:10337000453084F83D30002010BD80F83C30FEF729
:10338000CBFDDBE70120704740B310B5044690F851
:103390003D30F3B1022384F83D30214651F8040B4F
:1033A000FFF75AFF012384F8463084F83E3084F852
:1033B0003F3084F8403084F8413084F8423084F85B
:1033C000433084F8443084F8453084F83D300020A0
:1033D00010BD80F83C30FEF779FCDBE70120704738
:1033E000002856D0F8B50D46044690F83D30002B25
:1033F0004AD0022384F83D302268936823F4804346
:1034000023F007039360214651F8040BFFF724FFD4
:1034100021688A688B690E6A2868104323F4407C0F
:103420002CF0030CAA68AB6942EA032343EA0C03BD
:1034300023F47C4323F0FC03EA69EF6847EA022C9B
:103440004CEA030C2A6A13032A6943EA021343EA8B
:103450000C0326F0AA066A686D6942EA0512324337
:10346000886021688B6123681A62012384F84630E2
:1034700084F83E3084F83F3084F8423084F843309A
:1034800084F83D300020F8BD80F83C30FEF768FC41
:10349000AFE701207047000030B4036A026A22F0EF
:1034A000100202624468826922F4E6420D6842EA30
:1034B000052223F020038D6843EA0513114DA8422D
:1034C00003D005F58065A84206D123F08003CD68BE
:1034D00043EA051323F040030A4DA84203D005F543
:1034E0008065A84207D124F440644D6944EA85040C
:1034F0008D6944EA8504446082614A68826303629C
:1035000030BC70470000014038B590F83C30012BCA
:1035100066D004460D46012380F83C300C2A5AD868
:10352000DFE802F0075959591B595959305959596F
:1035300044000068FFF704FD2268936943F0080324
:1035400093612268936923F004039361226893696D
:1035500029690B43936100203EE00068FFF79CFF60
:103560002268936943F4006393612268936923F4AA
:103570008063936122689369296943EA0123936117
:10358000002029E00068FFF70FFD2268D36943F0AF
:103590000803D3612268D36923F00403D36122684E
:1035A000D36929690B43D361002015E00068FFF758
:1035B00033FD2268D36943F40063D3612268D36981
:1035C00023F48063D3612268D369296943EA012324
:1035D000D361002000E00120002384F83C3038BD96
:1035E0000220FCE701F01F01012303FA01FC036A3A
:1035F00023EA0C030362036A02FA01F10B4303623C
:103600007047000010B504460846002942D194F8DE
:103610003E30DBB2013B18BF0123002B6ED10028E6
:1036200051D1022384F83E30012201462068FFF781
:10363000D9FF2368334A934203D002F58062934254
:1036400003D15A6C42F400425A6423682D4A9342D3
:1036500049D0B3F1804F46D0A2F57C42934242D08C
:1036600002F5806293423ED002F5806293423AD0E6
:1036700002F57842934236D002F57052934232D02E
:10368000A2F5943293422ED01A6842F001021A60D9
:10369000002032E0042908D008290DD094F84130E8
:1036A000DBB2013B18BF0123B7E794F83F30DBB230
:1036B000013B18BF0123B0E794F84030DBB2013B77
:1036C00018BF0123A9E7042805D0082807D0022342
:1036D00084F84130A8E7022384F83F30A4E70223AE
:1036E00084F84030A0E79A6802F00702062A07D063
:1036F0001A6842F001021A60002010BD0120FCE7A8
:103700000020FAE70000014038B5044690F83E007A
:10371000C0B294F83F3094F84220D2B294F843C03B
:103720000D46B1B9012849D1012A48D1022384F8B4
:103730003E3084F842307DB3042D39D0012200217F
:103740002068FFF74FFF012204212068FFF74AFF9E
:1037500027E0DBB25FFA8CFC042912D0012833D1B8
:10376000012B2CD1012A31D1BCF1010F30D1022320
:1037700084F83E3084F83F3084F8423084F8433097
:10378000D9E7012B1CD1BCF1010F1BD1022384F816
:103790003F3084F84330CEE7012200212068FFF754
:1037A00021FF2268136843F001031360002006E044
:1037B000012204212068FFF715FFF2E7012038BD40
:1037C0000120FCE71846FAE70120F8E71846F6E77B
:1037D0001046F4E790F83C30012B3DD010B40123A3
:1037E00080F83C30022380F83D3003685A689C68BA
:1037F00022F0700C0A6842EA0C025A600368174A09
:1038000093421AD0B3F1804F17D0A2F57C42934275
:1038100013D002F5806293420FD002F5806293428A
:103820000BD002F57842934207D002F570529342D2
:1038300003D0A2F59432934204D124F080044A6864
:1038400014439C60012380F83D30002380F83C3015
:1038500018465DF8044B7047022070470000014095
:1038600090F83C30012B22D0012380F83C30CB680B
:1038700023F440738A68134323F480634A68134334
:1038800023F400630A68134323F480530A69134343
:1038900023F400534A69134323F48043CA69134352
:1038A00002685364002380F83C30184670470220B9
:1038B000704770477047026802F10C0353E8003FFD
:1038C00023F490730C3242E800310029F3D10268EE
:1038D00002F1140353E8003F23F00103143242E8DD
:1038E00000310029F3D1036B012B05D0202380F890
:1038F0004230002303637047026802F10C0353E86F
:10390000003F23F010030C3242E800310029F3D1CC
:10391000ECE790F84130DBB2212B01D00220704758
:103920008368B3F5805F17D0036A5A1C02621A7865
:1039300003685A60C38C9BB2013B9BB2C3844BB9F2
:103940000268D36823F08003D3600268D36843F031
:103950004003D360002070470369002BE4D1036A61
:103960001B880268C3F308035360036A02330362CF
:10397000E0E7000038B504460268136923F44053B9
:10398000C1680B431361836802691343426913439F
:10399000C2691A430168CB6823F4164323F00C0371
:1039A0001343CB600268536923F4407381690B436E
:1039B00053610368314A934206D002F58062934214
:1039C00002D0FFF77FFA01E0FFF78CFAE369B3F565
:1039D000004F29D00021031849411B1841F1000173
:1039E000C90041EA5371DB00181863684FEA83028B
:1039F0004FEA937341F10001FCF7EEFD204DA5FB6A
:103A000000325109642303FB11031B013233A5FB70
:103A100003235B0903F0F00202EB011203F00F0332
:103A2000216813448B6038BD0023021843EB030167
:103A3000121841F10001C90041EA5271D200101878
:103A400041F10001626892185B41FCF7C5FD0C4D25
:103A5000A5FB00325109642303FB1103DB00323361
:103A6000A5FB03235B095A0002F4F87202EB011272
:103A700003F00703216813448B60D4E70010014072
:103A80001F85EB512DE9F04383B005460E461746DE
:103A90009946DDF828802C68246836EA04030CBFB8
:103AA0004FF0010C4FF0000CBC4528D1B8F1FF3F9E
:103AB000F1D0FEF72FFDA0EB0900404523D8B8F167
:103AC000000F22D02B68DA6812F0040FE3D0802EAA
:103AD000E1D0402EDFD01A6812F0080FDBD00024AE
:103AE00001941A6801925B680193019B2846FFF7D5
:103AF000E2FE08236B6485F84040012000E00020CE
:103B000003B0BDE8F0830320FAE70320F8E760B3D1
:103B100010B5044690F8413013B3242384F84130A3
:103B20002268D36823F40053D3602046FFF722FFB6
:103B30002268136923F4904313612268536923F0C8
:103B40002A0353612268D36843F40053D3600020F2
:103B50006064202384F8413084F84230606310BDF3
:103B600080F84030FEF714FCD7E7012070472DE9BC
:103B7000F04182B01E4690F84130DBB2202B56D186
:103B800004460D469046002955D00AB901204FE061
:103B900000234364212380F84130FEF7BBFC074635
:103BA000A4F82480A4F82680A368B3F5805F02D02F
:103BB0004FF0000814E023692BB34FF000080FE02A
:103BC000202384F84130032032E038F8023B226899
:103BD000C3F308035360E28C92B2013A92B2E284DA
:103BE000E38C9BB293B100963B4600228021204695
:103BF000FFF748FF0028E3D1002DE6D015F8012B90
:103C000023685A60E7E7A8460025E9E700963B46A7
:103C1000002240212046FFF735FF18B9202384F801
:103C2000413005E0202384F84130032000E00220E9
:103C300002B0BDE8F0810120FAE72DE9F04182B041
:103C40001E4690F84230DBB2202B59D104460D4677
:103C50009046002958D00AB9012052E0002343645D
:103C6000222280F842200363FEF754FC0746A4F8A2
:103C70002C80A4F82E80A368B3F5805F02D04FF0AB
:103C800000081CE0236913B14FF0000817E0A846B4
:103C9000002514E0202384F84230032031E023681B
:103CA0005B68C3F3080328F8023B03E023685B6802
:103CB0002B700135E28D92B2013A92B2E285E38D2A
:103CC0009BB2C3B100963B46002220212046FFF75D
:103CD000D9FE0028DED1002DE1D0A368B3F5805FC6
:103CE000E4D013B92369002BE0D023685B6803F0AC
:103CF0007F032B70DDE7202384F84230002000E0B2
:103D0000022002B0BDE8F0810120FAE7704708B553
:103D10000168CA6822F04002CA60202280F841206F
:103D2000FFF7F4FF002008BD704708B5806B002343
:103D3000C385C384FFF7F8FF08BD704790F8423091
:103D4000DBB2222B69D18368B3F5805F4FD0826AE2
:103D5000B3F5805F04D0002B56D10369002B53D1FB
:103D600003685B681370836A01338362C38D9BB2FF
:103D7000013B9BB2C385002B51D100B583B00268D3
:103D8000D36823F02003D3600268D36823F48073E0
:103D9000D3600268536923F001035361202380F844
:103DA000423000234363036B012B33D100230363B1
:103DB000026802F10C0353E8003F23F010030C32B9
:103DC00042E800310029F3D103681A6812F0100F9D
:103DD00006D0002201921A6801925B680193019B50
:103DE000818DFFF7AAFF002003B05DF804FB026994
:103DF000002AACD1826A03685B68C3F308031380AE
:103E0000836A02338362B1E703685B6803F07F0370
:103E10001370A8E7FDF7A2FAE5E70220704700203B
:103E20007047000030B583B0044602681368D0685C
:103E3000516913F00F0505D113F0200F02D010F0D7
:103E4000200F19D12DB111F0010119D110F4907F7B
:103E500016D1216B01297DD013F0800F03D010F013
:103E6000800F40F0198113F0400F03D010F0400F85
:103E700040F0168103B030BD2046FFF75FFFF9E741
:103E800013F0010F06D010F4807F03D0626C42F073
:103E90000102626413F0040F04D019B1626C42F0A5
:103EA0000202626413F0020F04D019B1626C42F096
:103EB0000402626413F0080F07D010F0200F00D145
:103EC00019B1626C42F008026264626C002AD1D0BF
:103ED00013F0200F02D010F0200F29D123685B6966
:103EE00003F04003626C12F0080F00D163B3204668
:103EF000FFF7E1FC23685B6913F0400F20D02268D4
:103F000002F1140353E8003F23F04003143242E867
:103F100000310029F3D1E36B73B1634A1A65E06B9A
:103F2000FEF7A0FB0028A5D0E06B036D9847A1E742
:103F30002046FFF703FFD1E72046FFF7F5FE99E79C
:103F40002046FFF7F1FE95E72046FFF7EDFE002340
:103F500063648FE713F0100F3FF47EAF10F0100F83
:103F60003FF47AAF002301931368019353680193E0
:103F7000019B536913F0400F52D0E26B13685B68EA
:103F80009BB2002B3FF476AFA18D99427FF672AFC2
:103F9000E385D369B3F5807F37D0226802F10C0343
:103FA00053E8003F23F480730C3242E800310029CB
:103FB000F3D1226802F1140353E8003F23F0010318
:103FC000143242E800310029F3D1226802F11403CF
:103FD00053E8003F23F04003143242E80031002947
:103FE000F3D1202384F8423000232363226802F1B6
:103FF0000C0353E8003F23F010030C3242E8003179
:104000000029F3D1E06BFEF7E3FA02236363A18D8D
:10401000E38D9BB2C91A89B22046FFF78EFE29E7CD
:10402000A18DE38D9BB2C91A89B2E38D9BB2002B9F
:104030003FF420AF00293FF41DAF226802F10C03CA
:1040400053E8003F23F490730C3242E8003000281C
:10405000F3D1226802F1140353E8003F23F0010377
:10406000143242E800300028F3D1202384F8423093
:1040700000232363226802F10C0353E8003F23F07E
:1040800010030C3242E800300028F3D102236363AE
:104090002046FFF752FEEDE62046FFF73AFCE9E640
:1040A0002046FFF734FEE5E62B3D0008816282855D
:1040B000C28500234364222380F84230036923B180
:1040C0000268D36843F48073D3600268536943F095
:1040D000010353610268D36843F02003D3600020DA
:1040E000704708B590F84230DBB2202B08D149B1B7
:1040F0000AB9012008BD00230363FFF7D7FFF9E7E2
:104100000220F7E70120F5E708B54FF0E0231B692F
:1041100001F034FC012800D108BD00F0D3F9FBE721
:10412000EFF305832BB9064B186828B901221A60F2
:1041300070476FF0050070474FF0FF30704700BFC9
:10414000E8140020EFF3058373B90A4B1B68012BB9
:104150000DD110B50024084BDC77064B02221A6003
:1041600001F05CF9204610BD6FF0050070474FF07C
:10417000FF307047E814002000ED00E0F0B587B094
:1041800000240594EFF305847CBB70B32AB3156853
:10419000936903B918235C1E372C4AD8546814F06D
:1041A000010F48D1566976B14FEA960C946834B144
:1041B000D768B7F5916F02D3176907B1C6B92CB1AB
:1041C0004FF0FF340EE04FF0800CEFE7D4688CB96D
:1041D000146994B14FF0FF3404E01546002418230D
:1041E0004FF0800C012C0AD0ACB1059807B0F0BD9F
:1041F0000124F7E74FF0FF34F4E70024F2E71469F5
:1042000092680292019400930B466246294601F09F
:1042100093F80590E9E705AA019200930B461FFA6F
:104220008CF2294601F0C5F80128DED00023059361
:10423000DBE70020DAE70020D8E708B5EFF30583D5
:1042400033B908B9002008BD01F054FA0020FAE79C
:104250006FF00500F7E70000034B0360034B0B60B2
:1042600080231360704700BF60100020600E0020A4
:10427000034B0360034B0B604FF480731360704774
:10428000F0180020EC14002000F1080343604FF008
:10429000FF328260C3600361002303607047002324
:1042A0000361704743684B609A688A605160996007
:1042B0000861036801330360704730B40D68B5F1DD
:1042C000FF3F11D000F108031C465B681A68AA4240
:1042D000FAD963684B6099608C606160086103681B
:1042E0000133036030BC70470469F2E70369416839
:1042F00082688A60416851605A68824206D0002212
:1043000002611A68013A1A601868704782685A6038
:10431000F5E7000082B0002301930D4B1B68B3F159
:10432000FF3F08D04FF0500383F31188BFF36F8F26
:10433000BFF34F8FFEE74FF0500383F31188BFF3B5
:104340006F8FBFF34F8F019B002BFCD002B07047E3
:104350001000002008480068006880F308884FF0CB
:10436000000080F3148862B661B6BFF34F8FBFF3CD
:104370006F8F00DF00BF000008ED00E0DFF80C00E9
:10438000016841F4700101607047000088ED00E0B1
:104390004FF0807340F8043C21F0010140F8081C04
:1043A000054B40F80C3C40F8202C6FF0020340F81D
:1043B000243C4438704700BF15430008000000004B
:1043C000074B19680868B0E8F04F80F30988BFF31D
:1043D0006F8F4FF0000080F311887047AFF30080BB
:1043E000E05900204FF0500383F31188BFF36F8F23
:1043F000BFF34F8F0B4A136801331360012B00D0BA
:1044000070474FF0E023D3F8043D13F0FF0FF7D0CF
:104410004FF0500383F31188BFF36F8FBFF34F8FBB
:10442000FEE700BF10000020094B1B6843B94FF0A6
:10443000500383F31188BFF36F8FBFF34F8FFEE7F5
:10444000013B034A13600BB983F31188704700BF27
:10445000100000200000000000000000000000002C
:10446000EFF30980BFF36F8F154B1A681EF0100F22
:1044700008BF20ED108A20E9F04F10602DE90900F7
:104480004FF0500080F31188BFF34F8FBFF36F8F51
:1044900001F056F94FF0000080F3118809BC19684B
:1044A0000868B0E8F04F1EF0100F08BFB0EC108A9B
:1044B00080F30988BFF36F8F704700BFAFF30080B0
:1044C000E059002008B54FF0500383F31188BFF383
:1044D0006F8FBFF34F8F01F005F828B14FF0E02345
:1044E0004FF08052C3F8042D002383F3118808BDD8
:1044F0004FF0E022002313619361054B1B680549CF
:10450000A1FB03139B09013B536107231361704710
:1045100004000020D34D62104FF0E023D3F8002DAB
:104520003D4B9A421CD04FF0E023D3F8002D3B4B7B
:104530009A421ED030B583B0394B1A78D2B201926C
:10454000FF221A701B78DBB28DF803309DF8033020
:1045500003F05003334A1370334B07221A601BE0F9
:104560004FF0500383F31188BFF36F8FBFF34F8F6A
:10457000FEE74FF0500383F31188BFF36F8FBFF353
:104580004F8FFEE7284A1368013B13609DF8033004
:104590005B00DBB28DF803309DF8033013F0800F21
:1045A000F0D1214B1B68032B08D04FF0500383F34D
:1045B0001188BFF36F8FBFF34F8FFEE71B021A4ABC
:1045C000136003F4E0631360019BDBB2144A1370C1
:1045D0004FF0E024D4F8203D43F47003C4F8203DAC
:1045E000D4F8203D43F07043C4F8203DFFF780FF2E
:1045F00000250E4B1D60FFF7C1FED4F8343F43F099
:104600004043C4F8343FFFF7A5FE01F099F8FFF7E7
:1046100081FE284603B030BD71C20F4170C20F4108
:1046200000E400E0781D00207C1D00201000002028
:10463000EFF305830F2B0FD9114A9B5CDBB2114AB4
:1046400012789A4208D94FF0500383F31188BFF3D0
:104650006F8FBFF34F8FFEE74FF0E023D3F80C3D91
:1046600003F4E063084A1268934208D94FF05003FC
:1046700083F31188BFF36F8FBFF34F8FFEE770474F
:10468000F0E300E0781D00207C1D0020124A12F0AB
:10469000070F1ED0D11D21F00701C1F5705313443F
:1046A0000A460E480260002141601344083B23F093
:1046B00007030B48036059601960991A5160136031
:1046C000084B1960084B1960084B4FF000421A6004
:1046D00070474FF47053E4E7841D00209859002080
:1046E000801D00208C59002088590020845900200A
:1046F000164B1A461B688342FBD3516802EB010C30
:10470000844509D0416800EB010C634509D0036082
:10471000904219D0106070474068014451601046C3
:10472000F0E710B40A4C2468A3420BD05B6819442C
:10473000416013681B680360904200D010605DF810
:10474000044B70470460F7E7704700BF985900209A
:10475000801D002070B5054600F0B6FE364B1B6884
:10476000A3B1364B1B681D424ED135B1083515F04B
:10477000070F02D025F007050835002D46D0304B35
:104780001B68AB4251D32F4A146804E0FFF77EFF49
:10479000E7E722461C466368AB4202D22368002B3F
:1047A000F7D1254B1B68A34241D016680836236811
:1047B000136063685B1B102B10D9601910F0070F92
:1047C00008D04FF0500383F31188BFF36F8FBFF30E
:1047D0004F8FFEE743606560FFF78AFF6268184904
:1047E0000B689B1A0B60184909688B4201D2164965
:1047F0000B60124B1B681343636000232360134A52
:1048000013680133136002E0002600E0002600F088
:10481000F5FE16F0070F0CD04FF0500383F311880C
:10482000BFF36F8FBFF34F8FFEE70026EFE7002641
:10483000EDE7304670BD00BF801D00208459002088
:1048400088590020985900208C5900209059002048
:10485000002834D038B50446A0F1080550F8043CCF
:10486000174A1268134208D14FF0500383F311889E
:10487000BFF36F8FBFF34F8FFEE750F8081C41B1B5
:104880004FF0500383F31188BFF36F8FBFF34F8F47
:10489000FEE723EA020340F8043C00F015FE54F85A
:1048A000041C084A13680B4413602846FFF720FFD6
:1048B000054A13680133136000F0A0FE38BD70474D
:1048C00084590020885900209459002010B50446CE
:1048D000FFF788FDA26BE36B9A4204D00024FFF738
:1048E000A3FD204610BD0124F9E710B50446FFF7EB
:1048F00079FDA36B23B90124FFF796FD204610BD77
:104900000024F9E770B504461546866B026C5AB967
:1049100003681BB100200136A66370BD806801F0FA
:104920003DF80023A360F6E76DB94068FBF7D6FFBA
:10493000226C636813446360A268934219D32368AE
:1049400063602846E7E7C068FBF7C8FF226C514266
:10495000E3689B1AE3602268934202D2A3680B4487
:10496000E360022D01D00020D5E726B1013E0020F2
:10497000D1E72846CFE70020CDE70346026C6AB1B5
:1049800010B50846D9681144D9609C68A14201D38A
:104990001968D960D968FBF7A1FF10BD704738B519
:1049A0000546FFF71FFD95F8454064B201E0013C64
:1049B00064B2002C0ADD6B6A43B105F1240000F0FB
:1049C00043FF0028F3D000F0D3FFF0E7FF2385F882
:1049D0004530FFF729FDFFF705FD95F8444064B227
:1049E00001E0013C64B2002C0ADD2B6943B105F102
:1049F000100000F029FF0028F3D000F0B9FFF0E725
:104A0000FF2385F84430FFF70FFD38BD38B5E0B11E
:104A10000D460446FFF7E6FC2368E26B216C01FBC0
:104A20000230A0600020A0636360013A02FB013302
:104A3000E360FF2384F8443084F84530FDB92369EE
:104A400063B9FFF7F1FC012038BD4FF0500383F349
:104A50001188BFF36F8FBFF34F8FFEE704F1100093
:104A600000F0F2FE0028ECD04FF0E0234FF080522F
:104A7000C3F8042DBFF34F8FBFF36F8FE1E704F14D
:104A80001000FFF701FC04F12400FFF7FDFBD8E75D
:104A900038B51D46049C0B4649B92460E063236485
:104AA00001212046FFF7B2FF84F84C5038BD226048
:104AB000F4E740B94FF0500383F31188BFF36F8FD1
:104AC000BFF34F8FFEE710B584B01C46844653B148
:104AD00092B189B94FF0500383F31188BFF36F8F00
:104AE000BFF34F8FFEE74FF0500383F31188BFF3FE
:104AF0006F8FBFF34F8FFEE76AB150230393039B81
:104B0000502B13D04FF0500383F31188BFF36F8FF6
:104B1000BFF34F8FFEE70029EFD04FF0500383F330
:104B20001188BFF36F8FBFF34F8FFEE7039B012305
:104B300084F8463000949DF818306046FFF7A8FFCF
:104B4000204604B010BD40B94FF0500383F31188E4
:104B5000BFF36F8FBFF34F8FFEE7F0B583B00D4605
:104B60001446064601FB00F05030FFF7F3FD074600
:104B700050B1002380F846300090234600F15002E7
:104B800029463046FFF784FF384603B0F0BDF0B544
:104B900085B0019288B10F461D460446B1B1022D81
:104BA00020D1E36B012B1DD04FF0500383F311880C
:104BB000BFF36F8FBFF34F8FFEE74FF0500383F3C8
:104BC0001188BFF36F8FBFF34F8FFEE7036C002B8D
:104BD000E5D04FF0500383F31188BFF36F8FBFF31D
:104BE0004F8FFEE700F0CAFE064658B9019B002B26
:104BF00048D04FF0500383F31188BFF36F8FBFF39A
:104C00004F8FFEE700263DE02A4639462046FFF753
:104C100079FE636A7BB948B14FF0E0234FF08052D0
:104C2000C3F8042DBFF34F8FBFF36F8FFFF7FCFB6B
:104C3000012005B0F0BD04F1240000F005FE0028BD
:104C4000F4D04FF0E0234FF08052C3F8042DBFF3AF
:104C50004F8FBFF36F8FE9E7FFF7E6FB0020E8E730
:104C600002A800F037FE012619E0002384F8443042
:104C700021E0002384F8453023E02046FFF78FFE33
:104C800000F0BCFCFFF7AEFBA26BE36B9A42BBD318
:104C9000022DB9D0019B002BDED0002EE0D0FFF713
:104CA000C3FB00F011FCFFF79DFB94F8442052B2C7
:104CB000B2F1FF3FD9D094F8452052B2B2F1FF3F94
:104CC000D7D0FFF7B1FB01A902A800F00FFED8B9B9
:104CD0002046FFF7FBFD0028CFD0019904F110001A
:104CE00000F07EFD2046FFF75AFE00F087FC00280A
:104CF000C8D14FF0E0234FF08052C3F8042DBFF32A
:104D00004F8FBFF36F8FBDE72046FFF748FE00F0DF
:104D100075FC00208DE72DE9F84390B10F4616464B
:104D20001C460546B1B1022C20D1EB6B012B1DD0E6
:104D30004FF0500383F31188BFF36F8FBFF34F8F92
:104D4000FEE74FF0500383F31188BFF36F8FBFF37B
:104D50004F8FFEE7036C002BE5D04FF0500383F339
:104D60001188BFF36F8FBFF34F8FFEE7FFF760FC33
:104D7000EFF311894FF0500383F31188BFF36F8F66
:104D8000BFF34F8FAA6BEB6B9A4206D3022C04D071
:104D9000002089F31188BDE8F88395F845804FFA23
:104DA00088F8AB6B224639462846FFF7ABFDB8F1D1
:104DB000FF3F06D008F101035BB285F845300120C2
:104DC000E7E76B6A0BB90120E3E705F1240000F087
:104DD0003BFD18B126B101203060DAE70120D8E7A9
:104DE0000120D6E7F0B585B0019290B10F46044698
:104DF000C1B100F0C3FD064600BB019B002B5ED095
:104E00004FF0500383F31188BFF36F8FBFF34F8FC1
:104E1000FEE74FF0500383F31188BFF36F8FBFF3AA
:104E20004F8FFEE7036C002BE3D04FF0500383F36A
:104E30001188BFF36F8FBFF34F8FFEE700263EE070
:104E400039462046FFF799FD013DA563236923B943
:104E5000FFF7EAFA012005B0F0BD04F1100000F000
:104E6000F3FC0028F4D04FF0E0234FF08052C3F859
:104E7000042DBFF34F8FBFF36F8FE9E7FFF7D4FA2D
:104E80000020E8E702A800F025FD012621E000232C
:104E900084F8443029E0002384F845302BE0204694
:104EA000FFF77DFD00F0AAFB09E02046FFF777FD44
:104EB00000F0A4FB2046FFF718FD00283FD1FFF7C4
:104EC00091FAA56B002DBBD1019B002BD6D0002EF3
:104ED000D8D0FFF7A9FA00F0F7FAFFF783FA94F8B1
:104EE00044305BB2B3F1FF3FD1D094F845305BB2B0
:104EF000B3F1FF3FCFD0FFF797FA01A902A800F066
:104F0000F5FC0028D1D12046FFF7EFFC0028C6D0E1
:104F1000019904F1240000F063FC2046FFF73FFDF7
:104F200000F06CFB0028CAD14FF0E0234FF0805214
:104F3000C3F8042DBFF34F8FBFF36F8FBFE700207F
:104F400089E700000023072B0CD8074A52F83320CA
:104F50000AB10133F7E7044A42F8331002EBC30306
:104F600058607047704700BFA059002070B50446D4
:104F70000D461646FFF736FA94F844305BB2B3F1AB
:104F8000FF3F0DD094F845305BB2B3F1FF3F0BD03B
:104F9000FFF74AFAA36B5BB12046FFF700FD70BD37
:104FA000002384F84430EDE7002384F84530EFE730
:104FB0003246294604F1240000F02AFCECE7000008
:104FC000084B1B681B6823B9074B4FF0FF321A6070
:104FD0007047044B1B68DB68DB685A68024B1A6039
:104FE000704700BFE45900208C5E00202DE9F04797
:104FF00080460D4617469946089EDDF824A00A9C77
:105000009200A521206B01F0A3FD236B07F18042E4
:10501000013A03EB820727F00707002D65D04FF018
:10502000000CBCF10F0F0BD815F80C2004EB0C038F
:1050300083F8342015F80C3013B10CF1010CF0E7B3
:10504000002384F84330372E00D93726E662E66421
:1050500000252565201DFFF722F904F11800FFF750
:105060001EF92461C6F13806A6616462C4F8805452
:1050700084F884544FF48562294604F1580001F005
:1050800067FD04F55173E36504F56B73236604F261
:105090001443636601220023C4E9402343F20E3324
:1050A000A4F808314AF6CD33A4F80A3141F234238A
:1050B000A4F80C314EF26D63A4F80E314DF6EC639A
:1050C000A4F810310523A4F812310B23A4F81431ED
:1050D0004A4641463846FFF75BF92060BAF1000FB7
:1050E00001D0CAF80040BDE8F087002384F83430CE
:1050F000A9E7000038B5002407E004EB8402930020
:105100000E481844FFF7C0F80134372CF5D90C4D80
:105110002846FFF7B9F80B4C2046FFF7B5F80A48C8
:10512000FFF7B2F80948FFF7AFF80948FFF7ACF806
:10513000084B1D60084B1C6038BD00BFEC590020B7
:10514000605E0020745E0020985E0020C45E002037
:10515000B05E0020E4590020E859002010B5044654
:10516000FFF740F9224A136801331360214B1B6893
:105170005BB1214B1B686BB91E4B1B68DA6AE36A93
:105180009A4207D81B4B1C6004E01A4B1C60136842
:10519000012B29D0194A1368013313606364E06A54
:1051A000174B1B68984201D9154B186000EB800023
:1051B000211D144B03EB8000FFF774F8FFF734F95F
:1051C0000D4B1B687BB10B4B1B68DA6AE36A9A4292
:1051D00009D24FF0E0234FF08052C3F8042DBFF303
:1051E0004F8FBFF36F8F10BDFFF784FFD2E700BF73
:1051F0004C5E0020E0590020AC5E0020585E00208C
:105200005C5E0020EC59002010B50446583001F0D7
:1052100029FD94F8853463B1012B11D0022B0ED0F7
:105220004FF0500383F31188BFF36F8FBFF34F8F9D
:10523000FEE7206BFFF70CFB2046FFF709FB10BDD4
:105240002046FFF705FBFAE70F4B1B68D3B110B5FB
:10525000FFF7C8F80D4BDB68DC68201DFFF746F848
:105260000B4A1368013B1360074A1368013B136044
:10527000FFF7DAF82046FFF7C7FF034B1B68002B48
:10528000E6D110BD704700BF505E0020C45E002014
:105290004C5E002008B5FFF7D7FF074B1B68012BBA
:1052A000F9D94FF0E0234FF08052C3F8042DBFF33B
:1052B0004F8FBFF36F8FEEE7EC59002070B50446B7
:1052C0000D46174B1E68174B18680430FFF70EF891
:1052D000B4F1FF3F0DD03444124B1B685C60A64212
:1052E00010D9114B18680F4B19680431FEF7E5FF10
:1052F00070BD002DEFD00B4B196804310B48FEF741
:10530000D1FFF5E70A4B1868064B19680431FEF720
:10531000D4FF084B1B68A342EAD9064B1C60E7E7A1
:10532000D85E0020E0590020E8590020B05E00203F
:10533000E45900208C5E002030B587B00B9C8CB106
:105340000C9DC5B14FF491650495049DB5F5916F21
:105350001AD04FF0500383F31188BFF36F8FBFF360
:105360004F8FFEE74FF0500383F31188BFF36F8F29
:10537000BFF34F8FFEE74FF0500383F31188BFF365
:105380006F8FBFF34F8FFEE7049D0C9D2C630224AB
:1053900085F8854400240394029505AC01940A9C89
:1053A0000094FFF723FE0C98FFF7D8FE059807B08E
:1053B00030BD2DE9F04385B00746884614461E46A9
:1053C0009000FFF7C7F908B381464FF49160FFF7EB
:1053D000C1F90546B0B1C0F83090E5B1002385F8B9
:1053E0008534039302950D9B01930C9B00933346E8
:1053F000224641463846FFF7F9FD2846FFF7AEFE44
:10540000012005E04846FFF723FAE6E74FF0FF30BA
:1054100005B0BDE8F0834FF0FF30F9E710B588B074
:1054200000240594069407AA06A905A8FEF714FF10
:10543000059B0293069B019300942346079A1A4901
:105440001A48FFF779FF1A4B186040B100F05AFB79
:10545000012806D0B0F1FF3F1DD008B010BD0020DC
:10546000F6E74FF0500383F31188BFF36F8FBFF35C
:105470004F8F104B1B6858330F4A13600F4B4FF080
:10548000FF321A600E4B01221A600E4B00221A6086
:10549000FFF742F8E1E74FF0500383F31188BFF3C1
:1054A0006F8FBFF34F8FFEE7A4CE00089552000820
:1054B000885E0020E0590020380000208C5E00202B
:1054C000AC5E0020D85E0020024A136801331360EE
:1054D000704700BF545E0020014B1868704700BF42
:1054E000D85E0020F8B53A4B1B68002B69D1394BC8
:1054F0001D6801351D60C5B9374B1B681B6843B17A
:105500004FF0500383F31188BFF36F8FBFF34F8FBA
:10551000FEE7314A1168314B186810601960304A53
:10552000136801331360FFF74BFD2E4B1B68AB4232
:105530003DD900272C4B1B68DB6A03EB83039A00E1
:105540002A4B9B58012B00D90127294B1B68002BA4
:105550003CD001273AE001271F4B1B681B6843B36F
:105560001D4B1B68DB68DC6863689D4226D3261DE3
:105570003046FEF7BBFEA36A1BB104F11800FEF72C
:10558000B5FEE36A1B4A1268934201D9194A1360B7
:1055900003EB83039A00314614481044FEF782FE61
:1055A000E26A114B1B68DB6A9A42D4D2D4E7002727
:1055B000D2E70C4B4FF0FF321A60BBE7094A136089
:1055C000B8E70D4A13680133136000273846F8BD69
:1055D000545E0020D85E0020E4590020E8590020E5
:1055E000905E00208C5E0020E0590020EC590020E5
:1055F000DC5E00205C5E0020945E002038B5354BF8
:105600001B6843B94FF0500383F31188BFF36F8FCA
:10561000BFF34F8FFEE7FEF7E5FE2E4B1A68013A07
:105620001A601B68002B4FD12B4B1B680BB9002451
:105630004BE00024294B1B681BB3284BDB68DC685C
:1056400004F11800FEF752FE251D2846FEF74EFE17
:10565000E06A234B1B68984201D9214B186000EB8C
:10566000800029461F4B03EB8000FEF71BFEE26A19
:105670001D4B1B68DB6A9A42DCD31C4B01221A606B
:10568000D8E70CB1FFF79CFC194B1C6884B9174B89
:105690001C68D4B14FF0E0234FF08052C3F8042DC2
:1056A000BFF34F8FBFF36F8F01240EE0013C07D093
:1056B000FFF718FF0028F9D00C4B01221A60F5E71C
:1056C0000B4B00221A60E2E70024FEF7ADFE2046F5
:1056D00038BD00BF545E00204C5E0020985E002064
:1056E0005C5E0020EC590020E0590020DC5E0020C8
:1056F000945E002010B5A8B10446104B1B6843B15E
:105700004FF0500383F31188BFF36F8FBFF34F8FB8
:10571000FEE7FFF7D9FE00212046FFF7CFFDFFF798
:105720006DFF48B94FF0E0234FF08052C3F8042DCD
:10573000BFF34F8FBFF36F8F10BD00BF545E0020CB
:10574000214B1B681BB1214B01221A6070471F4B74
:1057500000221A601E4B1B6803EB83018A001D495F
:105760008A585AB90BB1013BF6E74FF0500383F367
:105770001188BFF36F8FBFF34F8FFEE703EB8300FA
:1057800082000A4450684068506003EB830C4FEA83
:105790008C020832114488420FD003EB830291003F
:1057A0000C4A0A445268D1680B4A116008490B60E0
:1057B00013685833094A1360704740686246910085
:1057C000044A0A445060E8E7545E0020DC5E002092
:1057D0005C5E0020EC590020E059002038000020D9
:1057E00058B110B50C46094A11681831FEF765FD2D
:1057F00001212046FFF762FD10BD4FF0500383F3F7
:105800001188BFF36F8FBFF34F8FFEE7E059002081
:1058100038B570B10D4614460A4A11681831FEF7C2
:1058200041FD0CB14FF0FF3521462846FFF746FDFC
:1058300038BD4FF0500383F31188BFF36F8FBFF370
:105840004F8FFEE7E059002038B5C368DC6824B309
:1058500004F118052846FEF749FD184B1B682BBBC1
:10586000251D2846FEF742FDE06A154B1B6898424D
:1058700001D9134B186000EB80002946114B03EB54
:105880008000FEF70FFDE26A0F4B1B68DB6A9A424D
:1058900011D901200D4B186038BD4FF0500383F330
:1058A0001188BFF36F8FBFF34F8FFEE7294608487B
:1058B000FEF7F8FCE7E70020EEE700BF545E0020AB
:1058C0005C5E0020EC590020E0590020DC5E0020E6
:1058D000985E0020034B1B680360034B1B6843600A
:1058E000704700BF905E0020D85E0020F8B5C8B1B8
:1058F0000C460546F9B1FEF775FD1B4B19686B6840
:10590000C81A2268B2F1FF3F26D0184E36682F68B9
:10591000B74201D08B4224D9824215D8002323609C
:1059200001241AE04FF0500383F31188BFF36F8F07
:10593000BFF34F8FFEE74FF0500383F31188BFF39F
:105940006F8FBFF34F8FFEE75B1A13442360284627
:10595000FFF7C0FF002400E00024FEF765FD2046AD
:10596000F8BD0124F9E700BFD85E0020905E00205A
:10597000014B01221A607047DC5E0020054B1B685A
:1059800033B1054B1B680BB10020704702207047F4
:1059900001207047AC5E0020545E002000283BD000
:1059A00038B504461E4B1B68834208D04FF05003A5
:1059B00083F31188BFF36F8FBFF34F8FFEE7036D43
:1059C00043B94FF0500383F31188BFF36F8FBFF3D8
:1059D0004F8FFEE7013B0365C16AC26C91421DD047
:1059E0000BB1002038BD051D2846FEF77FFCE06C9A
:1059F000E062C0F13803A3610A4B1B68984201D9E9
:105A0000084B186000EB80002946074B03EB800031
:105A1000FEF748FC0120E5E7002070470020E1E7A1
:105A2000E05900205C5E0020EC590020064B1A680B
:105A300013682BB90123036023B9D3681868704732
:105A40000023F8E700207047E05E002008B54160C1
:105A5000006191420CD8D21A83699A4201D3012085
:105A600008BD011D094B1868FEF727FC0020F7E769
:105A70009A4201D2994206D2011D054B1868FEF7E1
:105A80001CFC0020ECE70120EAE700BFE45E0020F8
:105A9000E05E002030B583B0FEF7A4FC114B1B681C
:105AA0001BB1FEF7C1FC03B030BD0F4D2846FEF719
:105AB000EBFB0E4C2046FEF7E7FB0D4B1D600D4B3C
:105AC0001C60002300930C4B0C4A10210A20FEF7A7
:105AD000F0FF044B18600028E3D00949FFF732FAC1
:105AE000DFE700BF04600020885F00209C5F00208B
:105AF000E05E0020E45E0020B45F0020E85E00204D
:105B0000ACCE000810B588B0FFF7C4FF124B1B687D
