:020000040800F2
:100000000000022031460008A9360008AB3600087F
:10001000AD360008AF360008B13600080000000019
:10002000000000000000000000000000E173000874
:10003000B336000800000000817400080772000851
:100040008146000881460008814600088146000874
:100050008146000881460008814600088146000864
:100060008146000881460008814600088146000854
:10007000B536000881460008814600088146000820
:10008000C536000881460008814600088146000800
:100090008146000881460008814600088146000824
:1000A000D5360008ED3600080537000881460008FF
:1000B0001D3700082D3700083D370008814600082D
:1000C00081460008814600088146000881460008F4
:1000D00081460008814600084D3700085D3700085A
:1000E00081460008814600088146000875370008EF
:1000F0008D3700089D3700088146000881460008BA
:100100008146000881460008AD3700088146000896
:100110008146000881460008BD370008CD37000839
:10012000DD370008ED3700088146000881460008E9
:100130008146000881460008814600088146000883
:100140008146000881460008814600088146000873
:1001500081460008FD370008814600081538000870
:100160008146000881460008814600088146000853
:100170008146000881460008814600080000000012
:080180008146000881460008D9
:1001C00081F0004102E000BF83F0004330B54FEA08
:1001D00041044FEA430594EA050F08BF90EA020F75
:1001E0001FBF54EA000C55EA020C7FEA645C7FEA08
:1001F000655C00F0E2804FEA5454D4EB5555B8BF2B
:100200006D420CDD2C4480EA020281EA030382EA9B
:10021000000083EA010180EA020281EA0303362D2D
:1002200088BF30BD11F0004F4FEA01314FF4801C00
:100230004CEA113102D0404261EB410113F0004F12
:100240004FEA03334CEA133302D0524263EB4303C9
:1002500094EA050F00F0A780A4F10104D5F1200E67
:100260000DDB02FA0EFC22FA05F2801841F10001C2
:1002700003FA0EF2801843FA05F359410EE0A5F196
:1002800020050EF1200E012A03FA0EFC28BF4CF0C7
:10029000020C43FA05F3C01851EBE37101F000457D
:1002A00007D54FF0000EDCF1000C7EEB00006EEB8A
:1002B0000101B1F5801F1BD3B1F5001F0CD3490814
:1002C0005FEA30004FEA3C0C04F101044FEA44526B
:1002D00012F5800F80F09A80BCF1004F08BF5FEAF2
:1002E000500C50F1000041EB045141EA050130BDD2
:1002F0005FEA4C0C404141EB0101013C28BFB1F5E4
:10030000801FE9D291F0000F04BF01460020B1FA2E
:1003100081F308BF2033A3F10B03B3F120020CDA01
:100320000C3208DD02F1140CC2F10C0201FA0CF0DF
:1003300021FA02F10CE002F11402D8BFC2F1200C44
:1003400001FA02F120FA0CFCDCBF41EA0C019040FA
:10035000E41AA2BF01EB0451294330BD6FEA040443
:100360001F3C1CDA0C340EDC04F11404C4F120022E
:1003700020FA04F001FA02F340EA030021FA04F340
:1003800045EA030130BDC4F10C04C4F1200220FA97
:1003900002F001FA04F340EA0300294630BD21FAD5
:1003A00004F0294630BD94F0000F83F4801306BF9B
:1003B00081F480110134013D4EE77FEA645C18BF8F
:1003C0007FEA655C29D094EA050F08BF90EA020F26
:1003D00005D054EA000C04BF1946104630BD91EA1E
:1003E000030F1EBF0021002030BD5FEA545C05D121
:1003F0004000494128BF41F0004130BD14F5800460
:100400003CBF01F5801130BD01F0004545F0FE41D3
:1004100041F470014FF0000030BD7FEA645C1ABF08
:10042000194610467FEA655C1CBF0B46024650EA3F
:10043000013406BF52EA033591EA030F41F400216B
:1004400030BD00BF90F0000F04BF0021704730B5F1
:100450004FF4806404F132044FF000054FF00001C6
:1004600050E700BF90F0000F04BF0021704730B587
:100470004FF4806404F1320410F0004548BF40425C
:100480004FF000013EE700BF42004FEAE2014FEAB1
:1004900031014FEA02701FBF12F07F4393F07F4F8C
:1004A00081F06051704732F07F4208BF704793F08F
:1004B0007F4F04BF41F40021704730B54FF46074A2
:1004C00001F0004521F000411CE700BF50EA0102A5
:1004D00008BF704730B54FF000050AE050EA01024E
:1004E00008BF704730B511F0004502D5404261EBBE
:1004F00041014FF4806404F132045FEA915C3FF4FF
:10050000D8AE4FF003025FEADC0C18BF03325FEA9B
:10051000DC0C18BF033202EBDC02C2F1200300FA4C
:1005200003FC20FA02F001FA03FE40EA0E0021FA71
:1005300002F11444BDE600BF70B54FF0FF0C4CF45F
:10054000E06C1CEA11541DBF1CEA135594EA0C0F11
:1005500095EA0C0F00F0DEF82C4481EA030621EA4C
:100560004C5123EA4C5350EA013518BF52EA033587
:1005700041F4801143F4801338D0A0FB02CE4FF039
:100580000005E1FB02E506F00042E0FB03E54FF069
:100590000006E1FB03569CF0000F18BF4EF0010E61
:1005A000A4F1FF04B6F5007F64F5407404D25FEA5D
:1005B0004E0E6D4146EB060642EAC62141EA555110
:1005C0004FEAC52040EA5E504FEACE2EB4F1FD0C52
:1005D00088BFBCF5E06F1ED8BEF1004F08BF5FEAD0
:1005E000500E50F1000041EB045170BD06F0004682
:1005F00046EA010140EA020081EA0301B4EB5C042F
:10060000C2BFD4EB0C0541EA045170BD41F4801126
:100610004FF0000E013C00F3AB8014F1360FDEBF4B
:10062000002001F0004170BDC4F10004203C35DA27
:100630000C341BDC04F11404C4F1200500FA05F3AA
:1006400020FA04F001FA05F240EA020001F000424B
:1006500021F0004110EBD37021FA04F642EB0601C1
:100660005EEA430E08BF20EAD37070BDC4F10C04EB
:10067000C4F1200500FA04F320FA05F001FA04F2AF
:1006800040EA020001F0004110EBD37041F100019B
:100690005EEA430E08BF20EAD37070BDC4F12005A6
:1006A00000FA05F24EEA020E20FA04F301FA05F20E
:1006B00043EA020321FA04F001F0004121FA04F2B6
:1006C00020EA020000EBD3705EEA430E08BF20EA86
:1006D000D37070BD94F0000F0FD101F000464000C0
:1006E00041EB010111F4801F08BF013CF7D041EA42
:1006F000060195F0000F18BF704703F00046520046
:1007000043EB030313F4801F08BF013DF7D043EA16
:100710000603704794EA0C0F0CEA135518BF95EACC
:100720000C0F0CD050EA410618BF52EA4306D1D153
:1007300081EA030101F000414FF0000070BD50EA72
:10074000410606BF1046194652EA430619D094EAFC
:100750000C0F02D150EA013613D195EA0C0F05D1E6
:1007600052EA03361CBF104619460AD181EA03013A
:1007700001F0004141F0FE4141F470014FF00000F2
:1007800070BD41F0FE4141F4780170BD70B54FF08D
:10079000FF0C4CF4E06C1CEA11541DBF1CEA13550D
:1007A00094EA0C0F95EA0C0F00F0A7F8A4EB0504EF
:1007B00081EA030E52EA03354FEA013100F08880E6
:1007C0004FEA03334FF0805545EA131343EA1263AF
:1007D0004FEA022245EA111545EA10654FEA002664
:1007E0000EF000419D4208BF964244F1FD0404F51D
:1007F000407402D25B084FEA3202B61A65EB030579
:100800005B084FEA32024FF480104FF4002CB6EB35
:10081000020E75EB030E22BFB61A754640EA0C00B5
:100820005B084FEA3202B6EB020E75EB030E22BFF5
:10083000B61A754640EA5C005B084FEA3202B6EB36
:10084000020E75EB030E22BFB61A754640EA9C00F5
:100850005B084FEA3202B6EB020E75EB030E22BFC5
:10086000B61A754640EADC0055EA060E18D04FEA83
:10087000051545EA16754FEA06164FEAC30343EA23
:1008800052734FEAC2025FEA1C1CC0D111F4801FF0
:100890000BD141EA00014FF000004FF0004CB6E7E9
:1008A00011F4801F04BF01430020B4F1FD0C88BF88
:1008B000BCF5E06F3FF6AFAEB5EB030C04BFB6EB93
:1008C000020C5FEA500C50F1000041EB045170BD86
:1008D0000EF0004E4EEA113114EB5C04C2BFD4EBB3
:1008E0000C0541EA045170BD41F480114FF0000E37
:1008F000013C90E645EA060E8DE60CEA135594EAB3
:100900000C0F08BF95EA0C0F3FF43BAF94EA0C0FB5
:100910000AD150EA01347FF434AF95EA0C0F7FF42A
:1009200025AF104619462CE795EA0C0F06D152EA7E
:1009300003353FF4FDAE1046194622E750EA410662
:1009400018BF52EA43067FF4C5AE50EA41047FF473
:100950000DAF52EA43057FF4EBAE12E74FF0FF3CD8
:1009600006E000BF4FF0010C02E000BF4FF0010CA9
:100970004DF804CD4FEA410C7FEA6C5C4FEA430C22
:1009800018BF7FEA6C5C1BD001B050EA410C0CBF71
:1009900052EA430C91EA030F02BF90EA020F0020D3
:1009A000704710F1000F91EA030F58BF994208BF3A
:1009B00090422CBFD8176FEAE37040F001007047F7
:1009C0004FEA410C7FEA6C5C02D150EA013C07D14E
:1009D0004FEA430C7FEA6C5CD6D152EA033CD3D099
:1009E0005DF8040B704700BF8446104662468C4693
:1009F0001946634600E000BF01B5FFF7B7FF0028C6
:100A000048BF10F1000F01BD4DF808EDFFF7F4FFEE
:100A10000CBF012000205DF808FB00BF4DF808ED79
:100A2000FFF7EAFF34BF012000205DF808FB00BF9C
:100A30004DF808EDFFF7E0FF94BF012000205DF8BE
:100A400008FB00BF4DF808EDFFF7CEFF94BF012073
:100A500000205DF808FB00BF4DF808EDFFF7C4FF6C
:100A600034BF012000205DF808FB00BF4FEA4102BF
:100A7000B2F1E04324BFB3F5001CDCF1FE5C0DD9FC
:100A800001F0004C4FEAC0024CEA5070B2F1004F46
:100A900040EB830008BF20F00100704711F0804F49
:100AA00021D113F13872BCBF01F00040704741F40E
:100AB00080114FEA5252C2F11802C2F1200C10FA12
:100AC0000CF320FA02F018BF40F001004FEAC123F6
:100AD0004FEAD32303FA0CFC40EA0C0023FA02F39A
:100AE0004FEA4303CCE77FEA625307D150EA013370
:100AF0001EBF4FF0FE4040F44000704701F0004040
:100B000040F0FE4040F40000704700BF53B94AB9BE
:100B1000002908BF00281CBF4FF0FF314FF0FF3005
:100B200000F074B9ADF1080C6DE904CE00F006F8E0
:100B3000DDF804E0DDE9022304B070472DE9F04759
:100B4000089D04468E46002B4DD18A42944669D9B1
:100B5000B2FA82F252B101FA02F3C2F1200120FA94
:100B600001F10CFA02FC41EA030E94404FEA1C48E2
:100B7000210CBEFBF8F61FFA8CF708FB16E341EADE
:100B8000034306FB07F199420AD91CEB030306F164
:100B9000FF3080F01F81994240F21C81023E634485
:100BA0005B1AA4B2B3FBF8F008FB103344EA034429
:100BB00000FB07F7A7420AD91CEB040400F1FF333E
:100BC00080F00A81A74240F207816444023840EA7B
:100BD0000640E41B00261DB1D4400023C5E90043B4
:100BE0003146BDE8F0878B4209D9002D00F0EF8037
:100BF0000026C5E9000130463146BDE8F087B3FA6A
:100C000083F6002E4AD18B4202D3824200F2F98051
:100C1000841A61EB030301209E46002DE0D0C5E954
:100C2000004EDDE702B9FFDEB2FA82F2002A40F0A0
:100C30009280A1EB0C014FEA1C471FFA8CFE0126A3
:100C4000200CB1FBF7F307FB131140EA01410EFB47
:100C500003F0884208D91CEB010103F1FF3802D2EE
:100C6000884200F2CB804346091AA4B2B1FBF7F0E8
:100C700007FB101144EA01440EFB00FEA64508D90B
:100C80001CEB040400F1FF3102D2A64500F2BB8048
:100C90000846A4EB0E0440EA03409CE7C6F1200797
:100CA000B34022FA07FC4CEA030C20FA07F401FADD
:100CB00006F31C43F9404FEA1C4900FA06F3B1FB66
:100CC000F9F8200C1FFA8CFE09FB181140EA0141CB
:100CD00008FB0EF0884202FA06F20BD91CEB010168
:100CE00008F1FF3A80F08880884240F28580A8F1C0
:100CF00002086144091AA4B2B1FBF9F009FB101112
:100D000044EA014100FB0EFE8E4508D91CEB0101AF
:100D100000F1FF346CD28E456AD90238614440EA52
:100D20000840A0FB0294A1EB0E01A142C846A646D2
:100D300056D353D05DB1B3EB080261EB0E0101FA5B
:100D400007F722FA06F3F1401F43C5E900710026B8
:100D50003146BDE8F087C2F12003D8400CFA02FC0E
:100D600021FA03F3914001434FEA1C471FFA8CFE1E
:100D7000B3FBF7F007FB10360B0C43EA064300FB0E
:100D80000EF69E4204FA02F408D91CEB030300F1AC
:100D9000FF382FD29E422DD9023863449B1B89B263
:100DA000B3FBF7F607FB163341EA034106FB0EF3EC
:100DB0008B4208D91CEB010106F1FF3816D28B4299
:100DC00014D9023E6144C91A46EA004638E72E4665
:100DD000284605E70646E3E61846F8E64B45A9D25D
:100DE000B9EB020864EB0C0E0138A3E74646EAE7CC
:100DF000204694E74046D1E7D0467BE7023B61447A
:100E000032E7304609E76444023842E7704700BFE2
:100E1000844641EA000313F003036DD1403A41D305
:100E200051F8043B40F8043B51F8043B40F8043BC4
:100E300051F8043B40F8043B51F8043B40F8043BB4
:100E400051F8043B40F8043B51F8043B40F8043BA4
:100E500051F8043B40F8043B51F8043B40F8043B94
:100E600051F8043B40F8043B51F8043B40F8043B84
:100E700051F8043B40F8043B51F8043B40F8043B74
:100E800051F8043B40F8043B51F8043B40F8043B64
:100E900051F8043B40F8043B51F8043B40F8043B54
:100EA000403ABDD2303211D351F8043B40F8043BF4
:100EB00051F8043B40F8043B51F8043B40F8043B34
:100EC00051F8043B40F8043B103AEDD20C3205D304
:100ED00051F8043B40F8043B043AF9D2043208D0FC
:100EE000D2071CBF11F8013B00F8013B01D30B886E
:100EF00003806046704700BF082A13D38B078DD04C
:100F000010F003038AD0C3F10403D21ADB071CBF1D
:100F100011F8013B00F8013B80D331F8023B20F887
:100F2000023B7BE7043AD9D3013A11F8013B00F8C0
:100F3000013BF9D20B7803704B7843708B78837048
:100F40006046704700000000000000000000000044
:100F50000000000000000000000000000000000091
:100F60000000000000000000000000000000000081
:100F70000000000000000000000000000000000071
:100F800090F800F06DE9024520F007016FF0000CC9
:100F900010F0070491F820F040F049804FF0000471
:100FA0006FF00700D1E9002391F840F000F108004C
:100FB00082FA4CF2A4FA8CF283FA4CF3A2FA8CF384
:100FC0004BBBD1E9022382FA4CF200F10800A4FAEB
:100FD0008CF283FA4CF3A2FA8CF3E3B9D1E904233F
:100FE00082FA4CF200F10800A4FA8CF283FA4CF376
:100FF000A2FA8CF37BB9D1E9062301F1200182FA30
:101000004CF200F10800A4FA8CF283FA4CF3A2FA35
:101010008CF3002BC6D0002A04BF04301A4612BA43
:10102000B2FA82F2FDE8024500EBD2007047D1E946
:10103000002304F00305C4F100004FEAC50514F0D5
:10104000040F91F840F00CFA05F562EA05021CBFA6
:1010500063EA050362464FF00004A9E700000000C0
:1010600001F0FF01102A2BDB10F0070F08D010F859
:10107000013B013A8B422DD010F0070F42B3F6D15D
:10108000F0B441EA012141EA014122F007047FF076
:1010900000070023F0E80256083C85EA010586EACD
:1010A000010685FA47F5A3FA87F586FA47F6A5FA09
:1010B00087F68EB9EED1F0BC01F0FF0102F0070215
:1010C00032B110F8013B013A83EA010313B1F8D1C0
:1010D0000020704701387047002D06BF35460338A1
:1010E000073815F0010F07D1013015F4807F02BFDA
:1010F000013015F4C03F0130F0BC0138704700BF2B
:101100004FEA410C7FEA6C5C02D150EA013C0AD103
:101110004FEA430C7FEA6C5C02D152EA033C02D1F5
:101120004FF0000070474FF0010070474FEA410256
:1011300012F5001215D211D56FF47873B3EB625229
:1011400012D94FEAC12343F0004343EA505311F050
:10115000004F23FA02F018BF404270474FF00000E2
:10116000704750EA013005D111F0004008BF6FF020
:10117000004070474FF00000704700BF4A0011D296
:1011800012F5001211D20DD56FF47873B3EB6252E1
:101190000ED44FEAC12343F0004343EA505323FAED
:1011A00002F070474FF00000704750EA013002D162
:1011B0004FF0FF3070474FF00000704738B5002205
:1011C000002304460D46FFF729FC28B9204629468E
:1011D000BDE8384000F00AB8204605F1004100F0B3
:1011E00005F8404261EB410138BD00BFD0B50C4B62
:1011F000002206460F46FFF79FF9FFF7BFFF0446A0
:10120000FFF720F9074B0022FFF796F902460B463D
:1012100030463946FEF7D8FFFFF7B0FF2146D0BD74
:101220000000F03D0000F0412DE9F04F2DED028B64
:1012300085B010EE100A10EE904A8DED011AFFF7FE
:1012400023F906460F46544BD3ED006A9FED537ABF
:10125000C6EE877A77EEA77A17EE900AFFF714F9B1
:1012600049A3D3E90023FFF767F941EC180B41ECE0
:10127000100B14F031FB5BEC10AB10EE102A5B4648
:1012800030463946FFF758F9CDE902012046FFF70D
:10129000FBF804460D46B0EE480AF0EE680A14F07A
:1012A0006FFB59EC108B10EE102A4B462046294656
:1012B000FFF742F902460B46DDE90201FEF784FF23
:1012C000FFF7D4FB08EE900A42464B4630463946BB
:1012D000FFF732F906460F4622462B46504659463E
:1012E000FFF72AF902460B4630463946FEF76EFFF5
:1012F000FFF7BCFB08EE100A78EEC87A17EE900AEA
:10130000FFF7C2F806460F460198FFF7BDF820A385
:10131000D3E90023FFF710F904460D4602460B46B9
:1013200030463946FEF750FFFFF7A0FB1C4B5861D3
:1013300078EE887A17EE900AFFF7A6F8804689467D
:1013400002460B4620462946FEF740FFFFF78EFB7C
:10135000144B586122462B4640464946FEF734FF5F
:10136000FFF784FB104B586122462B463046394626
:10137000FEF72CFFFFF77AFB0C4B586105B0BDEC74
:10138000028BBDE8F08F00BF182D4454FB210940AB
:10139000D578E9263108C03F540B00200000B44343
:1013A0007C0B0020980B0020B40B0020D00B0020F9
:1013B00008B504E0022B2BD0142007F0D9F908213E
:1013C0001A4803F0FBFF1A4B18701A4B1B781BB915
:1013D000194A137801331370174B1B780A2B05D960
:1013E000144B01221A70144B00221A70134B1B78F5
:1013F000002BDFD10F4A1278012ADBD1104B93ED7D
:10140000021AD3ED010A93ED000AFFF70DFFD3E7AF
:10141000084B1B78012BCFD1094B93ED021AD3ED6A
:10142000010A93ED000AFFF7FFFEC5E7000C02403A
:1014300014000020280A0020290A002000000020B3
:10144000FC0900200000000010B52DED068B0446BD
:10145000F0EE429A70EE207A77EE817A77EEA17AFA
:10146000DFED2D6A67EEA67A9FED2C7A67EE878A0C
:10147000C0ED038A70EEC00A30EE818A38EE618AD0
:1014800028EE268A28EE078A80ED048A244BD3EDC5
:10149000006A9FED247AC6EE877A77EEA77A17EE78
:1014A000900AFEF7F1FF1AA3D3E90023FFF744F8EF
:1014B000FFF7DCFA0AEE900A00EE100A14F0A8FA20
:1014C000B0EE40AA28EE809AB0EE6A0A14F0D8FA7C
:1014D00068EE007A39EE679A29EE299AD4ED007AFF
:1014E00037EE899A84ED009A68EE807A28EE0A8AAF
:1014F00037EE888A28EE292A94ED018A38EE022AEE
:1015000084ED012ABDEC068B10BD00BFAFF3008057
:10151000182D4454FB2109405555D5409A99193D41
:10152000540B00200000B4432DE9F04105460E465F
:1015300017461846DDF81880DDF820E0002423E087
:1015400000FB043206EB8202D2ED007A0EFB03C2EE
:1015500008EB820292ED007A27EE877AD1ED007ACD
:1015600077EE877AC1ED007A01338342E8DB0CF134
:10157000010CF44507DA0EFB04C105EB81010023E1
:101580000B600023F1E70134BC4202DA4FF0000C9B
:10159000EFE7BDE8F08130B504460D461046194628
:1015A00000220FE001FB02C300FB0C2E04EB8E0EA9
:1015B00005EB83031B68CEF800300CF1010C8C4561
:1015C000F0DB0132824202DA4FF0000CF7E730BD67
:1015D00010B5029C4FF0000C0FE001EB8C0EDEED1D
:1015E000007A02EB8C0E9EED007A00EB8C0E77EE0B
:1015F000877ACEED007A0CF1010C04FB03FEE64580
:10160000EBDC10BD0000000038B52DED028B054667
:101610000C4691ED008AD1ED038A28EE288AD1ED9F
:10162000017A91ED027A67EE877A38EE678AF0EEFA
:10163000C87A17EE900AFEF727FF15A3D3E9002317
:10164000FFF7ECF9E0B9B7EE007AC7EE087A68EE7A
:10165000A78AC5ED008A94ED017A27EE677A85EDB9
:10166000017A94ED027A27EE677A85ED027A94ED9D
:10167000007A67EE277AC5ED037ABDEC028B38BDA0
:101680000023EB60AB606B602B60F6E7AFF300808C
:101690008DEDB5A0F7C6B03E2DE97043B4B0044659
:1016A00010EE106A4FF07E522492002325938DEDA8
:1016B000260A2793289329922A938DED2B0A2C939F
:1016C0002D932E922F9330933193329333920DF1C9
:1016D000900E00F1500C0DF1D00875460FCDCCF8EE
:1016E0000000CCF80410CCF80820CCF80C30AE4642
:1016F0000CF1100C4545F0D13046FEF7C5FE804692
:10170000894600224D4BFEF717FF02460B46404626
:101710004946FEF711FFFFF7A9F91C9000231D931E
:101720001E931F9020962193229323961CAD0FCDDC
:10173000C4F89000C4F89410C4F89820C4F89C3001
:101740000FCDC4F8A000C4F8A410C4F8A820C4F8B1
:10175000AC303B4D0DF1500CAE46BEE80F00ACE88E
:101760000F009EE80F008CE80F000DF1500CBCE854
:101770000F00C4F8B000C4F8B410C4F8B820C4F81E
:10178000BC30BCE80F00C4F8C000C4F8C410C4F8F2
:10179000C820C4F8CC300DF1100E05F1200CBCE8C7
:1017A0000F00AEE80F00BCE80F00AEE80F00BCE889
:1017B0000F00AEE80F009CE80F008EE80F000DF15F
:1017C000100E04F1D00C14AE75460FCDCCF800000D
:1017D000CCF80410CCF80820CCF80C30AE460CF154
:1017E000100CB542F0D16D46164B0FCB85E80F00BB
:1017F0000FCDC4F81001C4F81411C4F81821C4F8AE
:101800001C3100210FE04FF07E5002EB81030433C6
:1018100004EB830318600132032A03DC9142F2D007
:101820000020F2E70131032905DC04EB81030022EB
:101830001A600022F0E734B0BDE870830000E03F9A
:10184000C87B0108287C01082DE9F041BCB00546A1
:101850000F4600F150064FF00108CDF8088004242F
:101860000194009023462246314638A8FFF75CFEDB
:10187000CDF80880022301930097224605F19001DC
:1018800034A8FFF751FE00230DE03CAA02EB8302CF
:1018900052ED047A12ED087A77EE877A05EB83022F
:1018A000C2ED007A0133032BEFDD05F110070424AC
:1018B00002940194009723462246314624A8FFF75C
:1018C00033FE0DF150082346224631464046FFF7CD
:1018D00062FE02940194CDF800802346224624A99A
:1018E00004A8FFF721FE0094234605F1D00204A9C5
:1018F0003846FFF76DFE3CB0BDE8F0812DE9F047BA
:10190000DCB006460C4600F1B00801230293042324
:1019100001930090022241465AA8FFF705FE0023DA
:101920000DE004EB8302D2ED007A5CAA02EB8302A5
:1019300012ED027A77EEC77A42ED047A0133012B79
:10194000EFDD0DF5A07A0423022241465046FFF751
:1019500022FE06F110040DF5907902250295042768
:101960000197CDF800A03B463A4621464846FFF78E
:10197000DBFD02950197CDF800903B462A46414693
:1019800044A8FFF7D1FD00952B4606F5887244A9BF
:101990000846FFF71DFE0DF5807A44A95046FFF773
:1019A00033FE02950195CDF800A02B463A464946F4
:1019B00038A8FFF7B9FD01230293019558AB0093B6
:1019C0002B463A4638A934A8FFF7AEFD00230DE0B8
:1019D0005CAA02EB830212ED287A06EB8302D2EDB9
:1019E000007A77EE877AC2ED007A0133032BEFDDC0
:1019F0000422029202230193CDF8008038A924A882
:101A0000FFF792FD4022002114A808F0ABF9002353
:101A100008E003EB830214A901EB82024FF07E5130
:101A200011600133032BF4DD002016E003EB80028C
:101A300014A901EB8201D1ED007A5CA901EB8201CE
:101A400011ED387A77EEC77A04A901EB8202C2ED74
:101A5000007A0133032BE9DD0130032801DC002388
:101A6000F8E70422029201920094134604A920464A
:101A7000FFF75AFD5CB0BDE8F0872DE9F04F2DED82
:101A8000028B85B010EE904A11EE105A83468A46BA
:101A900010EE100AFEF7F8FC06460F462846FEF741
:101AA000F3FC41EC180B41EC100B13F015FF53EC59
:101AB000102B8DED000B30463946FEF73DFDCDE98C
:101AC00002012046FEF7E0FC04460D46B0EE480A4F
:101AD000F0EE680A13F054FF59EC108B10EE102A48
:101AE0004B4620462946FEF727FD02460B46DDE918
:101AF0000201FEF769FBFEF7B9FFCBF80000424692
:101B00004B4630463946FEF717FD06460F4622463D
:101B10002B46DDE90001FEF70FFD02460B4630467D
:101B20003946FEF753FBFEF7A1FFCAF8000005B0E7
:101B3000BDEC028BBDE8F08F00B587B006F0B8FCB5
:101B4000059002A901A8174B93ED001A164BD3ED8F
:101B5000000A164B93ED000AFFF78FFF144D01A901
:101B60002846FFF771FE134C2368039363680493C0
:101B700003A92846FFF7C2FE9FED0F2A20460F4B10
:101B8000D3ED031A0E4B93ED031A0E4BD3ED030A5C
:101B90000D4B93ED030AFFF757FC052105A806F04E
:101BA00095FDCBE7540B0020240A0020200A0020DA
:101BB0002C0A0020E40900200AD7A33BD00B002008
:101BC000B40B0020980B00207C0B002000B583B0E4
:101BD0000B46BDEEC07AF8EEC77A30EE670A0022F7
:101BE00004E0F2EE047A20EE270A01329A42F8DB92
:101BF000FDEEC07A17EE902A002A08DB009217EE5D
:101C0000102A044908F0AEFA03B05DF804FB524212
:101C1000F4E700BFB87C010870B582B017E0364A1F
:101C20002021302000F012FE344A3021002000F044
:101C30000DFE0C2300930123314A1278302108460F
:101C400000F0B6FD00F0F2FCC82006F091FD2D4B2F
:101C5000B3F90000FEF706FC00222B4BFEF76CFCEC
:101C600000222A4BFEF768FC0022294BFEF764FC99
:101C7000FEF7FCFE00EE100A264E02213046FFF76A
:101C8000A5FF254D02212846244B93ED000AFFF7BE
:101C90009DFF234C22460021412000F0D7FD224623
:101CA0001021202000F0D2FD22462021302000F01B
:101CB000CDFD1C4A0021084600F0C8FD3246002137
:101CC000412000F0C3FD184A1021002000F0BEFDA5
:101CD0002A461021202000F0B9FD144A20210020BE
:101CE00000F0B4FD124B1B78012B98D0114A202133
:101CF000302000F0ABFD97E7DC7C0108E47C0108B4
:101D0000206B0020580B00200000303F00001440E2
:101D1000000026405C0B0020640B0020540B0020C8
:101D200004000020C07C0108CC7C0108D47C0108A0
:101D300014000020E07C010808B5074B93ED000A71
:101D400000F08EFE054B93ED000A00F0B9FE322044
:101D500006F00EFDF1E700BF0C000020100000208F
:101D600000B583B02DE0012B3DD03F4B1B78012BFC
:101D70006DD13E4BD3ED077AFDEEE77A17EE900A70
:101D800000F08AFA3A4BD3ED077AFDEEE77A17EEC8
:101D9000900A00F0A3FA374BD3ED077AFDEEE77A0D
:101DA00017EE900A00F0B4FA334BD3ED077AFDEE4C
:101DB000E77A17EE900A00F0C5FA052101A806F0AF
:101DC00085FC06F075FB01902C4B1B78002BCAD1CB
:101DD0002B4A138801339BB21380C72BC5D9274BDD
:101DE00001221A70C1E7204B1B78012BBDD1254B76
:101DF000D3ED030A93ED050A1C4801F003F8224BCA
:101E0000D3ED030A93ED050A194800F0FBFF1F4BC1
:101E1000D3ED030A93ED050A164800F0F3FF1C4BBF
:101E2000D3ED030A93ED050A134800F0EBFF194BBD
:101E30001B78012B99D1184C184BD3ED000A94ED67
:101E4000050A174801F06DF884ED020A8DE70020BD
:101E500000F022FA002000F041FA002000F058FAC9
:101E6000002000F06FFAA8E714000020E81000201E
:101E70001011002038110020601100206E0B00208E
:101E80006C0B00207C0B0020980B0020B40B002072
:101E9000D00B00206B0B0020FC090020540B00200D
:101EA000C010002080B58EB0322006F061FC1C4BC3
:101EB0005E689F681B4AD2F80080D2F804901868C8
:101EC000FEF7E2FA04460D464846FEF7DDFACDE994
:101ED0000C014046FEF7D8FACDE90A01124B18680A
:101EE000FEF7D2FACDE90801104B1868FEF7CCFADC
:101EF000CDE906010E4B1868FEF7C6FACDE90401DC
:101F00003846FEF7C1FACDE902013046FEF7BCFAC9
:101F1000CDE9000122462B46064807F075FFC3E7CE
:101F2000FC090020E4090020240A0020200A0020E7
:101F3000540B0020EC7C010810B5044603F040FE71
:101F4000054BA3FB00231B0D04FB03F003460138E4
:101F5000002BFBD110BD00BF83DE1B4330B583B027
:101F600005460123ADF80630244A00215170ADF832
:101F700006300CE000220221214803F026FA14E08A
:101F8000BDF806309BB25B009BB2ADF80630BDF8E1
:101F900006309BB2FF2B2CD8BDF806301D42E9D08D
:101FA00001220221164803F010FA154C01220821E3
:101FB000204603F00AFA0520FFF7BEFF00220821A1
:101FC000204603F002FA0520FFF7B6FF01220821A0
:101FD000204603F0FAF90121204603F0EFF900282A
:101FE000CED0BDF806309AB204494B7813434B70FB
:101FF000C6E71020FFF7A0FF03B030BD700B002034
:102000000008024010B5104C00220421204603F0C5
:10201000DCF91020FFF790FF0120FFF79FFF42201F
:10202000FFF79CFF0020FFF799FF0020FFF796FFC6
:102030000020FFF793FF01220421204603F0C5F999
:102040001020FFF779FF10BD0008024010B5164CB4
:1020500000220421204603F0B8F91020FFF76CFF9E
:102060000120FFF77BFF4320FFF778FF0020FFF7F9
:1020700075FF0120FFF772FF0020FFF76FFF0020C0
:10208000FFF76CFF0020FFF769FF0020FFF766FFF6
:102090000020FFF763FF01220421204603F095F999
:1020A0001020FFF749FF10BD0008024010B5154C85
:1020B00000220421204603F088F90120FFF74EFF9B
:1020C0004420FFF74BFF0020FFF748FF0120FFF7F8
:1020D00045FFEE20FFF742FF0020FFF73FFF002003
:1020E000FFF73CFF0020FFF739FF0020FFF736FF26
:1020F00001220421204603F068F91020FFF71CFF9D
:1021000010BD00BF0008024010B5104C0022042191
:10211000204603F05AF91020FFF70EFF0120FFF7C9
:102120001DFF4D20FFF71AFF0020FFF717FF0020CB
:10213000FFF714FF0120FFF711FF012204212046C1
:1021400003F043F91020FFF7F7FE10BD000802402E
:1021500010B5164C00220421204603F036F9102059
:10216000FFF7EAFE0120FFF7F9FE4320FFF7F6FE36
:102170000020FFF7F3FE0020FFF7F0FE5A20FFF7E4
:10218000EDFE5A20FFF7EAFE5A20FFF7E7FE5A203D
:10219000FFF7E4FE5A20FFF7E1FE0122042120466A
:1021A00003F013F91020FFF7C7FE10BD000802402E
:1021B00008B5FFF727FFFFF725FFFFF723FFFFF71E
:1021C00045FFFFF773FFFFF79FFFFFF7C1FF08BD54
:1021D00010B514464FF47A7392B2024804F017FC1B
:1021E000204610BD58180020F8B5234F3C21384632
:1021F00004F0CAF9214E3C21304604F0C5F9204DC7
:102200003C21284604F0C0F91E4C3C21204604F035
:10221000BBF93A68D36843F00103D3603268D368EE
:1022200043F00103D3602A68D36843F00103D3600D
:102230002268D36843F00103D360134900234B6045
:102240000022CA600B740B600B814A610F494B601E
:10225000CA600B740B600B814A610D494B60CA6008
:102260000B740B600B814A610A494B60CA600B74A6
:102270000B600B814A61F8BD081400205014002047
:1022800098140020E01400207C0B0020980B002004
:10229000B40B0020D00B0020002807DD0D4B1B687D
:1022A00000225A630C4B1B6858637047002807DBF9
:1022B000084B1A6800235363074A12685363704738
:1022C000044B1B6840425863034B1B6800225A634F
:1022D000704700BF3013002078130020002805DD70
:1022E0000A4B1B68986300225A637047002805DB7D
:1022F000064B1B6800225A639A637047034B1B68A6
:1023000000229A6340425863704700BFB81500200E
:10231000002805DD0A4B1B68586300229A6370474A
:10232000002805DB064B1B6800225A639A6370473E
:10233000034B1B6800225A6340429863704700BFFA
:10234000E8120020002805DD0A4B1B6800221A64F1
:10235000D8637047002805DB064B1B680022DA6350
:102360001A647047034B1B68404218640022DA630A
:10237000704700BFE81200208446002004E01CF8EB
:1023800003201044C0B219464B1E0029F7DC7047E9
:1023900042B10132034603E011F801CB03F801CB4F
:1023A000013AF9D1704700002DE9F0418846154601
:1023B0001E46069F18B101460A4807F025FD002475
:1023C00004E0315D284607F01FFD0134BC42F8D31C
:1023D000B8F1000F03D04146024807F015FDBDE8F3
:1023E000F08100BF1C7D010830B583B004460D4666
:1023F0000A4601460320FFF7EBFE00952346034AF9
:1024000003490448FFF7D0FF03B030BD207D010829
:10241000D0880108287D010870B594B006460D46A5
:102420000DF1040C274C0FCCACE80F000FCCACE83E
:102430000F000FCCACE80F0023682CF8023B1B0CFC
:102440008CF800300023CDF83730CDF83B30CDF894
:102450003F30CDF84330CDF84730CDF84A306B1ED1
:10246000DBB2122B28D856B349238DF83630164BE1
:102470001B788DF837308DF838502A4631460DF1EB
:102480003900FFF785FFA91C0DF13700FFF774FF36
:1024900005F185030DEB030404F84C0C05F18603EC
:1024A0006B444D2203F84C2C05F1370101A8FFF7CE
:1024B0009BFF002014B070BD4FF0FF30FAE74FF0E3
:1024C000FF30F7E7387C01081500002000B583B025
:1024D00003238DF80430054807F0F8FC012101A81A
:1024E000FFF79AFF03B05DF804FB00BF307D0108E1
:1024F00000B583B019238DF80430054807F0E6FCD9
:10250000012101A8FFF788FF03B05DF804FB00BFBD
:10251000407D010810B584B0BDF82CC01224019490
:1025200000240294CDF80B408DF805008DF80610BC
:102530008DF807209DF81820520002F0060203F0E3
:1025400001031A438DF808209DF81C308DF80930DE
:102550009DF820308DF80A309DF824308DF80B302E
:102560009DF828308DF80C308DF80DC04FEA1C2CEA
:102570008DF80EC0044807F0A9FC0B2101A8FFF755
:102580004BFF04B010BD00BF547D010800B583B0FF
:1025900005238DF80430054807F098FC012101A8B7
:1025A000FFF73AFF03B05DF804FB00BF687D010848
:1025B00038B5044639B101224FF400611A4802F0DF
:1025C00004FF002516E000224FF40061164802F0D7
:1025D000FCFEF6E700224FF40051134802F0F5FE2E
:1025E00001224FF48041104802F0EFFE6400E4B293
:1025F0000135EDB2072D0FD800224FF480410A4873
:1026000002F0E3FE14F0800FE4D001224FF40051F9
:10261000054802F0DAFEE3E701224FF400610248C8
:1026200002F0D3FE38BD00BF000C024038B50025D3
:102630000DE0104B03EBC4030121585DFFF7B8FF19
:102640000134E4B214F0800FF3D00135EDB2072D60
:102650000FD8A5F150000021C0B2FFF7A9FF00215B
:102660000846FFF7A5FF00211020FFF7A1FF002477
:10267000E8E738BDEC0B002008B500200BE0094A64
:1026800002EBC302002111540133DBB213F0800FBF
:10269000F5D00130C0B2072801D80023F6E7FFF7D4
:1026A000C5FF08BDEC0B002010F0800F20D13F29A2
:1026B0001ED8CB08C3F10703DBB201F00701C1F15B
:1026C00007014FF0010C0CFA01F15FFA81FC42B1F5
:1026D000084A02EBC000C25C4CEA020C00F803C0DE
:1026E0007047044A02EBC000C25C22EA0101C154F7
:1026F000704700BFEC0B00202DE9F04F83B08046FF
:1027000089461F469DF830B0203AD3B201930C465B
:102710004FF0000A2DE0019B03EB43031C4A02EB40
:10272000830313F80A502EE0BBFA8BF252092146BC
:102730004046FFF7B9FF6D00EDB20134E4B2A4EBFF
:102740000903BB420CD00136F6B2072E0DD815F0A6
:10275000800FE9D05A4621464046FFF7A5FFEAE739
:1027600008F101085FFA88F84C460AF1010A5FFA9D
:102770008AFABA4509D20C2FCDD0064B019A03EB49
:10278000021313F80A500026DFE703B0BDE8F08F0C
:102790007C7D0108F08101080246012002E002FB75
:1027A00000F019464B1EDBB20029F8D1704700003B
:1027B0002DE9F04782B08246894690461D469DF835
:1027C000286000273C461DE0700810FB04F05AFA10
:1027D00080F001230093334620224946C0B2FFF720
:1027E0008BFF0DE0700810FB04F030325AFA80F0D5
:1027F000012300933346D2B24946C0B2FFF77CFFB3
:102800000134E4B2AC421CD2291BC9B20139C9B2AD
:102810000A20FFF7C1FFB8FBF0F00B4AA2FB003C17
:102820004FEADC0C0CEB8C0CA0EB4C0C5FFA8CF23E
:10283000002FD7D16B1E9C42D4DA002AC4D00127C6
:10284000D0E702B0BDE8F087CDCCCCCC70B582B07B
:1028500004460D4616460CE03A2D12D8012300938B
:102860000C2316F8012B29462046FFF745FF0834B4
:10287000E4B2337853B17A2CEED91035EDB200249E
:10288000EAE7FFF7F9FE00252C46E7E702B070BD46
:1028900010B53A4C00224FF48051204602F095FDCD
:1028A00001224FF48051204602F08FFD0021AE201E
:1028B000FFF77EFE0021D520FFF77AFE0021502091
:1028C000FFF776FE0021A820FFF772FE00213F20CF
:1028D000FFF76EFE0021D320FFF76AFE00210846B5
:1028E000FFF766FE00214020FFF762FE00218D20E9
:1028F000FFF75EFE00211420FFF75AFE0021202082
:10290000FFF756FE00210220FFF752FE0021A12012
:10291000FFF74EFE0021C020FFF74AFE0021DA201B
:10292000FFF746FE00211220FFF742FE0021812022
:10293000FFF73EFE0021EF20FFF73AFE0021D920ED
:10294000FFF736FE0021F120FFF732FE0021DB20E9
:10295000FFF72EFE00213020FFF72AFE0021A420E1
:10296000FFF726FE0021A620FFF722FE0021AF2060
:10297000FFF71EFEFFF780FE10BD00BF000C0240F7
:1029800008B5054B1860054B18680023022219464C
:10299000806807F00FFB08BDEC0F0020300000201E
:1029A000022801D80120704708B507F0B1F90923C2
:1029B0000360002008BD000010B5013801280AD8C6
:1029C00014464FF0FF3392B20748006804F01FF836
:1029D00040B9204610BD07F09BF9092303604FF072
:1029E000FF30F7E70520F5E7EC0F0020022801D8BB
:1029F0000020704708B507F08BF9092303604FF0FA
:102A0000FF3008BD08B507F083F9092303604FF0D4
:102A1000FF3008BD08B548B94FF0FF330122084820
:102A2000006804F05AF840B9012008BD07F070F9B9
:102A3000092303604FF0FF30F7E70520F5E700BFFB
:102A4000EC0F002008B5022804D84FF400534B6067
:102A5000002008BD07F05CF909230360F8E70000D7
:102A6000B5EEC00AF1EE10FA1DD4DFED107AB4EE27
:102A7000E70AF1EE10FA01DDB0EE670A9FED0B7A7E
:102A8000C0EE077A9FED0A7A67EE877A9FED097AA2
:102A900077EE877A084B1A68FCEEE77A17EE903AE1
:102AA0009BB2136470479FED050ADEE700003443D4
:102AB0000000FA440000FA437015002000000000F6
:102AC000B5EEC00AF1EE10FA1DD4DFED107AB4EEC7
:102AD000E70AF1EE10FA01DDB0EE670A9FED0B7A1E
:102AE000C0EE077A9FED0A7A67EE877A9FED097A42
:102AF00077EE877A084B1A68FCEEE77A17EE903A81
:102B00009BB2D36370479FED050ADEE70000874361
:102B10000000FA440000FA43701500200000000095
:102B200030B587B000231A4603E0212909D00133CC
:102B3000DBB2C72B1DD8C15C3D29F6D15A1CD2B2DD
:102B4000F3E7013BDBB2815C2D2914D00024002186
:102B5000934214D3122912D8855C85B101F1010C7E
:102B60001831694401F8145C0132D2B25FFA8CF179
:102B7000EEE70023E7E70132D2B20124E7E701F1F3
:102B800018036B44002103F8141C01A808F02EFB65
:102B90000CB907B030BDB1EE400AFAE730B583B0EA
:102BA00005460C460846FFF7BBFF012D01D003B0D8
:102BB00030BD2378502B23D0492B28D0442B2DD047
:102BC000502B32D0492B37D0442B3CD0532B41D003
:102BD000502B49D0522B51D0502B65D0532B7DD048
:102BE000412BE4D16378472BE1D1424A4249204648
:102BF00007F0D8FA0128DAD1404B01221A70D6E743
:102C00006278312AD8D13E4B83ED000ACFE7627853
:102C1000312AD3D13A4B83ED010AC8E76278312AD1
:102C2000CED1374B83ED020AC1E76278322AC9D18F
:102C3000344B83ED000ABAE76278322AC4D1314BB3
:102C400083ED010AB3E76278322ABFD12D4B83EDC1
:102C5000020AACE76278702ABAD1A278652AB7D1A5
:102C6000294B83ED000AA2E762786F2AB2D1A278DD
:102C7000732AAFD1254B83ED000A98E76278432A87
:102C8000AAD1234B5A1E2349204607F08BFA02286B
:102C900003D0214807F01AF989E7204B5A781978B0
:102CA0001F4807F0B1F882E76278472A96D11D4B9A
:102CB00003F1080200921A1D1B49204607F072FA20
:102CC00003287FF474AF174BD3ED017AF1EE677AE6
:102CD000C3ED017A094B00221A7068E76278522A24
:102CE0007FF47EAF084B094A1049204607F05AFA94
:102CF0005DE700BF100A0020248801086B0B00204C
:102D0000C0100020E8100020100000200C0000205F
:102D1000E1090020E087010800880108E00900209F
:102D2000EC870108FC0900200C88010818880108BC
:102D300000B5284A0023D360536127489061274992
:102D400011621361D361DFED267AC2ED007A536020
:102D5000DFF8A8E0C2F808E0DFF8A4C0C2F824C099
:102D6000204AD3605361906111621361D361C2ED57
:102D7000007A5360C2F808E0C2F824C01A4AD3604F
:102D80005361906111621361D361C2ED007A5360A7
:102D9000C2F808E0C2F824C0144AD36053619061BD
:102DA00011621361D361C2ED007A5360C2F808E08A
:102DB000C2F824C00E4AD36053619061116213615E
:102DC000D3610C491160536093600B4B53625DF803
:102DD00004FB00BFE810002000409C4500007A443E
:102DE000713DA24010110020381100206011002018
:102DF000C010002000007041CDCC4C3E000040418E
:102E00000AD7233C70EE600AC0ED030AD0ED097AC0
:102E1000F4EEE70AF1EE10FA08D5F1EE677AF4EE77
:102E2000E70AF1EE10FA01DD0023C360D0ED036A7A
:102E300090ED057A36EE877A80ED057A90ED016A9D
:102E400027EE067AD0ED067AF1EE675AB4EEE57A0F
:102E5000F1EE10FA36D5C0ED055AB5EE400AF1EEA6
:102E600010FA01D100234361D0ED007A66EEA77A13
:102E700090ED057A26EE076A77EE867A90ED027A73
:102E800090ED046A36EEC66A27EE067A77EE877A08
:102E900090ED077A77EE877AC0ED077AB5EEC00A33
:102EA000F1EE10FA24DBF5EEC07AF1EE10FA11D44F
:102EB00090ED087AF4EEC77AF1EE10FA0CDD80EDB1
:102EC000077A09E0B4EEE77AF1EE10FAC5DDC0ED5D
:102ED000057AC2E70023C361C0ED046AB5EE400A7B
:102EE000F1EE10FA01D10023C36190ED070A70479B
:102EF000B5EEC00AF1EE10FAEED590ED087AB1EE1B
:102F0000477AF4EEC77AF1EE10FA02D580ED077A2F
:102F1000E2E7F5EEC07AF1EE10FADDDD0023C361E1
:102F2000DAE770EE600AC0ED030AD0ED097AF4EE3C
:102F3000E70AF1EE10FA08D5F1EE677AF4EEE70A47
:102F4000F1EE10FA01DD0023C360D0ED036A90EDCD
:102F5000057A36EE877A80ED057A90ED016A27EEE4
:102F6000067AD0ED067AF1EE675AB4EEE57AF1EE24
:102F700010FA30D5C0ED055AD0ED007A66EEA77A8A
:102F800090ED057A26EE076A77EE867A90ED027A62
:102F900090ED046A36EEC66A27EE067A77EE877AF7
:102FA000C0ED077A90ED087AF4EEC77AF1EE10FAE8
:102FB00001DD80ED077AD0ED077AB1EE477AF4EEC5
:102FC000C77AF1EE10FA01D580ED077AC0ED046AF8
:102FD00090ED070A7047B4EEE77AF1EE10FACBDD18
:102FE000C0ED057AC8E7000000B585B00023009366
:102FF0000193029303931548154A02604FF48032FF
:103000004260836001220261027680F82030C36250
:1030100010498162C360C26180F83020426101F0D2
:103020000BFC60B9082300930123019302936946C6
:10303000064801F047FD28B905B05DF804FB00F033
:103040002DFAEFE700F02AFAF6E700BF881100201A
:10305000002001400100000F30B589B00023039328
:103060000493059306930793026803F1804303F5E5
:1030700090339A4201D009B030BD04460025019535
:1030800003F58C335A6C42F480725A645A6C02F421
:1030900080720192019A02951A6B42F002021A6341
:1030A0001B6B03F002030293029B01230393032390
:1030B000049303A9104802F08FF81048104B0360E6
:1030C00045608560C5604FF4806303614FF4006321
:1030D00043614FF4005383614FF48073C361056211
:1030E000456201F093FE18B9044BA3639C63C2E7E9
:1030F00000F0D4F9F8E700BF00040240D01100202E
:103100001064024010B582B0002400941E4B1A6B6C
:1031100042F480021A631A6B02F480020092009A51
:1031200001941A6B42F400121A631B6B03F4001330
:103130000193019B224605210C2001F0A1FD0C20EA
:1031400001F0D6FD22460521102001F099FD102046
:1031500001F0CEFD22460521382001F091FD3820F6
:1031600001F0C6FD22460521392001F089FD3920F4
:1031700001F0BEFD22460521452001F081FD4520DC
:1031800001F0B6FD02B010BD0038024030B583B08A
:103190001F4B019317250095002380221D491E48CF
:1031A00005F0F3F81D4B01931824009400234FF40D
:1031B00080721B491B4805F0E8F81B4B01931B2349
:1031C000009300234FF480721849194805F0DDF888
:1031D000184B0193009500234FF48072164917484D
:1031E00005F0D3F8164B0193009400238022154973
:1031F000154805F0CAF8154B01931C2300930023D2
:103200004FF480721249134805F0BFF803B030BD87
:10321000441200202C880108A51E0008301200204E
:1032200038880108B11300084012002048880108BE
:10323000611D00083412002054880108191C000880
:103240003C12002060880108391D00083812002057
:1032500070880108391B00082DE9F0438DB0002467
:103260000794089409940A940B9401945B4B1A6B8D
:1032700042F010021A631A6B02F010020192019AD6
:1032800002941A6B42F080021A631A6B02F08002F9
:103290000292029A03941A6B42F004021A631A6BA8
:1032A00002F004020392039A04941A6B42F00102A2
:1032B0001A631A6B02F001020492049A05941A6BC5
:1032C00042F002021A631A6B02F002020592059A9A
:1032D00006941A6B42F008021A631B6B03F0080392
:1032E0000693069B3E4E01220E21304602F06DF8F9
:1032F0003C4F22464FF47841384602F066F8DFF83A
:10330000EC8022464FF48851404602F05EF8224697
:103310004FF40061304602F058F8012507950894F3
:103320000223099307A9304601F056FF0E230793A5
:103330000895099403230A9307A9304601F04CFF2E
:103340004FF4404307930894099507A9264801F0D4
:1033500043FF4FF478430793089509940A9407A90B
:10336000384601F039FF4FF48073079308950994AC
:103370000A9407A9404601F02FFF4FF48059CDF879
:103380001C90089509950A9407A9404601F024FF6E
:103390004FF400630793089509940A9407A93046EF
:1033A00001F01AFFCDF81C900894099507A9304642
:1033B00001F012FF042307930894099507A93846E2
:1033C00001F00AFF082307930894099407A93846D7
:1033D00001F002FF0DB0BDE8F08300BF00380240ED
:1033E00000080240000C02400004024000000240BD
:1033F00008B50B480B4B03600B4B43600023836005
:10340000C3604FF48042026143618361C361036220
:1034100001F0E2FF00B908BD00F040F8FBE700BF93
:103420004812002000580040801A060030B589B0CC
:103430000023039304930593069307930268144BA8
:103440009A4201D009B030BD00250195114C236B83
:1034500043F002032363236B03F002030193019BF8
:103460004FF440630393122304930323069304232E
:10347000079303A9084801F0AFFE0295236C43F4BB
:1034800080032364236C03F480030293029BD9E737
:1034900000580040003802400004024072B6FEE7C7
:1034A00000B595B03022002108A806F05BFC00238F
:1034B000039304930593069307930193204A116C99
:1034C00041F080511164126C02F080520192019A15
:1034D00002931C4B1A6842F480421A601B6803F482
:1034E00080430293029B012308934FF48033099396
:1034F00002220E924FF480030F9304231093A8210D
:1035000011911292139308A802F044F898B90F236E
:10351000039302230493002305934FF4A0530693CF
:103520004FF480530793052103A802F099FA20B9BC
:1035300015B05DF804FBFFF7B1FFFFF7AFFF00BF69
:10354000003802400070004008B501F09BF8FFF71A
:10355000A7FFFFF781FEFFF7D5FD00F021FD00F08A
:10356000A3F900F0D3F900F003FA00F033FA00F009
:10357000F7FD00F033FE00F06DFE00F0C1FE00F03C
:10358000F3FE00F059FAFFF72FFD00F081FD00F087
:103590009DFEFFF72DFF00F077FA00F0CBFE06F05E
:1035A00025FB03F03DFEFFF7F1FD03F04BFE034862
:1035B00006F02AFC642001F091F8F8E78088010801
:1035C00000B583B0002200920D4B596C41F480414C
:1035D0005964596C01F48041009100990192196C71
:1035E00041F0805119641B6C03F080530193019BDF
:1035F0000F216FF0010001F043FB03B05DF804FB05
:103600000038024030B589B0044600230193214BB5
:103610001A6C42F020021A641B6C03F02003019321
:10362000019B02A903A802F0F1FA069BCBB902F0B4
:10363000CDFA03461848A0FB03239B0C013B174817
:10364000174A026040F2E732C26043600023036120
:103650008360836102F020FD054630B1284609B041
:1036600030BD02F0B3FA4300E4E70C4802F0B0FBCF
:1036700005460028F2D1372001F03AFB0F2C01D982
:103680000125EBE700222146372001F0F9FA054B2E
:103690001C60E3E70038024083DE1B439C120020DD
:1036A0000014004020000020FEE7FEE7FEE7FEE7F2
:1036B000FEE7704708B5024801F0A0FC08BD00BF56
:1036C0006016002008B5024801F098FC08BD00BF54
:1036D0000016002008B5034802F0C2FB024802F0C1
:1036E000BFFB08BDE8120020B815002008B503484C
:1036F00002F0B6FB024802F0B3FB08BDE81200205E
:103700003013002008B5034802F0AAFB024802F07B
:10371000A7FB08BDE81200207813002008B5024876
:1037200002F09EFB08BD00BF0814002008B5024847
:1037300002F096FB08BD00BF5014002008B50248F7
:1037400002F08EFB08BD00BF9814002008B50248A7
:1037500003F026FB08BD00BFC817002010B5044CBD
:10376000204603F01DFB204606F050F810BD00BFB8
:103770001018002008B5034802F072FB024802F05E
:103780006FFB08BD70150020C013002008B502486B
:1037900002F066FB08BD00BF7015002008B50248A6
:1037A00002F05EFB08BD00BF7015002008B502489E
:1037B00002F056FB08BD00BFE014002008B5024827
:1037C00002F04EFB08BD00BF2815002008B50248D6
:1037D00002F046FB08BD00BF9C12002008B502485D
:1037E00001F00CFC08BD00BFD011002008B5024854
:1037F00001F004FC08BD00BFC016002008B5034856
:1038000001F0FCFB024806F001F808BD201700207B
:103810005818002010B5044C204603F0C1FA204689
:1038200005F0F4FF10BD00BF5818002001207047BC
:1038300008B506F06DFA162303604FF0FF3008BD9F
:1038400008B54FF0FF31FFF7F3FFFEE710B5034671
:103850000C4A0D490D48006840B10C48006803440B
:10386000521A934206D8094A136010BD0748084C03
:103870000460F2E706F04CFA0C2303604FF0FF30CF
:10388000F3E700BF0000022000040000E412002063
:10389000786C0020034AD2F8883043F47003C2F8F1
:1038A0008830704700ED00E000B58DB02422002183
:1038B00003A806F057FA00230193029312484FF031
:1038C00080420260436083604FF0FF32C260036158
:1038D00083610323039301230593099303A902F052
:1038E00033FC50B900230193029301A9064802F06A
:1038F000B1FE28B90DB05DF804FBFFF7CFFDF1E78D
:10390000FFF7CCFDF6E700BF0814002000B58DB02E
:103910002422002103A806F025FA00230193029334
:103920001148124A0260436083604FF6FF72C26022
:10393000036183610323039301230593099303A97F
:1039400002F002FC50B900230193029301A906483A
:1039500002F080FE28B90DB05DF804FBFFF79EFD74
:10396000F1E7FFF79BFDF6E750140020000400404C
:1039700000B58DB02422002103A806F0F3F900233E
:10398000019302931148124A0260436083604FF62C
:10399000FF72C260036183610323039301230593D4
:1039A000099303A902F0D0FB50B9002301930293BD
:1039B00001A9064802F04EFE28B90DB05DF804FBDF
:1039C000FFF76CFDF1E7FFF769FDF6E798140020BB
:1039D0000008004000B58DB02422002103A806F0A5
:1039E000C1F90023019302931148124A0260436017
:1039F00083604FF0FF32C26003618361032303934E
:103A000001230593099303A902F09EFB50B90023FB
:103A10000193029301A9064802F01CFE28B90DB0DB
:103A20005DF804FBFFF73AFDF1E7FFF737FDF6E736
:103A3000E0140020000C004000B583B00023009388
:103A400001930F480F4A0260A7224260836040F250
:103A5000E733C3608023836102F01EFB50B900236B
:103A6000009301936946064802F0F4FD28B903B0BB
:103A70005DF804FBFFF712FDF1E7FFF70FFDF6E736
:103A8000281500200010004000B585B000230093E9
:103A90000193029303931048104A0260532242603C
:103AA000836040F2E732C26003618023836102F0E9
:103AB000F3FA50B94FF4805300936946064802F078
:103AC00052FC28B905B05DF804FBFFF7E7FCF1E70D
:103AD000FFF7E4FCF6E700BFC01300200018004029
:103AE00010B584B00368344A934207D0334A9342F6
:103AF00029D0334A93424BD004B010BD0024019426
:103B0000304B5A6C42F001025A645B6C03F00103C3
:103B10000193019B22460621182001F0B1F81820DC
:103B200001F0E6F822460621192001F0A9F8192033
:103B300001F0DEF8224606211A2001F0A1F81A2031
:103B400001F0D6F8D8E7002402941E4B5A6C42F0DC
:103B500002025A645B6C03F002030293029B22464A
:103B600005212B2001F08CF82B2001F0C1F8224612
:103B700005212C2001F084F82C2001F0B9F8224610
:103B800005212D2001F07CF82D2001F0B1F8B3E7DC
:103B9000002203920B4B596C41F4803159645B6CE9
:103BA00003F480330393039B0621182001F068F887
:103BB000182001F09DF89FE700000140000401403B
:103BC000004001400038024070B58EB000230993D8
:103BD0000A930B930C930D930368B3F1804F0BD0B2
:103BE000614A934247D0614A93426CD0604A934203
:103BF00000F091800EB070BD0024009403F50E33E8
:103C00001A6C42F001021A641A6C02F0010200926E
:103C1000009A01941A6B42F001021A631A6B02F0C7
:103C200001020192019A02941A6B42F002021A6395
:103C30001B6B03F002030293029B4FF400430993B2
:103C400002260A9601250D9509A94A4801F0C4FAF1
:103C5000082309930A960B940C940D9509A94648DC
:103C600001F0BAFA224606211C2001F009F81C20B6
:103C700001F03EF8BEE700240394404B1A6C42F07A
:103C800002021A641A6C02F002020392039A04946C
:103C90001A6B42F002021A631B6B03F002030493D7
:103CA000049B3023099302230A930D9309A93248F8
:103CB00001F092FA224606211D2000F0E1FF1D20AE
:103CC00001F016F896E7002405942C4B1A6C42F08C
:103CD00004021A641A6C02F004020592059A069412
:103CE0001A6B42F002021A631B6B03F00203069385
:103CF000069BC023099302230A930D9309A91E482A
:103D000001F06AFA224606211E2000F0B9FF1E20AB
:103D100000F0EEFF6EE700240794184B1A6C42F097
:103D200008021A641A6C02F008020792079A0894B3
:103D30001A6B42F001021A631B6B03F00103089334
:103D4000089B0323099302230A930D9309A90948A9
:103D500001F042FA22460621322000F091FF322083
:103D600000F0C6FF46E700BF000400400008004026
:103D7000000C0040000002400004024000380240F5
:103D800000B585B003682F4A93420BD02E4A934268
:103D90001CD02E4A93422DD02D4A93423ED005B0DE
:103DA0005DF804FB002200922A4B196C41F01001CF
:103DB00019641B6C03F010030093009B052136204F
:103DC00000F05EFF362000F093FFE8E7002201924A
:103DD000204B596C41F4003159645B6C03F400339F
:103DE0000193019B0621192000F04AFF192000F0E1
:103DF0007FFFD4E700220292164B596C41F48021D8
:103E000059645B6C03F480230293029B06211A2001
:103E100000F036FF1A2000F06BFFC0E7002203928B
:103E20000C4B196C41F0400119641B6C03F040030A
:103E30000393039B05212B2000F022FF2B2000F091
:103E400057FFACE70010004000440140004801402B
:103E5000001800400038024000B58BB000230593E5
:103E600006930793089309930368444A93420ED03C
:103E7000434A934223D0434A934238D0424A934222
:103E80004CD0424A934261D00BB05DF804FB002352
:103E900000933F4B1A6B42F010021A631B6B03F046
:103EA00010030093009B4FF4D44305930223069321
:103EB0000123099305A9374801F08EF9E4E70023AF
:103EC0000193334B1A6B42F004021A631B6B03F02D
:103ED00004030193019B4FF440730593022306935F
:103EE0000323099305A92C4801F076F9CCE70023B8
:103EF0000293274B1A6B42F010021A631B6B03F0FC
:103F000010030293029B602305930223069303236D
:103F1000099305A91F4801F05FF9B5E70023039352
:103F20001B4B1A6B42F002021A631B6B03F0020375
:103F30000393039B4FF4807305930223069303239B
:103F4000099305A9154801F047F99DE7002304935B
:103F50000F4B1A6B42F002021A631B6B03F0020351
:103F60000493049B4FF400730593022306930323E9
:103F7000099305A9094801F02FF985E700000140E0
:103F8000000401400040014000440140004801405D
:103F900000380240001002400008024000040240C5
:103FA00010B592B000241094119409940A940B94C3
:103FB0000C940D940E940F942022214601A805F034
:103FC000D1FE3148314B0360A7234360846040F247
:103FD000E733C360046144618023836102F088F8A1
:103FE00000283CD100231093119310A9264802F019
:103FF00031FB002836D16023099300220A920B92EC
:104000000C920D920E920F9209A91F4802F030F9FE
:1040100058BB042209A91C4802F02AF940BB082217
:1040200009A9194802F024F928BB0C2209A916484D
:1040300002F01EF910BB0023019302930393049333
:1040400005934FF400520692089301A90E4802F01E
:1040500047FBB0B90C48FFF7FFFE12B010BDFFF7E9
:104060001DFABFE7FFF71AFAC5E7FFF717FAD0E71F
:10407000FFF714FAD3E7FFF711FAD6E7FFF70EFAC6
:10408000D9E7FFF70BFAE5E7E8120020000001404E
:1040900010B592B000241094119409940A940B94D2
:1040A0000C940D940E940F942022214601A805F043
:1040B00059FE2948294B0360A7234360846044F6D6
:1040C0001F63C360046144618023836102F010F8C0
:1040D000002831D100231093119310A91E4802F03B
:1040E000B9FA00282BD16023099300230A930B937C
:1040F0000C930D930E930F93082209A9164802F012
:10410000B7F8F8B90C2209A9134802F0B1F8E0B9E0
:104110000023019302930393049305934FF40052F9
:104120000692089301A90C4802F0DAFA80B90A480D
:10413000FFF792FE12B010BDFFF7B0F9CAE7FFF724
:10414000ADF9D0E7FFF7AAF9DCE7FFF7A7F9DFE75A
:10415000FFF7A4F9EBE700BF701500200004014051
:1041600000B589B000230193029303930493059350
:10417000069307931748184A0260A722426083609B
:1041800040F2E732C26003618023836101F0B0FF37
:10419000B8B960230193002202920392059201A90B
:1041A0000C4802F065F878B904220DEB02010948C9
:1041B00002F05EF858B90748FFF74EFE09B05DF807
:1041C00004FBFFF76BF9E4E7FFF768F9ECE7FFF7AB
:1041D00065F9F0E7B81500200040014000B589B04E
:1041E000002301930293039304930593069307938B
:1041F0001648174A0260A7224260836040F2E73205
:10420000C26003618023836101F046FFA0B90F48BB
:1042100001F06EFF98B9602301930022029203928D
:10422000059201A9094802F023F858B90748FFF799
:1042300013FE09B05DF804FBFFF730F9E7E7FFF77D
:104240002DF9E8E7FFF72AF9F0E700BF3013002067
:104250000044014000B589B0002301930293039309
:1042600004930593069307931648174A0260A72202
:104270004260836040F2E732C26003618023836161
:1042800001F00AFFA0B90F4801F032FF98B960238E
:104290000193002202920392059201A9094801F0BC
:1042A000E7FF58B90748FFF7D7FD09B05DF804FBF1
:1042B000FFF7F4F8E7E7FFF7F1F8E8E7FFF7EEF8C4
:1042C000F0E700BF781300200048014008B50A4815
:1042D0000A4B03604FF4E133436000238360C36003
:1042E00003610C2242618361C36102F060FB00B98B
:1042F00008BDFFF7D3F8FBE780170020001001404E
:1043000008B50A480A4B03604FF4E13343600023C9
:104310008360C36003610C2242618361C36102F068
:1043200046FB00B908BDFFF7B9F8FBE7C817002046
:104330000044004008B50A480A4B03604FF4E133DB
:10434000436000238360C36003610C224261836188
:10435000C36102F02CFB00B908BDFFF79FF8FBE733
:10436000101800200048004008B50A480A4B0360B6
:104370004FF4E133436000238360C36003610C2288
:1043800042618361C36102F012FB00B908BDFFF70F
:1043900085F8FBE7581800200014014030B58FB0B5
:1043A000002309930A930B930C930D930368904A8F
:1043B00093420CD004468F4A93422CD08E4A9342AB
:1043C0006FD08E4A934200F0B3800FB030BD002111
:1043D00001918B4B5A6C42F010025A645A6C02F0F5
:1043E00010020192019A02911A6B42F001021A63C3
:1043F0001B6B03F001030293029B4FF4C06309930C
:1044000002230A9303230C9307230D9309A97D48E4
:1044100000F0E2FED9E700250395794B1A6C42F4CF
:1044200000321A641A6C02F400320392039A049563
:104430001A6B42F001021A631B6B03F00103049331
:10444000049B0C23099302230A9303230C93072351
:104450000D9309A96B4800F0BFFE6B486B4B0360DE
:104460004FF0006343608560C5604FF48063036173
:10447000456185614FF48073C3610562456200F058
:10448000C5FC58B9604BE3639C63002206212620DB
:1044900000F0F6FB262000F02BFC96E7FEF7FEFF6F
:1044A000F0E700250595564B1A6C42F480221A64F9
:1044B0001A6C02F480220592059A06951A6B42F056
:1044C00008021A631B6B03F008030693069B4FF464
:1044D0004073099302230A9303230C9307230D933C
:1044E00009A94B4800F078FE4A484B4B03604FF057
:1044F000006343608560C5604FF48063036145617C
:1045000085614FF48073C3610562456200F07EFCF3
:1045100058B9404BE3639C6300220521272000F03B
:10452000AFFB272000F0E4FB4FE7FEF7B7FFF0E713
:1045300000250795324B5A6C42F020025A645A6C9F
:1045400002F020020792079A08951A6B42F00402C3
:104550001A631B6B03F004030893089BC0230993A1
:1045600002230A9303230C9308230D9309A92B48D4
:1045700000F032FE2A482B4B03604FF0206343606B
:104580008560C5604FF48063036145618561C561E5
:104590000562456200F03AFC18BB214BE3639C6363
:1045A0002148224B03604FF0206343604023836027
:1045B0000023C3604FF48062026143618361C36181
:1045C0000362436200F022FC70B9174BA3639C6343
:1045D00000220521472000F053FB472000F088FB14
:1045E000F3E6FEF75BFFD8E7FEF758FFEDE700BF05
:1045F0000010014000440040004800400014014009
:10460000003802400000024000160020886002408E
:10461000000C0240601600202860024000080240A2
:10462000C01600202864024020170020A064024029
:10463000DFF834D0FFF72EF90C480D490D4A00235E
:1046400002E0D458C4500433C4188C42F9D30A4A47
:104650000A4C002301E013600432A242FBD305F0B0
:104660005DFBFEF771FF7047000002200000002094
:10467000E0090020A8960108E0090020746C0020E1
:10468000FEE7000008B50B4B1A6842F400721A608E
:104690001A6842F480621A601A6842F480721A60E2
:1046A000032000F0DBFA0F20FEF7ACFFFEF788FFD7
:1046B000002008BD003C0240034A1168034B1B78F0
:1046C0000B441360704700BFA01800201C0000209E
:1046D000014B1868704700BFA018002038B5044689
:1046E000FFF7F6FF0546B4F1FF3F02D0044B1B78FD
:1046F0001C44FFF7EDFF401BA042FAD338BD00BFBA
:104700001C0000204A4B5A6822F440325A605A6812
:1047100041680A435A600268536823F48073536007
:1047200002685368016943EA0123536002685368D1
:1047300023F0407353600268536881680B435360F1
:104740000268936823F40063936002689368C16809
:104750000B439360826A374B9A4257D00268936842
:1047600023F07063936002689368816A0B439360DF
:104770000268936823F04053936002689368C16AAB
:104780000B4393600268936823F00203936002680E
:104790009368017E43EA4103936090F82030002B38
:1047A0003FD00268536843F4006353600268536863
:1047B00023F46043536001684B68426A013A43EA5C
:1047C00042334B600268D36A23F47003D3620168FA
:1047D000CB6AC269013A43EA0253CB62026893682A
:1047E00023F4007393600268936890F8301043EAF2
:1047F000412393600268936823F4806393600268A6
:104800009368416943EA8123936070470268936823
:1048100023F0706393600268936823F040539360C1
:10482000B0E70268536823F400635360CAE700BF2F
:10483000002301400100000F38B310B50446036C9B
:1048400043B1236C13F0100F0BD00120002384F828
:104850003C3010BDFEF700FC0023636484F83C305C
:10486000EFE7236C23F4885323F0020343F00203A1
:1048700023642046FFF746FF00206064236C23F08A
:10488000030343F001032364E0E7012070470000C5
:1048900010B582B013460022019290F83C20012A04
:1048A00000F0AE800446012280F83C200268906847
:1048B00010F0010F13D1906840F001009060534A4E
:1048C0001068534AA2FB0020800C00EB40000190CE
:1048D00002E001980138019001980028F9D122687E
:1048E000906810F4807F03D0906820F4807090600E
:1048F0002268906810F0010F77D0206C20F4E060FF
:1049000020F0010040F480702064526812F4806F3F
:1049100005D0226C22F4405242F480522264226C70
:1049200012F4805F36D0626C22F0060262640022CC
:1049300084F83C20A26B3748D063A26B36481064E1
:10494000A26B3648D06422686FF0220010602068A5
:10495000426842F0806242602068826842F480725D
:10496000826020680A4600F14C01A06B00F0B4FAA6
:104970002B4B5B6813F01F0F27D12368294A934202
:1049800011D002F58072934207D0274A934214D087
:10499000002033E000226264C9E702F50072526829
:1049A00012F01F0FF1D19A6812F0405F2AD19A6875
:1049B00042F080429A60002020E002F58072526846
:1049C00012F0100FEFD0002018E02368154A934230
:1049D00001D0002012E09A6812F0405F14D19A686A
:1049E00042F080429A60002008E0236C43F01003FC
:1049F0002364636C43F001036364002002B010BDC4
:104A00000220FBE70020F9E70020F7E7180000206C
:104A100083DE1B43534A0008314A00083D4A000820
:104A200000230140002001400022014070477047F0
:104A300008B5806BFFF7FBFF08BD704708B5806BBA
:104A400040230364436C43F004034364FFF7F5FF22
:104A500008BD08B50346806B026C12F0500F25D1DB
:104A6000036C43F40073036403689A6812F0405FB8
:104A700019D1027EBAB9DA6A12F4700F03D09A68BB
:104A800012F4806F0FD15A6822F020025A60036C32
:104A900023F480730364036C13F4805F03D1036C0D
:104AA00043F001030364FFF7C1FF08BD026C12F07D
:104AB000100F04D1826BD26C18469047F5E7FFF7D0
:104AC000BCFFF2E730B482B00023019390F83C3091
:104AD000012B00F0BB80012380F83C300B68092BD0
:104AE00041D90468E2689BB203EB43031E3B4FF0DD
:104AF000070C0CFA03F322EA0303E3600468E2689C
:104B00000B8803EB43031E3B8D6805FA03F3134345
:104B1000E3604B68062B3DD80468626B03EB8303AC
:104B2000053B4FF01F0C0CFA03F322EA0303636307
:104B30000468626B4B6803EB8303053BB1F800C06C
:104B40000CFA03F3134363630268414B9A4251D05A
:104B500002683F4B9A4256D0002380F83C301846FA
:104B600002B030BC7047046822699BB203EB430378
:104B70004FF0070C0CFA03F322EA030323610468E5
:104B800022690B8803EB43038D6805FA03F3134393
:104B90002361BEE70C2B16D805682A6B03EB830351
:104BA000233B1F2404FA03F322EA03032B63056863
:104BB0002A6B4B6803EB8303233B0C8804FA03F353
:104BC00013432B63C0E70568EA6A03EB8303413BA9
:104BD0001F2404FA03F322EA0303EB620568EA6A7E
:104BE0004B6803EB8303413B0C8804FA03F3134344
:104BF000EB62A9E70B68122BAAD1164A536843F45B
:104C000080035360A4E70B68103B012BA4D8114A22
:104C1000536843F4000353600B68102B9CD10E4B78
:104C20001B6802F1467202F52E3202F28332A2FBB9
:104C300003239B0C03EB83035B00019302E0019BC6
:104C4000013B0193019B002BF9D185E7022087E707
:104C5000002001400023014018000020074AD368CB
:104C600023F4E0631B041B0C000200F4E060034328
:104C700043F0BF6343F40033D360704700ED00E0BE
:104C800000B5194BDB68C3F30223C3F1070CBCF179
:104C9000040F28BF4FF0040C03F1040EBEF1060F01
:104CA00018D9033B4FF0FF3E0EFA0CFC21EA0C0131
:104CB00099400EFA03F322EA0303194300280BDBA1
:104CC0000901C9B200F1604000F5614080F80013AD
:104CD0005DF804FB0023E5E700F00F000901C9B20D
:104CE000024B1954F4E700BF00ED00E014ED00E0C2
:104CF000002807DB00F01F02400901239340024A0D
:104D000042F82030704700BF00E100E030B4056891
:104D10002C6824F480242C60046863608368402B32
:104D200005D0036899600368DA6030BC7047036897
:104D30009A600368D960F8E710B40368D9B21039F3
:104D40000C4AA2FB014212090B4CA25CC2655F290E
:104D500009D923F47F7323F0030304338365806D43
:104D60005DF8044B704723F47F7323F003038365DE
:104D7000F5E700BFABAAAAAAA8880108836A8269DE
:104D800092B9012B0AD0022B02D00BB10020704740
:104D9000C36A13F0807F28D100207047C36AB3F143
:104DA000C07F24D000207047B2F5005F09D0022BED
:104DB00025D9032B25D1C36A13F0807F23D100208E
:104DC0007047032B03D8DFE803F01404140A002013
:104DD0007047C36A13F0807F0DD100207047C36A0B
:104DE000B3F1C07F09D00020704701207047012037
:104DF0007047012070470120704701207047012053
:104E000070470020704701207047000070B50446CD
:104E1000FFF75EFC002C5BD00546022384F835309A
:104E2000002384F834302268136823F001031360F0
:104E300023681A6812F0010F0AD0FFF749FC431BE0
:104E4000052BF5D920236365032084F8350070BD58
:104E50001A68204810406168A2680A43E1680A4362
:104E600021690A4361690A43A1690A43E1690A4366
:104E7000216A0A430243616A04291ED01A60266827
:104E8000756925F00705636A1D43042B07D1A36AE2
:104E90001D43E36A1BB12046FFF770FF90B97561AF
:104EA0002046FFF749FFE26D3F23934083600020D7
:104EB0006065012384F83530C9E7E16A206B01435E
:104EC0000A43DBE740236365012084F83500BEE731
:104ED0000120BCE73F8010F038B50446856D90F89E
:104EE000340001282BD0012084F8340094F83500D8
:104EF000C0B2012804D0002384F83430022038BD29
:104F0000022084F83500002060652046FFF7FEFE91
:104F1000E26D3F239340AB602268136843F01603B1
:104F20001360236C23B12268136843F008031360F5
:104F30002268136843F0010313600020DFE70220BA
:104F4000DDE770B50446866DFFF7C2FB94F8353097
:104F5000DBB2022B06D080236365002384F8343053
:104F6000012070BD05462268136823F01603136004
:104F70002268536923F080035361236CE3B12268F4
:104F8000136823F0080313602268136823F00103F9
:104F9000136023681B6813F0010F11D0FFF798FB13
:104FA000431B052BF5D920236365032084F83500C6
:104FB000002384F83430D4E7A36C002BDFD1E3E77F
:104FC000E26D3F239340B360012384F83530002025
:104FD00084F83400C5E790F83530DBB2022B03D0FB
:104FE0008023436501207047052380F8353002682F
:104FF000136823F00103136000207047F0B583B0FD
:10500000044600230193724B1D68724BA3FB0535C8
:10501000AD0A876D3E68C26D08239340334210D0BD
:1050200003681A6812F0040F0BD01A6822F0040209
:105030001A60C26D08239340BB60436D43F00103C7
:105040004365E26D01239340334209D022685269DF
:1050500012F0800F04D0BB60636D43F00203636500
:10506000E26D04239340334209D02268126812F0A3
:10507000020F04D0BB60636D43F004036365E26D0F
:1050800010239340334224D02268126812F0080F94
:105090001FD0BB6023681A6812F4802F0DD01B68E4
:1050A00013F4002F04D1236C9BB12046984710E0E5
:1050B000A36C73B1204698470BE01A6812F4807F06
:1050C00003D11A6822F008021A60236C0BB1204643
:1050D0009847E26D20239340334255D022681268EE
:1050E00012F0100F50D0BB6094F83530DBB2052BB6
:1050F0000ED023681A6812F4802F33D01B6813F483
:10510000002F2AD1636C002B3ED0204698473BE00D
:105110002268136823F0160313602268536923F092
:1051200080035361236CA3B12268136823F0080342
:105130001360E26D3F239340BB60012384F8353058
:10514000002384F83430236D002B3FD0204698474D
:105150003CE0A36C002BE7D1EBE7E36BA3B1204667
:10516000984711E01A6812F4807F09D11A6822F07A
:1051700010021A60012384F83530002384F834309B
:10518000E36B0BB120469847636DFBB1636D13F081
:10519000010F17D0052384F835302268136823F0F7
:1051A00001031360019B01330193AB4204D82368D0
:1051B0001B6813F0010FF5D1012384F8353000236B
:1051C00084F83430E36C0BB12046984703B0F0BD4F
:1051D00018000020B5814E1B00230F2B00F2E48045
:1051E00070B582B060E085685E000324B44025EAB3
:1051F0000405CC68B4402C438460456825EA020568
:105200004C68C4F300129A402A4342605AE0DC081A
:10521000083450F8246003F0070295000F22AA40DA
:1052200026EA020E0A69AA4042EA0E0240F8242049
:105230005CE0072200E0002202FA0EF22A43023468
:105240005A4D45F824205A4A94686FEA0C0224EA21
:105250000C054E6816F4801F01D04CEA0405544C2E
:10526000A560E46802EA04054E6816F4001F01D048
:105270004CEA04054E4CE560646802EA04054E6899
:1052800016F4003F01D04CEA0405494C65602468DF
:1052900022404D6815F4803F01D04CEA0402444C92
:1052A000226001330F2B7DD801229A400C6804EA5A
:1052B000020C32EA0404F4D14C6804F00304013C0B
:1052C000012C90D94A6802F00302032A09D0C4686D
:1052D0005D000322AA4024EA02048A68AA4022430D
:1052E000C2604A6802F00302022A90D004684FEAC2
:1052F000430E032202FA0EF224EA02044A6802F084
:10530000030202FA0EF2224302604A6812F4403F9E
:10531000C7D000220192274A546C44F4804454645C
:10532000526C02F480420192019A9C08A51C1F4A0B
:1053300052F8255003F003024FEA820E0F2202FAC0
:105340000EF225EA02051C4A90423FF474AF02F5C2
:10535000806290421AD002F58062904218D002F525
:105360008062904216D002F58062904214D002F51D
:105370008062904212D002F58062904210D002F515
:10538000806290423FF455AF082255E7012253E76F
:10539000022251E703224FE704224DE705224BE7A3
:1053A000062249E702B070BD704700BF00380140D7
:1053B000003C0140003802400000024003691942ED
:1053C00001D001207047002070470AB18161704709
:1053D0000904816170470000002800F0CC8070B59E
:1053E000044690F83D30002B77D0242384F83D30DC
:1053F0002268136823F0010313602268136843F4E2
:10540000004313602268136823F40043136000F024
:10541000DDFB62685A4B9A4264D85A4B98428CBF63
:1054200000230123002B40F0A8805749A1FB003145
:105430008B0C25686A6822F03F0242EA91426A605A
:1054400021680A6A22F03F0266684D4DAE424FD88D
:10545000013313430B622168CA6922F44F4222F0E0
:10546000FF026668464B9E424CD8431E7600B3FB53
:10547000F6F3013340F6FC70034278D0C3F30B031C
:105480001343CB6121680B6823F0C003E269206AF3
:10549000024313430B6021688B6823F4034323F01A
:1054A000FF032269E068024313438B602168CB68E5
:1054B00023F0FF036269A06902431343CB602268B3
:1054C000136843F00103136000202064202384F854
:1054D0003D30206384F83E0070BD80F83C30FDF71D
:1054E000A5FF82E7294B98428CBF0023012399E74F
:1054F0004FF4967505FB03F3254DA5FB03539B095C
:105500000133A6E7A368BBB9451E06EB460CB5FB05
:10551000FCF50135C5F30B05B5FA85F56D0945BBFD
:10552000C3B9013806EB4603B0FBF3F30133C3F311
:105530000B0343F40043A3E7451E06EB860C0CEB7C
:105540008C0CB5FBFCF50135C5F30B05B5FA85F5FB
:105550006D09E4E7013806EB860303EB8303B0FB38
:10556000F3F30133C3F30B0343F4404388E704230D
:1055700086E7012384E7012070470120ACE700BFE4
:10558000A08601007F841E0083DE1B43FF083D00D0
:10559000D34D6210002800F0E08170B582B004465F
:1055A000036813F0010F3BD09F4B9B6803F00C0383
:1055B000042B2CD09C4B9B6803F00C03082B21D0B0
:1055C0006368B3F5803F4FD0B3F5A02F52D0964B10
:1055D0001A6822F480321A601A6822F480221A6053
:1055E0006368002B50D0FFF773F805468E4B1B689D
:1055F00013F4003F14D1FFF76BF8401B6428F5D972
:105600000320B1E1884B5B6813F4800FD8D0864B40
:105610001B6813F4003F03D06368002B00F09F81E8
:10562000236813F0020F54D07F4B9B6813F00C0FCC
:105630003ED07D4B9B6803F00C03082B33D0E3680E
:10564000002B68D0794B01221A60FFF741F805461C
:10565000754B1B6813F0020F54D1FFF739F8401B4C
:105660000228F5D903207FE16F4A136843F48033A1
:105670001360B5E76C4B1A6842F480221A601A680E
:1056800042F480321A60ABE7FFF722F80546664B1A
:105690001B6813F4003FC3D0FFF71AF8401B6428BF
:1056A000F5D9032060E1604B5B6813F4800FC6D12D
:1056B0005D4B1B6813F0020F03D0E368012B40F031
:1056C0005081594A136823F0F803216943EAC10362
:1056D0001360236813F0080F42D063696BB3534B18
:1056E0000122C3F8802EFEF7F3FF05464E4B5B6F99
:1056F00013F0020F34D1FEF7EBFF401B0228F5D95F
:10570000032031E1484A136823F0F803216943EA92
:10571000C1031360DDE7454B00221A60FEF7D8FF96
:105720000546414B1B6813F0020FD2D0FEF7D0FFA5
:10573000401B0228F5D9032016E13C4B0022C3F898
:10574000802EFEF7C5FF0546374B5B6F13F0020F47
:1057500006D0FEF7BDFF401B0228F5D9032003E168
:10576000236813F0040F77D02F4B1B6C13F0805F6E
:1057700033D1002301932C4B1A6C42F080521A64EF
:105780001B6C03F080530193019B0125284B1B6880
:1057900013F4807F23D0A368012B34D0052B38D09D
:1057A000214B1A6F22F001021A671A6F22F00402CD
:1057B0001A67A368002B3DD0FEF78AFF06461A4BF6
:1057C0001B6F13F0020F46D1FEF782FF801B41F2E0
:1057D00088339842F3D90320C6E00025D6E7144A5F
:1057E000136843F480731360FEF772FF0646104B94
:1057F0001B6813F4807FCED1FEF76AFF801B02285E
:10580000F5D90320B0E0084A136F43F00103136792
:10581000CFE7054B1A6F42F004021A671A6F42F085
:1058200001021A67C5E700BF003802400000474286
:1058300000700040FEF74CFF0646524B1B6F13F002
:10584000020F08D0FEF744FF801B41F288339842D4
:10585000F3D9032088E0EDB9A369002B00F0838021
:10586000484A926802F00C02082A51D0022B17D045
:10587000454B00221A66FEF72BFF0446414B1B687E
:1058800013F0007F42D0FEF723FF001B0228F5D95A
:10589000032069E03B4A136C23F080531364DBE779
:1058A000394B00221A66FEF713FF0546354B1B687D
:1058B00013F0007F06D0FEF70BFF401B0228F5D93E
:1058C000032051E0E369226A1343626A43EA8213C8
:1058D000A26A5208013A43EA0243E26A43EA0263D7
:1058E000284A5360284B01221A66FEF7F1FE04464F
:1058F000244B1B6813F0007F06D1FEF7E9FE001B66
:105900000228F5D903202FE000202DE000202BE015
:10591000012B2BD01B4B5B6803F48001E2699142A1
:1059200026D103F03F02216A8A4223D1616A47F6F9
:10593000C0721A40B2EB811F1ED103F44031A26A3B
:105940005208013AB1EB024F18D103F07063E26ADA
:10595000B3EB026F14D1002006E001207047012054
:1059600002E0012000E0002002B070BD0120FBE752
:105970000120F9E70120F7E70120F5E70120F3E72F
:105980000120F1E7003802400000474208B5314BE2
:105990009B6803F00C03042B57D0082B57D12D4BD9
:1059A0005A6802F03F025B6813F4800F2AD0294B3B
:1059B0005968C1F3881C4FEA4C11B1EB0C006EEB37
:1059C0000E0E4FEA8E1343EA90638101091A63EBCE
:1059D0000E03DB0043EA5173C90011EB0C0C43F1D9
:1059E0000003590200234FEA4C2041EADC51FBF747
:1059F0008DF8184B5B68C3F3014301335B00B0FBC8
:105A0000F3F025E0134B5968C1F3881C4FEA4C11A1
:105A1000B1EB0C006EEB0E0E4FEA8E1343EA90636F
:105A20008101091A63EB0E03DB0043EA5173C900DD
:105A300011EB0C0C43F10003990200234FEA8C2078
:105A400041EA9C51FBF762F8D3E7034800E00348C2
:105A500008BD00BF0038024000127A000024F400A4
:105A6000002800F09B8070B50D4604464F4B1B6824
:105A700003F007038B4208D2CBB24C4A1370136871
:105A800003F007038B4240F08B80236813F0020F72
:105A900017D013F0040F04D0454A936843F4E05341
:105AA0009360236813F0080F04D0414A936843F4CD
:105AB000604393603E4A936823F0F003A1680B4370
:105AC0009360236813F0010F32D06368012B21D05B
:105AD0009A1E012A25D9364A126812F0020F61D0A7
:105AE00033498A6822F0030213438B60FEF7F0FD0E
:105AF00006462F4B9B6803F00C036268B3EB820FE2
:105B000016D0FEF7E5FD801B41F288339842F0D9AC
