:020000040800F2
:1000000000000220494300086138000863380008F6
:1000100065380008673800086938000800000000EB
:10002000000000000000000000000000016C00085B
:100030006B38000800000000A16C0008456900084A
:100040009943000899430008994300089943000820
:100050009943000899430008994300089943000810
:100060009943000899430008994300089943000800
:1000700099430008994300089943000899430008F0
:1000800099430008994300089943000899430008E0
:1000900099430008994300089943000899430008D0
:1000A0006D380008853800089D380008994300081D
:1000B000B5380008C5380008D5380008994300084D
:1000C00099430008994300089943000899430008A0
:1000D0009943000899430008E5380008994300084F
:1000E0009943000899430008994300089943000880
:1000F0009943000899430008994300089943000870
:100100009943000899430008F5380008994300080E
:10011000994300089943000805390008153900087B
:1001200025390008994300089943000899430008BD
:10013000994300089943000899430008994300082F
:10014000994300089943000899430008994300081F
:10015000994300089943000899430008353900087D
:1001600099430008994300089943000899430008FF
:1001700099430008994300089943000800000000D3
:080180009943000899430008AF
:1001C00081F0004102E000BF83F0004330B54FEA08
:1001D00041044FEA430594EA050F08BF90EA020F75
:1001E0001FBF54EA000C55EA020C7FEA645C7FEA08
:1001F000655C00F0E2804FEA5454D4EB5555B8BF2B
:100200006D420CDD2C4480EA020281EA030382EA9B
:10021000000083EA010180EA020281EA0303362D2D
:1002200088BF30BD11F0004F4FEA01314FF4801C00
:100230004CEA113102D0404261EB410113F0004F12
:100240004FEA03334CEA133302D0524263EB4303C9
:1002500094EA050F00F0A780A4F10104D5F1200E67
:100260000DDB02FA0EFC22FA05F2801841F10001C2
:1002700003FA0EF2801843FA05F359410EE0A5F196
:1002800020050EF1200E012A03FA0EFC28BF4CF0C7
:10029000020C43FA05F3C01851EBE37101F000457D
:1002A00007D54FF0000EDCF1000C7EEB00006EEB8A
:1002B0000101B1F5801F1BD3B1F5001F0CD3490814
:1002C0005FEA30004FEA3C0C04F101044FEA44526B
:1002D00012F5800F80F09A80BCF1004F08BF5FEAF2
:1002E000500C50F1000041EB045141EA050130BDD2
:1002F0005FEA4C0C404141EB0101013C28BFB1F5E4
:10030000801FE9D291F0000F04BF01460020B1FA2E
:1003100081F308BF2033A3F10B03B3F120020CDA01
:100320000C3208DD02F1140CC2F10C0201FA0CF0DF
:1003300021FA02F10CE002F11402D8BFC2F1200C44
:1003400001FA02F120FA0CFCDCBF41EA0C019040FA
:10035000E41AA2BF01EB0451294330BD6FEA040443
:100360001F3C1CDA0C340EDC04F11404C4F120022E
:1003700020FA04F001FA02F340EA030021FA04F340
:1003800045EA030130BDC4F10C04C4F1200220FA97
:1003900002F001FA04F340EA0300294630BD21FAD5
:1003A00004F0294630BD94F0000F83F4801306BF9B
:1003B00081F480110134013D4EE77FEA645C18BF8F
:1003C0007FEA655C29D094EA050F08BF90EA020F26
:1003D00005D054EA000C04BF1946104630BD91EA1E
:1003E000030F1EBF0021002030BD5FEA545C05D121
:1003F0004000494128BF41F0004130BD14F5800460
:100400003CBF01F5801130BD01F0004545F0FE41D3
:1004100041F470014FF0000030BD7FEA645C1ABF08
:10042000194610467FEA655C1CBF0B46024650EA3F
:10043000013406BF52EA033591EA030F41F400216B
:1004400030BD00BF90F0000F04BF0021704730B5F1
:100450004FF4806404F132044FF000054FF00001C6
:1004600050E700BF90F0000F04BF0021704730B587
:100470004FF4806404F1320410F0004548BF40425C
:100480004FF000013EE700BF42004FEAE2014FEAB1
:1004900031014FEA02701FBF12F07F4393F07F4F8C
:1004A00081F06051704732F07F4208BF704793F08F
:1004B0007F4F04BF41F40021704730B54FF46074A2
:1004C00001F0004521F000411CE700BF50EA0102A5
:1004D00008BF704730B54FF000050AE050EA01024E
:1004E00008BF704730B511F0004502D5404261EBBE
:1004F00041014FF4806404F132045FEA915C3FF4FF
:10050000D8AE4FF003025FEADC0C18BF03325FEA9B
:10051000DC0C18BF033202EBDC02C2F1200300FA4C
:1005200003FC20FA02F001FA03FE40EA0E0021FA71
:1005300002F11444BDE600BF4FEA4102B2F1E043CC
:1005400024BFB3F5001CDCF1FE5C0DD901F0004CBA
:100550004FEAC0024CEA5070B2F1004F40EB83000A
:1005600008BF20F00100704711F0804F21D113F136
:100570003872BCBF01F00040704741F480114FEA6F
:100580005252C2F11802C2F1200C10FA0CF320FAF8
:1005900002F018BF40F001004FEAC1234FEAD32315
:1005A00003FA0CFC40EA0C0023FA02F34FEA43037F
:1005B000CCE77FEA625307D150EA01331EBF4FF008
:1005C000FE4040F44000704701F0004040F0FE4023
:1005D00040F40000704700BF53B94AB9002908BF72
:1005E00000281CBF4FF0FF314FF0FF3000F074B90E
:1005F000ADF1080C6DE904CE00F006F8DDF804E07A
:10060000DDE9022304B070472DE9F047089D044658
:100610008E46002B4DD18A42944669D9B2FA82F2B5
:1006200052B101FA02F3C2F1200120FA01F10CFAF1
:1006300002FC41EA030E94404FEA1C48210CBEFB29
:10064000F8F61FFA8CF708FB16E341EA034306FBB2
:1006500007F199420AD91CEB030306F1FF3080F041
:100660001F81994240F21C81023E63445B1AA4B28E
:10067000B3FBF8F008FB103344EA034400FB07F730
:10068000A7420AD91CEB040400F1FF3380F00A8171
:10069000A74240F207816444023840EA0640E41B66
:1006A00000261DB1D4400023C5E900433146BDE812
:1006B000F0878B4209D9002D00F0EF800026C5E9B4
:1006C000000130463146BDE8F087B3FA83F6002ECC
:1006D0004AD18B4202D3824200F2F980841A61EB44
:1006E000030301209E46002DE0D0C5E9004EDDE762
:1006F00002B9FFDEB2FA82F2002A40F09280A1EB4A
:100700000C014FEA1C471FFA8CFE0126200CB1FB9E
:10071000F7F307FB131140EA01410EFB03F0884297
:1007200008D91CEB010103F1FF3802D2884200F224
:10073000CB804346091AA4B2B1FBF7F007FB1011B6
:1007400044EA01440EFB00FEA64508D91CEB040454
:1007500000F1FF3102D2A64500F2BB800846A4EBAF
:100760000E0440EA03409CE7C6F12007B34022FA9A
:1007700007FC4CEA030C20FA07F401FA06F31C43C9
:10078000F9404FEA1C4900FA06F3B1FBF9F8200CD6
:100790001FFA8CFE09FB181140EA014108FB0EF01C
:1007A000884202FA06F20BD91CEB010108F1FF3A6C
:1007B00080F08880884240F28580A8F10208614478
:1007C000091AA4B2B1FBF9F009FB101144EA014186
:1007D00000FB0EFE8E4508D91CEB010100F1FF3431
:1007E0006CD28E456AD90238614440EA0840A0FBC9
:1007F0000294A1EB0E01A142C846A64656D353D09F
:100800005DB1B3EB080261EB0E0101FA07F722FAC2
:1008100006F3F1401F43C5E9007100263146BDE8EB
:10082000F087C2F12003D8400CFA02FC21FA03F34E
:10083000914001434FEA1C471FFA8CFEB3FBF7F0CF
:1008400007FB10360B0C43EA064300FB0EF69E42F4
:1008500004FA02F408D91CEB030300F1FF382FD28D
:100860009E422DD9023863449B1B89B2B3FBF7F635
:1008700007FB163341EA034106FB0EF38B4208D90E
:100880001CEB010106F1FF3816D28B4214D9023E4F
:100890006144C91A46EA004638E72E46284605E76D
:1008A0000646E3E61846F8E64B45A9D2B9EB02083E
:1008B00064EB0C0E0138A3E74646EAE7204694E7CE
:1008C0004046D1E7D0467BE7023B614432E7304601
:1008D00009E76444023842E7704700BF844641EAB2
:1008E000000313F003036DD1403A41D351F8043BA8
:1008F00040F8043B51F8043B40F8043B51F8043BFA
:1009000040F8043B51F8043B40F8043B51F8043BE9
:1009100040F8043B51F8043B40F8043B51F8043BD9
:1009200040F8043B51F8043B40F8043B51F8043BC9
:1009300040F8043B51F8043B40F8043B51F8043BB9
:1009400040F8043B51F8043B40F8043B51F8043BA9
:1009500040F8043B51F8043B40F8043B51F8043B99
:1009600040F8043B51F8043B40F8043B403ABDD208
:10097000303211D351F8043B40F8043B51F8043BAA
:1009800040F8043B51F8043B40F8043B51F8043B69
:1009900040F8043B103AEDD20C3205D351F8043B39
:1009A00040F8043B043AF9D2043208D0D2071CBF05
:1009B00011F8013B00F8013B01D30B88038060462E
:1009C000704700BF082A13D38B078DD010F00303A4
:1009D0008AD0C3F10403D21ADB071CBF11F8013B14
:1009E00000F8013B80D331F8023B20F8023B7BE763
:1009F000043AD9D3013A11F8013B00F8013BF9D28E
:100A00000B7803704B7843708B7883706046704727
:100A100000000000000000000000000000000000D6
:100A200000000000000000000000000000000000C6
:100A300000000000000000000000000000000000B6
:100A400090F800F06DE9024520F007016FF0000C0E
:100A500010F0070491F820F040F049804FF00004B6
:100A60006FF00700D1E9002391F840F000F1080091
:100A700082FA4CF2A4FA8CF283FA4CF3A2FA8CF3C9
:100A80004BBBD1E9022382FA4CF200F10800A4FA30
:100A90008CF283FA4CF3A2FA8CF3E3B9D1E9042384
:100AA00082FA4CF200F10800A4FA8CF283FA4CF3BB
:100AB000A2FA8CF37BB9D1E9062301F1200182FA75
:100AC0004CF200F10800A4FA8CF283FA4CF3A2FA7B
:100AD0008CF3002BC6D0002A04BF04301A4612BA89
:100AE000B2FA82F2FDE8024500EBD2007047D1E98C
:100AF000002304F00305C4F100004FEAC50514F01B
:100B0000040F91F840F00CFA05F562EA05021CBFEB
:100B100063EA050362464FF00004A9E70000000005
:100B200001F0FF01102A2BDB10F0070F08D010F89E
:100B3000013B013A8B422DD010F0070F42B3F6D1A2
:100B4000F0B441EA012141EA014122F007047FF0BB
:100B500000070023F0E80256083C85EA010586EA12
:100B6000010685FA47F5A3FA87F586FA47F6A5FA4E
:100B700087F68EB9EED1F0BC01F0FF0102F007025A
:100B800032B110F8013B013A83EA010313B1F8D105
:100B90000020704701387047002D06BF35460338E6
:100BA000073815F0010F07D1013015F4807F02BF1F
:100BB000013015F4C03F0130F0BC0138704700BF70
:100BC00070B54FF0FF0C4CF4E06C1CEA11541DBFE3
:100BD0001CEA135594EA0C0F95EA0C0F00F0DEF8AE
:100BE0002C4481EA030621EA4C5123EA4C5350EA93
:100BF000013518BF52EA033541F4801143F48013E4
:100C000038D0A0FB02CE4FF00005E1FB02E506F074
:100C10000042E0FB03E54FF00006E1FB03569CF0C9
:100C2000000F18BF4EF0010EA4F1FF04B6F5007FCF
:100C300064F5407404D25FEA4E0E6D4146EB060641
:100C400042EAC62141EA55514FEAC52040EA5E50CA
:100C50004FEACE2EB4F1FD0C88BFBCF5E06F1ED874
:100C6000BEF1004F08BF5FEA500E50F1000041EBAB
:100C7000045170BD06F0004646EA010140EA020058
:100C800081EA0301B4EB5C04C2BFD4EB0C0541EA7A
:100C9000045170BD41F480114FF0000E013C00F38F
:100CA000AB8014F1360FDEBF002001F0004170BDB3
:100CB000C4F10004203C35DA0C341BDC04F11404CC
:100CC000C4F1200500FA05F320FA04F001FA05F258
:100CD00040EA020001F0004221F0004110EBD37025
:100CE00021FA04F642EB06015EEA430E08BF20EA51
:100CF000D37070BDC4F10C04C4F1200500FA04F3F4
:100D000020FA05F001FA04F240EA020001F0004185
:100D100010EBD37041F100015EEA430E08BF20EAF8
:100D2000D37070BDC4F1200500FA05F24EEA020E40
:100D300020FA04F301FA05F243EA020321FA04F06F
:100D400001F0004121FA04F220EA020000EBD37026
:100D50005EEA430E08BF20EAD37070BD94F0000F26
:100D60000FD101F00046400041EB010111F4801F5A
:100D700008BF013CF7D041EA060195F0000F18BF0B
:100D8000704703F00046520043EB030313F4801F47
:100D900008BF013DF7D043EA0603704794EA0C0F01
:100DA0000CEA135518BF95EA0C0F0CD050EA410617
:100DB00018BF52EA4306D1D181EA030101F0004194
:100DC0004FF0000070BD50EA410606BF10461946BC
:100DD00052EA430619D094EA0C0F02D150EA0136C8
:100DE00013D195EA0C0F05D152EA03361CBF104609
:100DF00019460AD181EA030101F0004141F0FE41A8
:100E000041F470014FF0000070BD41F0FE4141F42B
:100E1000780170BD70B54FF0FF0C4CF4E06C1CEA2B
:100E200011541DBF1CEA135594EA0C0F95EA0C0FE0
:100E300000F0A7F8A4EB050481EA030E52EA03359B
:100E40004FEA013100F088804FEA03334FF08055BC
:100E500045EA131343EA12634FEA022245EA1115E9
:100E600045EA10654FEA00260EF000419D4208BF9A
:100E7000964244F1FD0404F5407402D25B084FEA47
:100E80003202B61A65EB03055B084FEA32024FF4F3
:100E900080104FF4002CB6EB020E75EB030E22BF50
:100EA000B61A754640EA0C005B084FEA3202B6EB10
:100EB000020E75EB030E22BFB61A754640EA5C00BF
:100EC0005B084FEA3202B6EB020E75EB030E22BF4F
:100ED000B61A754640EA9C005B084FEA3202B6EB50
:100EE000020E75EB030E22BFB61A754640EADC000F
:100EF00055EA060E18D04FEA051545EA16754FEA71
:100F000006164FEAC30343EA52734FEAC2025FEA8E
:100F10001C1CC0D111F4801F0BD141EA00014FF01D
:100F200000004FF0004CB6E711F4801F04BF0143EE
:100F30000020B4F1FD0C88BFBCF5E06F3FF6AFAE0A
:100F4000B5EB030C04BFB6EB020C5FEA500C50F19A
:100F5000000041EB045170BD0EF0004E4EEA11311D
:100F600014EB5C04C2BFD4EB0C0541EA045170BD24
:100F700041F480114FF0000E013C90E645EA060E68
:100F80008DE60CEA135594EA0C0F08BF95EA0C0F96
:100F90003FF43BAF94EA0C0F0AD150EA01347FF4DE
:100FA00034AF95EA0C0F7FF425AF104619462CE7B5
:100FB00095EA0C0F06D152EA03353FF4FDAE104618
:100FC000194622E750EA410618BF52EA43067FF469
:100FD000C5AE50EA41047FF40DAF52EA43057FF4F9
:100FE000EBAE12E74FF0FF3C06E000BF4FF0010C04
:100FF00002E000BF4FF0010C4DF804CD4FEA410C68
:101000007FEA6C5C4FEA430C18BF7FEA6C5C1BD034
:1010100001B050EA410C0CBF52EA430C91EA030FB5
:1010200002BF90EA020F0020704710F1000F91EA12
:10103000030F58BF994208BF90422CBFD8176FEAE0
:10104000E37040F0010070474FEA410C7FEA6C5CAE
:1010500002D150EA013C07D14FEA430C7FEA6C5CB5
:10106000D6D152EA033CD3D05DF8040B704700BFE1
:101070008446104662468C461946634600E000BF2F
:1010800001B5FFF7B7FF002848BF10F1000F01BD01
:101090004DF808EDFFF7F4FF0CBF012000205DF8CC
:1010A00008FB00BF4DF808EDFFF7EAFF34BF012051
:1010B00000205DF808FB00BF4DF808EDFFF7E0FFEA
:1010C00094BF012000205DF808FB00BF4DF808ED3B
:1010D000FFF7CEFF94BF012000205DF808FB00BFA2
:1010E0004DF808EDFFF7C4FF34BF012000205DF884
:1010F00008FB00BF4FEA410C7FEA6C5C02D150EA6A
:10110000013C0AD14FEA430C7FEA6C5C02D152EAFF
:10111000033C02D14FF0000070474FF001007047D0
:101120004FEA410212F5001215D211D56FF478730F
:10113000B3EB625212D94FEAC12343F0004343EAB2
:10114000505311F0004F23FA02F018BF404270478D
:101150004FF00000704750EA013005D111F0004017
:1011600008BF6FF0004070474FF00000704700BFAD
:1011700008B500F0BBFA00F037FB0D4B18700720E4
:1011800000F020FB0B4C2070082000F01BFB60706F
:10119000052000F017FB084C2070062000F012FB21
:1011A000607000F015FB142006F016FFE1E700BFA9
:1011B000480A0020F8090020FC09002008B529E0B1
:1011C000803A803BD1180029B8BF4942142947DD35
:1011D00002EB820207EE902AF8EEE77A234AC2ED8C
:1011E000007A03EB830307EE903AF8EEE77A204BA0
:1011F000C3ED007A1F4B93ED001AB1EE411A1B4B61
:10120000D3ED000A1A4B93ED000A07F0E5FC142019
:1012100006F0E2FE184B1B781BB9184A137801330D
:101220001370164B1B780A2B05D9134B01221A7029
:10123000124B00221A70124B1B78012BE7D10E4B78
:101240001B78012BE3D10F4A537812789918B1F526
:10125000FA7FB5DD0023064A1360044A1360C9E72C
:101260000023034A1360014A1360C3E7040A002005
:10127000000A0020080A00200C0A00200D0A0020A5
:1012800000000020F809002008B509E072B60F4AF6
:10129000D2F8D030013BC2F8D03062B601F0A0FAEB
:1012A0000A4BD3F8D030002BFAD0084AD2F8CC3011
:1012B000D05CD2F8CC300133C2F8CC30C72BE5D9A2
:1012C00013460022C3F8CC20E0E700BF4C0A002000
:1012D00000B583B00B46BDEEC07AF8EEC77A30EEAB
:1012E000670A002204E0F2EE047A20EE270A0132B7
:1012F0009A42F8DBBDEEC00A8DED000A17EE102A07
:10130000024907F003FF03B05DF804FBD80E0108A3
:101310002DE9F8432DED028B534BB3F90000FFF795
:10132000A1F80022514BFFF74BFC0022504BFFF776
:1013300047FC00224F4BFFF743FCFFF7FDF808EE98
:10134000100A4D4BD3ED037AFDEEE77A4B4CDFF8F4
:10135000608117EE903A1AB22146404607F0D6FE59
:10136000474BD3ED037AFDEEE77A17EE903A1AB2C7
:10137000444E52422146304607F0C8FE424BD3ED60
:10138000037AFDEEE77A414F17EE903A1AB2214602
:10139000384607F0BBFE3E4BD3ED037AFDEEE77A0D
:1013A00017EE903A1AB23B4D52422146284607F0BA
:1013B000ADFEDFF8009102214846B0EE480AFFF783
:1013C00087FF354C22460021412001F0F9FB2246DF
:1013D0001421182001F0F4FB22462821182001F0E6
:1013E000EFFB22461421582001F0EAFB2246282177
:1013F000582001F0E5FB294A0021084601F0E0FBF6
:101400004A460021412001F0DBFB254A142100203F
:1014100001F0D6FB42461421182001F0D1FB214AED
:101420002821002001F0CCFB3A462821182001F0A9
:10143000C7FB1D4A1421402001F0C2FB3246142193
:10144000582001F0BDFB194A2821402001F0B8FBCB
:101450002A462821582001F0B3FB01F0FBFA642052
:1014600006F0BAFD58E700BF100A00200000303F28
:101470000000144000002640200B0020E00E010870
:10148000340B00201C0A0020480B0020240A0020F6
:101490005C0B00202C0A002004000020E40E010850
:1014A000F00E0108F40E0108F80E0108FC0E010808
:1014B000140A0020340A002080B582B006F02CFC0B
:1014C00001902E4F2E4BD3ED030A2E4B93ED000AC5
:1014D000384601F00DFE2C4B93ED000A2B4E2C4BA1
:1014E000D3ED030AB1EE400A304601F001FE294D6A
:1014F000294BD3ED030A294B93ED000A284601F04E
:10150000F7FD274B93ED000A264C274BD3ED030A3A
:10151000B1EE400A204601F0EBFD244BD3ED000A6A
:10152000234B93ED000A234801F075FE224B83ED17
:10153000000AD7ED077AFDEEE77A17EE900A00F081
:10154000BFFAD6ED077AFDEEE77A17EE900A00F0C3
:10155000D9FAD5ED077AFDEEE77A17EE900A00F09A
:10156000EBFAD4ED077AFDEEE77A17EE900A00F079
:10157000FDFA052101A806F0DDFC9FE70010002020
:10158000200B0020341200203C12002028100020E4
:10159000340B002050100020480B00204412002083
:1015A0004C120020781000205C0B0020780B0020EB
:1015B000D00F0020D80F0020080A002080B584B08A
:1015C000372006F009FD104B1C785D789E78DF7897
:1015D0000E4BB3F90000FEF745FF00220C4BFFF75E
:1015E000EFFA00220B4BFFF7EBFA00220A4BFFF752
:1015F000E7FACDE90201009733462A46214607481B
:1016000007F0D6FBDCE700BF140A0020100A002018
:101610000000303F0000144000002640000F010889
:1016200010B5044604F066F8054BA3FB00231B0D20
:1016300004FB03F003460138002BFBD110BD00BFB3
:1016400083DE1B4330B583B005460123ADF8063079
:10165000244A00215170ADF806300CE0002202212E
:10166000214803F02AFD14E0BDF806309BB25B0070
:101670009BB2ADF80630BDF806309BB2FF2B2CD8DC
:10168000BDF806301D42E9D001220221164803F0C0
:1016900014FD154C01220821204603F00EFD052003
:1016A000FFF7BEFF00220821204603F006FD0520BB
:1016B000FFF7B6FF01220821204603F0FEFC0121BE
:1016C000204603F0F3FC0028CED0BDF806309AB2D5
:1016D00004494B7813434B70C6E71020FFF7A0FF77
:1016E00003B030BD3C0A00200008024010B582B0B3
:1016F00000228DF807200123ADF8043004212E4884
:1017000003F0DBFC2D4C2078FFF79CFF6078FFF79F
:1017100099FF02238DF807303EE0BDF804309BB2FC
:101720005B009BB2ADF80430BDF804309BB2FF2BD8
:1017300029D8214C01220821204603F0BEFC0520B7
:10174000FFF76EFF00220821204603F0B6FC0520BB
:10175000FFF766FF01220821204603F0AEFC0121BD
:10176000204603F0A3FC0028D7D0BDF8042091B296
:101770009DF80730DBB21248C25C9DF80730DBB23F
:101780000A43C254C9E71020FFF74AFF9DF807300B
:101790000133DBB28DF807309DF80730DBB2082B40
:1017A00003D80123ADF80430BEE70122042102482A
:1017B00003F083FC02B010BD000802400C000020C2
:1017C0003C0A0020014B185C704700BF3C0A002017
:1017D000002304E0034A0021D1540133DBB2082B7B
:1017E000F8D970473C0A002008B5FFF7F1FFFFF772
:1017F0007DFF0D4B1A79D97841EA02210B4B1980F4
:1018000000230F2B0ED80A4A32F81320013A41FA6E
:1018100002F212F0010F02D00133DBB2F1E7013323
:10182000D8B200E0002008BD3C0A0020460A002093
:101830001000002010B5104C00220421204603F0B7
:101840003CFC1020FFF7ECFE0120FFF7FBFE4220DE
:10185000FFF7F8FE0020FFF7F5FE0020FFF7F2FE8D
:101860000020FFF7EFFE01220421204603F025FCB3
:101870001020FFF7D5FE10BD0008024010B5164C31
:1018800000220421204603F018FC1020FFF7C8FEB8
:101890000120FFF7D7FE4320FFF7D4FE0020FFF71B
:1018A000D1FE0120FFF7CEFE0020FFF7CBFE002087
:1018B000FFF7C8FE0020FFF7C5FE0020FFF7C2FEBD
:1018C0000020FFF7BFFE01220421204603F0F5FBB4
:1018D0001020FFF7A5FE10BD0008024010B5154C02
:1018E00000220421204603F0E8FB0120FFF7AAFEB6
:1018F0004420FFF7A7FE0020FFF7A4FE0120FFF71A
:10190000A1FEEE20FFF79EFE0020FFF79BFE0020C9
:10191000FFF798FE0020FFF795FE0020FFF792FEEC
:1019200001220421204603F0C8FB1020FFF778FEB7
:1019300010BD00BF0008024010B5104C0022042169
:10194000204603F0BAFB1020FFF76AFE0120FFF7E4
:1019500079FE4D20FFF776FE0020FFF773FE002092
:10196000FFF770FE0120FFF76DFE012204212046E3
:1019700003F0A3FB1020FFF753FE10BD0008024048
:1019800010B5164C00220421204603F096FB1020CF
:10199000FFF746FE0120FFF755FE4320FFF752FEFA
:1019A0000020FFF74FFE0020FFF74CFE5A20FFF704
:1019B00049FE5A20FFF746FE5A20FFF743FE5A2001
:1019C000FFF740FE5A20FFF73DFE0122042120468A
:1019D00003F073FB1020FFF723FE10BD0008024048
:1019E00008B5FFF727FFFFF725FFFFF723FFFFF7F6
:1019F00045FFFFF773FFFFF79FFFFFF7C1FF08BD2C
:101A000010B514464FF47A7392B2024804F0CDFC3C
:101A1000204610BD30150020F8B5214F3C21384636
:101A200004F090FA1F4E3C21304604F08BFA1E4D14
:101A30003C21284604F086FA1C4C3C21204604F048
:101A400081FA3A68D36843F00103D3603268D368FF
:101A500043F00103D3602A68D36843F00103D360E5
:101A60002268D36843F00103D360114A0023536016
:101A70000021D1601374136013810E4A5360D1604A
:101A80001374136013810C4A5360D1601374136094
:101A900013810A4A5360D160137413601381F8BD37
:101AA00080130020C81300201014002058140020B8
:101AB000200B0020340B0020480B00205C0B002082
:101AC000002807DD0D4B1B6800225A630C4B1B6876
:101AD00058637047002807DB084B1A6800235363DC
:101AE000074A126853637047044B1B6840425863AF
:101AF000034B1B6800225A63704700BFF01200209E
:101B000038130020002805DD0A4B1B6858630022AB
:101B10009A637047002805DB064B1B6800225A6356
:101B20009A637047034B1B6800225A6340429863D4
:101B3000704700BFE8140020002805DD0A4B1B6831
:101B4000586300229A637047002805DB064B1B6828
:101B500000225A639A637047034B1B6800225A6342
:101B600040429863704700BFA8120020002805DD9E
:101B70000A4B1B680022DA6318647047002805DBF3
:101B8000064B1B680022DA631A647047034B1B681C
:101B90004042D86300221A64704700BFA812002098
:101BA00008B50A4601460320FFF72AFF08BD844610
:101BB000002004E01CF803201044C0B219464B1E5C
:101BC0000029F7DC704742B10132034603E011F807
:101BD00001CB03F801CB013AF9D170472DE9F0416F
:101BE000884615461E46069F18B101460A4807F06A
:101BF000DFF8002404E0315D284607F0D9F801340D
:101C0000BC42F8D3B8F1000F03D04146024807F0B8
:101C1000CFF8BDE8F08100BF180F01082DE9F041B1
:101C20002DED048B82B004460378023B362B3BD863
:101C3000DFE813F037003F0047004B004F00530030
:101C400057003A003A003A003A003A003A003A00A7
:101C50003A005B002E04320436043B044004450481
:101C6000740479043A003A003A003A003A003A0023
:101C70007E0483049B04A004A604AB043A00BD04C4
:101C80003A003A00C204C704CC04D104DA04DF04E9
:101C9000E504EA044300F004F504FC04010507052B
:101CA0000C05A84807F0E6F802B0BDEC048BBDE8CF
:101CB000F081A54807F0DEF8F6E7A44807F0DAF867
:101CC000F2E7A34807F0D6F8EEE7A24807F0D2F80B
:101CD000EAE7A14807F0CEF8E6E7A04807F0CAF81F
:101CE000E2E79F4807F0C6F8DEE78678437843EAE4
:101CF000062613F0010F63D1072516F0020F40F0FE
:101D0000BC8016F0040F40F04F8116F0080F40F031
:101D1000B08116F0100F40F0118216F0200F40F045
:101D2000678216F0400F2ED02B1DDBB2E2185278DE
:101D3000E35C43EA02231BB207EE903AF8EEE77A3F
:101D40009FED887A67EE877A0635EDB2864B93ED84
:101D5000007A864A82ED007AC3ED007A77EEC77A80
:101D60009FED837AF4EEC77AF1EE10FA40F39F828A
:101D70009FED807A77EEC77A7F4B93ED007A77EE0E
:101D8000277AC3ED007A16F0800F01D00635EDB248
:101D900016F4807F40F0D48216F4007F40F0088370
:101DA00016F4806F40F0698316F4006F3FF47CAF47
:101DB000615D01F00F020909704806F0F9FF73E751
:101DC000027AC37943EA02231BB208EE103AB8EE56
:101DD000C88ADFED6B9A28EE298A18EE100AFEF702
:101DE00053FB02460B46674806F0E2FFA27A637A8D
:101DF00043EA02231BB209EE103AB8EEC99A29EE63
:101E0000299A19EE100AFEF73FFB02460B465E4880
:101E100006F0CEFF227BE37A43EA02231BB208EEF0
:101E2000903AF8EEE88A68EEA98A18EE900AFEF772
:101E30002BFB02460B46554806F0BAFF28EE088AEF
:101E400029EE099A78EE097A68EEA88A77EEA87AE0
:101E500017EE900AFEF718FB41EC100B0EF0F0FEA7
:101E600051EC100BFEF768FBFEF70EFB02460B462B
:101E7000474806F09DFF0D253FE763195A78635DDB
:101E800043EA02231BB208EE103AB8EEC88ADFED2F
:101E90003C9A28EE298AAF1CFFB218EE100AFEF712
:101EA000F3FA02460B463B4806F082FFE3195A78E4
:101EB000E35D43EA02231BB209EE103AB8EEC99A79
:101EC00029EE299A2F1DFFB219EE100AFEF7DCFA4F
:101ED00002460B46304806F06BFFE3195A78E35D83
:101EE00043EA02231BB208EE903AF8EEE88A68EE65
:101EF000A98A0635EDB218EE900AFEF7C5FA024639
:101F00000B46264806F054FF28EE088A29EE099A67
:101F100078EE097A68EEA88A77EEA87A17EE900A2A
:101F2000FEF7B2FA41EC100B0EF08AFE51EC100BEA
:101F3000FEF702FBFEF7A8FA02460B46184806F029
:101F400037FFDEE6240F01083C0F0108540F01089B
:101F5000700F01088C0F0108A80F0108CC0F0108B1
:101F6000041001080000B43B54120020740B002040
:101F7000000034430000B443780B0020081201082D
:101F8000CDCC9C3B2C1001083810010844100108EE
:101F900050100108601001086C1001087810010849
:101FA0008410010800007A3D63195A78635D43EAA2
:101FB00002231BB208EE103AB8EEC88A5FED079A0A
:101FC00028EE298AAF1CFFB218EE100AFEF75CFA61
:101FD00002460B46C34806F0EBFEE3195A78E35D70
:101FE00043EA02231BB209EE103AB8EEC99A29EE71
:101FF000299A2F1DFFB219EE100AFEF745FA024684
:102000000B46B94806F0D4FEE3195A78E35D43EA7B
:1020100002231BB208EE903AF8EEE88A68EEA98A2D
:102020000635EDB218EE900AFEF72EFA02460B4680
:10203000AE4806F0BDFE28EE088A29EE099A78EE31
:10204000097A68EEA88A77EEA87A17EE900AFEF76A
:102050001BFA41EC100B0EF0F3FD51EC100BFEF7E8
:102060006BFAFEF711FA02460B46A14806F0A0FEF5
:102070004BE663195A78635D43EA02231BB208EE0C
:10208000103AB8EEC88ADFED9B9A28EE298AAF1C79
:10209000FFB218EE100AFEF7F7F902460B46964813
:1020A00006F086FEE3195A78E35D43EA02231BB289
:1020B00009EE103AB8EEC99A29EE299A2F1DFFB2FF
:1020C00019EE100AFEF7E0F902460B468B4806F0BF
:1020D0006FFEE3195A78E35D43EA02231BB208EE70
:1020E000903AF8EEE88A68EEA98A0635EDB218EE65
:1020F000900AFEF7C9F902460B46814806F058FEE1
:1021000028EE088A29EE099A78EE097A68EEA88AFC
:1021100077EEA87A17EE900AFEF7B6F941EC100BAD
:102120000EF08EFD51EC100BFEF706FAFEF7ACF93F
:1021300002460B46734806F03BFEEAE563195A78FF
:10214000635D43EA02231BB207EE903AF8EEE77AAA
:10215000AF1CFFB29FED6C7A67EE877A17EE900A9C
:10216000FEF792F902460B46684806F021FEE31995
:1021700099785A78120242EA0142E35D134312F45D
:10218000000F01D043F07F4307EE903AF8EEE77A74
:102190006F1DFFB29FED5E7A67EE877A17EE900AA9
:1021A000FEF772F902460B465A4806F001FEE319A3
:1021B00099785A78120242EA0142E35D134312F41D
:1021C000000F01D043F07F4307EE903AF8EEE77A34
:1021D0000835EDB29FED507A67EE877A17EE900AD8
:1021E000FEF752F902460B464C4806F0E1FD94E535
:1021F00063195A78635D43EA02231BB207EE903AF3
:10220000F8EEE77A9FED468AAF1CFFB267EE887A58
:1022100017EE900AFEF738F902460B46414806F0E1
:10222000C7FDE3195A78E35D43EA02231BB207EEC8
:10223000903AF8EEE77A2F1DFFB267EE887A17EE34
:10224000900AFEF721F902460B46374806F0B0FD2A
:10225000E3195A78E35D43EA02231BB207EE903A92
:10226000F8EEE77AAF1DFFB267EE887A17EE900AB4
:10227000FEF70AF902460B462C4806F099FDE319D1
:102280005A78E35D43EA02231BB207EE903AF8EE78
:10229000E77A0835EDB267EE887A17EE900AFEF716
:1022A000F3F802460B46224806F082FD39E59FED21
:1022B000217AF4EEC77AF1EE10FA0BD59FED1E7A73
:1022C00077EE877A1D4B93ED007A77EE277AC3ED90
:1022D000007A58E5194B93ED007A77EE277AC3ED33
:1022E000007A50E594100108A0100108AC10010814
:1022F000B810010800B01A3EC8100108D410010837
:10230000E0100108EC1001080AD7233CFC1001087A
:1023100000007A391411010800A08C3A2C11010830
:10232000000000383C11010848110108541101084F
:1023300060110108000034C30000B443780B002092
:102340006219D17893781B0443EA0163527843EA17
:102350000223615D2F1DFFB21943BF4806F028FD1F
:10236000E75D0535EDB217F0010F19D0BB49BC4848
:1023700006F01EFD17F0020F14D0B849B94806F058
:1023800017FD17F0040F0FD0B449B74806F010FD41
:1023900017F0080F0AD0B149B44806F009FDFBE474
:1023A000B349E4E7B249E9E7B149EEE7B049F3E7F9
:1023B00063195A78635D43EA02231BB208EE103AB0
:1023C000B8EEC88ADFEDAB9A28EE298AAF1CFFB2BF
:1023D00018EE100AFEF758F802460B46A64806F01B
:1023E000E7FCE3195A78E35D43EA02231BB209EEE6
:1023F000103AB8EEC99A29EE299A2F1DFFB219EEAC
:10240000100AFEF741F802460B469C4806F0D0FC45
:10241000E3195A78E35D43EA02231BB208EE903ACF
:10242000F8EEE88A68EEA98A0635EDB218EE900A51
:10243000FEF72AF802460B46914806F0B9FC28EE52
:10244000088A29EE099A78EE097A68EEA88A77EE6A
:10245000A87A17EE900AFEF717F841EC100B0EF071
:10246000EFFB51EC100BFEF767F8FEF70DF8024694
:102470000B46844806F09CFC92E463195978635D2E
:102480000235EDB243EA01217F4806F091FC8BE46E
:102490007E4806F0EFFC07E47D4806F0EBFC03E421
:1024A0007C4806F0E7FCFFF7FFBB7B4806F0E2FC48
:1024B000FFF7FABB794806F0DDFCFFF7F5BB417882
:1024C000FF290DD0FE2910D0FD2913D0FC2916D0EC
:1024D000FB2919D0E9B1724806F06AFCFFF7E4BBAA
:1024E000704806F0C7FCFFF7DFBB6F4806F0C2FC80
:1024F000FFF7DABB6D4806F0BDFCFFF7D5BB6C48B3
:1025000006F0B8FCFFF7D0BB6A4806F0B3FCFFF753
:10251000CBBB694806F0AEFCFFF7C6BB674806F0C8
:10252000A9FCFFF7C1BB664806F0A4FCFFF7BCBBE3
:10253000644806F09FFCFFF7B7BB634F634E644DE2
:102540004FF00908CDF80080431C3A463146284632
:10255000FFF744FBCDF8008004F10A033A46314608
:102560002846FFF73BFBFFF79FBB5A4806F082FC6B
:10257000FFF79ABB411C584806F01AFCFFF794BBC2
:10258000564806F077FCFFF78FBB4178544806F0B9
:102590000FFCA178534806F00BFCE178524806F096
:1025A00007FC2179514806F003FCFFF77DBB50483A
:1025B00006F060FCFFF778BB4E4806F05BFCFFF7C7
:1025C00073BB4D4806F056FCFFF76EBB4B4806F058
:1025D00051FCFFF769BB417801EB81014900484894
:1025E00006F0E6FBFFF760BB464806F043FCFFF74A
:1025F0005BBB4178444806F0DBFBFFF755BB434823
:1026000006F038FCFFF750BB4178414806F0D0FB9C
:10261000FFF74ABB3F4806F02DFCFFF745BB827829
:1026200041783D4806F0C4FBFFF73EBB3B4806F04F
:1026300021FCFFF739BB4178394806F0B9FBFFF7B9
:1026400033BB384806F016FCFFF72EBB41783648FE
:1026500006F0AEFBFFF728BB6C110108200F010844
:102660007C1101088C1101089C110108AC110108B2
:102670001C0F0108CDCC9C3BBC110108CC110108FA
:10268000DC110108EC110108FC11010820120108FD
:102690003C1201085C12010898120108D0120108CE
:1026A000AC130108E81201081813010838130108D7
:1026B0006413010888130108D4130108F0130108FA
:1026C0000414010818140108381401084014010802
:1026D00044140108601401087814010890140108DA
:1026E000C8140108E8140108001501081C150108A8
:1026F0003415010848150108581501086C15010822
:1027000090150108B4150108E81501081416010810
:102710002C1601083C1601086416010884160108ED
:10272000A0160108B4160108CC16010870B594B0C3
:1027300006460D460DF1040C274C0FCCACE80F00FB
:102740000FCCACE80F000FCCACE80F0023682CF8DE
:10275000023B1B0C8CF800300023CDF83730CDF84D
:102760003B30CDF83F30CDF84330CDF84730CDF891
:102770004A306B1EDBB2122B28D856B349238DF892
:102780003630164B1B788DF837308DF838502A4686
:1027900031460DF13900FFF716FAA91C0DF137008B
:1027A000FFF705FA05F185030DEB030404F84C0C63
:1027B00005F186036B444D2203F84C2C05F13701DB
:1027C00001A8FFF7EDF9002014B070BD4FF0FF3005
:1027D000FAE74FF0FF30F7E7580E0108300000200D
:1027E00008B50346494A117808181070484A10780D
:1027F000052800F28580DFE800F00315283D5065CC
:10280000492B00D008BD434900220A7001230B70F8
:1028100041494FF0490C81F800C03C490A703C4ADC
:102820001370EFE73B490A7802F1010C81F800C010
:1028300039498B54FF2B04D00130354B18700020E0
:10284000E0E70020324B1870DCE732490A7802F1E9
:10285000010C81F800C030498B54013BDBB2482B9E
:1028600003D900202A4B1870CCE70130284B187090
:102870000020C7E7274991F800C00CF10102D2B24D
:102880000A70254901F80C308B78023393423BDA09
:1028900001301F4B18700020B4E71C4A1170994298
:1028A00003D000201A4B1870ACE71A490A7802F1DD
:1028B000010C81F800C018498B540130144B18707A
:1028C00000209FE7124A002111704D2B01D00020FB
:1028D00098E710490878421CD2B20A700E490B548E
:1028E00049780E4B1B78994203D0FF2B01D0002072
:1028F00088E7053AD1B20A48FFF790F9012081E74D
:102900000020034B18707DE700207BE7700B002050
:10291000710B0020CA0B00207C0B0020300000202F
:102920007F0B002000B583B003238DF80430012114
:1029300001A8FFF7FBFE03B05DF804FB00B583B010
:1029400019238DF80430012101A8FFF7EFFE03B031
:102950005DF804FB10B584B0BDF82CC012240194BE
:1029600000240294CDF80B408DF805008DF8061078
:102970008DF807209DF81820520002F0060203F09F
:1029800001031A438DF808209DF81C308DF809309A
:102990009DF820308DF80A309DF824308DF80B30EA
:1029A0009DF828308DF80C308DF80DC04FEA1C2CA6
:1029B0008DF80EC00B2101A8FFF7B8FE04B010BDC2
:1029C00000B583B005238DF80430012101A8FFF77D
:1029D000ADFE03B05DF804FB38B5044639B1012201
:1029E0004FF400611A4802F068FB002516E000224F
:1029F0004FF40061164802F060FBF6E700224FF446
:102A00000051134802F059FB01224FF48041104855
:102A100002F053FB6400E4B20135EDB2072D0FD88C
:102A200000224FF480410A4802F047FB14F0800F67
:102A3000E4D001224FF40051054802F03EFBE3E7E9
:102A400001224FF40061024802F037FB38BD00BF9D
:102A5000000C024038B500250DE0104B03EBC40319
:102A60000121585DFFF7B8FF0134E4B214F0800F84
:102A7000F3D00135EDB2072D0FD8A5F1500000219C
:102A8000C0B2FFF7A9FF00210846FFF7A5FF00210C
:102A90001020FFF7A1FF0024E8E738BDCC0B002091
:102AA00008B500200BE0094A02EBC30200211154D3
:102AB0000133DBB213F0800FF5D00130C0B207282C
:102AC00001D80023F6E7FFF7C5FF08BDCC0B0020B7
:102AD00010F0800F20D13F291ED8CB08C3F1070387
:102AE000DBB201F00701C1F107014FF0010C0CFA54
:102AF00001F15FFA81FC42B1084A02EBC000C25CFE
:102B00004CEA020C00F803C07047044A02EBC00014
:102B1000C25C22EA0101C154704700BFCC0B002007
:102B20002DE9F04F83B0804689461F469DF830B0AE
:102B3000203AD3B201930C464FF0000A2DE0019BDE
:102B400003EB43031C4A02EB830313F80A502EE005
:102B5000BBFA8BF2520921464046FFF7B9FF6D00E0
:102B6000EDB20134E4B2A4EB0903BB420CD0013650
:102B7000F6B2072E0DD815F0800FE9D05A4621463F
:102B80004046FFF7A5FFEAE708F101085FFA88F879
:102B90004C460AF1010A5FFA8AFABA4509D20C2FAB
:102BA000CDD0064B019A03EB021313F80A5000260E
:102BB000DFE703B0BDE8F08FDC160108501B010809
:102BC00070B582B004460D4616460CE03A2D12D878
:102BD000012300930C2316F8012B29462046FFF70A
:102BE0009FFF0834E4B2337853B17A2CEED9103514
:102BF000EDB20024EAE7FFF753FF00252C46E7E794
:102C000002B070BD10B53A4C00224FF480512046FE
:102C100002F053FA01224FF48051204602F04DFA9F
:102C20000021AE20FFF7D8FE0021D520FFF7D4FE0B
:102C300000215020FFF7D0FE0021A820FFF7CCFE96
:102C400000213F20FFF7C8FE0021D320FFF7C4FE7C
:102C500000210846FFF7C0FE00214020FFF7BCFE20
:102C600000218D20FFF7B8FE00211420FFF7B4FEED
:102C700000212020FFF7B0FE00210220FFF7ACFE6C
:102C80000021A120FFF7A8FE0021C020FFF7A4FE2D
:102C90000021DA20FFF7A0FE00211220FFF79CFEA2
:102CA00000218120FFF798FE0021EF20FFF794FE1E
:102CB0000021D920FFF790FE0021F120FFF78CFEC4
:102CC0000021DB20FFF788FE00213020FFF784FE83
:102CD0000021A420FFF780FE0021A620FFF77CFE44
:102CE0000021AF20FFF778FEFFF7DAFE10BD00BF2E
:102CF000000C024008B5054B1860054B186800230E
:102D000002221946806806F029F908BDCC0F002080
:102D100048000020022801D80120704708B505F0BE
:102D2000CBFF09230360002008BD000010B5013867
:102D300001280AD814464FF0FF3392B207480068C2
:102D400003F033FB40B9204610BD05F0B5FF092361
:102D500003604FF0FF30F7E70520F5E7CC0F0020C8
:102D6000022801D80020704708B505F0A5FF092307
:102D700003604FF0FF3008BD08B505F09DFF092343
:102D800003604FF0FF3008BD08B548B94FF0FF337E
:102D900001220848006803F06EFB40B9012008BD1D
:102DA00005F08AFF092303604FF0FF30F7E70520A5
:102DB000F5E700BFCC0F002008B5022804D84FF477
:102DC00000534B60002008BD05F076FF0923036027
:102DD000F8E700000023194603E0212A0AD0013356
:102DE000DBB2C72B1FD8544AD25C3D2AF5D1591CFF
:102DF000C9B2F2E7013BDBB24F4A525C2D2A14D034
:102E000000225B1ADBB20133DBB2042B6DD010B4AD
:102E1000052B0ED0062B35D09FED480A002A61D134
:102E20005DF8044B70470023E6E70131C9B2012287
:102E3000E7E7414C605C303800EB80004300481C01
:102E4000205C3038034400EE103ACB1CE35C303B8E
:102E500007EE903AF8EEE77A9FED397A67EE877AD7
:102E6000B8EEC00A30EE270A0431635C303B07EE4F
:102E7000903AF8EEE77A9FED337A67EE877A30EE94
:102E8000270ACBE72C4C635CA3F1300C4B1CE05CB5
:102E9000303800EB80004300642000FB0C33881CBA
:102EA000205C3038034400EE103A0B1DE35C303BED
:102EB00007EE903AF8EEE77A9FED217A67EE877A8F
:102EC000B8EEC00A30EE270A0531635C303B07EEEE
:102ED000903AF8EEE77A9FED1B7A67EE877A30EE4C
:102EE000270A9BE7B1EE400A9AE71348435C303B60
:102EF00000EE103A8B1CC35C303B07EE903AF8EEC4
:102F0000E77A9FED0F7A67EE877AB8EEC00A30EE67
:102F1000270A0331435C303B07EE903AF8EEE77A3C
:102F20009FED087A67EE877A30EE270A02B970477C
:102F3000B1EE400A704700BF681100200000000099
:102F4000CDCCCC3D0AD7233C10B50446FFF742FF59
:102F5000012C00D010BD2D4B1B78502B19D0492BC4
:102F60001FD0442B25D0502B2BD0492B31D0442BB4
:102F700037D0532B3DD0502BECD1244B5B786F2BAB
:102F8000E8D1224B9B78732BE4D1214B83ED000ACF
:102F9000E0E71E4A5278312AE1D11E4B83ED000A48
:102FA000D8E71A4A5278312ADBD11A4B83ED010A4D
:102FB000D0E7164A5278312AD5D1164B83ED020A52
:102FC000C8E7124A5278322ACFD1134B83ED000A58
:102FD000C0E70E4A5278322AC9D10F4B83ED010A5D
:102FE000B8E70A4A5278322AC3D10B4B83ED020A62
:102FF000B0E7064A5278702ABDD1044A9278652A11
:10300000B9D1064B83ED000AA4E700BF6811002088
:10301000D00F0020D80F002000100020D40F002077
:1030200000B5284A0023D3605361DFF8BCC0C2F862
:1030300018C0254810621361D361DFED247AC2ED18
:10304000007A5360DFF8A4E0C2F808E0204951623A
:10305000204AD3605361C2F818C010621361D36173
:10306000C2ED007A5360C2F808E051621A4AD36098
:103070005361C2F818C010621361D361C2ED007AC7
:103080005360C2F808E05162144AD3605361C2F839
:1030900018C010621361D361C2ED007A5360C2F8A8
:1030A00008E051620E4AD3605361C2F818C0106242
:1030B0001361D3610B4810605360936051625DF8F7
:1030C00004FB00BF0010002000007A44713DA240C4
:1030D0000AD7233C28100020501000207810002030
:1030E000D80F00200000204100409C4500004041D6
:1030F00070EE600AC0ED030AD0ED097AF4EEE70A3B
:10310000F1EE10FA08D5F1EE677AF4EEE70AF1EE87
:1031100010FA01DD0023C36090ED036A90ED057A9B
:1031200036EE077A80ED057AD0ED016A27EE267A31
:10313000D0ED067AF1EE675AB4EEE57AF1EE10FAC8
:1031400038D5C5EEA67AC0ED057AB5EE400AF1EEA7
:1031500010FA01D100234361D0ED007A66EE277AA0
:1031600090ED057A66EE876A77EEA67A90ED027AA0
:10317000D0ED046A76EE666A27EE267A77EE877AD5
:1031800090ED077A77EE877AC0ED077AB5EEC00A40
:10319000F1EE10FA26DBF5EEC07AF1EE10FA13D458
:1031A00090ED087AF4EEC77AF1EE10FA0EDD80EDBC
:1031B000077A0BE0B4EEE77AF1EE10FAC5DD87EEA0
:1031C000A67A80ED057AC0E70023C36180ED046A2A
:1031D000B5EE400AF1EE10FA01D10023C36190ED83
:1031E000070A7047B5EEC00AF1EE10FAEED590ED81
:1031F000087AB1EE477AF4EEC77AF1EE10FA02D50A
:1032000080ED077AE2E7F5EEC07AF1EE10FADDDD47
:103210000023C361DAE770EE600AC0ED030AD0ED67
:10322000097AF4EEE70AF1EE10FA08D5F1EE677AC2
:10323000F4EEE70AF1EE10FA01DD0023C360D0EDF1
:10324000036AD0ED057A76EEA77AC0ED057A90EDA7
:10325000017A67EE877A90ED066AF1EE465AF4EE4F
:10326000E57AF1EE10FA23D5C5EE877AC0ED057A3E
:10327000B5EE400AF1EE10FA01D10023436190ED62
:10328000000A26EE800AD0ED057A27EE277A30EE86
:10329000070AD0ED027A90ED047A36EEC77A67EE2F
:1032A000877A30EE270A80ED070AC0ED046A70477E
:1032B000F4EEC67AF1EE10FADADDC6EE077AC0ED6A
:1032C000057AD5E700B585B00023009301930293FA
:1032D00003931548154A02604FF4803242608360C0
:1032E00001220261027680F82030C36210498162B7
:1032F000C360C26180F83020426101F015F960B905
:10330000082300930123019302936946064801F0C4
:1033100051FA28B905B05DF804FB00F0ADF9EFE70C
:1033200000F0AAF9F6E700BFA0100020002001403D
:103330000100000F30B589B0002303930493059377
:1033400006930793026803F1804303F590339A4292
:1033500001D009B030BD04460025019503F58C333A
:103360005A6C42F480725A645A6C02F48072019270
:10337000019A02951A6B42F002021A631B6B03F06A
:1033800002030293029B012303930323049303A9E3
:10339000104801F099FD1048104B036045608560AE
:1033A000C5604FF4806303614FF4006343614FF4E1
:1033B000005383614FF48073C3610562456201F07D
:1033C0009DFB18B9044BA3639C63C2E700F054F95A
:1033D000F8E700BF00040240E8100020106402403B
:1033E00000B583B000220192094B196B41F48001B2
:1033F00019631B6B03F480030193019B05213820A3
:1034000001F0B6FA382001F0EBFA03B05DF804FBE6
:103410000038024008B5012003F02DFBFBE7000057
:1034200010B582B0002201210A2003F0ACFF214B2D
:103430001860214A0021214803F0BEFA204B186091
:10344000204B019318240094002380221E491F481A
:1034500004F0CFFB1E4B01930094002380221D49F2
:103460001D4804F0C6FB1D4B0193009400238022ED
:103470001B491C4804F0BDFB1B4B01930094002327
:1034800080221A491A4804F0B4FB1A4B01931D23F9
:103490000093002380221849184804F0AAFB184B17
:1034A00001930094002380221649174804F0A1FBE1
:1034B00002B010BD5C1100209821010815340008ED
:1034C000481100206411002040210108BD150008AA
:1034D0004C1100204C210108BD1100086011002092
:1034E0005C210108711100085011002068210108B9
:1034F000891200085811002074210108B91400082D
:103500005411002080210108111300082DE9F04119
:103510008CB000240794089409940A940B940194A5
:10352000504B1A6B42F010021A631A6B02F0100231
:103530000192019A02941A6B42F080021A631A6B8C
:1035400002F080020292029A03941A6B42F0040283
:103550001A631A6B02F004020392039A04941A6B22
:1035600042F001021A631A6B02F001020492049AFB
:1035700005941A6B42F002021A631A6B02F00202FF
:103580000592059A06941A6B42F008021A631B6BA7
:1035900003F008030693069B334E224640F60E01C5
:1035A000304601F08AFD314F22464FF478413846CB
:1035B00001F083FDDFF8BC8022464FF4885140467D
:1035C00001F07BFD41F20103079308940125099561
:1035D00007A9304601F078FC0E230793089509945B
:1035E00002230A9307A9304601F06EFC4FF44043D2
:1035F00007930894099507A91D4801F065FC4FF44D
:1036000078430793089509940A9407A9384601F06E
:103610005BFC4FF480730793089509940A9407A9FB
:10362000404601F051FC4FF48053079308950995EB
:103630000A9407A9404601F047FC4FF40063079342
:10364000089509940A9407A9304601F03DFC04232B
:1036500007930894099507A9384601F035FC0CB08A
:10366000BDE8F0810038024000080240000C024032
:10367000000402400000024072B6FEE700B595B0BB
:103680003022002108A805F041FB00230393049396
:103690000593069307930193204A116C41F08051E2
:1036A0001164126C02F080520192019A02931C4B39
:1036B0001A6842F480421A601B6803F48043029344
:1036C000029B012308934FF48033099302220E9248
:1036D0004FF480030F9304231093A82111911292A9
:1036E000139308A801F0F0FC98B90F230393022369
:1036F0000493002305934FF4A05306934FF4805393
:103700000793052103A801F045FF20B915B05DF826
:1037100004FBFFF7B1FFFFF7AFFF00BF0038024027
:103720000070004008B500F039FEFFF7A7FFFFF773
:10373000EDFEFFF755FE00F033FC00F041F900F01C
:1037400071F900F0A1F900F0D1F900F0A1FC00F04E
:10375000DDFC00F017FD00F051FD00F069FD00F008
:10376000F7F9FFF7AFFD05F0C5F903F0F7F8FFF73C
:1037700057FE03F005F9FEE700B583B00022009282
:103780000D4B596C41F480415964596C01F48041EE
:10379000009100990192196C41F0805119641B6CE1
:1037A00003F080530193019B0F216FF0010001F0A2
:1037B000DFF803B05DF804FB0038024030B589B093
:1037C000044600230193214B1A6C42F020021A6434
:1037D0001B6C03F020030193019B02A903A801F0D5
:1037E000AFFF069BCBB901F08BFF03461848A0FB47
:1037F00003239B0C013B1748174A026040F2E73253
:10380000C2604360002303618360836102F0AEF90C
:10381000054630B1284609B030BD01F071FF4300C4
:10382000E4E70C4802F03EF805460028F2D13720C4
:1038300001F0D6F80F2C01D90125EBE70022214633
:10384000372001F095F8054B1C60E3E70038024093
:1038500083DE1B435C120020001400404000002067
:10386000FEE7FEE7FEE7FEE7FEE7704708B5034820
:1038700002F060F8024802F05DF808BDA8120020CE
:10388000E814002008B5034802F054F8024802F09A
:1038900051F808BDA8120020F012002008B5034816
:1038A00002F048F8024802F045F808BDA8120020CE
:1038B0003813002008B5024802F03CF808BD00BFEC
:1038C0008013002008B5024802F034F808BD00BF9C
:1038D000C813002008B5024802F02CF808BD00BF4C
:1038E0001014002008B5024802F0BAFE08BD00BF5F
:1038F0003015002008B5024802F01CF808BD00BFD2
:103900005814002008B5024802F014F808BD00BFA2
:10391000A014002008B5024802F00CF808BD00BF52
:103920005C12002008B5024801F0E0F908BD00BFB4
:10393000E810002008B5024802F092FE08BD00BF62
:10394000781500200120704708B505F0B5F9162359
:1039500003604FF0FF3008BD08B54FF0FF31FFF7AF
:10396000F3FFFEE710B503460C4A0D490D48006809
:1039700040B10C4800680344521A934206D8094AE1
:10398000136010BD0748084C0460F2E705F094F995
:103990000C2303604FF0FF30F3E700BF000002206C
:1039A00000040000A4120020C8670020034AD2F8D7
:1039B000883043F47003C2F88830704700ED00E0AF
:1039C00000B58DB02422002103A805F09FF9002343
:1039D0000193029312484FF080420260436083607B
:1039E0004FF0FF32C260036183610323039301231D
:1039F0000593099303A902F011F950B9002301932B
:103A0000029301A9064802F003FB28B90DB05DF846
:103A100004FBFFF731FEF1E7FFF72EFEF6E700BFEC
:103A20008013002000B58DB02422002103A805F0EA
:103A30006DF90023019302931148124A026043601A
:103A400083604FF6FF72C2600361836103230393B7
:103A500001230593099303A902F0E0F850B900236C
:103A60000193029301A9064802F0D2FA28B90DB0D9
:103A70005DF804FBFFF700FEF1E7FFF7FDFDF6E759
:103A8000C81300200004004000B58DB0242200219E
:103A900003A805F03BF90023019302931148124A51
:103AA0000260436083604FF6FF72C260036183610E
:103AB0000323039301230593099303A902F0AEF8AE
:103AC00050B900230193029301A9064802F0A0FA1D
:103AD00028B90DB05DF804FBFFF7CEFDF1E7FFF765
:103AE000CBFDF6E7101400200008004000B58DB0B3
:103AF0002422002103A805F009F900230193029371
:103B00001148124A0260436083604FF0FF32C26086
:103B1000036183610323039301230593099303A99D
:103B200002F07CF850B900230193029301A90648E2
:103B300002F06EFA28B90DB05DF804FBFFF79CFDAA
:103B4000F1E7FFF799FDF6E758140020000C00405C
:103B500000B583B00023009301930F480F4A026021
:103B6000A7224260836040F2E733C3608023836111
:103B700001F0FCFF50B90023009301936946064809
:103B800002F046FA28B903B05DF804FBFFF774FDB4
:103B9000F1E7FFF771FDF6E7A014002000100040E8
:103BA00010B582B00368204A934204D01F4A934262
:103BB00026D002B010BD002400941D4B5A6C42F078
:103BC00001025A645B6C03F001030093009B2246E0
:103BD0000621182000F0CCFE182000F001FF22463C
:103BE0000621192000F0C4FE192000F0F9FE22463B
:103BF00006211A2000F0BCFE1A2000F0F1FED8E7E2
:103C0000002201920A4B596C41F4803159645B6C7B
:103C100003F480330193019B0621182000F0A8FED5
:103C2000182000F0DDFEC4E7000001400040014024
:103C30000038024070B58EB0002309930A930B93AD
:103C40000C930D930368B3F1804F0BD0614A9342FC
:103C500047D0614A93426CD0604A934200F0918011
:103C60000EB070BD0024009403F50E331A6C42F0C0
:103C700001021A641A6C02F001020092009A019487
:103C80001A6B42F001021A631A6B02F001020192F0
:103C9000019A02941A6B42F002021A631B6B03F042
:103CA00002030293029B4FF40043099302260A96F3
:103CB00001250D9509A94A4801F006F90823099341
:103CC0000A960B940C940D9509A9464801F0FCF84E
:103CD000224606211C2000F04BFE1C2000F080FE36
:103CE000BEE700240394404B1A6C42F002021A64AF
:103CF0001A6C02F002020392039A04941A6B42F0C7
:103D000002021A631B6B03F002030493049B30232B
:103D1000099302230A930D9309A9324801F0D4F8BC
:103D2000224606211D2000F023FE1D2000F058FE33
:103D300096E7002405942C4B1A6C42F004021A6496
:103D40001A6C02F004020592059A06941A6B42F06E
:103D500002021A631B6B03F002030693069BC02347
:103D6000099302230A930D9309A91E4801F0ACF8A8
:103D7000224606211E2000F0FBFD1E2000F030FE32
:103D80006EE700240794184B1A6C42F008021A647C
:103D90001A6C02F008020792079A08941A6B42F014
:103DA00001021A631B6B03F001030893089B0323B2
:103DB000099302230A930D9309A9094801F084F895
:103DC00022460621322000F0D3FD322000F008FE0A
:103DD00046E700BF0004004000080040000C00401F
:103DE00000000240000402400038024000B585B0E7
:103DF0000368244A934208D0234A934219D0234AA5
:103E000093422AD005B05DF804FB00220192204BBA
:103E1000196C41F0100119641B6C03F0100301933D
:103E2000019B0521362000F0A3FD362000F0D8FDCF
:103E3000E8E700220292164B596C41F400315964B4
:103E40005B6C03F400330293029B0621192000F0FF
:103E50008FFD192000F0C4FDD4E7002203920C4B23
:103E6000596C41F4802159645B6C03F48023039303
:103E7000039B06211A2000F07BFD1A2000F0B0FD04
:103E8000C0E700BF0010004000440140004801406E
:103E90000038024000B58BB00023059306930793CA
:103EA000089309930368374A93420BD0364A9342EA
:103EB00020D0364A934234D0354A934249D00BB091
:103EC0005DF804FB00230193324B1A6B42F01002A1
:103ED0001A631B6B03F010030193019B4FF4D4434F
:103EE0000593022306930123099305A92A4800F0AC
:103EF000EBFFE4E700230293264B1A6B42F010021B
:103F00001A631B6B03F010030293029B602305935B
:103F1000022306930323099305A91F4800F0D4FF49
:103F2000CDE7002303931B4B1A6B42F002021A6386
:103F30001B6B03F002030393039B4FF48073059301
:103F4000022306930323099305A9144800F0BCFF3C
:103F5000B5E7002304930F4B1A6B42F002021A6379
:103F60001B6B03F002030493049B4FF4007305934F
:103F7000022306930323099305A9084800F0A4FF30
:103F80009DE700BF000001400040014000440140A7
:103F90000048014000380240001002400004024086
:103FA00010B592B000241094119409940A940B94C3
:103FB0000C940D940E940F942022214601A804F035
:103FC000A5FE3148314B0360A7234360846040F273
:103FD000E733C360046144618023836101F0F2FD33
:103FE00000283CD100231093119310A9264802F019
:103FF0000FF8002836D16023099300220A920B9211
:104000000C920D920E920F9209A91F4801F09AFE90
:1040100058BB042209A91C4801F094FE40BB0822A9
:1040200009A9194801F08EFE28BB0C2209A91648DF
:1040300001F088FE10BB00230193029303930493C5
:1040400005934FF400520692089301A90E4802F01E
:1040500025F8B0B90C48FFF71DFF12B010BDFFF7EF
:104060000BFBBFE7FFF708FBC5E7FFF705FBD0E752
:10407000FFF702FBD3E7FFF7FFFAD6E7FFF7FCFAFB
:10408000D9E7FFF7F9FAE5E7A812002000000140A0
:1040900000B589B000230193029303930493059321
:1040A000069307931748184A0260A722426083606C
:1040B00040F2E732C26003618023836101F082FD38
:1040C000B8B960230193002202920392059201A9DC
:1040D0000C4801F037FE78B904220DEB02010948C3
:1040E00001F030FE58B90748FFF7D4FE09B05DF87B
:1040F00004FBFFF7C1FAE4E7FFF7BEFAECE7FFF7CE
:10410000BBFAF0E7E81400200040014000B589B098
:10411000002301930293039304930593069307935B
:104120001648174A0260A7224260836040F2E732D5
:10413000C26003618023836101F018FDA0B90F48BC
:1041400001F040FD98B9602301930022029203928E
:10415000059201A9094801F0F5FD58B90748FFF794
:1041600099FE09B05DF804FBFFF786FAE7E7FFF771
:1041700083FAE8E7FFF780FAF0E700BFF0120020CB
:104180000044014000B589B00023019302930393DA
:1041900004930593069307931648174A0260A722D3
:1041A0004260836040F2E732C26003618023836132
:1041B00001F0DCFCA0B90F4801F004FD98B96023C0
:1041C0000193002202920392059201A9094801F08D
:1041D000B9FD58B90748FFF75DFE09B05DF804FB6B
:1041E000FFF74AFAE7E7FFF747FAE8E7FFF744FA8D
:1041F000F0E700BF381300200048014008B50A4826
:104200000A4B03604FF4E133436000238360C360D3
:1042100003610C2242618361C36102F096F800B928
:1042200008BDFFF729FAFBE73015002000440040E5
:1042300008B50A480A4B03604FF4E133436000239A
:104240008360C36003610C2242618361C36102F039
:104250007CF800B908BDFFF70FFAFBE778150020DE
:104260000014014010B58AB000230593069307930C
:104270000893099303682F4A934204D02E4A93422D
:104280002CD00AB010BD002401942C4B1A6C42F4BF
:1042900000321A641A6C02F400320192019A0294FC
:1042A0001A6B42F001021A631B6B03F001030293C5
:1042B000029B0C23059302230693032308930723F1
:1042C000099305A91E4800F0FFFD2246062126207D
:1042D00000F04EFB262000F083FBD2E7002403947D
:1042E000164B5A6C42F020025A645A6C02F02002BB
:1042F0000392039A04941A6B42F004021A631B6B34
:1043000003F004030493049BC02305930223069344
:10431000032308930823099305A90A4800F0D4FD54
:1043200022460521472000F023FB472000F058FBE0
:10433000A7E700BF004400400014014000380240DD
:104340000000024000080240DFF834D0FFF72EFBE7
:104350000C480D490D4A002302E0D458C4500433E0
:10436000C4188C42F9D30A4A0A4C002301E01360B6
:104370000432A242FBD304F0A5FCFFF7D3F9704747
:104380000000022000000020F4090020402601085F
:10439000F8090020C4670020FEE7000008B50B4BB9
:1043A0001A6842F400721A601A6842F480621A6055
:1043B0001A6842F480721A60032000F0C7FA0F20D6
:1043C000FFF7FCF9FFF7D8F9002008BD003C0240D8
:1043D000034A1168034B1B780B441360704700BFFE
:1043E000C01500203C000020014B1868704700BF3A
:1043F000C01500204A4B5A6822F440325A605A686D
:1044000041680A435A600268536823F4807353601A
:1044100002685368016943EA0123536002685368E4
:1044200023F0407353600268536881680B43536004
:104430000268936823F40063936002689368C1681C
:104440000B439360826A374B9A4257D00268936855
:1044500023F07063936002689368816A0B439360F2
:104460000268936823F04053936002689368C16ABE
:104470000B4393600268936823F002039360026821
:104480009368017E43EA4103936090F82030002B4B
:104490003FD00268536843F4006353600268536876
:1044A00023F46043536001684B68426A013A43EA6F
:1044B00042334B600268D36A23F47003D36201680D
:1044C000CB6AC269013A43EA0253CB62026893683D
:1044D00023F4007393600268936890F8301043EA05
:1044E000412393600268936823F4806393600268B9
:1044F0009368416943EA8123936070470268936837
:1045000023F0706393600268936823F040539360D4
:10451000B0E70268536823F400635360CAE700BF42
:10452000002301400100000F38B310B50446036CAE
:1045300043B1236C13F0100F0BD00120002384F83B
:104540003C3010BDFEF7F6FE0023636484F83C3077
:10455000EFE7236C23F4885323F0020343F00203B4
:1045600023642046FFF746FF00206064236C23F09D
:10457000030343F001032364E0E7012070470000D8
:1045800010B582B013460022019290F83C20012A17
:1045900000F0AE800446012280F83C20026890685A
:1045A00010F0010F13D1906840F001009060534A61
:1045B0001068534AA2FB0020800C00EB40000190E1
:1045C00002E001980138019001980028F9D1226891
:1045D000906810F4807F03D0906820F48070906021
:1045E0002268906810F0010F77D0206C20F4E06012
:1045F00020F0010040F480702064526812F4806F53
:1046000005D0226C22F4405242F480522264226C83
:1046100012F4805F36D0626C22F0060262640022DF
:1046200084F83C20A26B3748D063A26B36481064F4
:10463000A26B3648D06422686FF0220010602068B8
:10464000426842F0806242602068826842F4807270
:10465000826020680A4600F14C01A06B00F0B4FAB9
:104660002B4B5B6813F01F0F27D12368294A934215
:1046700011D002F58072934207D0274A934214D09A
:10468000002033E000226264C9E702F5007252683C
:1046900012F01F0FF1D19A6812F0405F2AD19A6888
:1046A00042F080429A60002020E002F58072526859
:1046B00012F0100FEFD0002018E02368154A934243
:1046C00001D0002012E09A6812F0405F14D19A687D
:1046D00042F080429A60002008E0236C43F010030F
:1046E0002364636C43F001036364002002B010BDD7
:1046F0000220FBE70020F9E70020F7E73800002060
:1047000083DE1B4343470008214700082D4700086C
:104710000023014000200140002201407047704703
:1047200008B5806BFFF7FBFF08BD704708B5806BCD
:1047300040230364436C43F004034364FFF7F5FF35
:1047400008BD08B50346806B026C12F0500F25D1EE
:10475000036C43F40073036403689A6812F0405FCB
:1047600019D1027EBAB9DA6A12F4700F03D09A68CE
:1047700012F4806F0FD15A6822F020025A60036C45
:1047800023F480730364036C13F4805F03D1036C20
:1047900043F001030364FFF7C1FF08BD026C12F090
:1047A000100F04D1826BD26C18469047F5E7FFF7E3
:1047B000BCFFF2E730B482B00023019390F83C30A4
:1047C000012B00F0BB80012380F83C300B68092BE3
:1047D00041D90468E2689BB203EB43031E3B4FF0F0
:1047E000070C0CFA03F322EA0303E3600468E268AF
:1047F0000B8803EB43031E3B8D6805FA03F3134359
:10480000E3604B68062B3DD80468626B03EB8303BF
:10481000053B4FF01F0C0CFA03F322EA030363631A
:104820000468626B4B6803EB8303053BB1F800C07F
:104830000CFA03F3134363630268414B9A4251D06D
:1048400002683F4B9A4256D0002380F83C3018460D
:1048500002B030BC7047046822699BB203EB43038B
:104860004FF0070C0CFA03F322EA030323610468F8
:1048700022690B8803EB43038D6805FA03F31343A6
:104880002361BEE70C2B16D805682A6B03EB830364
:10489000233B1F2404FA03F322EA03032B63056876
:1048A0002A6B4B6803EB8303233B0C8804FA03F366
:1048B00013432B63C0E70568EA6A03EB8303413BBC
:1048C0001F2404FA03F322EA0303EB620568EA6A91
:1048D0004B6803EB8303413B0C8804FA03F3134357
:1048E000EB62A9E70B68122BAAD1164A536843F46E
:1048F00080035360A4E70B68103B012BA4D8114A36
:10490000536843F4000353600B68102B9CD10E4B8B
:104910001B6802F1467202F52E3202F28332A2FBCC
:1049200003239B0C03EB83035B00019302E0019BD9
:10493000013B0193019B002BF9D185E7022087E71A
:10494000002001400023014038000020074AD368BE
:1049500023F4E0631B041B0C000200F4E06003433B
:1049600043F0BF6343F40033D360704700ED00E0D1
:1049700000B5194BDB68C3F30223C3F1070CBCF18C
:10498000040F28BF4FF0040C03F1040EBEF1060F14
:1049900018D9033B4FF0FF3E0EFA0CFC21EA0C0144
:1049A00099400EFA03F322EA0303194300280BDBB4
:1049B0000901C9B200F1604000F5614080F80013C0
:1049C0005DF804FB0023E5E700F00F000901C9B220
:1049D000024B1954F4E700BF00ED00E014ED00E0D5
:1049E000002807DB00F01F02400901239340024A20
:1049F00042F82030704700BF00E100E030B40568A5
:104A00002C6824F480242C60046863608368402B45
:104A100005D0036899600368DA6030BC70470368AA
:104A20009A600368D960F8E710B40368D9B2103906
:104A30000C4AA2FB014212090B4CA25CC2655F2921
:104A400009D923F47F7323F0030304338365806D56
:104A50005DF8044B704723F47F7323F003038365F1
:104A6000F5E700BFABAAAAAAD4210108836A82692C
:104A700092B9012B0AD0022B02D00BB10020704753
:104A8000C36A13F0807F28D100207047C36AB3F156
:104A9000C07F24D000207047B2F5005F09D0022B00
:104AA00025D9032B25D1C36A13F0807F23D10020A1
:104AB0007047032B03D8DFE803F01404140A002026
:104AC0007047C36A13F0807F0DD100207047C36A1E
:104AD000B3F1C07F09D0002070470120704701204A
:104AE0007047012070470120704701207047012066
:104AF00070470020704701207047000070B50446E1
:104B0000FFF772FC002C5BD00546022384F8353099
:104B1000002384F834302268136823F00103136003
:104B200023681A6812F0010F0AD0FFF75DFC431BDF
:104B3000052BF5D920236365032084F8350070BD6B
:104B40001A68204810406168A2680A43E1680A4375
:104B500021690A4361690A43A1690A43E1690A4379
:104B6000216A0A430243616A04291ED01A6026683A
:104B7000756925F00705636A1D43042B07D1A36AF5
:104B80001D43E36A1BB12046FFF770FF90B97561C2
:104B90002046FFF749FFE26D3F23934083600020EA
:104BA0006065012384F83530C9E7E16A206B014371
:104BB0000A43DBE740236365012084F83500BEE744
:104BC0000120BCE73F8010F038B50446856D90F8B1
:104BD000340001282BD0012084F8340094F83500EB
:104BE000C0B2012804D0002384F83430022038BD3C
:104BF000022084F83500002060652046FFF7FEFEA5
:104C0000E26D3F239340AB602268136843F01603C4
:104C10001360236C23B12268136843F00803136008
:104C20002268136843F0010313600020DFE70220CD
:104C3000DDE770B50446866DFFF7D6FB94F8353096
:104C4000DBB2022B06D080236365002384F8343066
:104C5000012070BD05462268136823F01603136017
:104C60002268536923F080035361236CE3B1226807
:104C7000136823F0080313602268136823F001030C
:104C8000136023681B6813F0010F11D0FFF7ACFB12
:104C9000431B052BF5D920236365032084F83500D9
:104CA000002384F83430D4E7A36C002BDFD1E3E792
:104CB000E26D3F239340B360012384F83530002038
:104CC00084F83400C5E790F83530DBB2022B03D00E
:104CD0008023436501207047052380F83530026842
:104CE000136823F00103136000207047F0B583B010
:104CF000044600230193724B1D68724BA3FB0535DC
:104D0000AD0A876D3E68C26D08239340334210D0D0
:104D100003681A6812F0040F0BD01A6822F004021C
:104D20001A60C26D08239340BB60436D43F00103DA
:104D30004365E26D01239340334209D022685269F2
:104D400012F0800F04D0BB60636D43F00203636513
:104D5000E26D04239340334209D02268126812F0B6
:104D6000020F04D0BB60636D43F004036365E26D22
:104D700010239340334224D02268126812F0080FA7
:104D80001FD0BB6023681A6812F4802F0DD01B68F7
:104D900013F4002F04D1236C9BB12046984710E0F8
:104DA000A36C73B1204698470BE01A6812F4807F19
:104DB00003D11A6822F008021A60236C0BB1204656
:104DC0009847E26D20239340334255D02268126801
:104DD00012F0100F50D0BB6094F83530DBB2052BC9
:104DE0000ED023681A6812F4802F33D01B6813F496
:104DF000002F2AD1636C002B3ED0204698473BE021
:104E00002268136823F0160313602268536923F0A5
:104E100080035361236CA3B12268136823F0080355
:104E20001360E26D3F239340BB60012384F835306B
:104E3000002384F83430236D002B3FD02046984760
:104E40003CE0A36C002BE7D1EBE7E36BA3B120467A
:104E5000984711E01A6812F4807F09D11A6822F08D
:104E600010021A60012384F83530002384F83430AE
:104E7000E36B0BB120469847636DFBB1636D13F094
:104E8000010F17D0052384F835302268136823F00A
:104E900001031360019B01330193AB4204D82368E3
:104EA0001B6813F0010FF5D1012384F8353000237E
:104EB00084F83430E36C0BB12046984703B0F0BD62
:104EC00038000020B5814E1B00230F2B00F2E48038
:104ED00070B582B060E085685E000324B44025EAC6
:104EE0000405CC68B4402C438460456825EA02057B
:104EF0004C68C4F300129A402A4342605AE0DC082E
:104F0000083450F8246003F0070295000F22AA40ED
:104F100026EA020E0A69AA4042EA0E0240F824205C
:104F20005CE0072200E0002202FA0EF22A4302347B
:104F30005A4D45F824205A4A94686FEA0C0224EA34
:104F40000C054E6816F4801F01D04CEA0405544C41
:104F5000A560E46802EA04054E6816F4001F01D05B
:104F60004CEA04054E4CE560646802EA04054E68AC
:104F700016F4003F01D04CEA0405494C65602468F2
:104F800022404D6815F4803F01D04CEA0402444CA5
:104F9000226001330F2B7DD801229A400C6804EA6D
:104FA000020C32EA0404F4D14C6804F00304013C1E
:104FB000012C90D94A6802F00302032A09D0C46880
:104FC0005D000322AA4024EA02048A68AA40224320
:104FD000C2604A6802F00302022A90D004684FEAD5
:104FE000430E032202FA0EF224EA02044A6802F097
:104FF000030202FA0EF2224302604A6812F4403FB2
:10500000C7D000220192274A546C44F4804454646F
:10501000526C02F480420192019A9C08A51C1F4A1E
:1050200052F8255003F003024FEA820E0F2202FAD3
:105030000EF225EA02051C4A90423FF474AF02F5D5
:10504000806290421AD002F58062904218D002F538
:105050008062904216D002F58062904214D002F530
:105060008062904212D002F58062904210D002F528
:10507000806290423FF455AF082255E7012253E782
:10508000022251E703224FE704224DE705224BE7B6
:10509000062249E702B070BD704700BF00380140EA
:1050A000003C014000380240000002400369194200
:1050B00001D001207047002070470AB1816170471C
:1050C0000904816170470000002800F0E08170B59C
:1050D00082B00446036813F0010F3BD09F4B9B68DE
:1050E00003F00C03042B2CD09C4B9B6803F00C03A7
:1050F000082B21D06368B3F5803F4FD0B3F5A02FC4
:1051000052D0964B1A6822F480321A601A6822F440
:1051100080221A606368002B50D0FFF765F90546BE
:105120008E4B1B6813F4003F14D1FFF75DF9401B51
:105130006428F5D90320B1E1884B5B6813F4800F34
:10514000D8D0864B1B6813F4003F03D06368002B54
:1051500000F09F81236813F0020F54D07F4B9B68AF
:1051600013F00C0F3ED07D4B9B6803F00C03082B13
:1051700033D0E368002B68D0794B01221A60FFF727
:1051800033F90546754B1B6813F0020F54D1FFF736
:105190002BF9401B0228F5D903207FE16F4A1368E1
:1051A00043F480331360B5E76C4B1A6842F48022F5
:1051B0001A601A6842F480321A60ABE7FFF714F9FC
:1051C0000546664B1B6813F4003FC3D0FFF70CF98C
:1051D000401B6428F5D9032060E1604B5B6813F441
:1051E000800FC6D15D4B1B6813F0020F03D0E3683C
:1051F000012B40F05081594A136823F0F8032169CC
:1052000043EAC1031360236813F0080F42D06369B7
:105210006BB3534B0122C3F8802EFFF7E5F8054628
:105220004E4B5B6F13F0020F34D1FFF7DDF8401BDC
:105230000228F5D9032031E1484A136823F0F80326
:10524000216943EAC1031360DDE7454B00221A6080
:10525000FFF7CAF80546414B1B6813F0020FD2D086
:10526000FFF7C2F8401B0228F5D9032016E13C4B9A
:105270000022C3F8802EFFF7B7F80546374B5B6F67
:1052800013F0020F06D0FFF7AFF8401B0228F5D944
:10529000032003E1236813F0040F77D02F4B1B6C1E
:1052A00013F0805F33D1002301932C4B1A6C42F032
:1052B00080521A641B6C03F080530193019B0125FB
:1052C000284B1B6813F4807F23D0A368012B34D0B4
:1052D000052B38D0214B1A6F22F001021A671A6F82
:1052E00022F004021A67A368002B3DD0FFF77CF878
:1052F00006461A4B1B6F13F0020F46D1FFF774F8E6
:10530000801B41F288339842F3D90320C6E0002580
:10531000D6E7144A136843F480731360FFF764F808
:105320000646104B1B6813F4807FCED1FFF75CF864
:10533000801B0228F5D90320B0E0084A136F43F020
:1053400001031367CFE7054B1A6F42F004021A6797
:105350001A6F42F001021A67C5E700BF0038024029
:105360000000474200700040FFF73EF80646524BEF
:105370001B6F13F0020F08D0FFF736F8801B41F2C5
:1053800088339842F3D9032088E0EDB9A369002B54
:1053900000F08380484A926802F00C02082A51D03B
:1053A000022B17D0454B00221A66FFF71DF8044662
:1053B000414B1B6813F0007F42D0FFF715F8001B2C
:1053C0000228F5D9032069E03B4A136C23F080538F
:1053D0001364DBE7394B00221A66FFF705F8054630
:1053E000354B1B6813F0007F06D0FEF7FDFF401B16
:1053F0000228F5D9032051E0E369226A1343626A67
:1054000043EA8213A26A5208013A43EA0243E26A7B
:1054100043EA0263284A5360284B01221A66FEF7CA
:10542000E3FF0446244B1B6813F0007F06D1FEF710
:10543000DBFF001B0228F5D903202FE000202DE020
:1054400000202BE0012B2BD01B4B5B6803F4800169
:10545000E269914226D103F03F02216A8A4223D1B8
:10546000616A47F6C0721A40B2EB811F1ED103F485
:105470004031A26A5208013AB1EB024F18D103F051
:105480007063E26AB3EB026F14D1002006E00120E2
:105490007047012002E0012000E0002002B070BD52
:1054A0000120FBE70120F9E70120F7E70120F5E7FC
:1054B0000120F3E70120F1E70038024000004742F5
:1054C00008B5314B9B6803F00C03042B57D0082B15
:1054D00057D12D4B5A6802F03F025B6813F4800FDE
:1054E0002AD0294B5968C1F3881C4FEA4C11B1EB03
:1054F0000C006EEB0E0E4FEA8E1343EA90638101AF
:10550000091A63EB0E03DB0043EA5173C90011EB88
:105510000C0C43F10003590200234FEA4C2041EAEE
:10552000DC51FBF759F8184B5B68C3F301430133B7
:105530005B00B0FBF3F025E0134B5968C1F3881C06
:105540004FEA4C11B1EB0C006EEB0E0E4FEA8E13CE
:1055500043EA90638101091A63EB0E03DB0043EA1F
:105560005173C90011EB0C0C43F1000399020023A5
:105570004FEA8C2041EA9C51FBF72EF8D3E7034811
:1055800000E0034808BD00BF0038024000127A0066
:105590000024F400002800F09B8070B50D460446FE
:1055A0004F4B1B6803F007038B4208D2CBB24C4A27
:1055B0001370136803F007038B4240F08B8023685D
:1055C00013F0020F17D013F0040F04D0454A93686C
:1055D00043F4E0539360236813F0080F04D0414A6A
:1055E000936843F4604393603E4A936823F0F0036A
:1055F000A1680B439360236813F0010F32D06368F6
:10560000012B21D09A1E012A25D9364A126812F0A0
:10561000020F61D033498A6822F0030213438B6082
:10562000FEF7E2FE06462F4B9B6803F00C03626810
:10563000B3EB820F16D0FEF7D7FE801B41F2883302
:105640009842F0D9032042E0264A126812F4003F43
:10565000E0D101203BE0234A126812F0007FD9D14B
:10566000012034E01E4B1B6803F00703AB4207D94F
:10567000EAB21B4B1A701B6803F00703AB422DD133
:10568000236813F0040F06D0164A936823F4E053FE
:10569000E1680B439360236813F0080F07D0114AA9
:1056A000936823F46043216943EAC1039360FFF7E1
:1056B00007FF0C4B9B68C3F303130B4AD35CD84022
:1056C0000A4B18600A4B1868FEF778F8002070BD86
:1056D000012070470120FAE70120F8E70120F6E7F2
:1056E000003C024000380240BC2101083800002084
:1056F00040000020014B1868704700BF38000020B0
:1057000008B5FFF7F7FF044B9B68C3F38223034AF6
:10571000D35CD84008BD00BF00380240CC2101084E
:1057200008B5FFF7E7FF044B9B68C3F34233034A16
:10573000D35CD84008BD00BF00380240CC2101082E
:105740000F2303600B4B9A6802F0030242609A68D1
:1057500002F0F00282609A6802F4E052C2609B6834
:10576000DB0803F4E0530361034B1B6803F00703FA
:105770000B60704700380240003C024030B4036ABE
:10578000026A22F0010202624268846924F0730412
:105790000D682C4323F0020C8B6843EA0C03104D78
:1057A000A84203D005F58065A84205D123F008037F
:1057B000CD682B4323F00403094DA84203D005F51F
:1057C0008065A84205D122F440724D692A438D6953
:1057D0002A43426084614A684263036230BC704776
:1057E0000000014030B4036A026A22F4807202624F
:1057F0004268C46924F0730C0C6844EA0C0523F475
:1058000000738C6843EA0423114CA04203D004F5D2
:105810008064A04206D123F40063CC6843EA0423E9
:1058200023F480630A4CA04203D004F58064A042B4
:1058300007D122F440524C6942EA04128C6942EAD0
:1058400004124260C5614A68C263036230BC70479B
:105850000000014030B4036A026A22F480520262FE
:105860004468C26922F4E6420D6842EA052223F444
:1058700000538D6843EA0533094DA84203D005F56E
:105880008065A84204D124F480444D6944EA85141B
:105890004460C2614A680264036230BC704700BF62
:1058A0000000014090F83D30DBB2012B37D10223DC
:1058B00080F83D300268D36843F00103D360036889
:1058C000194A934220D0B3F1804F1DD0A2F57C42FB
:1058D000934219D002F58062934215D002F580629E
:1058E000934211D002F5784293420DD002F57052E6
:1058F000934209D0A2F59432934205D01A6842F03F
:1059000001021A60002070479A6802F00702062A16
:1059100007D01A6842F001021A6000207047012087
:1059200070470020704700BF00000140704770477B
:105930007047704770B504460368DE681D6915F04E
:10594000020F10D016F0020F0DD06FF002021A6194
:105950000123037703689B6913F0030F5ED0FFF701
:10596000E6FF0023237715F0040F12D016F0040F82
:105970000FD023686FF004021A6102232377236893
:105980009B6913F4407F4FD02046FFF7D0FF0023E0
:10599000237715F0080F12D016F0080F0FD02368E8
:1059A0006FF008021A61042323772368DB6913F080
:1059B000030F40D02046FFF7BAFF0023237715F0EE
:1059C000100F12D016F0100F0FD023686FF01002D6
:1059D0001A61082323772368DB6913F4407F31D0F1
:1059E0002046FFF7A4FF0023237715F0010F02D014
:1059F00016F0010F2DD115F0800F02D016F0800F98
:105A00002FD115F0400F02D016F0400F31D115F014
:105A1000200F02D016F0200F33D170BDFFF786FFA4
:105A20002046FFF785FF9CE72046FFF77FFF2046D3
:105A3000FFF77EFFABE72046FFF778FF2046FFF732
:105A400077FFBAE72046FFF771FF2046FFF770FFA8
:105A5000C9E723686FF001021A61204602F0F2FEE6
:105A6000C9E723686FF080021A61204600F040FB0E
:105A7000C7E723686FF040021A612046FFF759FF1D
:105A8000C5E723686FF020021A61204600F02FFB63
:105A9000C3E700000368344A904212D0B0F1804F4F
:105AA0000FD0A2F57C4290420BD002F5806290426A
:105AB00007D002F58062904203D002F5784290420E
:105AC00003D123F070034A681343274A90422AD037
:105AD000B0F1804F27D0A2F57C42904223D002F54E
:105AE000806290421FD002F5806290421BD002F586
:105AF0007842904217D002F57052904213D002F5CE
:105B0000806290420FD002F5806290420BD0A2F5E5
