:020000040800F2
:10000000000002207D3B0008352D0008372D000838
:10001000392D00083B2D00083D2D00080000000090
:1000200000000000000000000000000071680008EF
:100030003F2D00080000000011690008B3650008AA
:10004000CD3B0008CD3B0008CD3B0008CD3B000870
:10005000CD3B0008CD3B0008CD3B0008CD3B000860
:10006000CD3B0008CD3B0008CD3B0008CD3B000850
:10007000CD3B0008CD3B0008CD3B0008CD3B000840
:10008000CD3B0008CD3B0008CD3B0008CD3B000830
:10009000CD3B0008CD3B0008CD3B0008CD3B000820
:1000A000412D0008592D0008712D0008CD3B000896
:1000B000892D0008992D0008A92D0008CD3B0008C6
:1000C000CD3B0008CD3B0008CD3B0008CD3B0008F0
:1000D000CD3B0008CD3B0008B92D0008C92D000814
:1000E000CD3B0008CD3B0008CD3B0008D92D0008D2
:1000F000E92D0008F92D0008CD3B0008CD3B000894
:10010000CD3B0008CD3B0008092E0008CD3B000880
:10011000CD3B0008CD3B0008192E0008292E000811
:10012000392E0008492E0008CD3B0008CD3B0008C1
:10013000CD3B0008CD3B0008CD3B0008CD3B00087F
:10014000CD3B0008CD3B0008CD3B0008CD3B00086F
:10015000CD3B0008592E0008CD3B0008692E000851
:10016000CD3B0008CD3B0008CD3B0008CD3B00084F
:10017000CD3B0008CD3B0008CD3B0008000000004F
:08018000CD3B0008CD3B000857
:1001C00081F0004102E000BF83F0004330B54FEA08
:1001D00041044FEA430594EA050F08BF90EA020F75
:1001E0001FBF54EA000C55EA020C7FEA645C7FEA08
:1001F000655C00F0E2804FEA5454D4EB5555B8BF2B
:100200006D420CDD2C4480EA020281EA030382EA9B
:10021000000083EA010180EA020281EA0303362D2D
:1002200088BF30BD11F0004F4FEA01314FF4801C00
:100230004CEA113102D0404261EB410113F0004F12
:100240004FEA03334CEA133302D0524263EB4303C9
:1002500094EA050F00F0A780A4F10104D5F1200E67
:100260000DDB02FA0EFC22FA05F2801841F10001C2
:1002700003FA0EF2801843FA05F359410EE0A5F196
:1002800020050EF1200E012A03FA0EFC28BF4CF0C7
:10029000020C43FA05F3C01851EBE37101F000457D
:1002A00007D54FF0000EDCF1000C7EEB00006EEB8A
:1002B0000101B1F5801F1BD3B1F5001F0CD3490814
:1002C0005FEA30004FEA3C0C04F101044FEA44526B
:1002D00012F5800F80F09A80BCF1004F08BF5FEAF2
:1002E000500C50F1000041EB045141EA050130BDD2
:1002F0005FEA4C0C404141EB0101013C28BFB1F5E4
:10030000801FE9D291F0000F04BF01460020B1FA2E
:1003100081F308BF2033A3F10B03B3F120020CDA01
:100320000C3208DD02F1140CC2F10C0201FA0CF0DF
:1003300021FA02F10CE002F11402D8BFC2F1200C44
:1003400001FA02F120FA0CFCDCBF41EA0C019040FA
:10035000E41AA2BF01EB0451294330BD6FEA040443
:100360001F3C1CDA0C340EDC04F11404C4F120022E
:1003700020FA04F001FA02F340EA030021FA04F340
:1003800045EA030130BDC4F10C04C4F1200220FA97
:1003900002F001FA04F340EA0300294630BD21FAD5
:1003A00004F0294630BD94F0000F83F4801306BF9B
:1003B00081F480110134013D4EE77FEA645C18BF8F
:1003C0007FEA655C29D094EA050F08BF90EA020F26
:1003D00005D054EA000C04BF1946104630BD91EA1E
:1003E000030F1EBF0021002030BD5FEA545C05D121
:1003F0004000494128BF41F0004130BD14F5800460
:100400003CBF01F5801130BD01F0004545F0FE41D3
:1004100041F470014FF0000030BD7FEA645C1ABF08
:10042000194610467FEA655C1CBF0B46024650EA3F
:10043000013406BF52EA033591EA030F41F400216B
:1004400030BD00BF90F0000F04BF0021704730B5F1
:100450004FF4806404F132044FF000054FF00001C6
:1004600050E700BF90F0000F04BF0021704730B587
:100470004FF4806404F1320410F0004548BF40425C
:100480004FF000013EE700BF42004FEAE2014FEAB1
:1004900031014FEA02701FBF12F07F4393F07F4F8C
:1004A00081F06051704732F07F4208BF704793F08F
:1004B0007F4F04BF41F40021704730B54FF46074A2
:1004C00001F0004521F000411CE700BF50EA0102A5
:1004D00008BF704730B54FF000050AE050EA01024E
:1004E00008BF704730B511F0004502D5404261EBBE
:1004F00041014FF4806404F132045FEA915C3FF4FF
:10050000D8AE4FF003025FEADC0C18BF03325FEA9B
:10051000DC0C18BF033202EBDC02C2F1200300FA4C
:1005200003FC20FA02F001FA03FE40EA0E0021FA71
:1005300002F11444BDE600BF70B54FF0FF0C4CF45F
:10054000E06C1CEA11541DBF1CEA135594EA0C0F11
:1005500095EA0C0F00F0DEF82C4481EA030621EA4C
:100560004C5123EA4C5350EA013518BF52EA033587
:1005700041F4801143F4801338D0A0FB02CE4FF039
:100580000005E1FB02E506F00042E0FB03E54FF069
:100590000006E1FB03569CF0000F18BF4EF0010E61
:1005A000A4F1FF04B6F5007F64F5407404D25FEA5D
:1005B0004E0E6D4146EB060642EAC62141EA555110
:1005C0004FEAC52040EA5E504FEACE2EB4F1FD0C52
:1005D00088BFBCF5E06F1ED8BEF1004F08BF5FEAD0
:1005E000500E50F1000041EB045170BD06F0004682
:1005F00046EA010140EA020081EA0301B4EB5C042F
:10060000C2BFD4EB0C0541EA045170BD41F4801126
:100610004FF0000E013C00F3AB8014F1360FDEBF4B
:10062000002001F0004170BDC4F10004203C35DA27
:100630000C341BDC04F11404C4F1200500FA05F3AA
:1006400020FA04F001FA05F240EA020001F000424B
:1006500021F0004110EBD37021FA04F642EB0601C1
:100660005EEA430E08BF20EAD37070BDC4F10C04EB
:10067000C4F1200500FA04F320FA05F001FA04F2AF
:1006800040EA020001F0004110EBD37041F100019B
:100690005EEA430E08BF20EAD37070BDC4F12005A6
:1006A00000FA05F24EEA020E20FA04F301FA05F20E
:1006B00043EA020321FA04F001F0004121FA04F2B6
:1006C00020EA020000EBD3705EEA430E08BF20EA86
:1006D000D37070BD94F0000F0FD101F000464000C0
:1006E00041EB010111F4801F08BF013CF7D041EA42
:1006F000060195F0000F18BF704703F00046520046
:1007000043EB030313F4801F08BF013DF7D043EA16
:100710000603704794EA0C0F0CEA135518BF95EACC
:100720000C0F0CD050EA410618BF52EA4306D1D153
:1007300081EA030101F000414FF0000070BD50EA72
:10074000410606BF1046194652EA430619D094EAFC
:100750000C0F02D150EA013613D195EA0C0F05D1E6
:1007600052EA03361CBF104619460AD181EA03013A
:1007700001F0004141F0FE4141F470014FF00000F2
:1007800070BD41F0FE4141F4780170BD70B54FF08D
:10079000FF0C4CF4E06C1CEA11541DBF1CEA13550D
:1007A00094EA0C0F95EA0C0F00F0A7F8A4EB0504EF
:1007B00081EA030E52EA03354FEA013100F08880E6
:1007C0004FEA03334FF0805545EA131343EA1263AF
:1007D0004FEA022245EA111545EA10654FEA002664
:1007E0000EF000419D4208BF964244F1FD0404F51D
:1007F000407402D25B084FEA3202B61A65EB030579
:100800005B084FEA32024FF480104FF4002CB6EB35
:10081000020E75EB030E22BFB61A754640EA0C00B5
:100820005B084FEA3202B6EB020E75EB030E22BFF5
:10083000B61A754640EA5C005B084FEA3202B6EB36
:10084000020E75EB030E22BFB61A754640EA9C00F5
:100850005B084FEA3202B6EB020E75EB030E22BFC5
:10086000B61A754640EADC0055EA060E18D04FEA83
:10087000051545EA16754FEA06164FEAC30343EA23
:1008800052734FEAC2025FEA1C1CC0D111F4801FF0
:100890000BD141EA00014FF000004FF0004CB6E7E9
:1008A00011F4801F04BF01430020B4F1FD0C88BF88
:1008B000BCF5E06F3FF6AFAEB5EB030C04BFB6EB93
:1008C000020C5FEA500C50F1000041EB045170BD86
:1008D0000EF0004E4EEA113114EB5C04C2BFD4EBB3
:1008E0000C0541EA045170BD41F480114FF0000E37
:1008F000013C90E645EA060E8DE60CEA135594EAB3
:100900000C0F08BF95EA0C0F3FF43BAF94EA0C0FB5
:100910000AD150EA01347FF434AF95EA0C0F7FF42A
:1009200025AF104619462CE795EA0C0F06D152EA7E
:1009300003353FF4FDAE1046194622E750EA410662
:1009400018BF52EA43067FF4C5AE50EA41047FF473
:100950000DAF52EA43057FF4EBAE12E74FF0FF3CD8
:1009600006E000BF4FF0010C02E000BF4FF0010CA9
:100970004DF804CD4FEA410C7FEA6C5C4FEA430C22
:1009800018BF7FEA6C5C1BD001B050EA410C0CBF71
:1009900052EA430C91EA030F02BF90EA020F0020D3
:1009A000704710F1000F91EA030F58BF994208BF3A
:1009B00090422CBFD8176FEAE37040F001007047F7
:1009C0004FEA410C7FEA6C5C02D150EA013C07D14E
:1009D0004FEA430C7FEA6C5CD6D152EA033CD3D099
:1009E0005DF8040B704700BF8446104662468C4693
:1009F0001946634600E000BF01B5FFF7B7FF0028C6
:100A000048BF10F1000F01BD4DF808EDFFF7F4FFEE
:100A10000CBF012000205DF808FB00BF4DF808ED79
:100A2000FFF7EAFF34BF012000205DF808FB00BF9C
:100A30004DF808EDFFF7E0FF94BF012000205DF8BE
:100A400008FB00BF4DF808EDFFF7CEFF94BF012073
:100A500000205DF808FB00BF4DF808EDFFF7C4FF6C
:100A600034BF012000205DF808FB00BF4FEA4102BF
:100A7000B2F1E04324BFB3F5001CDCF1FE5C0DD9FC
:100A800001F0004C4FEAC0024CEA5070B2F1004F46
:100A900040EB830008BF20F00100704711F0804F49
:100AA00021D113F13872BCBF01F00040704741F40E
:100AB00080114FEA5252C2F11802C2F1200C10FA12
:100AC0000CF320FA02F018BF40F001004FEAC123F6
:100AD0004FEAD32303FA0CFC40EA0C0023FA02F39A
:100AE0004FEA4303CCE77FEA625307D150EA013370
:100AF0001EBF4FF0FE4040F44000704701F0004040
:100B000040F0FE4040F40000704700BF53B94AB9BE
:100B1000002908BF00281CBF4FF0FF314FF0FF3005
:100B200000F074B9ADF1080C6DE904CE00F006F8E0
:100B3000DDF804E0DDE9022304B070472DE9F04759
:100B4000089D04468E46002B4DD18A42944669D9B1
:100B5000B2FA82F252B101FA02F3C2F1200120FA94
:100B600001F10CFA02FC41EA030E94404FEA1C48E2
:100B7000210CBEFBF8F61FFA8CF708FB16E341EADE
:100B8000034306FB07F199420AD91CEB030306F164
:100B9000FF3080F01F81994240F21C81023E634485
:100BA0005B1AA4B2B3FBF8F008FB103344EA034429
:100BB00000FB07F7A7420AD91CEB040400F1FF333E
:100BC00080F00A81A74240F207816444023840EA7B
:100BD0000640E41B00261DB1D4400023C5E90043B4
:100BE0003146BDE8F0878B4209D9002D00F0EF8037
:100BF0000026C5E9000130463146BDE8F087B3FA6A
:100C000083F6002E4AD18B4202D3824200F2F98051
:100C1000841A61EB030301209E46002DE0D0C5E954
:100C2000004EDDE702B9FFDEB2FA82F2002A40F0A0
:100C30009280A1EB0C014FEA1C471FFA8CFE0126A3
:100C4000200CB1FBF7F307FB131140EA01410EFB47
:100C500003F0884208D91CEB010103F1FF3802D2EE
:100C6000884200F2CB804346091AA4B2B1FBF7F0E8
:100C700007FB101144EA01440EFB00FEA64508D90B
:100C80001CEB040400F1FF3102D2A64500F2BB8048
:100C90000846A4EB0E0440EA03409CE7C6F1200797
:100CA000B34022FA07FC4CEA030C20FA07F401FADD
:100CB00006F31C43F9404FEA1C4900FA06F3B1FB66
:100CC000F9F8200C1FFA8CFE09FB181140EA0141CB
:100CD00008FB0EF0884202FA06F20BD91CEB010168
:100CE00008F1FF3A80F08880884240F28580A8F1C0
:100CF00002086144091AA4B2B1FBF9F009FB101112
:100D000044EA014100FB0EFE8E4508D91CEB0101AF
:100D100000F1FF346CD28E456AD90238614440EA52
:100D20000840A0FB0294A1EB0E01A142C846A646D2
:100D300056D353D05DB1B3EB080261EB0E0101FA5B
:100D400007F722FA06F3F1401F43C5E900710026B8
:100D50003146BDE8F087C2F12003D8400CFA02FC0E
:100D600021FA03F3914001434FEA1C471FFA8CFE1E
:100D7000B3FBF7F007FB10360B0C43EA064300FB0E
:100D80000EF69E4204FA02F408D91CEB030300F1AC
:100D9000FF382FD29E422DD9023863449B1B89B263
:100DA000B3FBF7F607FB163341EA034106FB0EF3EC
:100DB0008B4208D91CEB010106F1FF3816D28B4299
:100DC00014D9023E6144C91A46EA004638E72E4665
:100DD000284605E70646E3E61846F8E64B45A9D25D
:100DE000B9EB020864EB0C0E0138A3E74646EAE7CC
:100DF000204694E74046D1E7D0467BE7023B61447A
:100E000032E7304609E76444023842E7704700BFE2
:100E1000844641EA000313F003036DD1403A41D305
:100E200051F8043B40F8043B51F8043B40F8043BC4
:100E300051F8043B40F8043B51F8043B40F8043BB4
:100E400051F8043B40F8043B51F8043B40F8043BA4
:100E500051F8043B40F8043B51F8043B40F8043B94
:100E600051F8043B40F8043B51F8043B40F8043B84
:100E700051F8043B40F8043B51F8043B40F8043B74
:100E800051F8043B40F8043B51F8043B40F8043B64
:100E900051F8043B40F8043B51F8043B40F8043B54
:100EA000403ABDD2303211D351F8043B40F8043BF4
:100EB00051F8043B40F8043B51F8043B40F8043B34
:100EC00051F8043B40F8043B103AEDD20C3205D304
:100ED00051F8043B40F8043B043AF9D2043208D0FC
:100EE000D2071CBF11F8013B00F8013B01D30B886E
:100EF00003806046704700BF082A13D38B078DD04C
:100F000010F003038AD0C3F10403D21ADB071CBF1D
:100F100011F8013B00F8013B80D331F8023B20F887
:100F2000023B7BE7043AD9D3013A11F8013B00F8C0
:100F3000013BF9D20B7803704B7843708B78837048
:100F40006046704700000000000000000000000044
:100F50000000000000000000000000000000000091
:100F60000000000000000000000000000000000081
:100F70000000000000000000000000000000000071
:100F800090F800F06DE9024520F007016FF0000CC9
:100F900010F0070491F820F040F049804FF0000471
:100FA0006FF00700D1E9002391F840F000F108004C
:100FB00082FA4CF2A4FA8CF283FA4CF3A2FA8CF384
:100FC0004BBBD1E9022382FA4CF200F10800A4FAEB
:100FD0008CF283FA4CF3A2FA8CF3E3B9D1E904233F
:100FE00082FA4CF200F10800A4FA8CF283FA4CF376
:100FF000A2FA8CF37BB9D1E9062301F1200182FA30
:101000004CF200F10800A4FA8CF283FA4CF3A2FA35
:101010008CF3002BC6D0002A04BF04301A4612BA43
:10102000B2FA82F2FDE8024500EBD2007047D1E946
:10103000002304F00305C4F100004FEAC50514F0D5
:10104000040F91F840F00CFA05F562EA05021CBFA6
:1010500063EA050362464FF00004A9E700000000C0
:1010600001F0FF01102A2BDB10F0070F08D010F859
:10107000013B013A8B422DD010F0070F42B3F6D15D
:10108000F0B441EA012141EA014122F007047FF076
:1010900000070023F0E80256083C85EA010586EACD
:1010A000010685FA47F5A3FA87F586FA47F6A5FA09
:1010B00087F68EB9EED1F0BC01F0FF0102F0070215
:1010C00032B110F8013B013A83EA010313B1F8D1C0
:1010D0000020704701387047002D06BF35460338A1
:1010E000073815F0010F07D1013015F4807F02BFDA
:1010F000013015F4C03F0130F0BC0138704700BF2B
:101100004FEA410C7FEA6C5C02D150EA013C0AD103
:101110004FEA430C7FEA6C5C02D152EA033C02D1F5
:101120004FF0000070474FF0010070474FEA410256
:1011300012F5001215D211D56FF47873B3EB625229
:1011400012D94FEAC12343F0004343EA505311F050
:10115000004F23FA02F018BF404270474FF00000E2
:10116000704750EA013005D111F0004008BF6FF020
:10117000004070474FF00000704700BF4A0011D296
:1011800012F5001211D20DD56FF47873B3EB6252E1
:101190000ED44FEAC12343F0004343EA505323FAED
:1011A00002F070474FF00000704750EA013002D162
:1011B0004FF0FF3070474FF00000704738B5002205
:1011C000002304460D46FFF729FC28B9204629468E
:1011D000BDE8384000F00AB8204605F1004100F0B3
:1011E00005F8404261EB410138BD00BFD0B50C4B62
:1011F000002206460F46FFF79FF9FFF7BFFF0446A0
:10120000FFF720F9074B0022FFF796F902460B463D
:1012100030463946FEF7D8FFFFF7B0FF2146D0BD74
:101220000000F03D0000F04108B500F0D3FA00F0F6
:1012300049FB044B187000F039FB322006F004FD26
:10124000F3E700BF840A00202DE9F8432DED028B5F
:10125000F0EE408AB0EE608A11EE104A70EE607ACD
:1012600017EE900AFFF710F906460F462046FFF7E3
:101270000BF92BA3D3E90023FFF75EF904460D46D3
:1012800002460B4630463946FEF79EFFFFF7EEFB5F
:1012900007EE900AF1EE677A1D4BC3ED007A78EE07
:1012A000887A17EE900AFFF7EFF8804689460246E3
:1012B0000B4620462946FEF789FFFFF7D7FB07EECE
:1012C000900AF1EE677A134BC3ED007A22462B4663
:1012D00040464946FEF778FFFFF7C8FB07EE900A45
:1012E000F1EE677A0C4BC3ED007A22462B4630466E
:1012F0003946FEF76BFFFFF7B9FB07EE900AF1EEF8
:10130000677A064BC3ED007ABDEC028BBDE8F8832B
:101310004C0A0020540A00205C0A0020640A0020C5
:10132000D578E9263108C03F08B524E0803A803BF3
:10133000D1180029B8BF4942142941DD02EB8202CD
:10134000224907EE902AF8EEE77AC1ED007A03EB26
:10135000830307EE903AF8EEE77AC1ED017A1B4B72
:1013600093ED021AD3ED010A93ED000AFFF76CFF2B
:10137000142006F069FC164B1B781BB9154A13782C
:1013800001331370134B1B780A2B05D9104B012224
:101390001A70104B00221A700F4B1B78002BE7D1EC
:1013A0000B4B1B78012BE3D10C4A53781278991818
:1013B000B1F5FA7FBADD054B00221A605A60CEE71C
:1013C000024B00221A605A60C9E700BF040A0020DD
:1013D000280A0020290A002000000020000A00201E
:1013E00008B50A2006F030FCFBE7000000B583B02A
:1013F0000B46BDEEC07AF8EEC77A30EE670A0022DF
:1014000004E0F2EE047A20EE270A01329A42F8DB79
:10141000FDEEC07A17EE902A002A08DB009217EE44
:10142000102A044907F022FD03B05DF804FB524284
:10143000F4E700BFF845010870B582B012E0344A05
:101440002021302000F05CFD0C2300930223314A60
:1014500012783021002000F005FD00F041FCC8208A
:1014600006F0F2FB2C4BB3F90000FEF7FBFF002265
:101470002A4BFFF761F80022294BFFF75DF80022A5
:10148000284BFFF759F8FFF7F1FA00EE100A264E45
:1014900002213046FFF7AAFF244D02212846244BA3
:1014A00093ED000AFFF7A2FF224C224600214120C3
:1014B00000F026FD22461021202000F021FD2246CA
:1014C0002021302000F01CFD1B4A0021084600F0BE
:1014D00017FD32460021412000F012FD174A10216D
:1014E000002000F00DFD2A461021202000F008FD0C
:1014F000134A2021002000F003FD124B1B78012B22
:101500009DD0114A2021302000F0FAFC9CE700BF5A
:101510001C460108840A0020380A00200000303FE1
:1015200000001440000026403C0A0020440A00202D
:10153000340A002004000020004601080C4601087F
:1015400014460108140000202046010808B5074B86
:1015500093ED000A00F0DEFD054B93ED000A00F06C
:1015600009FE322006F070FBF1E700BF0C000020FE
:101570001000002000B583B031E0012B41D00821DC
:10158000444803F0ADF9444B1870012874D1434B23
:10159000D3ED077AFDEEE77A17EE900A00F0F2FA43
:1015A0003F4BD3ED077AFDEEE77A17EE900A00F095
:1015B0000BFB3C4BD3ED077AFDEEE77A17EE900A72
:1015C00000F01CFB384BD3ED077AFDEEE77A17EEFF
:1015D000900A00F02DFB052101A806F0E3FA06F0C1
:1015E000D3F90190314B1B78002BC6D1304A1388B8
:1015F00001339BB21380C72BC1D92C4B01221A7027
:10160000BDE7254B1B78012BB9D12A4BD3ED030A3B
:10161000294B93ED000A214800F014FF274B93ED6E
:10162000000A274BD3ED030AB1EE400A1C4800F034
:1016300009FF244BD3ED030A234B93ED000A19480D
:1016400000F000FF214B93ED000A214BD3ED030A7C
:10165000B1EE400A144800F0F5FE1E4BD3ED000A2F
:101660001D4B93ED000A1D4800F07BFFB1EE400AD0
:101670001B4B83ED020A82E7002000F083FA002072
:1016800000F0A2FA002000F0B9FA002000F0D0FA31
:10169000A1E700BF000C024014000020100F002042
:1016A000380F0020600F0020880F00206E0A0020F5
:1016B0006C0A0020880A00204C0A0020540A0020EE
:1016C0009C0A0020B00A00205C0A0020640A002066
:1016D000C40A0020340A0020E40E0020E80E002096
:1016E000040A002008B5322006F0AEFA044B186850
:1016F000FEF7CAFE02460B46024807F009FAF2E777
:10170000340A00202446010810B5044603F0EAFC20
:10171000054BA3FB00231B0D04FB03F0034601381C
:10172000002BFBD110BD00BF83DE1B4330B583B05F
:1017300005460123ADF80630244A00215170ADF86A
:1017400006300CE000220221214803F0D0F814E01A
:10175000BDF806309BB25B009BB2ADF80630BDF819
:1017600006309BB2FF2B2CD8BDF806301D42E9D0C5
:1017700001220221164803F0BAF8154C0122082173
:10178000204603F0B4F80520FFF7BEFF0022082131
:10179000204603F0ACF80520FFF7B6FF0122082130
:1017A000204603F0A4F80121204603F099F8002810
:1017B000CED0BDF806309AB204494B7813434B7033
:1017C000C6E71020FFF7A0FF03B030BD780A002065
:1017D0000008024010B582B000228DF807200123D6
:1017E000ADF8043004212E4803F081F82D4C207808
:1017F000FFF79CFF6078FFF799FF02238DF8073011
:101800003EE0BDF804309BB25B009BB2ADF8043003
:10181000BDF804309BB2FF2B29D8214C01220821AE
:10182000204603F064F80520FFF76EFF0022082130
:10183000204603F05CF80520FFF766FF012208212F
:10184000204603F054F80121204603F049F800280F
:10185000D7D0BDF8042091B29DF80730DBB2124812
:10186000C25C9DF80730DBB20A43C254C9E71020BE
:10187000FFF74AFF9DF807300133DBB28DF80730E0
:101880009DF80730DBB2082B03D80123ADF80430F4
:10189000BEE701220421024803F029F802B010BD7E
:1018A0000008024018000020780A0020002304E00D
:1018B000034A0021D1540133DBB2082BF8D9704719
:1018C000780A002008B5FFF7F1FFFFF783FF0D4B03
:1018D0001A79D97841EA02210B4B198000230F2B8A
:1018E0000ED80A4A32F81320013A41FA02F212F0F5
:1018F000010F02D00133DBB2F1E70133D8B200E0CF
:10190000002008BD780A0020820A00201C00002068
:1019100010B5104C00220421204602F0E8FF1020F0
:10192000FFF7F2FE0120FFF701FF4220FFF7FEFE66
:101930000020FFF7FBFE0020FFF7F8FE0020FFF776
:10194000F5FE01220421204602F0D1FF1020FFF70E
:10195000DBFE10BD0008024010B5164C0022042129
:10196000204602F0C4FF1020FFF7CEFE0120FFF753
:10197000DDFE4320FFF7DAFE0020FFF7D7FE01204F
:10198000FFF7D4FE0020FFF7D1FE0020FFF7CEFEC8
:101990000020FFF7CBFE0020FFF7C8FE0020FFF776
:1019A000C5FE01220421204602F0A1FF1020FFF70E
:1019B000ABFE10BD0008024010B5154C00220421FA
:1019C000204602F094FF0120FFF7B0FE4420FFF70D
:1019D000ADFE0020FFF7AAFE0120FFF7A7FEEE20D4
:1019E000FFF7A4FE0020FFF7A1FE0020FFF79EFEF8
:1019F0000020FFF79BFE0020FFF798FE0122042144
:101A0000204602F074FF1020FFF77EFE10BD00BFDD
:101A10000008024010B5104C00220421204602F0BC
:101A200066FF1020FFF770FE0120FFF77FFE4D20BC
:101A3000FFF77CFE0020FFF779FE0020FFF776FE1F
:101A40000120FFF773FE01220421204602F04FFF20
:101A50001020FFF759FE10BD0008024010B5164CCB
:101A600000220421204602F042FF1020FFF74CFE26
:101A70000120FFF75BFE4320FFF758FE0020FFF731
:101A800055FE0020FFF752FE5A20FFF74FFE5A2066
:101A9000FFF74CFE5A20FFF749FE5A20FFF746FE9B
:101AA0005A20FFF743FE01220421204602F01FFFC7
:101AB0001020FFF729FE10BD0008024008B5FFF70F
:101AC00027FFFFF725FFFFF723FFFFF745FFFFF78E
:101AD00073FFFFF79FFFFFF7C1FF08BDF8B5214F68
:101AE0003C21384603F026FF1F4E3C21304603F0D0
:101AF00021FF1E4D3C21284603F01CFF1C4C3C21BD
:101B0000204603F017FF3A68D36843F00103D3601F
:101B10003268D36843F00103D3602A68D36843F086
:101B20000103D3602268D36843F00103D360114AF4
:101B3000002353600021D1601374136013810E4A97
:101B40005360D1601374136013810C4A5360D160E9
:101B50001374136013810A4A5360D16013741360C5
:101B60001381F8BDF81100204012002088120020D7
:101B7000D0120020880A00209C0A0020B00A002011
:101B8000C40A0020002807DD0D4B1B6800225A63A1
:101B90000C4B1B6858637047002807DB084B1A681A
:101BA00000235363074A126853637047044B1B6852
:101BB00040425863034B1B6800225A63704700BFC2
:101BC00068110020B0110020002805DD0A4B1B68B9
:101BD000586300229A637047002805DB064B1B6898
:101BE00000225A639A637047034B1B6800225A63B2
:101BF00040429863704700BFA8130020002805DD0D
:101C00000A4B1B68586300229A637047002805DB63
:101C1000064B1B6800225A639A637047034B1B688C
:101C200000225A6340429863704700BF2011002091
:101C3000002805DD0A4B1B680022DA631864704730
:101C4000002805DB064B1B680022DA631A64704724
:101C5000034B1B684042D86300221A64704700BFE0
:101C60002011002038B5044639B101224FF400613B
:101C70001A4802F03CFE002516E000224FF40061F5
:101C8000164802F034FEF6E700224FF400511348E4
:101C900002F02DFE01224FF48041104802F027FE91
:101CA0006400E4B20135EDB2072D0FD800224FF4E5
:101CB00080410A4802F01BFE14F0800FE4D001229C
:101CC0004FF40051054802F012FEE3E701224FF401
:101CD0000061024802F00BFE38BD00BF000C02405C
:101CE00038B500250DE0104B03EBC4030121585D0E
:101CF000FFF7B8FF0134E4B214F0800FF3D00135E0
:101D0000EDB2072D0FD8A5F150000021C0B2FFF7AA
:101D1000A9FF00210846FFF7A5FF00211020FFF7CB
:101D2000A1FF0024E8E738BDD80A002008B500204C
:101D30000BE0094A02EBC302002111540133DBB26C
:101D400013F0800FF5D00130C0B2072801D800236E
:101D5000F6E7FFF7C5FF08BDD80A002010F0800F96
:101D600020D13F291ED8CB08C3F10703DBB201F015
:101D70000701C1F107014FF0010C0CFA01F15FFA04
:101D800081FC42B1084A02EBC000C25C4CEA020C82
:101D900000F803C07047044A02EBC000C25C22EAAC
:101DA0000101C154704700BFD80A00202DE9F04F4F
:101DB00083B0804689461F469DF830B0203AD3B2A2
:101DC00001930C464FF0000A2DE0019B03EB430307
:101DD0001C4A02EB830313F80A502EE0BBFA8BF285
:101DE000520921464046FFF7B9FF6D00EDB20134BC
:101DF000E4B2A4EB0903BB420CD00136F6B2072EC5
:101E00000DD815F0800FE9D05A4621464046FFF71D
:101E1000A5FFEAE708F101085FFA88F84C460AF1E5
:101E2000010A5FFA8AFABA4509D20C2FCDD0064BC7
:101E3000019A03EB021313F80A500026DFE703B000
:101E4000BDE8F08F2C460108A04A01080246012097
:101E500002E002FB00F019464B1EDBB20029F8D16C
:101E6000704700002DE9F04782B0824689469046CF
:101E70001D469DF8286000273C461DE0700810FBB9
:101E800004F05AFA80F00123009333462022494699
:101E9000C0B2FFF78BFF0DE0700810FB04F030328A
:101EA0005AFA80F0012300933346D2B24946C0B2B9
:101EB000FFF77CFF0134E4B2AC421CD2291BC9B24B
:101EC0000139C9B20A20FFF7C1FFB8FBF0F00B4A95
:101ED000A2FB003C4FEADC0C0CEB8C0CA0EB4C0C96
:101EE0005FFA8CF2002FD7D16B1E9C42D4DA002A05
:101EF000C4D00127D0E702B0BDE8F087CDCCCCCC70
:101F000070B582B004460D4616460CE03A2D12D844
:101F1000012300930C2316F8012B29462046FFF7D6
:101F200045FF0834E4B2337853B17A2CEED910353A
:101F3000EDB20024EAE7FFF7F9FE00252C46E7E7BB
:101F400002B070BD10B53A4C00224FF480512046CB
:101F500002F0CDFC01224FF48051204602F0C7FC74
:101F60000021AE20FFF77EFE0021D520FFF77AFE8C
:101F700000215020FFF776FE0021A820FFF772FE17
:101F800000213F20FFF76EFE0021D320FFF76AFEFD
:101F900000210846FFF766FE00214020FFF762FEA1
:101FA00000218D20FFF75EFE00211420FFF75AFE6E
:101FB00000212020FFF756FE00210220FFF752FEED
:101FC0000021A120FFF74EFE0021C020FFF74AFEAE
:101FD0000021DA20FFF746FE00211220FFF742FE23
:101FE00000218120FFF73EFE0021EF20FFF73AFE9F
:101FF0000021D920FFF736FE0021F120FFF732FE45
:102000000021DB20FFF72EFE00213020FFF72AFE03
:102010000021A420FFF726FE0021A620FFF722FEC4
:102020000021AF20FFF71EFEFFF780FE10BD00BFAE
:10203000000C024008B5054B1860054B18680023DA
:1020400002221946806806F039FE08BDD80E00202D
:1020500054000020022801D80120704708B506F07E
:10206000DBFC09230360002008BD000010B5013827
:1020700001280AD814464FF0FF3392B2074800688F
:1020800003F09BFE40B9204610BD06F0C5FC0923B5
:1020900003604FF0FF30F7E70520F5E7D80E00208A
:1020A000022801D80020704708B506F0B5FC0923C6
:1020B00003604FF0FF3008BD08B506F0ADFC092302
:1020C00003604FF0FF3008BD08B548B94FF0FF334B
:1020D00001220848006803F0D6FE40B9012008BD7F
:1020E00006F09AFC092303604FF0FF30F7E7052064
:1020F000F5E700BFD80E002008B5022804D84FF439
:1021000000534B60002008BD06F086FC09230360E5
:10211000F8E70000B5EEC00AF1EE10FA1DD4DFEDCD
:10212000107AB4EEE70AF1EE10FA01DDB0EE670ABC
:102130009FED0B7AC0EE077A9FED0A7A67EE877AF9
:102140009FED097A77EE877A084B1A68FCEEE77AFA
:1021500017EE903A9BB2136470479FED050ADEE7D5
:10216000000034430000FA440000FA4360130020EA
:1021700000000000B5EEC00AF1EE10FA1DD4DFED4C
:10218000107AB4EEE70AF1EE10FA01DDB0EE670A5C
:102190009FED0B7AC0EE077A9FED0A7A67EE877A99
:1021A0009FED097A77EE877A084B1A68FCEEE77A9A
:1021B00017EE903A9BB2D36370479FED050ADEE7B6
:1021C000000087430000FA440000FA436013002037
:1021D0000000000030B587B000231A4603E0212933
:1021E00009D00133DBB2C72B1DD8C15C3D29F6D124
:1021F0005A1CD2B2F3E7013BDBB2815C2D2914D02B
:1022000000240021934214D3122912D8855C85B191
:1022100001F1010C1831694401F8145C0132D2B2A9
:102220005FFA8CF1EEE70023E7E70132D2B2012436
:10223000E7E701F118036B44002103F8141C01A81F
:1022400007F058FE0CB907B030BDB1EE400AFAE70E
:1022500010B504463C48FFF7BDFF012C00D010BD6F
:10226000394B1B78502B1FD0492B25D0442B2BD01A
:10227000502B31D0492B37D0442B3DD0532B43D05A
:10228000502B4DD0522BEAD12F4B5B78432BE6D10C
:102290002E4B5A1E2E492C4806F008FE02284BD021
:1022A0002C4806F097FCDAE7274A5278312ADBD12E
:1022B000294B83ED000AD2E7234A5278312AD5D13F
:1022C000254B83ED010ACAE71F4A5278312ACFD144
:1022D000214B83ED020AC2E71B4A5278322AC9D148
:1022E0001E4B83ED000ABAE7174A5278322AC3D14F
:1022F0001A4B83ED010AB2E7134A5278322ABDD154
:10230000164B83ED020AAAE70F4A5278702AB7D11A
:102310000D4A9278652AB3D1114B83ED000A9EE7EE
:10232000094A52786F2AADD1074A9278732AA9D107
:102330000C4B83ED000A92E70B4B5A7819780B4847
:1023400006F0E6FB8BE700BF84670020010A00204F
:1023500090500108B0500108E80E0020100F002036
:10236000100000200C000020000A00209C500108F2
:1023700000B5284A0023D36053612748906127495C
:1023800011621361D361DFED267AC2ED007A5360EA
:10239000DFF8A8E0C2F808E0DFF8A4C0C2F824C063
:1023A000204AD3605361906111621361D361C2ED21
:1023B000007A5360C2F808E0C2F824C01A4AD36019
:1023C0005361906111621361D361C2ED007A536071
:1023D000C2F808E0C2F824C0144AD3605361906187
:1023E00011621361D361C2ED007A5360C2F808E054
:1023F000C2F824C00E4AD360536190611162136128
:10240000D3610C491160536093600B4B53625DF8CC
:1024100004FB00BF100F002000409C4500007A44E0
:10242000713DA240380F0020600F0020880F00206F
:10243000E80E002000007041CDCC4C3E0000404131
:102440000AD7233C70EE600AC0ED030AD0ED097A8A
:10245000F4EEE70AF1EE10FA08D5F1EE677AF4EE41
:10246000E70AF1EE10FA01DD0023C360D0ED036A44
:1024700090ED057A36EE877A80ED057A90ED016A67
:1024800027EE067AD0ED067AF1EE675AB4EEE57AD9
:10249000F1EE10FA36D5C0ED055AB5EE400AF1EE70
:1024A00010FA01D100234361D0ED007A66EEA77ADD
:1024B00090ED057A26EE076A77EE867A90ED027A3D
:1024C00090ED046A36EEC66A27EE067A77EE877AD2
:1024D00090ED077A77EE877AC0ED077AB5EEC00AFD
:1024E000F1EE10FA24DBF5EEC07AF1EE10FA11D419
:1024F00090ED087AF4EEC77AF1EE10FA0CDD80ED7B
:10250000077A09E0B4EEE77AF1EE10FAC5DDC0ED26
:10251000057AC2E70023C361C0ED046AB5EE400A44
:10252000F1EE10FA01D10023C36190ED070A704764
:10253000B5EEC00AF1EE10FAEED590ED087AB1EEE4
:10254000477AF4EEC77AF1EE10FA02D580ED077AF9
:10255000E2E7F5EEC07AF1EE10FADDDD0023C361AB
:10256000DAE770EE600AC0ED030AD0ED097AF4EE06
:10257000E70AF1EE10FA08D5F1EE677AF4EEE70A11
:10258000F1EE10FA01DD0023C360D0ED036A90ED97
:10259000057A36EE877A80ED057A90ED016A27EEAE
:1025A000067AD0ED067AF1EE675AB4EEE57AF1EEEE
:1025B00010FA32D5C0ED055AB5EE400AF1EE10FA28
:1025C00001D100234361D0ED007A66EEA77A90ED49
:1025D000057A26EE076A77EE867A90ED027A90ED1C
:1025E000046A36EEC66A27EE067A77EE877AC0ED81
:1025F000077AB5EEC00AF1EE10FA1DDBF5EEC07AEF
:10260000F1EE10FA11D490ED087AF4EEC77AF1EEFB
:1026100010FA0CDD80ED077A09E0B4EEE77AF1EE0E
:1026200010FAC9DDC0ED057AC6E70023C361C0ED2D
:10263000046A90ED070A7047B5EEC00AF1EE10FA91
:10264000F5D590ED087AB1EE477AF4EEC77AF1EE5F
:1026500010FA02D580ED077AE9E7F5EEC07AF1EEDF
:1026600010FAE4DD0023C361E1E7000000B585B0A6
:10267000002300930193029303931548154A0260C7
:102680004FF480324260836001220261027680F85A
:102690002030C36210498162C360C26180F830207B
:1026A000426101F05BFB60B90823009301230193B1
:1026B00002936946064801F097FC28B905B05DF819
:1026C00004FB00F03BFAEFE700F038FAF6E700BF52
:1026D000B00F0020002001400100000F30B589B08C
:1026E000002303930493059306930793026803F171
:1026F000804303F590339A4201D009B030BD0446BF
:102700000025019503F58C335A6C42F480725A64AB
:102710005A6C02F480720192019A02951A6B42F08F
:1027200002021A631B6B03F002030293029B012354
:1027300003930323049303A9104801F0DFFF10481B
:10274000104B036045608560C5604FF48063036192
:102750004FF4006343614FF4005383614FF480737F
:10276000C3610562456201F0E3FD18B9044BA36340
:102770009C63C2E700F0E2F9F8E700BF0004024002
:10278000F80F00201064024010B582B000240194BC
:10279000114B1A6B42F480021A631B6B03F4800323
:1027A0000193019B22460521382001F0FBFC3820D3
:1027B00001F030FD22460521392001F0F3FC3920DB
:1027C00001F028FD22460521452001F0EBFC4520C3
:1027D00001F020FD02B010BD0038024008B5012014
:1027E00003F081FFFBE7000030B583B00022012138
:1027F0000A2004F000FC274B1860274A00212748D4
:1028000003F012FF264B1860264B01931725009505
:10281000002380222449254805F023F8244B019306
:1028200018240094002380222249234805F019F837
:10283000224B01930094002380222149214805F076
:1028400010F8214B019319230093002380221F4984
:102850001F4805F006F81F4B01931D23009300232A
:1028600080221D491D4804F0FCFF1D4B019300957B
:10287000002380221B491C4804F0F3FF1B4B0193EB
:102880000094002380221A491A4804F0EAFF03B09A
:1028900030BD00BF7010002024510108DD27000862
:1028A0005810002078100020BC500108E5160008E0
:1028B0005C100020C8500108291300087410002083
:1028C000D85001082912000860100020E4500108C7
:1028D000E11300086C100020F05001087515000885
:1028E00064100020FC500108391400086810002012
:1028F000085101084D1500082DE9F0438DB0002462
:102900000794089409940A940B9401945B4B1A6BF6
:1029100042F010021A631A6B02F010020192019A3F
:1029200002941A6B42F080021A631A6B02F0800262
:102930000292029A03941A6B42F004021A631A6B11
:1029400002F004020392039A04941A6B42F001020B
:102950001A631A6B02F001020492049A05941A6B2E
:1029600042F002021A631A6B02F002020592059A03
:1029700006941A6B42F008021A631B6B03F00803FB
:102980000693069B3E4E01220E21304601F0AFFF1A
:102990003C4F22464FF47841384601F0A8FFDFF85B
:1029A000EC8022464FF48851404601F0A0FF2246B9
:1029B0004FF40061304601F09AFF01250795089415
:1029C0000223099307A9304601F098FE0E230793CE
:1029D0000895099403230A9307A9304601F08EFE57
:1029E0004FF4404307930894099507A9264801F03E
:1029F00085FE4FF478430793089509940A9407A934
:102A0000384601F07BFE4FF48073079308950994D4
:102A10000A9407A9404601F071FE4FF48059CDF8A1
:102A20001C90089509950A9407A9404601F066FE96
:102A30004FF400630793089509940A9407A9304658
:102A400001F05CFECDF81C900894099507A930466A
:102A500001F054FE042307930894099507A938460A
:102A600001F04CFE082307930894099407A93846FF
:102A700001F044FE0DB0BDE8F08300BF0038024015
:102A800000080240000C0240000402400000024026
:102A900008B50B480B4B03600B4B4360002383606E
:102AA000C3604FF48042026143618361C36103628A
:102AB00001F024FF00B908BD00F040F8FBE700BFBB
:102AC0007C10002000580040801A060030B589B004
:102AD0000023039304930593069307930268144B12
:102AE0009A4201D009B030BD00250195114C236BED
:102AF00043F002032363236B03F002030193019B62
:102B00004FF4406303931223049303230693042397
:102B1000079303A9084801F0F1FD0295236C43F4E3
:102B200080032364236C03F480030293029BD9E7A0
:102B300000580040003802400004024072B6FEE730
:102B400000B595B03022002108A805F08FFF0023C2
:102B5000039304930593069307930193204A116C02
:102B600041F080511164126C02F080520192019A7E
:102B700002931C4B1A6842F480421A601B6803F4EB
:102B800080430293029B012308934FF480330993FF
:102B900002220E924FF480030F9304231093A82176
:102BA00011911292139308A801F086FF98B90F2390
:102BB000039302230493002305934FF4A053069339
:102BC0004FF480530793052103A802F0DBF920B9E5
:102BD00015B05DF804FBFFF7B1FFFFF7AFFF00BFD3
:102BE000003802400070004008B500F0F1FFFFF728
:102BF000A7FFFFF781FEFFF7C7FD00F0B7FC00F06D
:102C00007DF900F0ADF900F0DDF900F00DFA00F00B
:102C10008DFD00F0C9FD00F003FE00F057FE00F04E
:102C200089FE00F033FAFFF721FD00F017FD00F0F8
:102C300033FEFFF72DFF00F063FE05F07FFE03F08B
:102C4000C5FCFFF7D1FD03F0D3FCFEE700B583B070
:102C5000002200920D4B596C41F480415964596C2B
:102C600001F48041009100990192196C41F080516A
:102C700019641B6C03F080530193019B0F216FF0CB
:102C8000010001F08FFA03B05DF804FB0038024048
:102C900030B589B0044600230193214B1A6C42F0F1
:102CA00020021A641B6C03F020030193019B02A90C
:102CB00003A802F03DFA069BCBB902F019FA0346CD
:102CC0001848A0FB03239B0C013B1748174A0260DE
:102CD00040F2E732C2604360002303618360836196
:102CE00002F03CFC054630B1284609B030BD02F088
:102CF000FFF94300E4E70C4802F0CCFA054600284F
:102D0000F2D1372001F086FA0F2C01D90125EBE72B
:102D100000222146372001F045FA054B1C60E3E70D
:102D20000038024083DE1B43D41000200014004012
:102D300044000020FEE7FEE7FEE7FEE7FEE77047FF
:102D400008B5034802F0EEFA024802F0EBFA08BDBB
:102D500020110020A813002008B5034802F0E2FA71
:102D6000024802F0DFFA08BD20110020681100209F
:102D700008B5034802F0D6FA024802F0D3FA08BDBB
:102D800020110020B011002008B5024802F0CAFA54
:102D900008BD00BFF811002008B5024802F0C2FAD1
:102DA00008BD00BF4012002008B5024802F0BAFA80
:102DB00008BD00BF8812002008B5024803F0C6F91C
:102DC00008BD00BFF814002008B5024803F0BEF9A2
:102DD00008BD00BF4015002008B5024802F0A2FA65
:102DE00008BD00BF6013002008B5024802F09AFA3F
:102DF00008BD00BF6013002008B5024802F092FA37
:102E000008BD00BF6013002008B5024802F08AFA2E
:102E100008BD00BFD012002008B5024802F082FAB7
:102E200008BD00BF1813002008B5024802F07AFA66
:102E300008BD00BFD410002008B5024801F070FBA7
:102E400008BD00BFF80F002008B5024801F068FB7C
:102E500008BD00BFF013002008B5024801F060FB78
:102E600008BD00BF5014002010B5044C204603F0EC
:102E70006DF9204605F06CFB10BD00BF88150020E1
:102E80000120704708B505F0C7FD162303604FF019
:102E9000FF3008BD08B54FF0FF31FFF7F3FFFEE745
:102EA00010B503460C4A0D490D48006840B10C4866
:102EB00000680344521A934206D8094A136010BDB1
:102EC0000748084C0460F2E705F0A6FD0C230360F8
:102ED0004FF0FF30F3E700BF0000022000040000C5
:102EE0001C110020A0690020034AD2F8883043F466
:102EF0007003C2F88830704700ED00E000B58DB077
:102F00002422002103A805F0B1FD002301930293C0
:102F100012484FF080420260436083604FF0FF32FE
:102F2000C260036183610323039301230593099323
:102F300003A902F06BFB50B900230193029301A98E
:102F4000064802F05DFD28B90DB05DF804FBFFF7FF
:102F5000F5FDF1E7FFF7F2FDF6E700BFF8110020FD
:102F600000B58DB02422002103A805F07FFD0023C9
:102F7000019302931148124A0260436083604FF646
:102F8000FF72C260036183610323039301230593EE
:102F9000099303A902F03AFB50B90023019302936D
:102FA00001A9064802F02CFD28B90DB05DF804FB1C
:102FB000FFF7C4FDF1E7FFF7C1FDF6E7401200207F
:102FC0000004004000B58DB02422002103A805F0C4
:102FD0004DFD0023019302931148124A02604360A1
:102FE00083604FF6FF72C260036183610323039322
:102FF00001230593099303A902F008FB50B90023AC
:103000000193029301A9064802F0FAFC28B90DB019
:103010005DF804FBFFF792FDF1E7FFF78FFDF6E7A0
:10302000881200200008004000B58DB02422002145
:1030300003A805F01BFD0023019302931148124AD7
:103040000260436083604FF0FF32C26003618361BE
:103050000323039301230593099303A902F0D6FAEE
:1030600050B900230193029301A9064802F0C8FC5D
:1030700028B90DB05DF804FBFFF760FDF1E7FFF73D
:103080005DFDF6E7D0120020000C004000B583B0D3
:103090000023009301930F480F4A0260A722426069
:1030A000836040F2E733C3608023836102F056FA05
:1030B00050B90023009301936946064802F0A0FC32
:1030C00028B903B05DF804FBFFF738FDF1E7FFF71F
:1030D00035FDF6E7181300200010004010B584B04D
:1030E0000368344A934207D0334A934229D0334A83
:1030F00093424BD004B010BD00240194304B5A6C65
:1031000042F001025A645B6C03F001030193019BDE
:1031100022460621182001F045F8182001F07AF81F
:1031200022460621192001F03DF8192001F072F81D
:10313000224606211A2001F035F81A2001F06AF81B
:10314000D8E7002402941E4B5A6C42F002025A64E3
:103150005B6C03F002030293029B224605212B20A5
:1031600001F020F82B2001F055F8224605212C20F3
:1031700001F018F82C2001F04DF8224605212D20F1
:1031800001F010F82D2001F045F8B3E7002203927A
:103190000B4B596C41F4803159645B6C03F4803300
:1031A0000393039B0621182000F0FCFF182001F078
:1031B00031F89FE700000140000401400040014059
:1031C0000038024070B58EB0002309930A930B9328
:1031D0000C930D930368B3F1804F0BD0614A934277
:1031E00047D0614A93426CD0604A934200F091808C
:1031F0000EB070BD0024009403F50E331A6C42F03B
:1032000001021A641A6C02F001020092009A019401
:103210001A6B42F001021A631A6B02F0010201926A
:10322000019A02941A6B42F002021A631B6B03F0BC
:1032300002030293029B4FF40043099302260A966D
:1032400001250D9509A94A4801F058FA0823099368
:103250000A960B940C940D9509A9464801F04EFA74
:10326000224606211C2000F09DFF1C2000F0D2FF0A
:10327000BEE700240394404B1A6C42F002021A6429
:103280001A6C02F002020392039A04941A6B42F041
:1032900002021A631B6B03F002030493049B3023A6
:1032A000099302230A930D9309A9324801F026FAE3
:1032B000224606211D2000F075FF1D2000F0AAFF08
:1032C00096E7002405942C4B1A6C42F004021A6411
:1032D0001A6C02F004020592059A06941A6B42F0E9
:1032E00002021A631B6B03F002030693069BC023C2
:1032F000099302230A930D9309A91E4801F0FEF9D0
:10330000224606211E2000F04DFF1E2000F082FF05
:103310006EE700240794184B1A6C42F008021A64F6
:103320001A6C02F008020792079A08941A6B42F08E
:1033300001021A631B6B03F001030893089B03232C
:10334000099302230A930D9309A9094801F0D6F9BC
:1033500022460621322000F025FF322000F05AFFDD
:1033600046E700BF0004004000080040000C004099
:1033700000000240000402400038024000B585B061
:103380000368244A934208D0234A934219D0234A1F
:1033900093422AD005B05DF804FB00220192204B35
:1033A000196C41F0100119641B6C03F010030193B8
:1033B000019B0521362000F0F5FE362000F02AFFA3
:1033C000E8E700220292164B596C41F4003159642F
:1033D0005B6C03F400330293029B0621192000F07A
:1033E000E1FE192000F016FFD4E7002203920C4BF7
:1033F000596C41F4802159645B6C03F4802303937E
:10340000039B06211A2000F0CDFE1A2000F002FFD7
:10341000C0E700BF001000400044014000480140E8
:103420000038024000B58BB0002305930693079344
:10343000089309930368444A93420ED0434A934247
:1034400023D0434A934238D0424A93424CD0424A16
:10345000934261D00BB05DF804FB002300933F4B17
:103460001A6B42F010021A631B6B03F010030093F7
:10347000009B4FF4D4430593022306930123099341
:1034800005A9374801F03AF9E4E700230193334BEB
:103490001A6B42F004021A631B6B03F004030193DE
:1034A000019B4FF440730593022306930323099372
:1034B00005A92C4801F022F9CCE700230293274B01
:1034C0001A6B42F010021A631B6B03F01003029395
:1034D000029B60230593022306930323099305A906
:1034E0001F4801F00BF9B5E7002303931B4B1A6B40
:1034F00042F002021A631B6B03F002030393039B67
:103500004FF480730593022306930323099305A9BF
:10351000154801F0F3F89DE7002304930F4B1A6B55
:1035200042F002021A631B6B03F002030493049B34
:103530004FF400730593022306930323099305A90F
:10354000094801F0DBF885E7000001400004014074
:103550000040014000440140004801400038024062
:1035600000100240000802400004024010B592B072
:1035700000241094119409940A940B940C940D94C3
:103580000E940F942022214601A805F06FFA3148CD
:10359000314B0360A7234360846040F2E733C3608C
:1035A000046144618023836102F004F800283CD167
:1035B00000231093119310A9264802F021FA002845
:1035C00036D16023099300220A920B920C920D923D
:1035D0000E920F9209A91F4802F0ACF858BB0422C2
:1035E00009A91C4802F0A6F840BB082209A91948FD
:1035F00002F0A0F828BB0C2209A9164802F09AF89C
:1036000010BB0023019302930393049305934FF49B
:1036100000520692089301A90E4802F037FAB0B999
:103620000C48FFF7FFFE12B010BDFFF787FABFE7A7
:10363000FFF784FAC5E7FFF781FAD0E7FFF77EFAD4
:10364000D3E7FFF77BFAD6E7FFF778FAD9E7FFF77A
:1036500075FAE5E7201100200000014010B592B096
:1036600000241094119409940A940B940C940D94D2
:103670000E940F942022214601A805F0F7F929485D
:10368000294B0360A7234360846044F61F63C36033
:10369000046144618023836101F08CFF002831D1F3
:1036A00000231093119310A91E4802F0A9F90028D5
:1036B0002BD16023099300230A930B930C930D9352
:1036C0000E930F93082209A9164802F033F8F8B9AF
:1036D0000C2209A9134802F02DF8E0B90023019348
:1036E00002930393049305934FF4005206920893B8
:1036F00001A90C4802F0CAF980B90A48FFF792FE06
:1037000012B010BDFFF71AFACAE7FFF717FAD0E7B1
:10371000FFF714FADCE7FFF711FADFE7FFF70EFA1D
:10372000EBE700BF601300200004014000B589B042
:103730000023019302930393049305930693079345
:103740001748184A0260A7224260836040F2E732BD
:10375000C26003618023836101F02CFFB8B960234C
:103760000193002202920392059201A90C4801F0F4
:10377000E1FF78B904220DEB0201094801F0DAFFFC
:1037800058B90748FFF74EFE09B05DF804FBFFF794
:10379000D5F9E4E7FFF7D2F9ECE7FFF7CFF9F0E767
:1037A000A81300200040014000B589B00023019318
:1037B0000293039304930593069307931648174ABD
:1037C0000260A7224260836040F2E732C260036178
:1037D0008023836101F0C2FEA0B90F4801F0EAFE28
:1037E00098B960230193002202920392059201A9E5
:1037F000094801F09FFF58B90748FFF713FE09B0C9
:103800005DF804FBFFF79AF9E7E7FFF797F9E8E7B8
:10381000FFF794F9F0E700BF681100200044014071
:1038200000B589B000230193029303930493059399
:10383000069307931648174A0260A72242608360E6
:1038400040F2E732C26003618023836101F086FEAB
:10385000A0B90F4801F0AEFE98B960230193002291
:1038600002920392059201A9094801F063FF58B939
:103870000748FFF7D7FD09B05DF804FBFFF75EF9D5
:10388000E7E7FFF75BF9E8E7FFF758F9F0E700BF74
:10389000B01100200048014008B50A480A4B0360F7
:1038A0004FF4E133436000238360C36003610C2263
:1038B00042618361C36102F050FA00B908BDFFF7AD
:1038C0003DF9FBE7B01400200010014008B50A489C
:1038D0000A4B03604FF4E133436000238360C3600D
:1038E00003610C2242618361C36102F036FA00B9C0
:1038F00008BDFFF723F9FBE7F8140020004400405F
:1039000008B50A480A4B03604FF4E13343600023D3
:103910008360C36003610C2242618361C36102F072
:103920001CFA00B908BDFFF709F9FBE740150020B4
:103930000048004008B50A480A4B03604FF4612371
:10394000436000238360C36003610C224261836192
:10395000C36102F002FA00B908BDFFF7EFF8FBE718
:10396000881500200014014030B58FB00023099362
:103970000A930B930C930D930368744A93420BD0F4
:103980000446734A93422BD0724A934253D0724AF0
:1039900093427CD00FB030BD002101916F4B5A6C27
:1039A00042F010025A645A6C02F010020192019A1D
:1039B00002911A6B42F001021A631B6B03F00103C0
:1039C0000293029B4FF4C063099302230A930323DB
:1039D0000C9307230D9309A9614800F08FFED9E7E6
:1039E000002403945D4B1A6C42F400321A641A6C82
:1039F00002F400320392039A04941A6B42F001021B
:103A00001A631B6B03F001030493049B0C230993BB
:103A100002230A9303230C9307230D9309A950480B
:103A200000F06CFE22460621262000F0BBFB26207B
:103A300000F0F0FBAEE700240594484B1A6C42F40A
:103A400080221A641A6C02F480220592059A069468
:103A50001A6B42F008021A631B6B03F0080306930B
:103A6000069B4FF44073099302230A9303230C939C
:103A700007230D9309A93B4800F040FE224605218B
:103A8000272000F08FFB272000F0C4FB82E70025F1
:103A90000795324B5A6C42F020025A645A6C02F07D
:103AA00020020792079A08951A6B42F004021A63E3
:103AB0001B6B03F004030893089BC02309930223A4
:103AC0000A9303230C9308230D9309A9264800F0B9
:103AD00015FE2648264B03604FF020634360856047
:103AE000C5604FF48063036145618561C56105620E
:103AF000456200F01DFC18BB1C4BE3639C631D4832
:103B00001D4B03604FF0206343604023836000231C
:103B1000C3604FF48062026143618361C3610362E9
:103B2000436200F005FC70B9124BA3639C63002252
:103B30000521472000F036FB472000F06BFB29E70A
:103B4000FEF7FCFFD8E7FEF7F9FFEDE700100140B4
:103B5000004400400048004000140140003802408A
:103B600000000240000C024000080240F013002058
:103B70002864024050140020A0640240DFF834D0D2
:103B8000FFF7B2F90C480D490D4A002302E0D45862
:103B9000C4500433C4188C42F9D30A4A0A4C002397
:103BA00001E013600432A242FBD304F03BFFFFF7B5
:103BB0001BF870470000022000000020000A0020CF
:103BC000F4570108000A0020A0690020FEE7000069
:103BD00008B50B4B1A6842F400721A601A6842F476
:103BE00080621A601A6842F480721A60032000F042
:103BF000C7FA0F20FFF74CF8FFF728F8002008BDA0
:103C0000003C0240034A1168034B1B780B441360CD
:103C1000704700BFD015002040000020014B1868FD
:103C2000704700BFD01500204A4B5A6822F440323A
:103C30005A605A6841680A435A600268536823F41C
:103C40008073536002685368016943EA012353603B
:103C50000268536823F040735360026853688168B8
:103C60000B4353600268936823F400639360026817
:103C70009368C1680B439360826A374B9A4257D06E
:103C80000268936823F07063936002689368816AA6
:103C90000B4393600268936823F04053936002687B
:103CA0009368C16A0B4393600268936823F0020330
:103CB000936002689368017E43EA4103936090F841
:103CC0002030002B3FD00268536843F400635360F8
:103CD0000268536823F46043536001684B68426A8A
:103CE000013A43EA42334B600268D36A23F470031B
:103CF000D3620168CB6AC269013A43EA0253CB62DC
:103D00000268936823F4007393600268936890F8E4
:103D1000301043EA412393600268936823F4806380
:103D2000936002689368416943EA81239360704716
:103D30000268936823F0706393600268936823F0CD
:103D400040539360B0E70268536823F40063536004
:103D5000CAE700BF002301400100000F38B310B5CF
:103D60000446036C43B1236C13F0100F0BD00120F9
:103D7000002384F83C3010BDFEF7B0FC00236364E0
:103D800084F83C30EFE7236C23F4885323F00203DC
:103D900043F0020323642046FFF746FF00206064DF
:103DA000236C23F0030343F001032364E0E70120C5
:103DB0007047000010B582B013460022019290F8BF
:103DC0003C20012A00F0AE800446012280F83C200D
:103DD0000268906810F0010F13D1906840F0010064
:103DE0009060534A1068534AA2FB0020800C00EBFD
:103DF0004000019002E001980138019001980028EC
:103E0000F9D12268906810F4807F03D0906820F484
:103E1000807090602268906810F0010F77D0206C5D
:103E200020F4E06020F0010040F4807020645268CB
:103E300012F4806F05D0226C22F4405242F480527A
:103E40002264226C12F4805F36D0626C22F006028B
:103E50006264002284F83C20A26B3748D063A26BD6
:103E600036481064A26B3648D06422686FF0220096
:103E700010602068426842F0806242602068826878
:103E800042F48072826020680A4600F14C01A06B07
:103E900000F0B4FA2B4B5B6813F01F0F27D1236897
:103EA000294A934211D002F58072934207D0274AE3
:103EB000934214D0002033E000226264C9E702F587
:103EC0000072526812F01F0FF1D19A6812F0405F31
:103ED0002AD19A6842F080429A60002020E002F5E0
:103EE0008072526812F0100FEFD0002018E02368A3
:103EF000154A934201D0002012E09A6812F0405F08
:103F000014D19A6842F080429A60002008E0236C45
:103F100043F010032364636C43F0010363640020E7
:103F200002B010BD0220FBE70020F9E70020F7E710
:103F30003C00002083DE1B43773F0008553F00080C
:103F4000613F0008002301400020014000220140A1
:103F50007047704708B5806BFFF7FBFF08BD7047DF
:103F600008B5806B40230364436C43F0040343644F
:103F7000FFF7F5FF08BD08B50346806B026C12F031
:103F8000500F25D1036C43F40073036403689A68EF
:103F900012F0405F19D1027EBAB9DA6A12F4700FDA
:103FA00003D09A6812F4806F0FD15A6822F0200271
:103FB0005A60036C23F480730364036C13F4805F12
:103FC00003D1036C43F001030364FFF7C1FF08BD95
:103FD000026C12F0100F04D1826BD26C184690471D
:103FE000F5E7FFF7BCFFF2E730B482B0002301939E
:103FF00090F83C30012B00F0BB80012380F83C306E
:104000000B68092B41D90468E2689BB203EB4303B8
:104010001E3B4FF0070C0CFA03F322EA0303E360A4
:104020000468E2680B8803EB43031E3B8D6805FAC6
:1040300003F31343E3604B68062B3DD80468626BBF
:1040400003EB8303053B4FF01F0C0CFA03F322EA4A
:10405000030363630468626B4B6803EB8303053BF4
:10406000B1F800C00CFA03F3134363630268414BD9
:104070009A4251D002683F4B9A4256D0002380F8B2
:104080003C30184602B030BC7047046822699BB2CD
:1040900003EB43034FF0070C0CFA03F322EA03038C
:1040A0002361046822690B8803EB43038D6805FADA
:1040B00003F313432361BEE70C2B16D805682A6B64
:1040C00003EB8303233B1F2404FA03F322EA0303D5
:1040D0002B6305682A6B4B6803EB8303233B0C8837
:1040E00004FA03F313432B63C0E70568EA6A03EBA2
:1040F0008303413B1F2404FA03F322EA0303EB6228
:104100000568EA6A4B6803EB8303413B0C8804FAB9
:1041100003F31343EB62A9E70B68122BAAD1164AEB
:10412000536843F480035360A4E70B68103B012BF2
:10413000A4D8114A536843F4000353600B68102B52
:104140009CD10E4B1B6802F1467202F52E3202F230
:104150008332A2FB03239B0C03EB83035B000193DD
:1041600002E0019B013B0193019B002BF9D185E704
:10417000022087E700200140002301403C0000208E
:10418000074AD36823F4E0631B041B0C000200F40D
:10419000E060034343F0BF6343F40033D3607047F0
:1041A00000ED00E000B5194BDB68C3F30223C3F157
:1041B000070CBCF1040F28BF4FF0040C03F1040EF0
:1041C000BEF1060F18D9033B4FF0FF3E0EFA0CFC70
:1041D00021EA0C0199400EFA03F322EA0303194382
:1041E00000280BDB0901C9B200F1604000F5614015
:1041F00080F800135DF804FB0023E5E700F00F00F2
:104200000901C9B2024B1954F4E700BF00ED00E008
:1042100014ED00E0002807DB00F01F024009012335
:104220009340024A42F82030704700BF00E100E0AE
:1042300030B405682C6824F480242C600468636022
:104240008368402B05D0036899600368DA6030BC4E
:10425000704703689A600368D960F8E710B4036890
:10426000D9B210390C4AA2FB014212090B4CA25CD4
:10427000C2655F2909D923F47F7323F00303043354
:104280008365806D5DF8044B704723F47F7323F0E2
:1042900003038365F5E700BFABAAAAAA6051010832
:1042A000836A826992B9012B0AD0022B02D00BB12A
:1042B00000207047C36A13F0807F28D10020704728
:1042C000C36AB3F1C07F24D000207047B2F5005F0D
:1042D00009D0022B25D9032B25D1C36A13F0807F87
:1042E00023D100207047032B03D8DFE803F0140428
:1042F000140A00207047C36A13F0807F0DD100209C
:104300007047C36AB3F1C07F09D000207047012015
:10431000704701207047012070470120704701203D
:10432000704701207047002070470120704700004F
:1043300070B50446FFF772FC002C5BD005460223E3
:1043400084F83530002384F834302268136823F071
:104350000103136023681A6812F0010F0AD0FFF7F7
:104360005DFC431B052BF5D920236365032084F8EE
:10437000350070BD1A68204810406168A2680A4381
:10438000E1680A4321690A4361690A43A1690A4352
:10439000E1690A43216A0A430243616A04291ED083
:1043A0001A602668756925F00705636A1D43042BAA
:1043B00007D1A36A1D43E36A1BB12046FFF770FFD4
:1043C00090B975612046FFF749FFE26D3F239340A6
:1043D000836000206065012384F83530C9E7E16A15
:1043E000206B01430A43DBE740236365012084F827
:1043F0003500BEE70120BCE73F8010F038B5044629
:10440000856D90F8340001282BD0012084F8340009
:1044100094F83500C0B2012804D0002384F8343069
:10442000022038BD022084F8350000206065204657
:10443000FFF7FEFEE26D3F239340AB6022681368F6
:1044400043F016031360236C23B12268136843F012
:10445000080313602268136843F00103136000200F
:10446000DFE70220DDE770B50446866DFFF7D6FB77
:1044700094F83530DBB2022B06D08023636500232D
:1044800084F83430012070BD05462268136823F09B
:10449000160313602268536923F080035361236C71
:1044A000E3B12268136823F00803136022681368DD
:1044B00023F00103136023681B6813F0010F11D070
:1044C000FFF7ACFB431B052BF5D9202363650320C5
:1044D00084F83500002384F83430D4E7A36C002B33
:1044E000DFD1E3E7E26D3F239340B360012384F81B
:1044F0003530002084F83400C5E790F83530DBB261
:10450000022B03D08023436501207047052380F8E8
:1045100035300268136823F00103136000207047F0
:10452000F0B583B0044600230193724B1D68724BB3
:10453000A3FB0535AD0A876D3E68C26D0823934025
:10454000334210D003681A6812F0040F0BD01A68B7
:1045500022F004021A60C26D08239340BB60436DD1
:1045600043F001034365E26D01239340334209D0D8
:104570002268526912F0800F04D0BB60636D43F073
:1045800002036365E26D04239340334209D022683D
:10459000126812F0020F04D0BB60636D43F0040395
:1045A0006365E26D10239340334224D02268126881
:1045B00012F0080F1FD0BB6023681A6812F4802F16
:1045C0000DD01B6813F4002F04D1236C9BB120463F
:1045D000984710E0A36C73B1204698470BE01A6827
:1045E00012F4807F03D11A6822F008021A60236C4B
:1045F0000BB120469847E26D20239340334255D0BB
:104600002268126812F0100F50D0BB6094F8353059
:10461000DBB2052B0ED023681A6812F4802F33D03A
:104620001B6813F4002F2AD1636C002B3ED0204668
:1046300098473BE02268136823F016031360226852
:10464000536923F080035361236CA3B1226813687C
:1046500023F008031360E26D3F239340BB60012306
:1046600084F83530002384F83430236D002B3FD09C
:10467000204698473CE0A36C002BE7D1EBE7E36BC7
:10468000A3B12046984711E01A6812F4807F09D13F
:104690001A6822F010021A60012384F835300023D2
:1046A00084F83430E36B0BB120469847636DFBB15F
:1046B000636D13F0010F17D0052384F8353022689D
:1046C000136823F001031360019B01330193AB4294
:1046D00004D823681B6813F0010FF5D1012384F877
:1046E0003530002384F83430E36C0BB12046984712
:1046F00003B0F0BD3C000020B5814E1B00230F2B02
:1047000000F2E48070B582B060E085685E0003244A
:10471000B44025EA0405CC68B4402C438460456865
:1047200025EA02054C68C4F300129A402A4342600D
:104730005AE0DC08083450F8246003F007029500C2
:104740000F22AA4026EA020E0A69AA4042EA0E0295
:1047500040F824205CE0072200E0002202FA0EF27A
:104760002A4302345A4D45F824205A4A94686FEA85
:104770000C0224EA0C054E6816F4801F01D04CEAA6
:104780000405544CA560E46802EA04054E6816F47A
:10479000001F01D04CEA04054E4CE560646802EA53
:1047A00004054E6816F4003F01D04CEA0405494C5C
:1047B0006560246822404D6815F4803F01D04CEAC2
:1047C0000402444C226001330F2B7DD801229A4011
:1047D0000C6804EA020C32EA0404F4D14C6804F0D8
:1047E0000304013C012C90D94A6802F00302032A19
:1047F00009D0C4685D000322AA4024EA02048A6842
:10480000AA402243C2604A6802F00302022A90D002
:1048100004684FEA430E032202FA0EF224EA02046D
:104820004A6802F0030202FA0EF2224302604A686A
:1048300012F4403FC7D000220192274A546C44F43E
:1048400080445464526C02F480420192019A9C08A4
:10485000A51C1F4A52F8255003F003024FEA820EAE
:104860000F2202FA0EF225EA02051C4A90423FF49A
:1048700074AF02F5806290421AD002F580629042D5
:1048800018D002F58062904216D002F58062904204
:1048900014D002F58062904212D002F580629042FC
:1048A00010D002F5806290423FF455AF082255E7E0
:1048B000012253E7022251E703224FE704224DE78A
:1048C00005224BE7062249E702B070BD704700BFE2
:1048D00000380140003C0140003802400000024026
:1048E0000369194201D001207047002070470AB1C6
:1048F000816170470904816170470000002800F061
:10490000CC8070B5044690F83D30002B77D024233E
:1049100084F83D302268136823F001031360226895
:10492000136843F4004313602268136823F40043C0
:10493000136000F0DDFB62685A4B9A4264D85A4B10
:1049400098428CBF00230123002B40F0A8805749D8
:10495000A1FB00318B0C25686A6822F03F0242EA15
:1049600091426A6021680A6A22F03F0266684D4DF2
:10497000AE424FD8013313430B622168CA6922F457
:104980004F4222F0FF026668464B9E424CD8431EBF
:104990007600B3FBF6F3013340F6FC70034278D0A7
:1049A000C3F30B031343CB6121680B6823F0C003EF
:1049B000E269206A024313430B6021688B6823F489
:1049C000034323F0FF032269E068024313438B6033
:1049D0002168CB6823F0FF036269A0690243134397
:1049E000CB602268136843F0010313600020206449
:1049F000202384F83D30206384F83E0070BD80F8A9
:104A00003C30FEF763F882E7294B98428CBF0023C5
:104A1000012399E74FF4967505FB03F3254DA5FB9C
:104A200003539B090133A6E7A368BBB9451E06EBF8
:104A3000460CB5FBFCF50135C5F30B05B5FA85F55C
:104A40006D0945BBC3B9013806EB4603B0FBF3F370
:104A50000133C3F30B0343F40043A3E7451E06EB06
:104A6000860C0CEB8C0CB5FBFCF50135C5F30B0586
:104A7000B5FA85F56D09E4E7013806EB860303EB2B
:104A80008303B0FBF3F30133C3F30B0343F440435D
:104A900088E7042386E7012384E70120704701208B
:104AA000ACE700BFA08601007F841E0083DE1B43AD
:104AB000FF083D00D34D6210002800F0E08170B582
:104AC00082B00446036813F0010F3BD09F4B9B68F4
:104AD00003F00C03042B2CD09C4B9B6803F00C03BD
:104AE000082B21D06368B3F5803F4FD0B3F5A02FDA
:104AF00052D0964B1A6822F480321A601A6822F457
:104B000080221A606368002B50D0FFF787F80546B3
:104B10008E4B1B6813F4003F14D1FFF77FF8401B46
:104B20006428F5D90320B1E1884B5B6813F4800F4A
:104B3000D8D0864B1B6813F4003F03D06368002B6A
:104B400000F09F81236813F0020F54D07F4B9B68C5
:104B500013F00C0F3ED07D4B9B6803F00C03082B29
:104B600033D0E368002B68D0794B01221A60FFF73D
:104B700055F80546754B1B6813F0020F54D1FFF72B
:104B80004DF8401B0228F5D903207FE16F4A1368D6
:104B900043F480331360B5E76C4B1A6842F480220B
:104BA0001A601A6842F480321A60ABE7FFF736F8F1
:104BB0000546664B1B6813F4003FC3D0FFF72EF881
:104BC000401B6428F5D9032060E1604B5B6813F457
:104BD000800FC6D15D4B1B6813F0020F03D0E36852
:104BE000012B40F05081594A136823F0F8032169E2
:104BF00043EAC1031360236813F0080F42D06369CE
:104C00006BB3534B0122C3F8802EFFF707F805461C
:104C10004E4B5B6F13F0020F34D1FEF7FFFF401BCA
:104C20000228F5D9032031E1484A136823F0F8033C
:104C3000216943EAC1031360DDE7454B00221A6096
:104C4000FEF7ECFF0546414B1B6813F0020FD2D074
:104C5000FEF7E4FF401B0228F5D9032016E13C4B88
:104C60000022C3F8802EFEF7D9FF0546374B5B6F55
:104C700013F0020F06D0FEF7D1FF401B0228F5D932
:104C8000032003E1236813F0040F77D02F4B1B6C34
:104C900013F0805F33D1002301932C4B1A6C42F048
:104CA00080521A641B6C03F080530193019B012511
:104CB000284B1B6813F4807F23D0A368012B34D0CA
:104CC000052B38D0214B1A6F22F001021A671A6F98
:104CD00022F004021A67A368002B3DD0FEF79EFF66
:104CE00006461A4B1B6F13F0020F46D1FEF796FFD4
:104CF000801B41F288339842F3D90320C6E0002597
:104D0000D6E7144A136843F480731360FEF786FFF6
:104D10000646104B1B6813F4807FCED1FEF77EFF52
:104D2000801B0228F5D90320B0E0084A136F43F036
:104D300001031367CFE7054B1A6F42F004021A67AD
:104D40001A6F42F001021A67C5E700BF003802403F
:104D50000000474200700040FEF760FF0646524BDD
:104D60001B6F13F0020F08D0FEF758FF801B41F2B3
:104D700088339842F3D9032088E0EDB9A369002B6A
:104D800000F08380484A926802F00C02082A51D051
:104D9000022B17D0454B00221A66FEF73FFF044650
:104DA000414B1B6813F0007F42D0FEF737FF001B1A
:104DB0000228F5D9032069E03B4A136C23F08053A5
:104DC0001364DBE7394B00221A66FEF727FF05461E
:104DD000354B1B6813F0007F06D0FEF71FFF401B0A
:104DE0000228F5D9032051E0E369226A1343626A7D
:104DF00043EA8213A26A5208013A43EA0243E26A92
:104E000043EA0263284A5360284B01221A66FEF7E0
:104E100005FF0446244B1B6813F0007F06D1FEF704
:104E2000FDFE001B0228F5D903202FE000202DE015
:104E300000202BE0012B2BD01B4B5B6803F480017F
:104E4000E269914226D103F03F02216A8A4223D1CE
:104E5000616A47F6C0721A40B2EB811F1ED103F49B
:104E60004031A26A5208013AB1EB024F18D103F067
:104E70007063E26AB3EB026F14D1002006E00120F8
:104E80007047012002E0012000E0002002B070BD68
:104E90000120FBE70120F9E70120F7E70120F5E712
:104EA0000120F3E70120F1E700380240000047420B
:104EB00008B5314B9B6803F00C03042B57D0082B2B
:104EC00057D12D4B5A6802F03F025B6813F4800FF4
:104ED0002AD0294B5968C1F3881C4FEA4C11B1EB19
:104EE0000C006EEB0E0E4FEA8E1343EA90638101C5
:104EF000091A63EB0E03DB0043EA5173C90011EB9F
:104F00000C0C43F10003590200234FEA4C2041EA04
:104F1000DC51FBF7FBFD184B5B68C3F30143013326
:104F20005B00B0FBF3F025E0134B5968C1F3881C1C
:104F30004FEA4C11B1EB0C006EEB0E0E4FEA8E13E4
:104F400043EA90638101091A63EB0E03DB0043EA35
:104F50005173C90011EB0C0C43F1000399020023BB
:104F60004FEA8C2041EA9C51FBF7D0FDD3E7034880
:104F700000E0034808BD00BF0038024000127A007C
:104F80000024F400002800F09B8070B50D46044614
:104F90004F4B1B6803F007038B4208D2CBB24C4A3D
:104FA0001370136803F007038B4240F08B80236873
:104FB00013F0020F17D013F0040F04D0454A936882
:104FC00043F4E0539360236813F0080F04D0414A80
:104FD000936843F4604393603E4A936823F0F00380
:104FE000A1680B439360236813F0010F32D063680C
:104FF000012B21D09A1E012A25D9364A126812F0B7
:10500000020F61D033498A6822F0030213438B6098
:10501000FEF704FE06462F4B9B6803F00C03626804
:10502000B3EB820F16D0FEF7F9FD801B41F28833F7
:105030009842F0D9032042E0264A126812F4003F59
:10504000E0D101203BE0234A126812F0007FD9D161
:10505000012034E01E4B1B6803F00703AB4207D965
:10506000EAB21B4B1A701B6803F00703AB422DD149
:10507000236813F0040F06D0164A936823F4E05314
:10508000E1680B439360236813F0080F07D0114ABF
:10509000936823F46043216943EAC1039360FFF7F7
:1050A00007FF0C4B9B68C3F303130B4AD35CD84038
:1050B0000A4B18600A4B1868FDF7EAFD002070BD26
:1050C000012070470120FAE70120F8E70120F6E708
:1050D000003C024000380240485101083C000020DA
:1050E00044000020014B1868704700BF3C000020BE
:1050F00008B5FFF7F7FF044B9B68C3F38223034A0D
:10510000D35CD84008BD00BF0038024058510108A8
:1051100008B5FFF7E7FF044B9B68C3F34233034A2C
:10512000D35CD84008BD00BF003802405851010888
:105130000F2303600B4B9A6802F0030242609A68E7
:1051400002F0F00282609A6802F4E052C2609B684A
:10515000DB0803F4E0530361034B1B6803F0070310
:105160000B60704700380240003C024030B4036AD4
:10517000026A22F0010202624268846924F0730428
:105180000D682C4323F0020C8B6843EA0C03104D8E
:10519000A84203D005F58065A84205D123F0080395
:1051A000CD682B4323F00403094DA84203D005F535
:1051B0008065A84205D122F440724D692A438D6969
:1051C0002A43426084614A684263036230BC70478C
:1051D0000000014030B4036A026A22F48072026265
:1051E0004268C46924F0730C0C6844EA0C0523F48B
:1051F00000738C6843EA0423114CA04203D004F5E9
:105200008064A04206D123F40063CC6843EA0423FF
:1052100023F480630A4CA04203D004F58064A042CA
:1052200007D122F440524C6942EA04128C6942EAE6
:1052300004124260C5614A68C263036230BC7047B1
:105240000000014030B4036A026A22F48052026214
:105250004468C26922F4E6420D6842EA052223F45A
:1052600000538D6843EA0533094DA84203D005F584
:105270008065A84204D124F480444D6944EA851431
:105280004460C2614A680264036230BC704700BF78
:105290000000014090F83D30DBB2012B37D10223F2
:1052A00080F83D300268D36843F00103D36003689F
:1052B000194A934220D0B3F1804F1DD0A2F57C4211
:1052C000934219D002F58062934215D002F58062B4
:1052D000934211D002F5784293420DD002F57052FC
:1052E000934209D0A2F59432934205D01A6842F055
:1052F00001021A60002070479A6802F00702062A2D
:1053000007D01A6842F001021A600020704701209D
:1053100070470020704700BF000001407047704791
:105320007047704770B504460368DE681D6915F064
:10533000020F10D016F0020F0DD06FF002021A61AA
:105340000123037703689B6913F0030F5ED0FFF717
:10535000E6FF0023237715F0040F12D016F0040F98
:105360000FD023686FF004021A61022323772368A9
:105370009B6913F4407F4FD02046FFF7D0FF0023F6
:10538000237715F0080F12D016F0080F0FD02368FE
:105390006FF008021A61042323772368DB6913F096
:1053A000030F40D02046FFF7BAFF0023237715F004
:1053B000100F12D016F0100F0FD023686FF01002EC
:1053C0001A61082323772368DB6913F4407F31D007
:1053D0002046FFF7A4FF0023237715F0010F02D02A
:1053E00016F0010F2DD115F0800F02D016F0800FAE
:1053F0002FD115F0400F02D016F0400F31D115F02B
:10540000200F02D016F0200F33D170BDFFF786FFBA
:105410002046FFF785FF9CE72046FFF77FFF2046E9
:10542000FFF77EFFABE72046FFF778FF2046FFF748
:1054300077FFBAE72046FFF771FF2046FFF770FFBE
:10544000C9E723686FF001021A61204603F09AF859
:10545000C9E723686FF080021A61204600F040FB24
:10546000C7E723686FF040021A612046FFF759FF33
:10547000C5E723686FF020021A61204600F02FFB79
:10548000C3E700000368344A904212D0B0F1804F65
:105490000FD0A2F57C4290420BD002F58062904280
:1054A00007D002F58062904203D002F57842904224
:1054B00003D123F070034A681343274A90422AD04D
:1054C000B0F1804F27D0A2F57C42904223D002F564
:1054D000806290421FD002F5806290421BD002F59C
:1054E0007842904217D002F57052904213D002F5E4
:1054F000806290420FD002F5806290420BD0A2F5FC
:105500009832904207D002F58062904203D002F5B3
:105510008062904203D123F44073CA68134323F09E
:1055200080034A69134303608B68C3620B6883621C
:10553000094B984203D003F58063984201D10B696F
:10554000036301234361036913F0010F03D003696F
:1055500023F00103036170470000014040B310B520
:10556000044690F83D30F3B1022384F83D302146E3
:1055700051F8040BFFF786FF012384F8463084F8C6
:105580003E3084F83F3084F8403084F8413084F86D
:10559000423084F8433084F8443084F8453084F84D
:1055A0003D30002010BD80F83C30FDF7E7FEDBE722
:1055B0000120704740B310B5044690F83D30F3B178
:1055C000022384F83D30214651F8040BFFF75AFFBF
:1055D000012384F8463084F83E3084F83F3084F864
:1055E000403084F8413084F8423084F8433084F805
:1055F000443084F8453084F83D30002010BD80F8F8
:105600003C30FDF76BFDDBE701207047002856D0EA
:10561000F8B50D46044690F83D30002B4AD00223E1
:1056200084F83D302268936823F4804323F0070315
:105630009360214651F8040BFFF724FF21688A6824
:105640008B690E6A2868104323F4407C2CF0030C0D
:10565000AA68AB6942EA032343EA0C0323F47C43C0
:1056600023F0FC03EA69EF6847EA022C4CEA030CDA
:105670002A6A13032A6943EA021343EA0C0326F059
:10568000AA066A686D6942EA051232438860216899
:105690008B6123681A62012384F8463084F83E3017
:1056A00084F83F3084F8423084F8433084F83D3049
:1056B0000020F8BD80F83C30FDF784FDAFE7012005
:1056C0007047000030B4036A026A22F010020262DE
:1056D0004468826922F4E6420D6842EA052223F01A
:1056E00020038D6843EA0513114DA84203D005F548
:1056F0008065A84206D123F08003CD6843EA0513F4
:1057000023F040030A4DA84203D005F58065A84266
:1057100007D124F440644D6944EA85048D6944EA64
:105720008504446082614A688263036230BC7047CA
:105730000000014038B590F83C30012B66D004469B
:105740000D46012380F83C300C2A5AD8DFE802F0DD
:10575000075959591B59595930595959440000682A
:10576000FFF704FD2268936943F008039361226800
:10577000936923F0040393612268936929690B43B9
:10578000936100203EE00068FFF79CFF2268936968
:1057900043F4006393612268936923F48063936107
:1057A00022689369296943EA01239361002029E073
:1057B0000068FFF70FFD2268D36943F00803D36147
:1057C0002268D36923F00403D3612268D36929696D
:1057D0000B43D361002015E00068FFF733FD22681A
:1057E000D36943F40063D3612268D36923F48063EF
:1057F000D3612268D369296943EA0123D361002078
:1058000000E00120002384F83C3038BD0220FCE792
:1058100001F01F01012303FA01FC036A23EA0C03D0
:105820000362036A02FA01F10B430362704700004E
:1058300010B504460846002942D194F83E30DBB248
:10584000013B18BF0123002B6ED1002851D1022348
:1058500084F83E30012201462068FFF7D9FF236813
:10586000334A934203D002F58062934203D15A6CCB
:1058700042F400425A6423682D4A934249D0B3F15E
:10588000804F46D0A2F57C42934242D002F580621E
:1058900093423ED002F5806293423AD002F57842BC
:1058A000934236D002F57052934232D0A2F5943230
:1058B00093422ED01A6842F001021A60002032E0B2
:1058C000042908D008290DD094F84130DBB2013BFF
:1058D00018BF0123B7E794F83F30DBB2013B18BF94
:1058E0000123B0E794F84030DBB2013B18BF01233D
:1058F000A9E7042805D0082807D0022384F84130FE
:10590000A8E7022384F83F30A4E7022384F840305C
:10591000A0E79A6802F00702062A07D01A6842F048
:1059200001021A60002010BD0120FCE70020FAE708
:105930000000014038B5044690F83E00C0B294F82B
:105940003F3094F84220D2B294F843C00D46B1B92A
:10595000012849D1012A48D1022384F83E3084F835
:1059600042307DB3042D39D0012200212068FFF799
:105970004FFF012204212068FFF74AFF27E0DBB236
:105980005FFA8CFC042912D0012833D1012B2CD1D1
:10599000012A31D1BCF1010F30D1022384F83E300D
:1059A00084F83F3084F8423084F84330D9E7012B43
:1059B0001CD1BCF1010F1BD1022384F83F3084F8C5
:1059C0004330CEE7012200212068FFF721FF226843
:1059D000136843F001031360002006E00122042154
:1059E0002068FFF715FFF2E7012038BD0120FCE732
:1059F0001846FAE70120F8E71846F6E71046F4E7FC
:105A000090F83C30012B3DD010B4012380F83C309D
:105A1000022380F83D3003685A689C6822F0700CBD
:105A20000A6842EA0C025A600368174A93421AD085
:105A3000B3F1804F17D0A2F57C42934213D002F508
:105A4000806293420FD002F5806293420BD002F540
:105A50007842934207D002F57052934203D0A2F5E8
:105A60009432934204D124F080044A6814439C6029
:105A7000012380F83D30002380F83C3018465DF863
:105A8000044B7047022070470000014090F83C3002
:105A9000012B22D0012380F83C30CB6823F44073E3
:105AA0008A68134323F480634A68134323F4006332
:105AB0000A68134323F480530A69134323F4005301
:105AC0004A69134323F48043CA6913430268536449
:105AD000002380F83C30184670470220704770471A
:105AE0007047026802F10C0353E8003F23F0C00343
:105AF0000C3242E800310029F3D1202380F84130F4
:105B00007047026802F10C0353E8003F23F49073DE
