:020000040800F2
:1000000000000220A1370008B92C0008BB2C000812
:10001000BD2C0008BF2C0008C12C00080000000007
:10002000000000000000000000000000816B0008DC
:10003000C32C000800000000216C0008C9680008FB
:10004000F1370008F1370008F1370008F1370008F0
:10005000F1370008F1370008F1370008F1370008E0
:10006000F1370008F1370008F1370008F1370008D0
:10007000F1370008F1370008F1370008F1370008C0
:10008000F1370008F1370008F1370008F1370008B0
:10009000F1370008F1370008F1370008F1370008A0
:1000A000C52C0008DD2C0008F52C0008F1370008ED
:1000B0000D2D00081D2D00082D2D0008F13700081A
:1000C000F1370008F1370008F1370008F137000870
:1000D000F1370008F13700083D2D0008F13700081E
:1000E000F1370008F1370008F1370008F137000850
:1000F000F1370008F1370008F1370008F137000840
:10010000F1370008F13700084D2D0008F1370008DD
:10011000F1370008F13700085D2D00086D2D00084B
:100120007D2D0008F1370008F1370008F13700088D
:10013000F1370008F1370008F1370008F1370008FF
:10014000F1370008F1370008F1370008F1370008EF
:10015000F1370008F1370008F13700088D2D00084D
:10016000F1370008F1370008F1370008F1370008CF
:10017000F1370008F1370008F137000800000000EF
:08018000F1370008F137000817
:1001C00081F0004102E000BF83F0004330B54FEA08
:1001D00041044FEA430594EA050F08BF90EA020F75
:1001E0001FBF54EA000C55EA020C7FEA645C7FEA08
:1001F000655C00F0E2804FEA5454D4EB5555B8BF2B
:100200006D420CDD2C4480EA020281EA030382EA9B
:10021000000083EA010180EA020281EA0303362D2D
:1002200088BF30BD11F0004F4FEA01314FF4801C00
:100230004CEA113102D0404261EB410113F0004F12
:100240004FEA03334CEA133302D0524263EB4303C9
:1002500094EA050F00F0A780A4F10104D5F1200E67
:100260000DDB02FA0EFC22FA05F2801841F10001C2
:1002700003FA0EF2801843FA05F359410EE0A5F196
:1002800020050EF1200E012A03FA0EFC28BF4CF0C7
:10029000020C43FA05F3C01851EBE37101F000457D
:1002A00007D54FF0000EDCF1000C7EEB00006EEB8A
:1002B0000101B1F5801F1BD3B1F5001F0CD3490814
:1002C0005FEA30004FEA3C0C04F101044FEA44526B
:1002D00012F5800F80F09A80BCF1004F08BF5FEAF2
:1002E000500C50F1000041EB045141EA050130BDD2
:1002F0005FEA4C0C404141EB0101013C28BFB1F5E4
:10030000801FE9D291F0000F04BF01460020B1FA2E
:1003100081F308BF2033A3F10B03B3F120020CDA01
:100320000C3208DD02F1140CC2F10C0201FA0CF0DF
:1003300021FA02F10CE002F11402D8BFC2F1200C44
:1003400001FA02F120FA0CFCDCBF41EA0C019040FA
:10035000E41AA2BF01EB0451294330BD6FEA040443
:100360001F3C1CDA0C340EDC04F11404C4F120022E
:1003700020FA04F001FA02F340EA030021FA04F340
:1003800045EA030130BDC4F10C04C4F1200220FA97
:1003900002F001FA04F340EA0300294630BD21FAD5
:1003A00004F0294630BD94F0000F83F4801306BF9B
:1003B00081F480110134013D4EE77FEA645C18BF8F
:1003C0007FEA655C29D094EA050F08BF90EA020F26
:1003D00005D054EA000C04BF1946104630BD91EA1E
:1003E000030F1EBF0021002030BD5FEA545C05D121
:1003F0004000494128BF41F0004130BD14F5800460
:100400003CBF01F5801130BD01F0004545F0FE41D3
:1004100041F470014FF0000030BD7FEA645C1ABF08
:10042000194610467FEA655C1CBF0B46024650EA3F
:10043000013406BF52EA033591EA030F41F400216B
:1004400030BD00BF90F0000F04BF0021704730B5F1
:100450004FF4806404F132044FF000054FF00001C6
:1004600050E700BF90F0000F04BF0021704730B587
:100470004FF4806404F1320410F0004548BF40425C
:100480004FF000013EE700BF42004FEAE2014FEAB1
:1004900031014FEA02701FBF12F07F4393F07F4F8C
:1004A00081F06051704732F07F4208BF704793F08F
:1004B0007F4F04BF41F40021704730B54FF46074A2
:1004C00001F0004521F000411CE700BF50EA0102A5
:1004D00008BF704730B54FF000050AE050EA01024E
:1004E00008BF704730B511F0004502D5404261EBBE
:1004F00041014FF4806404F132045FEA915C3FF4FF
:10050000D8AE4FF003025FEADC0C18BF03325FEA9B
:10051000DC0C18BF033202EBDC02C2F1200300FA4C
:1005200003FC20FA02F001FA03FE40EA0E0021FA71
:1005300002F11444BDE600BF70B54FF0FF0C4CF45F
:10054000E06C1CEA11541DBF1CEA135594EA0C0F11
:1005500095EA0C0F00F0DEF82C4481EA030621EA4C
:100560004C5123EA4C5350EA013518BF52EA033587
:1005700041F4801143F4801338D0A0FB02CE4FF039
:100580000005E1FB02E506F00042E0FB03E54FF069
:100590000006E1FB03569CF0000F18BF4EF0010E61
:1005A000A4F1FF04B6F5007F64F5407404D25FEA5D
:1005B0004E0E6D4146EB060642EAC62141EA555110
:1005C0004FEAC52040EA5E504FEACE2EB4F1FD0C52
:1005D00088BFBCF5E06F1ED8BEF1004F08BF5FEAD0
:1005E000500E50F1000041EB045170BD06F0004682
:1005F00046EA010140EA020081EA0301B4EB5C042F
:10060000C2BFD4EB0C0541EA045170BD41F4801126
:100610004FF0000E013C00F3AB8014F1360FDEBF4B
:10062000002001F0004170BDC4F10004203C35DA27
:100630000C341BDC04F11404C4F1200500FA05F3AA
:1006400020FA04F001FA05F240EA020001F000424B
:1006500021F0004110EBD37021FA04F642EB0601C1
:100660005EEA430E08BF20EAD37070BDC4F10C04EB
:10067000C4F1200500FA04F320FA05F001FA04F2AF
:1006800040EA020001F0004110EBD37041F100019B
:100690005EEA430E08BF20EAD37070BDC4F12005A6
:1006A00000FA05F24EEA020E20FA04F301FA05F20E
:1006B00043EA020321FA04F001F0004121FA04F2B6
:1006C00020EA020000EBD3705EEA430E08BF20EA86
:1006D000D37070BD94F0000F0FD101F000464000C0
:1006E00041EB010111F4801F08BF013CF7D041EA42
:1006F000060195F0000F18BF704703F00046520046
:1007000043EB030313F4801F08BF013DF7D043EA16
:100710000603704794EA0C0F0CEA135518BF95EACC
:100720000C0F0CD050EA410618BF52EA4306D1D153
:1007300081EA030101F000414FF0000070BD50EA72
:10074000410606BF1046194652EA430619D094EAFC
:100750000C0F02D150EA013613D195EA0C0F05D1E6
:1007600052EA03361CBF104619460AD181EA03013A
:1007700001F0004141F0FE4141F470014FF00000F2
:1007800070BD41F0FE4141F4780170BD70B54FF08D
:10079000FF0C4CF4E06C1CEA11541DBF1CEA13550D
:1007A00094EA0C0F95EA0C0F00F0A7F8A4EB0504EF
:1007B00081EA030E52EA03354FEA013100F08880E6
:1007C0004FEA03334FF0805545EA131343EA1263AF
:1007D0004FEA022245EA111545EA10654FEA002664
:1007E0000EF000419D4208BF964244F1FD0404F51D
:1007F000407402D25B084FEA3202B61A65EB030579
:100800005B084FEA32024FF480104FF4002CB6EB35
:10081000020E75EB030E22BFB61A754640EA0C00B5
:100820005B084FEA3202B6EB020E75EB030E22BFF5
:10083000B61A754640EA5C005B084FEA3202B6EB36
:10084000020E75EB030E22BFB61A754640EA9C00F5
:100850005B084FEA3202B6EB020E75EB030E22BFC5
:10086000B61A754640EADC0055EA060E18D04FEA83
:10087000051545EA16754FEA06164FEAC30343EA23
:1008800052734FEAC2025FEA1C1CC0D111F4801FF0
:100890000BD141EA00014FF000004FF0004CB6E7E9
:1008A00011F4801F04BF01430020B4F1FD0C88BF88
:1008B000BCF5E06F3FF6AFAEB5EB030C04BFB6EB93
:1008C000020C5FEA500C50F1000041EB045170BD86
:1008D0000EF0004E4EEA113114EB5C04C2BFD4EBB3
:1008E0000C0541EA045170BD41F480114FF0000E37
:1008F000013C90E645EA060E8DE60CEA135594EAB3
:100900000C0F08BF95EA0C0F3FF43BAF94EA0C0FB5
:100910000AD150EA01347FF434AF95EA0C0F7FF42A
:1009200025AF104619462CE795EA0C0F06D152EA7E
:1009300003353FF4FDAE1046194622E750EA410662
:1009400018BF52EA43067FF4C5AE50EA41047FF473
:100950000DAF52EA43057FF4EBAE12E74FF0FF3CD8
:1009600006E000BF4FF0010C02E000BF4FF0010CA9
:100970004DF804CD4FEA410C7FEA6C5C4FEA430C22
:1009800018BF7FEA6C5C1BD001B050EA410C0CBF71
:1009900052EA430C91EA030F02BF90EA020F0020D3
:1009A000704710F1000F91EA030F58BF994208BF3A
:1009B00090422CBFD8176FEAE37040F001007047F7
:1009C0004FEA410C7FEA6C5C02D150EA013C07D14E
:1009D0004FEA430C7FEA6C5CD6D152EA033CD3D099
:1009E0005DF8040B704700BF8446104662468C4693
:1009F0001946634600E000BF01B5FFF7B7FF0028C6
:100A000048BF10F1000F01BD4DF808EDFFF7F4FFEE
:100A10000CBF012000205DF808FB00BF4DF808ED79
:100A2000FFF7EAFF34BF012000205DF808FB00BF9C
:100A30004DF808EDFFF7E0FF94BF012000205DF8BE
:100A400008FB00BF4DF808EDFFF7CEFF94BF012073
:100A500000205DF808FB00BF4DF808EDFFF7C4FF6C
:100A600034BF012000205DF808FB00BF4FEA4102BF
:100A7000B2F1E04324BFB3F5001CDCF1FE5C0DD9FC
:100A800001F0004C4FEAC0024CEA5070B2F1004F46
:100A900040EB830008BF20F00100704711F0804F49
:100AA00021D113F13872BCBF01F00040704741F40E
:100AB00080114FEA5252C2F11802C2F1200C10FA12
:100AC0000CF320FA02F018BF40F001004FEAC123F6
:100AD0004FEAD32303FA0CFC40EA0C0023FA02F39A
:100AE0004FEA4303CCE77FEA625307D150EA013370
:100AF0001EBF4FF0FE4040F44000704701F0004040
:100B000040F0FE4040F40000704700BF53B94AB9BE
:100B1000002908BF00281CBF4FF0FF314FF0FF3005
:100B200000F074B9ADF1080C6DE904CE00F006F8E0
:100B3000DDF804E0DDE9022304B070472DE9F04759
:100B4000089D04468E46002B4DD18A42944669D9B1
:100B5000B2FA82F252B101FA02F3C2F1200120FA94
:100B600001F10CFA02FC41EA030E94404FEA1C48E2
:100B7000210CBEFBF8F61FFA8CF708FB16E341EADE
:100B8000034306FB07F199420AD91CEB030306F164
:100B9000FF3080F01F81994240F21C81023E634485
:100BA0005B1AA4B2B3FBF8F008FB103344EA034429
:100BB00000FB07F7A7420AD91CEB040400F1FF333E
:100BC00080F00A81A74240F207816444023840EA7B
:100BD0000640E41B00261DB1D4400023C5E90043B4
:100BE0003146BDE8F0878B4209D9002D00F0EF8037
:100BF0000026C5E9000130463146BDE8F087B3FA6A
:100C000083F6002E4AD18B4202D3824200F2F98051
:100C1000841A61EB030301209E46002DE0D0C5E954
:100C2000004EDDE702B9FFDEB2FA82F2002A40F0A0
:100C30009280A1EB0C014FEA1C471FFA8CFE0126A3
:100C4000200CB1FBF7F307FB131140EA01410EFB47
:100C500003F0884208D91CEB010103F1FF3802D2EE
:100C6000884200F2CB804346091AA4B2B1FBF7F0E8
:100C700007FB101144EA01440EFB00FEA64508D90B
:100C80001CEB040400F1FF3102D2A64500F2BB8048
:100C90000846A4EB0E0440EA03409CE7C6F1200797
:100CA000B34022FA07FC4CEA030C20FA07F401FADD
:100CB00006F31C43F9404FEA1C4900FA06F3B1FB66
:100CC000F9F8200C1FFA8CFE09FB181140EA0141CB
:100CD00008FB0EF0884202FA06F20BD91CEB010168
:100CE00008F1FF3A80F08880884240F28580A8F1C0
:100CF00002086144091AA4B2B1FBF9F009FB101112
:100D000044EA014100FB0EFE8E4508D91CEB0101AF
:100D100000F1FF346CD28E456AD90238614440EA52
:100D20000840A0FB0294A1EB0E01A142C846A646D2
:100D300056D353D05DB1B3EB080261EB0E0101FA5B
:100D400007F722FA06F3F1401F43C5E900710026B8
:100D50003146BDE8F087C2F12003D8400CFA02FC0E
:100D600021FA03F3914001434FEA1C471FFA8CFE1E
:100D7000B3FBF7F007FB10360B0C43EA064300FB0E
:100D80000EF69E4204FA02F408D91CEB030300F1AC
:100D9000FF382FD29E422DD9023863449B1B89B263
:100DA000B3FBF7F607FB163341EA034106FB0EF3EC
:100DB0008B4208D91CEB010106F1FF3816D28B4299
:100DC00014D9023E6144C91A46EA004638E72E4665
:100DD000284605E70646E3E61846F8E64B45A9D25D
:100DE000B9EB020864EB0C0E0138A3E74646EAE7CC
:100DF000204694E74046D1E7D0467BE7023B61447A
:100E000032E7304609E76444023842E7704700BFE2
:100E1000844641EA000313F003036DD1403A41D305
:100E200051F8043B40F8043B51F8043B40F8043BC4
:100E300051F8043B40F8043B51F8043B40F8043BB4
:100E400051F8043B40F8043B51F8043B40F8043BA4
:100E500051F8043B40F8043B51F8043B40F8043B94
:100E600051F8043B40F8043B51F8043B40F8043B84
:100E700051F8043B40F8043B51F8043B40F8043B74
:100E800051F8043B40F8043B51F8043B40F8043B64
:100E900051F8043B40F8043B51F8043B40F8043B54
:100EA000403ABDD2303211D351F8043B40F8043BF4
:100EB00051F8043B40F8043B51F8043B40F8043B34
:100EC00051F8043B40F8043B103AEDD20C3205D304
:100ED00051F8043B40F8043B043AF9D2043208D0FC
:100EE000D2071CBF11F8013B00F8013B01D30B886E
:100EF00003806046704700BF082A13D38B078DD04C
:100F000010F003038AD0C3F10403D21ADB071CBF1D
:100F100011F8013B00F8013B80D331F8023B20F887
:100F2000023B7BE7043AD9D3013A11F8013B00F8C0
:100F3000013BF9D20B7803704B7843708B78837048
:100F40006046704700000000000000000000000044
:100F50000000000000000000000000000000000091
:100F60000000000000000000000000000000000081
:100F70000000000000000000000000000000000071
:100F800090F800F06DE9024520F007016FF0000CC9
:100F900010F0070491F820F040F049804FF0000471
:100FA0006FF00700D1E9002391F840F000F108004C
:100FB00082FA4CF2A4FA8CF283FA4CF3A2FA8CF384
:100FC0004BBBD1E9022382FA4CF200F10800A4FAEB
:100FD0008CF283FA4CF3A2FA8CF3E3B9D1E904233F
:100FE00082FA4CF200F10800A4FA8CF283FA4CF376
:100FF000A2FA8CF37BB9D1E9062301F1200182FA30
:101000004CF200F10800A4FA8CF283FA4CF3A2FA35
:101010008CF3002BC6D0002A04BF04301A4612BA43
:10102000B2FA82F2FDE8024500EBD2007047D1E946
:10103000002304F00305C4F100004FEAC50514F0D5
:10104000040F91F840F00CFA05F562EA05021CBFA6
:1010500063EA050362464FF00004A9E700000000C0
:1010600001F0FF01102A2BDB10F0070F08D010F859
:10107000013B013A8B422DD010F0070F42B3F6D15D
:10108000F0B441EA012141EA014122F007047FF076
:1010900000070023F0E80256083C85EA010586EACD
:1010A000010685FA47F5A3FA87F586FA47F6A5FA09
:1010B00087F68EB9EED1F0BC01F0FF0102F0070215
:1010C00032B110F8013B013A83EA010313B1F8D1C0
:1010D0000020704701387047002D06BF35460338A1
:1010E000073815F0010F07D1013015F4807F02BFDA
:1010F000013015F4C03F0130F0BC0138704700BF2B
:101100004FEA410C7FEA6C5C02D150EA013C0AD103
:101110004FEA430C7FEA6C5C02D152EA033C02D1F5
:101120004FF0000070474FF0010070474FEA410256
:1011300012F5001215D211D56FF47873B3EB625229
:1011400012D94FEAC12343F0004343EA505311F050
:10115000004F23FA02F018BF404270474FF00000E2
:10116000704750EA013005D111F0004008BF6FF020
:10117000004070474FF00000704700BF08B500F016
:101180007BFA00F0F7FA0D4B1870072000F0E0FA38
:101190000B4C2070082000F0DBFA6070052000F096
:1011A000D7FA084C2070062000F0D2FA607000F0E8
:1011B000D5FA142006F0D0FEE1E700BF480A00206F
:1011C000F8090020FC09002008B529E0803A803B9E
:1011D000D1180029B8BF4942142947DD02EB820229
:1011E00007EE902AF8EEE77A234AC2ED007A03EB85
:1011F000830307EE903AF8EEE77A204BC3ED007ACE
:101200001F4B93ED001AB1EE411A1B4BD3ED000AB0
:101210001A4B93ED000A07F0AFFC142006F09CFE79
:10122000184B1B781BB9184A137801331370164BEF
:101230001B780A2B05D9134B01221A70124B00227E
:101240001A70124B1B78012BE7D10E4B1B78012B28
:10125000E3D10F4A537812789918B1F5FA7FB5DDCA
:101260000023064A1360044A1360C9E70023034AB7
:101270001360014A1360C3E7040A0020000A00203B
:10128000080A00200C0A00200D0A0020000000209F
:10129000F8090020FEE7000000B583B00B46BDEE64
:1012A000C07AF8EEC77A30EE670A002204E0F2EE68
:1012B000047A20EE270A01329A42F8DBBDEEC00A1A
:1012C0008DED000A17EE102A024907F0EFFE03B079
:1012D0005DF804FB780C01082DE9F8432DED028B35
:1012E000534BB3F90000FFF7BDF80022514BFFF755
:1012F00023F90022504BFFF71FF900224F4BFFF755
:101300001BF9FFF7B3FB08EE100A4D4BD3ED037A40
:10131000FDEEE77A4B4CDFF8608117EE903A1AB297
:101320002146404607F0C2FE474BD3ED037AFDEE5F
:10133000E77A17EE903A1AB2444E524221463046AE
:1013400007F0B4FE424BD3ED037AFDEEE77A414F4E
:1013500017EE903A1AB22146384607F0A7FE3E4BE8
:10136000D3ED037AFDEEE77A17EE903A1AB23B4DD1
:1013700052422146284607F099FEDFF800910221EB
:101380004846B0EE480AFFF787FF354C2246002159
:10139000412000F0E1FD22461021182000F0DCFD84
:1013A00022462021182000F0D7FD22461021582087
:1013B00000F0D2FD22462021582000F0CDFD294A20
:1013C0000021084600F0C8FD4A460021412000F0F7
:1013D000C3FD254A1021002000F0BEFD4246102129
:1013E000182000F0B9FD214A2021002000F0B4FDB2
:1013F0003A462021182000F0AFFD1D4A1021402060
:1014000000F0AAFD32461021582000F0A5FD194A2F
:101410002021402000F0A0FD2A462021582000F085
:101420009BFD00F0E3FCFA2006F096FD58E700BFB4
:10143000100A00200000303F000014400000264049
:10144000200B0020800C0108340B00201C0A002017
:10145000480B0020240A00205C0B00202C0A0020EE
:1014600004000020840C0108900C0108940C010871
:10147000980C01089C0C0108140A0020340A002072
:1014800000B583B027E0344BD3ED077AFDEEE77A61
:1014900017EE900A00F0DAFA304BD3ED077AFDEE42
:1014A000E77A17EE900A00F0F3FA2D4BD3ED077AA6
:1014B000FDEEE77A17EE900A00F004FB294BD3ED1E
:1014C000077AFDEEE77A17EE900A00F015FB05218A
:1014D00001A806F0EFFC06F0DFFB0190224BD3EDF4
:1014E000030A224B93ED000A1B4800F0CDFF204B6E
:1014F00093ED000A1F4BD3ED030AB1EE400A1748E3
:1015000000F0C2FF1C4BD3ED030A1C4B93ED000A05
:10151000134800F0B9FF1A4B93ED000A194BD3EDB5
:10152000030AB1EE400A0F4800F0AEFF164BD3EDB0
:10153000000A164B93ED000A154801F038F8154BD8
:1015400083ED000A0821144802F0DCFF134B1870E9
:10155000012898D0BBE700BFA80F0020D00F0020C3
:10156000F80F002020100020200B00203012002057
:1015700038120020340B0020480B002040120020BD
:10158000481200205C0B0020700B0020780F002018
:10159000800F0020080A0020000C024009000020F3
:1015A00008B5372006F0D8FCFBE7000010B504466C
:1015B00004F062F8054BA3FB00231B0D04FB03F0B2
:1015C00003460138002BFBD110BD00BF83DE1B4357
:1015D00030B583B005460123ADF80630244A00211A
:1015E0005170ADF806300CE000220221214802F0D3
:1015F00090FF14E0BDF806309BB25B009BB2ADF8E3
:101600000630BDF806309BB2FF2B2CD8BDF8063053
:101610001D42E9D001220221164802F07AFF154C42
:1016200001220821204602F074FF0520FFF7BEFFCB
:1016300000220821204602F06CFF0520FFF7B6FFCC
:1016400001220821204602F064FF0121204602F019
:1016500059FF0028CED0BDF806309AB204494B7825
:1016600013434B70C6E71020FFF7A0FF03B030BD57
:101670003C0A00200008024010B582B000228DF81C
:1016800007200123ADF8043004212E4802F041FF69
:101690002D4C2078FFF79CFF6078FFF799FF02231D
:1016A0008DF807303EE0BDF804309BB25B009BB282
:1016B000ADF80430BDF804309BB2FF2B29D8214C83
:1016C00001220821204602F024FF0520FFF76EFFCB
:1016D00000220821204602F01CFF0520FFF766FFCC
:1016E00001220821204602F014FF0121204602F0C9
:1016F00009FF0028D7D0BDF8042091B29DF807302B
:10170000DBB21248C25C9DF80730DBB20A43C25418
:10171000C9E71020FFF74AFF9DF807300133DBB21D
:101720008DF807309DF80730DBB2082B03D8012372
:10173000ADF80430BEE701220421024802F0E9FEC0
:1017400002B010BD000802400C0000203C0A00203E
:10175000014B185C704700BF3C0A0020002304E0E6
:10176000034A0021D1540133DBB2082BF8D970476A
:101770003C0A002008B5FFF7F1FFFFF77DFF0D4B96
:101780001A79D97841EA02210B4B198000230F2BDB
:101790000ED80A4A32F81320013A41FA02F212F046
:1017A000010F02D00133DBB2F1E70133D8B200E020
:1017B000002008BD3C0A0020460A0020100000203E
:1017C00010B5104C00220421204602F0A2FE102089
:1017D000FFF7ECFE0120FFF7FBFE4220FFF7F8FECB
:1017E0000020FFF7F5FE0020FFF7F2FE0020FFF7D4
:1017F000EFFE01220421204602F08BFE1020FFF7AD
:10180000D5FE10BD0008024010B5164C0022042180
:10181000204602F07EFE1020FFF7C8FE0120FFF7F1
:10182000D7FE4320FFF7D4FE0020FFF7D1FE0120B2
:10183000FFF7CEFE0020FFF7CBFE0020FFF7C8FE2B
:101840000020FFF7C5FE0020FFF7C2FE0020FFF7D3
:10185000BFFE01220421204602F05BFE1020FFF7AC
:10186000A5FE10BD0008024010B5154C0022042151
:10187000204602F04EFE0120FFF7AAFE4420FFF7AB
:10188000A7FE0020FFF7A4FE0120FFF7A1FEEE2037
:10189000FFF79EFE0020FFF79BFE0020FFF798FE5B
:1018A0000020FFF795FE0020FFF792FE01220421A1
:1018B000204602F02EFE1020FFF778FE10BD00BF7C
:1018C0000008024010B5104C00220421204602F00E
:1018D00020FE1020FFF76AFE0120FFF779FE4D2061
:1018E000FFF776FE0020FFF773FE0020FFF770FE83
:1018F0000120FFF76DFE01220421204602F009FEBF
:101900001020FFF753FE10BD0008024010B5164C22
:1019100000220421204602F0FCFD1020FFF746FEC5
:101920000120FFF755FE4320FFF752FE0020FFF78E
:101930004FFE0020FFF74CFE5A20FFF749FE5A20C9
:10194000FFF746FE5A20FFF743FE5A20FFF740FEFE
:101950005A20FFF73DFE01220421204602F0D9FD66
:101960001020FFF723FE10BD0008024008B5FFF766
:1019700027FFFFF725FFFFF723FFFFF745FFFFF7DF
:1019800073FFFFF79FFFFFF7C1FF08BD10B51446B7
:101990004FF47A7392B2024804F0C9FC204610BD9D
:1019A00028150020F8B5214F3C21384604F08CFA68
:1019B0001F4E3C21304604F087FA1E4D3C2128463C
:1019C00004F082FA1C4C3C21204604F07DFA3A686F
:1019D000D36843F00103D3603268D36843F0010356
:1019E000D3602A68D36843F00103D3602268D368C8
:1019F00043F00103D360114A002353600021D160FA
:101A00001374136013810E4A5360D1601374136012
:101A100013810C4A5360D1601374136013810A4A16
:101A20005360D160137413601381F8BD78130020E4
:101A3000C01300200814002050140020200B0020A8
:101A4000340B0020480B00205C0B0020002807DD31
:101A50000D4B1B6800225A630C4B1B685863704780
:101A6000002807DB084B1A6800235363074A1268F3
:101A700053637047044B1B6840425863034B1B6819
:101A800000225A63704700BFE81200203013002084
:101A9000002805DD0A4B1B68586300229A637047D3
:101AA000002805DB064B1B6800225A639A637047C7
:101AB000034B1B6800225A6340429863704700BF83
:101AC000E0140020002805DD0A4B1B685863002243
:101AD0009A637047002805DB064B1B6800225A6397
:101AE0009A637047034B1B6800225A634042986315
:101AF000704700BFA0120020002805DD0A4B1B68BC
:101B00000022DA6318647047002805DB064B1B6867
:101B10000022DA631A647047034B1B684042D863A3
:101B200000221A64704700BFA012002008B50A46C0
:101B300001460320FFF72AFF08BD8446002004E089
:101B40001CF803201044C0B219464B1E0029F7DCD4
:101B5000704742B10132034603E011F801CB03F8AC
:101B600001CB013AF9D1704770B594B006460D46E5
:101B70000DF1040C274C0FCCACE80F000FCCACE8F7
:101B80000F000FCCACE80F0023682CF8023B1B0CB5
:101B90008CF800300023CDF83730CDF83B30CDF84D
:101BA0003F30CDF84330CDF84730CDF84A306B1E8A
:101BB000DBB2122B28D856B349238DF83630164B9A
:101BC0001B788DF837308DF838502A4631460DF1A4
:101BD0003900FFF7BEFFA91C0DF13700FFF7ADFF7D
:101BE00005F185030DEB030404F84C0C05F18603A5
:101BF0006B444D2203F84C2C05F1370101A8FFF787
:101C000095FF002014B070BD4FF0FF30FAE74FF0A1
:101C1000FF30F7E7F80B01083000002000B583B073
:101C200003238DF80430012101A8FFF79DFF03B0C5
:101C30005DF804FB00B583B019238DF80430012151
:101C400001A8FFF791FF03B05DF804FB10B584B065
:101C5000BDF82CC01224019400240294CDF80B404E
:101C60008DF805008DF806108DF807209DF81820D6
:101C7000520002F0060203F001031A438DF8082017
:101C80009DF81C308DF809309DF820308DF80A3011
:101C90009DF824308DF80B309DF828308DF80C30ED
:101CA0008DF80DC04FEA1C2C8DF80EC00B2101A839
:101CB000FFF75AFF04B010BD00B583B005238DF8BF
:101CC0000430012101A8FFF74FFF03B05DF804FBCA
:101CD0002DE9F04186B00546642302930123019368
:101CE0000DF1170200927522D02103F033F89DF810
:101CF0001730682B03D0012006B0BDE8F081002426
:101D00008DF816404FF06408CDF808800126019642
:101D10000DF11607009733466B22D021284602F0BA
:101D200067FF07238DF81630CDF8088001960097DD
:101D300033461922D021284602F05AFF8DF816406A
:101D4000CDF808800196009733461C22D021284602
:101D500002F04EFF8DF81640CDF8088001960097EE
:101D600033461B22D021284602F042FF2046C3E71B
:101D700038B5044639B101224FF400611A4802F027
:101D8000C8FB002516E000224FF40061164802F05F
:101D9000C0FBF6E700224FF40051134802F0B9FBF4
:101DA00001224FF48041104802F0B3FB6400E4B21A
:101DB0000135EDB2072D0FD800224FF480410A48BB
:101DC00002F0A7FB14F0800FE4D001224FF4005181
:101DD000054802F09EFBE3E701224FF40061024850
:101DE00002F097FB38BD00BF000C024038B500255B
:101DF0000DE0104B03EBC4030121585DFFF7B8FF62
:101E00000134E4B214F0800FF3D00135EDB2072DA8
:101E10000FD8A5F150000021C0B2FFF7A9FF0021A3
:101E20000846FFF7A5FF00211020FFF7A1FF0024BF
:101E3000E8E738BD740B002008B500200BE0094A24
:101E400002EBC302002111540133DBB213F0800F07
:101E5000F5D00130C0B2072801D80023F6E7FFF71C
:101E6000C5FF08BD740B002010F0800F20D13F2962
:101E70001ED8CB08C3F10703DBB201F00701C1F1A3
:101E800007014FF0010C0CFA01F15FFA81FC42B13D
:101E9000084A02EBC000C25C4CEA020C00F803C026
:101EA0007047044A02EBC000C25C22EA0101C1543F
:101EB000704700BF740B00202DE9F04F83B08046BF
:101EC00089461F469DF830B0203AD3B201930C46A4
:101ED0004FF0000A2DE0019B03EB43031C4A02EB89
:101EE000830313F80A502EE0BBFA8BF25209214605
:101EF0004046FFF7B9FF6D00EDB20134E4B2A4EB48
:101F00000903BB420CD00136F6B2072E0DD815F0EE
:101F1000800FE9D05A4621464046FFF7A5FFEAE781
:101F200008F101085FFA88F84C460AF1010A5FFAE5
:101F30008AFABA4509D20C2FCDD0064B019A03EB91
:101F4000021313F80A500026DFE703B0BDE8F08F54
:101F5000A00C01081411010870B582B004460D46AA
:101F600016460CE03A2D12D8012300930C2316F8E4
:101F7000012B29462046FFF79FFF0834E4B233784F
:101F800053B17A2CEED91035EDB20024EAE7FFF711
:101F900053FF00252C46E7E702B070BD10B53A4C60
:101FA00000224FF48051204602F0B3FA01224FF490
:101FB0008051204602F0ADFA0021AE20FFF7D8FE96
:101FC0000021D520FFF7D4FE00215020FFF7D0FEDE
:101FD0000021A820FFF7CCFE00213F20FFF7C8FE1C
:101FE0000021D320FFF7C4FE00210846FFF7C0FE02
:101FF00000214020FFF7BCFE00218D20FFF7B8FE36
:1020000000211420FFF7B4FE00212020FFF7B0FECE
:1020100000210220FFF7ACFE0021A120FFF7A8FE5F
:102020000021C020FFF7A4FE0021DA20FFF7A0FE68
:1020300000211220FFF79CFE00218120FFF798FE6F
:102040000021EF20FFF794FE0021D920FFF790FE3A
:102050000021F120FFF78CFE0021DB20FFF788FE36
:1020600000213020FFF784FE0021A420FFF780FE2E
:102070000021A620FFF77CFE0021AF20FFF778FEAD
:10208000FFF7DAFE10BD00BF000C024008B5054B9B
:102090001860054B1868002302221946806806F074
:1020A0002DFF08BD740F002048000020022801D831
:1020B0000120704708B506F0CFFD0923036000201A
:1020C00008BD000010B5013801280AD814464FF0A9
:1020D000FF3392B20748006804F029F940B920465E
:1020E00010BD06F0B9FD092303604FF0FF30F7E79C
:1020F0000520F5E7740F0020022801D80020704762
:1021000008B506F0A9FD092303604FF0FF3008BDB4
:1021100008B506F0A1FD092303604FF0FF3008BDAC
:1021200008B548B94FF0FF3301220848006804F0B1
:1021300064F940B9012008BD06F08EFD0923036053
:102140004FF0FF30F7E70520F5E700BF740F0020E0
:1021500008B5022804D84FF400534B60002008BD96
:1021600006F07AFD09230360F8E700000023194612
:1021700003E0212A0AD00133DBB2C72B1FD8544A0F
:10218000D25C3D2AF5D1591CC9B2F2E7013BDBB262
:102190004F4A525C2D2A14D000225B1ADBB2013365
:1021A000DBB2042B6DD010B4052B0ED0062B35D02E
:1021B0009FED480A002A61D15DF8044B7047002367
:1021C000E6E70131C9B20122E7E7414C605C3038F3
:1021D00000EB80004300481C205C3038034400EED4
:1021E000103ACB1CE35C303B07EE903AF8EEE77A0E
:1021F0009FED397A67EE877AB8EEC00A30EE270A8B
:102200000431635C303B07EE903AF8EEE77A9FEDDD
:10221000337A67EE877A30EE270ACBE72C4C635C83
:10222000A3F1300C4B1CE05C303800EB8000430025
:10223000642000FB0C33881C205C3038034400EE23
:10224000103A0B1DE35C303B07EE903AF8EEE77A6C
:102250009FED217A67EE877AB8EEC00A30EE270A42
:102260000531635C303B07EE903AF8EEE77A9FED7C
:102270001B7A67EE877A30EE270A9BE7B1EE400AB9
:102280009AE71348435C303B00EE103A8B1CC35C6A
:10229000303B07EE903AF8EEE77A9FED0F7A67EE63
:1022A000877AB8EEC00A30EE270A0331435C303B30
:1022B00007EE903AF8EEE77A9FED087A67EE877AB4
:1022C00030EE270A02B97047B1EE400A704700BFEE
:1022D0006411002000000000CDCCCC3D0AD7233C87
:1022E00010B50446FFF742FF012C00D010BD2D4B66
:1022F0001B78502B19D0492B1FD0442B25D0502BA5
:102300002BD0492B31D0442B37D0532B3DD0502BE1
:10231000ECD1244B5B786F2BE8D1224B9B78732B4D
:10232000E4D1214B83ED000AE0E71E4A5278312ABE
:10233000E1D11E4B83ED000AD8E71A4A5278312AC0
:10234000DBD11A4B83ED010AD0E7164A5278312AC5
:10235000D5D1164B83ED020AC8E7124A5278322AC9
:10236000CFD1134B83ED000AC0E70E4A5278322AD0
:10237000C9D10F4B83ED010AB8E70A4A5278322AD5
:10238000C3D10B4B83ED020AB0E7064A5278702A9C
:10239000BDD1044A9278652AB9D1064B83ED000A73
:1023A000A4E700BF64110020780F0020800F0020F8
:1023B000A80F00207C0F002000B5284A0023D3601E
:1023C0005361DFF8BCC0C2F818C025481062136121
:1023D000D361DFED247AC2ED007A5360DFF8A4E028
:1023E000C2F808E020495162204AD3605361C2F824
:1023F00018C010621361D361C2ED007A5360C2F855
:1024000008E051621A4AD3605361C2F818C01062E2
:102410001361D361C2ED007A5360C2F808E05162E3
:10242000144AD3605361C2F818C010621361D361BB
:10243000C2ED007A5360C2F808E051620E4AD360E0
:102440005361C2F818C010621361D3610B48106069
:102450005360936051625DF804FB00BFA80F002039
:1024600000007A44713DA2400AD7233CD00F0020DF
:10247000F80F002020100020800F002000002041D5
:1024800000409C450000404170EE600AC0ED030A28
:10249000D0ED097AF4EEE70AF1EE10FA08D5F1EE84
:1024A000677AF4EEE70AF1EE10FA01DD0023C3606B
:1024B00090ED036A90ED057A36EE077A80ED057AA5
:1024C000D0ED016A27EE267AD0ED067AF1EE675A52
:1024D000B4EEE57AF1EE10FA38D5C5EEA67AC0ED85
:1024E000057AB5EE400AF1EE10FA01D100234361FE
:1024F000D0ED007A66EE277A90ED057A66EE876A6F
:1025000077EEA67A90ED027AD0ED046A76EE666AEE
:1025100027EE267A77EE877A90ED077A77EE877A3C
:10252000C0ED077AB5EEC00AF1EE10FA26DBF5EE43
:10253000C07AF1EE10FA13D490ED087AF4EEC77A6F
:10254000F1EE10FA0EDD80ED077A0BE0B4EEE77ADB
:10255000F1EE10FAC5DD87EEA67A80ED057AC0E7C8
:102560000023C36180ED046AB5EE400AF1EE10FA73
:1025700001D10023C36190ED070A7047B5EEC00A90
:10258000F1EE10FAEED590ED087AB1EE477AF4EE5E
:10259000C77AF1EE10FA02D580ED077AE2E7F5EEA0
:1025A000C07AF1EE10FADDDD0023C361DAE770EEE8
:1025B000600AC0ED030AD0ED097AF4EEE70AF1EE05
:1025C00010FA08D5F1EE677AF4EEE70AF1EE10FAA8
:1025D00001DD0023C360D0ED036AD0ED057A76EE0D
:1025E000A77AC0ED057A90ED017A67EE877A90EDD3
:1025F000066AF1EE465AF4EEE57AF1EE10FA23D5CA
:10260000C5EE877AC0ED057AB5EE400AF1EE10FA14
:1026100001D10023436190ED000A26EE800AD0ED3F
:10262000057A27EE277A30EE070AD0ED027A90ED90
:10263000047A36EEC77A67EE877A30EE270A80EDA5
:10264000070AC0ED046A7047F4EEC67AF1EE10FA9C
:10265000DADDC6EE077AC0ED057AD5E700B585B0BC
:10266000002300930193029303931548154A0260D7
:102670004FF480324260836001220261027680F86A
:102680002030C36210498162C360C26180F830208B
:10269000426101F075F960B90823009301230193A9
:1026A00002936946064801F0B1FA28B905B05DF811
:1026B00004FB00F00BFAEFE700F008FAF6E700BFC2
:1026C00048100020002001400100000F30B589B003
:1026D000002303930493059306930793026803F181
:1026E000804303F590339A4201D009B030BD0446CF
:1026F0000025019503F58C335A6C42F480725A64BC
:102700005A6C02F480720192019A02951A6B42F09F
:1027100002021A631B6B03F002030293029B012364
:1027200003930323049303A9104801F0F9FD104813
:10273000104B036045608560C5604FF480630361A2
:102740004FF4006343614FF4005383614FF480738F
:10275000C3610562456201F0FDFB18B9044BA36338
:102760009C63C2E700F0B2F9F8E700BF0004024042
:10277000901000201064024000B583B00022019246
:10278000094B196B41F4800119631B6B03F480033F
:102790000193019B0521382001F016FB382001F040
:1027A0004BFB03B05DF804FB0038024008B5012084
:1027B00004F023F9FBE7000010B582B000220121EC
:1027C0000A2004F0A0FD214B1860214A0021214875
:1027D00004F0B4F8204B1860204B019318240094A7
:1027E000002380221E491F4805F0C3F91E4B0193A8
:1027F0000094002380221D491D4805F0BAF91D4BA5
:1028000001930094002380221B491C4805F0B1F974
:102810001B4B01930094002380221A491A4805F0AB
:10282000A8F91A4B01931D23009300238022184915
:10283000184805F09EF9184B01930094002380225C
:102840001649174805F095F902B010BD0411002093
:102850005C170108AD270008F01000200C110020C3
:1028600004170108A1150008F41000201017010832
:10287000C911000808110020201701087D11000867
:10288000F81000202C1701089512000800110020F4
:102890003817010881140008FC10002044170108B3
:1028A000D91200082DE9F0418CB000240794089457
:1028B00009940A940B940194544B1A6B42F0100241
:1028C0001A631A6B02F010020192019A02941A6BB9
:1028D00042F080021A631A6B02F080020292029A9E
:1028E00003941A6B42F004021A631A6B02F004029A
:1028F0000392039A04941A6B42F001021A631A6B52
:1029000002F001020492049A05941A6B42F002024A
:102910001A631A6B02F002020592059A06941A6B6A
:1029200042F008021A631B6B03F008030693069B30
:10293000374F224640F60E01384601F0EAFD354E8B
:1029400022464FF47841304601F0E3FDDFF8CC80B9
:1029500022464FF48851404601F0DBFD41F201036D
:10296000079308940125099507A9384601F0D8FC7A
:102970000E2307930895099402230A9307A9384662
:1029800001F0CEFC4FF4404307930894099507A942
:10299000214801F0C5FC4FF478430793089509944A
:1029A0000A9407A9304601F0BBFC4FF480730793EB
:1029B000089509940A9407A9404601F0B1FC4FF428
:1029C00080530793089509950A9407A9404601F09A
:1029D000A7FC4FF400630793089509940A9407A98C
:1029E000384601F09DFC042307930894099507A934
:1029F000304601F095FC082307930894099407A931
:102A0000304601F08DFC0CB0BDE8F081003802408A
:102A100000080240000C0240000402400000024096
:102A200008B50B480B4B03600B4B436000238360DE
:102A3000C3604FF48042026143618361C3610362FA
:102A400001F0F8FF00B908BD00F040F8FBE700BF57
:102A50001011002000580040801A060030B589B0DF
:102A60000023039304930593069307930268144B82
:102A70009A4201D009B030BD00250195114C236B5D
:102A800043F002032363236B03F002030193019BD2
:102A90004FF4406303931223049303230693042308
:102AA000079303A9084801F03BFC0295236C43F40B
:102AB00080032364236C03F480030293029BD9E711
:102AC00000580040003802400004024072B6FEE7A1
:102AD00000B595B03022002108A806F0E7F80023E1
:102AE000039304930593069307930193204A116C73
:102AF00041F080511164126C02F080520192019AEF
:102B000002931C4B1A6842F480421A601B6803F45B
:102B100080430293029B012308934FF4803309936F
:102B200002220E924FF480030F9304231093A821E6
:102B300011911292139308A802F088FA98B90F2302
:102B4000039302230493002305934FF4A0530693A9
:102B50004FF480530793052103A802F0DDFC20B950
:102B600015B05DF804FBFFF7B1FFFFF7AFFF00BF43
:102B7000003802400070004008B500F03BFEFFF74F
:102B8000A7FFFFF78FFEFFF7F7FD00F035FC00F021
:102B900043F900F073F900F0A3F900F0D3F900F065
:102BA000A3FC00F0DFFC00F019FD00F053FD00F085
:102BB0006BFD00F0F9F9FFF751FDFFF731FF05F06C
:102BC00059FF03F08DFEFFF7F7FD03F09BFEFEE7D4
:102BD00000B583B0002200920D4B596C41F4804146
:102BE0005964596C01F48041009100990192196C6B
:102BF00041F0805119641B6C03F080530193019BD9
:102C00000F216FF0010001F0DFF803B05DF804FB65
:102C10000038024030B589B0044600230193214BAF
:102C20001A6C42F020021A641B6C03F0200301931B
:102C3000019B02A903A802F045FD069BCBB902F057
:102C400021FD03461848A0FB03239B0C013B1748BA
:102C5000174A026040F2E732C2604360002303611A
:102C60008360836102F044FF054630B1284609B015
:102C700030BD02F007FD4300E4E70C4802F0D4FD4C
:102C800005460028F2D1372001F0D6F80F2C01D9E3
:102C90000125EBE700222146372001F095F8054B8E
:102CA0001C60E3E70038024083DE1B43541200201F
:102CB0000014004040000020FEE7FEE7FEE7FEE7CC
:102CC000FEE7704708B5034802F0F6FD024802F03F
:102CD000F3FD08BDA0120020E014002008B5034851
:102CE00002F0EAFD024802F0E7FD08BDA012002054
:102CF000E812002008B5034802F0DEFD024802F0A9
:102D0000DBFD08BDA01200203013002008B50248EA
:102D100002F0D2FD08BD00BF7813002008B50248BC
:102D200002F0CAFD08BD00BFC013002008B502486C
:102D300002F0C2FD08BD00BF0814002008B502481B
:102D400003F050FC08BD00BF2815002008B502485C
:102D500002F0B2FD08BD00BF5014002008B50248C3
:102D600002F0AAFD08BD00BF9814002008B5024873
:102D700002F0A2FD08BD00BF5412002008B50248B1
:102D800001F0E0F908BD00BF9010002008B502482E
:102D900003F028FC08BD00BF70150020012070471B
:102DA00008B505F059FF162303604FF0FF3008BD4A
:102DB00008B54FF0FF31FFF7F3FFFEE710B503460C
:102DC0000C4A0D490D48006840B10C4800680344A6
:102DD000521A934206D8094A136010BD0748084C9E
:102DE0000460F2E705F038FF0C2303604FF0FF307A
:102DF000F3E700BF00000220000400009C12002046
:102E0000C0670020034AD2F8883043F47003C2F848
:102E10008830704700ED00E000B58DB0242200211D
:102E200003A805F043FF00230193029312484FF0DB
:102E300080420260436083604FF0FF32C2600361F2
:102E400083610323039301230593099303A902F0EC
:102E5000A7FE50B900230193029301A9064803F08D
:102E600099F828B90DB05DF804FBFFF72FFEF1E7E4
:102E7000FFF72CFEF6E700BF7813002000B58DB0F9
:102E80002422002103A805F011FF002301930293DF
:102E90001148124A0260436083604FF6FF72C260BD
:102EA000036183610323039301230593099303A91A
:102EB00002F076FE50B900230193029301A906485F
:102EC00003F068F828B90DB05DF804FBFFF7FEFDCC
:102ED000F1E7FFF7FBFDF6E7C01300200004004018
:102EE00000B58DB02422002103A805F0DFFE0023E9
:102EF000019302931148124A0260436083604FF6C7
:102F0000FF72C2600361836103230393012305936E
:102F1000099303A902F044FE50B9002301930293E0
:102F200001A9064803F036F828B90DB05DF804FB96
:102F3000FFF7CCFDF1E7FFF7C9FDF6E70814002025
:102F40000008004000B58DB02422002103A805F040
:102F5000ADFE0023019302931148124A02604360C0
:102F600083604FF0FF32C2600361836103230393E8
:102F700001230593099303A902F012FE50B900231F
:102F80000193029301A9064803F004F828B90DB093
:102F90005DF804FBFFF79AFDF1E7FFF797FDF6E711
:102FA00050140020000C004000B583B000230093B3
:102FB00001930F480F4A0260A7224260836040F2EB
:102FC000E733C3608023836102F092FD50B9002390
:102FD000009301936946064802F0DCFF28B903B06C
:102FE0005DF804FBFFF772FDF1E7FFF76FFDF6E711
:102FF000981400200010004010B582B00368204AE9
:10300000934204D01F4A934226D002B010BD002440
:1030100000941D4B5A6C42F001025A645B6C03F041
:1030200001030093009B22460621182000F0CCFEED
:10303000182000F001FF22460621192000F0C4FEEE
:10304000192000F0F9FE224606211A2000F0BCFEED
:103050001A2000F0F1FED8E7002201920A4B596CC9
:1030600041F4803159645B6C03F480330193019B1C
:103070000621182000F0A8FE182000F0DDFEC4E7AD
:1030800000000140004001400038024070B58EB0A1
:10309000002309930A930B930C930D930368B3F1E8
:1030A000804F0BD0614A934247D0614A93426CD023
:1030B000604A934200F091800EB070BD00240094ED
:1030C00003F50E331A6C42F001021A641A6C02F016
:1030D00001020092009A01941A6B42F001021A63F5
:1030E0001A6B02F001020192019A02941A6B42F0EB
:1030F00002021A631B6B03F002030293029B4FF45C
:103100000043099302260A9601250D9509A94A480C
:1031100001F006F9082309930A960B940C940D9577
:1031200009A9464801F0FCF8224606211C2000F0BF
:103130004BFE1C2000F080FEBEE700240394404BB1
:103140001A6C42F002021A641A6C02F00202039234
:10315000039A04941A6B42F002021A631B6B03F089
:1031600002030493049B3023099302230A930D93D3
:1031700009A9324801F0D4F8224606211D2000F0AA
:1031800023FE1D2000F058FE96E7002405942C4BEA
:103190001A6C42F004021A641A6C02F004020592DE
:1031A000059A06941A6B42F002021A631B6B03F035
:1031B00002030693069BC023099302230A930D93EF
:1031C00009A91E4801F0ACF8224606211E2000F095
:1031D000FBFD1E2000F030FE6EE700240794184B24
:1031E0001A6C42F008021A641A6C02F00802079284
:1031F000079A08941A6B42F001021A631B6B03F0E2
:1032000001030893089B0323099302230A930D9358
:1032100009A9094801F084F822460621322000F06D
:10322000D3FD322000F008FE46E700BF0004004056
:1032300000080040000C0040000002400004024072
:103240000038024000B585B00368244A934208D094
:10325000234A934219D0234A93422AD005B05DF8FD
:1032600004FB00220192204B196C41F010011964FB
:103270001B6C03F010030193019B0521362000F025
:10328000A3FD362000F0D8FDE8E700220292164B9D
:10329000596C41F4003159645B6C03F400330293C0
:1032A000029B0621192000F08FFD192000F0C4FDBB
:1032B000D4E7002203920C4B596C41F480215964ED
:1032C0005B6C03F480230393039B06211A2000F018
:1032D0007BFD1A2000F0B0FDC0E700BF00100040E9
:1032E00000440140004801400038024000B58BB066
:1032F0000023059306930793089309930368374ABD
:1033000093420BD0364A934220D0364A934234D06F
:10331000354A934249D00BB05DF804FB002301937A
:10332000324B1A6B42F010021A631B6B03F010034E
:103330000193019B4FF4D443059302230693012389
:10334000099305A92A4800F0EBFFE4E70023029364
:10335000264B1A6B42F010021A631B6B03F010032A
:103360000293029B60230593022306930323099390
:1033700005A91F4800F0D4FFCDE7002303931B4BA2
:103380001A6B42F002021A631B6B03F002030393F1
:10339000039B4FF480730593022306930323099341
:1033A00005A9144800F0BCFFB5E7002304930F4BB8
:1033B0001A6B42F002021A631B6B03F002030493C0
:1033C000049B4FF400730593022306930323099390
:1033D00005A9084800F0A4FF9DE700BF00000140D8
:1033E00000400140004401400048014000380240D4
:1033F000001002400004024010B592B00024109466
:10340000119409940A940B940C940D940E940F94B7
:103410002022214601A805F049FC3148314B0360C8
:10342000A7234360846040F2E733C36004614461D2
:103430008023836102F088FB00283CD10023109395
:10344000119310A9264802F0A5FD002836D160236B
:10345000099300220A920B920C920D920E920F92F7
:1034600009A91F4802F030FC58BB042209A91C48D6
:1034700002F02AFC40BB082209A9194802F024FCEA
:1034800028BB0C2209A9164802F01EFC10BB002321
:10349000019302930393049305934FF40052069211
:1034A000089301A90E4802F0BBFDB0B90C48FFF724
:1034B0001DFF12B010BDFFF709FBBFE7FFF706FBCA
:1034C000C5E7FFF703FBD0E7FFF700FBD3E7FFF704
:1034D000FDFAD6E7FFF7FAFAD9E7FFF7F7FAE5E7DB
:1034E000A01200200000014000B589B00023019324
:1034F0000293039304930593069307931748184A7E
:103500000260A7224260836040F2E732C26003613A
:103510008023836102F018FBB8B960230193002275
:1035200002920392059201A90C4802F0CDFB78B9F2
:1035300004220DEB0201094802F0C6FB58B9074806
:10354000FFF7D4FE09B05DF804FBFFF7BFFAE4E72C
:10355000FFF7BCFAECE7FFF7B9FAF0E7E014002058
:103560000040014000B589B000230193029303930A
:1035700004930593069307931648174A0260A722FF
:103580004260836040F2E732C2600361802383615E
:1035900002F0AEFAA0B90F4802F0D6FA98B960234B
:1035A0000193002202920392059201A9094802F0B8
:1035B0008BFB58B90748FFF799FE09B05DF804FB8B
:1035C000FFF784FAE7E7FFF781FAE8E7FFF77EFA0B
:1035D000F0E700BFE81200200044014000B589B0C8
:1035E0000023019302930393049305930693079397
:1035F0001648174A0260A7224260836040F2E73211
:10360000C26003618023836102F072FAA0B90F489F
:1036100002F09AFA98B96023019300220292039271
:10362000059201A9094802F04FFB58B90748FFF776
:103630005DFE09B05DF804FBFFF748FAE7E7FFF726
:1036400045FAE8E7FFF742FAF0E700BF3013002041
:103650000048014008B50A480A4B03604FF4E133C3
:10366000436000238360C36003610C224261836175
:10367000C36102F02CFE00B908BDFFF727FAFBE793
:10368000281500200044004008B50A480A4B036092
:103690004FF4E133436000238360C36003610C2275
:1036A00042618361C36102F012FE00B908BDFFF7F9
:1036B0000DFAFBE7701500200014014010B58AB028
:1036C00000230593069307930893099303682F4AF1
:1036D000934204D02E4A93422CD00AB010BD00244D
:1036E00001942C4B1A6C42F400321A641A6C02F4E6
:1036F00000320192019A02941A6B42F001021A639D
:103700001B6B03F001030293029B0C23059302231E
:103710000693032308930723099305A91E4800F085
:10372000FFFD22460621262000F04EFB262000F059
:1037300083FBD2E700240394164B5A6C42F020021C
:103740005A645A6C02F020020392039A04941A6B92
:1037500042F004021A631B6B03F004030493049BFE
:10376000C023059302230693032308930823099398
:1037700005A90A4800F0D4FD22460521472000F0A3
:1037800023FB472000F058FBA7E700BF00440040A0
:1037900000140140003802400000024000080240CE
:1037A000DFF834D0FFF72EFB0C480D490D4A0023FB
:1037B00002E0D458C4500433C4188C42F9D30A4AE6
:1037C0000A4C002301E013600432A242FBD305F04F
:1037D00049FAFFF7D1F970470000022000000020ED
:1037E000F4090020181C0108F8090020BC6700201B
:1037F000FEE7000008B50B4B1A6842F400721A602D
:103800001A6842F480621A601A6842F480721A6080
:10381000032000F0C7FA0F20FFF7FCF9FFF7D8F9F3
:10382000002008BD003C0240034A1168034B1B788E
:103830000B441360704700BFB81500203C00002007
:10384000014B1868704700BFB81500204A4B5A68F2
:1038500022F440325A605A6841680A435A6002684A
:10386000536823F48073536002685368016943EA24
:10387000012353600268536823F040735360026869
:10388000536881680B4353600268936823F40063B4
:10389000936002689368C1680B439360826A374BF8
:1038A0009A4257D00268936823F07063936002686D
:1038B0009368816A0B4393600268936823F04053D6
:1038C000936002689368C16A0B43936002689368CF
:1038D00023F00203936002689368017E43EA410388
:1038E000936090F82030002B3FD00268536843F477
:1038F000006353600268536823F4604353600168B7
:103900004B68426A013A43EA42334B600268D36A29
:1039100023F47003D3620168CB6AC269013A43EAB7
:103920000253CB620268936823F4007393600268C9
:10393000936890F8301043EA4123936002689368DB
:1039400023F48063936002689368416943EA8123AA
:10395000936070470268936823F070639360026815
:10396000936823F040539360B0E70268536823F4F0
:1039700000635360CAE700BF002301400100000F4D
:1039800038B310B50446036C43B1236C13F0100F29
:103990000BD00120002384F83C3010BDFEF796FECA
:1039A0000023636484F83C30EFE7236C23F48853EE
:1039B00023F0020343F0020323642046FFF746FF8F
:1039C00000206064236C23F0030343F001032364AD
:1039D000E0E701207047000010B582B013460022D6
:1039E000019290F83C20012A00F0AE8004460122AA
:1039F00080F83C200268906810F0010F13D19068A5
:103A000040F001009060534A1068534AA2FB002026
:103A1000800C00EB4000019002E001980138019019
:103A200001980028F9D12268906810F4807F03D0B3
:103A3000906820F4807090602268906810F0010F08
:103A400077D0206C20F4E06020F0010040F480701A
:103A50002064526812F4806F05D0226C22F4405228
:103A600042F480522264226C12F4805F36D0626C81
:103A700022F006026264002284F83C20A26B3748E0
:103A8000D063A26B36481064A26B3648D0642268BB
:103A90006FF0220010602068426842F0806242604D
:103AA0002068826842F48072826020680A4600F1D1
:103AB0004C01A06B00F0B4FA2B4B5B6813F01F0FA6
:103AC00027D12368294A934211D002F5807293428C
:103AD00007D0274A934214D0002033E000226264CA
:103AE000C9E702F50072526812F01F0FF1D19A680F
:103AF00012F0405F2AD19A6842F080429A6000201A
:103B000020E002F58072526812F0100FEFD0002012
:103B100018E02368154A934201D0002012E09A6809
:103B200012F0405F14D19A6842F080429A600020FF
:103B300008E0236C43F010032364636C43F001033B
:103B40006364002002B010BD0220FBE70020F9E70B
:103B50000020F7E73800002083DE1B439B3B000872
:103B6000793B0008853B000800230140002001400C
:103B7000002201407047704708B5806BFFF7FBFFDC
:103B800008BD704708B5806B40230364436C43F065
:103B900004034364FFF7F5FF08BD08B50346806BD7
:103BA000026C12F0500F25D1036C43F400730364D0
:103BB00003689A6812F0405F19D1027EBAB9DA6AD6
:103BC00012F4700F03D09A6812F4806F0FD15A6804
:103BD00022F020025A60036C23F480730364036CA8
:103BE00013F4805F03D1036C43F001030364FFF718
:103BF000C1FF08BD026C12F0100F04D1826BD26CB1
:103C000018469047F5E7FFF7BCFFF2E730B482B003
:103C10000023019390F83C30012B00F0BB8001237E
:103C200080F83C300B68092B41D90468E2689BB2EC
:103C300003EB43031E3B4FF0070C0CFA03F322EA9D
:103C40000303E3600468E2680B8803EB43031E3B55
:103C50008D6805FA03F31343E3604B68062B3DD8E8
:103C60000468626B03EB8303053B4FF01F0C0CFAF7
:103C700003F322EA030363630468626B4B6803EB9C
:103C80008303053BB1F800C00CFA03F313436363ED
:103C90000268414B9A4251D002683F4B9A4256D03B
:103CA000002380F83C30184602B030BC70470468EE
:103CB00022699BB203EB43034FF0070C0CFA03F3AA
:103CC00022EA03032361046822690B8803EB4303A0
:103CD0008D6805FA03F313432361BEE70C2B16D856
:103CE00005682A6B03EB8303233B1F2404FA03F3C9
:103CF00022EA03032B6305682A6B4B6803EB8303FB
:103D0000233B0C8804FA03F313432B63C0E70568D5
:103D1000EA6A03EB8303413B1F2404FA03F322EA1C
:103D20000303EB620568EA6A4B6803EB8303413BDC
:103D30000C8804FA03F31343EB62A9E70B68122B18
:103D4000AAD1164A536843F480035360A4E70B6872
:103D5000103B012BA4D8114A536843F4000353606D
:103D60000B68102B9CD10E4B1B6802F1467202F5BA
:103D70002E3202F28332A2FB03239B0C03EB83035C
:103D80005B00019302E0019B013B0193019B002B2F
:103D9000F9D185E7022087E7002001400023014098
:103DA00038000020074AD36823F4E0631B041B0C8F
:103DB000000200F4E060034343F0BF6343F40033C8
:103DC000D360704700ED00E000B5194BDB68C3F32A
:103DD0000223C3F1070CBCF1040F28BF4FF0040C01
:103DE00003F1040EBEF1060F18D9033B4FF0FF3E5E
:103DF0000EFA0CFC21EA0C0199400EFA03F322EAB8
:103E00000303194300280BDB0901C9B200F160402C
:103E100000F5614080F800135DF804FB0023E5E73E
:103E200000F00F000901C9B2024B1954F4E700BFBA
:103E300000ED00E014ED00E0002807DB00F01F02B9
:103E4000400901239340024A42F82030704700BFE6
:103E500000E100E030B405682C6824F480242C6074
:103E6000046863608368402B05D003689960036829
:103E7000DA6030BC704703689A600368D960F8E77D
:103E800010B40368D9B210390C4AA2FB01421209DE
:103E90000B4CA25CC2655F2909D923F47F7323F020
:103EA000030304338365806D5DF8044B704723F48E
:103EB0007F7323F003038365F5E700BFABAAAAAACB
:103EC00098170108836A826992B9012B0AD0022BE4
:103ED00002D00BB100207047C36A13F0807F28D155
:103EE00000207047C36AB3F1C07F24D00020704720
:103EF000B2F5005F09D0022B25D9032B25D1C36A67
:103F000013F0807F23D100207047032B03D8DFE814
:103F100003F01404140A00207047C36A13F0807F72
:103F20000DD100207047C36AB3F1C07F09D00020D3
:103F30007047012070470120704701207047012021
:103F40007047012070470120704700207047012012
:103F50007047000070B50446FFF772FC002C5BD080
:103F60000546022384F83530002384F83430226873
:103F7000136823F00103136023681A6812F0010F1D
:103F80000AD0FFF75DFC431B052BF5D920236365A1
:103F9000032084F8350070BD1A682048104061681D
:103FA000A2680A43E1680A4321690A4361690A4336
:103FB000A1690A43E1690A43216A0A430243616A2B
:103FC00004291ED01A602668756925F00705636A02
:103FD0001D43042B07D1A36A1D43E36A1BB120468E
:103FE000FFF770FF90B975612046FFF749FFE26D5A
:103FF0003F239340836000206065012384F83530BF
:10400000C9E7E16A206B01430A43DBE740236365AC
:10401000012084F83500BEE70120BCE73F8010F0A6
:1040200038B50446856D90F8340001282BD0012066
:1040300084F8340094F83500C0B2012804D000237D
:1040400084F83430022038BD022084F83500002086
:1040500060652046FFF7FEFEE26D3F239340AB60B4
:104060002268136843F016031360236C23B122689F
:10407000136843F0080313602268136843F00103D8
:1040800013600020DFE70220DDE770B50446866D8F
:10409000FFF7D6FB94F83530DBB2022B06D0802335
:1040A0006365002384F83430012070BD0546226822
:1040B000136823F0160313602268536923F080030A
:1040C0005361236CE3B12268136823F00803136083
:1040D0002268136823F00103136023681B6813F040
:1040E000010F11D0FFF7ACFB431B052BF5D92023A3
:1040F0006365032084F83500002384F83430D4E766
:10410000A36C002BDFD1E3E7E26D3F239340B36064
:10411000012384F83530002084F83400C5E790F896
:104120003530DBB2022B03D080234365012070477A
:10413000052380F835300268136823F0010313600B
:1041400000207047F0B583B0044600230193724B02
:104150001D68724BA3FB0535AD0A876D3E68C26DC5
:1041600008239340334210D003681A6812F0040FFA
:104170000BD01A6822F004021A60C26D0823934023
:10418000BB60436D43F001034365E26D012393403F
:10419000334209D02268526912F0800F04D0BB600C
:1041A000636D43F002036365E26D04239340334281
:1041B00009D02268126812F0020F04D0BB60636D50
:1041C00043F004036365E26D10239340334224D02F
:1041D0002268126812F0080F1FD0BB6023681A68AB
:1041E00012F4802F0DD01B6813F4002F04D1236C20
:1041F0009BB12046984710E0A36C73B120469847C6
:104200000BE01A6812F4807F03D11A6822F00802CA
:104210001A60236C0BB120469847E26D202393402F
:10422000334255D02268126812F0100F50D0BB6094
:1042300094F83530DBB2052B0ED023681A6812F4DF
:10424000802F33D01B6813F4002F2AD1636C002B0E
:104250003ED0204698473BE02268136823F01603BF
:1042600013602268536923F080035361236CA3B168
:104270002268136823F008031360E26D3F23934024
:10428000BB60012384F83530002384F83430236D7B
:10429000002B3FD0204698473CE0A36C002BE7D191
:1042A000EBE7E36BA3B12046984711E01A6812F4DC
:1042B000807F09D11A6822F010021A60012384F865
:1042C0003530002384F83430E36B0BB12046984737
:1042D000636DFBB1636D13F0010F17D0052384F8F4
:1042E00035302268136823F001031360019B01330A
:1042F0000193AB4204D823681B6813F0010FF5D17A
:10430000012384F83530002384F83430E36C0BB19A
:104310002046984703B0F0BD38000020B5814E1B01
:1043200000230F2B00F2E48070B582B060E0856856
:104330005E000324B44025EA0405CC68B4402C4355
:104340008460456825EA02054C68C4F300129A406F
:104350002A4342605AE0DC08083450F8246003F035
:10436000070295000F22AA4026EA020E0A69AA4017
:1043700042EA0E0240F824205CE0072200E000221E
:1043800002FA0EF22A4302345A4D45F824205A4AC2
:1043900094686FEA0C0224EA0C054E6816F4801F3C
:1043A00001D04CEA0405544CA560E46802EA040517
:1043B0004E6816F4001F01D04CEA04054E4CE5602F
:1043C000646802EA04054E6816F4003F01D04CEA26
:1043D0000405494C6560246822404D6815F4803F0F
:1043E00001D04CEA0402444C226001330F2B7DD8EB
:1043F00001229A400C6804EA020C32EA0404F4D167
:104400004C6804F00304013C012C90D94A6802F086
:104410000302032A09D0C4685D000322AA4024EAEB
:1044200002048A68AA402243C2604A6802F003027A
:10443000022A90D004684FEA430E032202FA0EF2D9
:1044400024EA02044A6802F0030202FA0EF222434E
:1044500002604A6812F4403FC7D000220192274A06
:10446000546C44F480445464526C02F480420192CF
:10447000019A9C08A51C1F4A52F8255003F003021C
:104480004FEA820E0F2202FA0EF225EA02051C4ABA
:1044900090423FF474AF02F5806290421AD002F568
:1044A0008062904218D002F58062904216D002F5E8
:1044B0008062904214D002F58062904212D002F5E0
:1044C0008062904210D002F5806290423FF455AF76
:1044D000082255E7012253E7022251E703224FE762
:1044E00004224DE705224BE7062249E702B070BDE2
:1044F000704700BF00380140003C014000380240D6
:10450000000002400369194201D0012070470020D9
:1045100070470AB18161704709048161704703687F
:104520005A6912F4806F01D1002070476FF48062E5
:104530005A6100230363202280F83D2080F83E303A
:10454000026C42F00402026480F83C3001207047A3
:104550002DE9F04106460C46174698463BE0FFF72A
:104560006FF9069BC01A404502D8B8F1000F32D14E
:10457000012D18D033689B6924EA03039BB2B3FA78
:1045800083F35B099F4226D100233363202286F800
:104590003D2086F83E30326C42F02002326486F8CC
:1045A0003C30012027E033685B6924EA03039BB2B7
:1045B000B3FA83F35B09E5E733685B6924EA030C2C
:1045C0001FFA8CFCBCFA8CFC4FEA5C1C674511D1CD
:1045D000B8F1FF3FC3D1C4F30745012DECD03368D8
:1045E0009B6924EA030C1FFA8CFCBCFA8CFC4FEA92
:1045F0005C1CEBE70020BDE8F0812DE9F84305469F
:104600000E469046994653E01A6842F400721A60CA
:104610002B686FF480625A6100232B63202285F897
:104620003D2085F83E302A6C42F004022A6485F869
:104630003C3001204AE0FFF703F9A0EB09004045B8
:1046400002D8B8F1000F33D1012F17D02B689B6926
:1046500026EA03039BB2003B18BF012343B30023A8
:104660002B63202285F83D2085F83E302A6C42F0ED
:1046700020022A6485F83C30012027E02B685B6922
:1046800026EA03039BB2003B18BF0123E6E72B6831
:104690009C6926EA0404A4B2003C18BF0124A4B11A
:1046A0002B685A6912F4806FAED1B8F1FF3FC2D1C6
:1046B000C6F30747012FEAD12B685C6926EA040498
:1046C000A4B2003C18BF0124E9E70020BDE8F8834C
:1046D00070B504460D46164623685B6913F0800FDB
:1046E00021D12046FFF71BFFF8B9B5F1FF3FF3D00A
:1046F000FFF7A6F8801BA84201D8002DECD1236853
:104700005B6913F0800FE7D100232363202284F834
:104710003D2084F83E30226C42F02002226484F86E
:104720003C30012000E0002070BD0120FCE70000CB
:104730002DE9F04385B004460D4691461F46DDF84D
:1047400030800D9E0368196841F4807119600096ED
:10475000434600224FF00111FFF7FAFE60B92368CB
:1047600005F0FE051D613346424626492046FFF707
:1047700044FF68B1012008E023681B6813F4807FC0
:1047800002D04FF400732364032005B0BDE8F0832A
:104790000023039323685A6903929B690393039B45
:1047A000324641462046FFF793FF30B9012F0FD123
:1047B00023685FFA89F61E61E7E7236C042B01D0BA
:1047C0000120E2E72268136843F400731360F7E7FF
:1047D00023684FEA19221A61324641462046FFF704
:1047E00077FF20B923685FFA89F61E61CDE7236C55
:1047F000042B01D00120C8E72268136843F400733A
:104800001360F7E7020001002DE9F04784B0044689
:104810000D46164699460C9FDDF8348002681368F1
:1048200043F4806313600368196841F48071196070
:10483000CDF800803B4600224FF00111FFF788FEC3
:1048400070B95FFA85FA236805F0FE051D614346DD
:104850003A4641492046FFF7D0FE68B1012008E002
:1048600023681B6813F4807F02D04FF40073236425
:10487000032004B0BDE8F0870023039323685A693E
:1048800003929B690393039B424639462046FFF7F8
:104890001FFF80B9B9F1010F18D12368F6B21E616C
:1048A000424639462046FFF713FF68B3236C042BBA
:1048B00024D00120DDE7236C042B01D00120D8E7B0
:1048C0002268136843F400731360F7E72368320A21
:1048D0001A61424639462046FFF7FAFE18B92368A6
:1048E000F6B21E61DCE7236C042B01D00120C0E787
:1048F0002268136843F400731360F7E722681368B3
:1049000043F400731360D4E72268136843F48073A0
:104910001360CDF800803B4600224FF00111204685
:10492000FFF716FE68B922684AF001031361434697
:104930003A4609492046FFF760FE002899D0012039
:1049400097E723681B6813F4807F02D04FF400734D
:10495000236403208DE700BF0200010070B5044608
:104960000D46164623685B6913F0040F21D12046DB
:10497000FFF7D5FDF8B9B5F1FF3FF3D0FEF760FFC3
:10498000801BA84201D8002DECD123685B6913F08D
:10499000040FE7D100232363202284F83D2084F80C
:1049A0003E30226C42F02002226484F83C30012028
:1049B00000E0002070BD0120FCE770B504460D4604
:1049C000164614E06FF010025A6100232363202280
:1049D00084F83D2084F83E30226C226484F83C3018
:1049E000012025E023685B6913F0400F10D0236895
:1049F000586910F0400F1AD1586910F0100FE1D12A
:104A0000FEF71EFF801BA842ECD8002DEFD1E9E78E
:104A100000232363202284F83D2084F83E30226C5A
:104A200042F02002226484F83C30012000E00020A3
:104A300070BD0000002800F0CC8070B5044690F8EE
:104A40003D30002B77D0242384F83D302268136852
:104A500023F0010313602268136843F400431360DA
:104A60002268136823F40043136000F00BFE6268B1
:104A70005A4B9A4264D85A4B98428CBF0023012368
:104A8000002B40F0A8805749A1FB00318B0C256812
:104A90006A6822F03F0242EA91426A6021680A6A2B
:104AA00022F03F0266684D4DAE424FD801331343AA
:104AB0000B622168CA6922F44F4222F0FF02666845
:104AC000464B9E424CD8431E7600B3FBF6F30133AF
:104AD00040F6FC70034278D0C3F30B031343CB6161
:104AE00021680B6823F0C003E269206A0243134384
:104AF0000B6021688B6823F4034323F0FF032269D2
:104B0000E068024313438B602168CB6823F0FF0306
:104B10006269A06902431343CB602268136843F0C3
:104B20000103136000202064202384F83D302063BB
:104B300084F83E0070BD80F83C30FDF78FFF82E7BF
:104B4000294B98428CBF0023012399E74FF49675B7
:104B500005FB03F3254DA5FB03539B090133A6E792
:104B6000A368BBB9451E06EB460CB5FBFCF5013549
:104B7000C5F30B05B5FA85F56D0945BBC3B9013819
:104B800006EB4603B0FBF3F30133C3F30B0343F42B
:104B90000043A3E7451E06EB860C0CEB8C0CB5FB23
:104BA000FCF50135C5F30B05B5FA85F56D09E4E7AC
:104BB000013806EB860303EB8303B0FBF3F3013309
:104BC000C3F30B0343F4404388E7042386E7012340
:104BD00084E7012070470120ACE700BFA0860100F8
:104BE0007F841E0083DE1B43FF083D00D34D62100F
:104BF0002DE9F04383B004460F46904699460C9E3B
:104C0000FEF71EFE054694F83D00C0B2202803D0F2
:104C1000022003B0BDE8F0830095192301224B491F
:104C20002046FFF795FC002840F0898094F83C303E
:104C3000012B00F08680012384F83C3023681A6839
:104C400012F0010F03D11A6842F001021A602268C3
:104C5000136823F400631360212384F83D3040235C
:104C600084F83E30002323640A9B6362BDF82C3035
:104C70006385638D2385364BE362019500964B4631
:104C8000424639462046FFF753FD00285BD1238D6D
:104C9000002B35D02A4631462046FFF719FD20BBB0
:104CA000626A236812781A61626A531C6362218DFA
:104CB000013989B22185638D9BB2013B9BB263852B
:104CC0002368586910F0040FE1D00029DFD0527832
:104CD0001A61636A01336362238D013B2385638D0F
:104CE0009BB2013B9BB26385D1E7236C042B01D0BF
:104CF00001208EE72268136843F400731360F7E71E
:104D00002A4631462046FFF729FE50B1236C042B7A
:104D100001D001207DE72268136843F4007313601B
:104D2000F7E72268136843F400731360202384F8C4
:104D30003D30002384F83E3084F83C3069E702209F
:104D400067E7022065E7012063E700BF020010006B
:104D50000000FFFF2DE9F04387B004460F46904660
:104D60009946109EFEF76CFD054694F83D00C0B2D2
:104D7000202804D00227384607B0BDE8F08300950C
:104D80001923012288492046FFF7E2FB002840F062
:104D90004D8194F83C30012B00F04A81012384F8C6
:104DA0003C3023681A6812F0010F03D11A6842F0F0
:104DB00001021A602268136823F40063136022233F
:104DC00084F83D30402384F83E30002323640E9B5A
:104DD0006362BDF83C306385638D2385734BE3626A
:104DE000019500964B46424639462046FFF70CFD9A
:104DF0000746002840F01E81238D5BB9029323688B
:104E00005A6902929A690292029A1A6842F40072EE
:104E10001A6075E0012B0AD0022B1AD000230593EB
:104E200023685A6905929B690593059B68E022688F
:104E3000136823F4806313600023039323685A6983
:104E400003929A690392039A1A6842F400721A60F4
:104E500056E02268136823F48063136022681368A5
:104E600043F4006313600023049323685A69049297
:104E70009B690493049B43E02A4631462046FFF792
:104E80009CFD002840F0D88023681A69636A1A7074
:104E9000636A01336362238D013B2385638D9BB27B
:104EA000013B9BB263852BE00095334600224049CD
:104EB0002046FFF74DFB002840F0C08022681368B1
:104EC00043F40073136023681A69636A1A70626A94
:104ED000531C6362238D013B2385638D9BB2013B91
:104EE0009BB2638523681B695370636A01336362F5
:104EF000238D013B2385638D9BB2013B9BB2638570
:104F0000238D002B00F08980032B53D8012BB3D0C5
:104F1000022BC9D000953346002225492046FFF7D1
:104F200017FB002840F08C802268136823F480630C
:104F3000136023681A69636A1A70636A01336362D3
:104F4000238D013B2385638D9BB2013B9BB263851F
:104F500000953346002216492046FFF7F9FA00284B
:104F600070D12268136843F40073136023681A69D0
:104F7000636A1A70626A531C6362238D013B238546
:104F8000638D9BB2013B9BB2638523681B695370A1
:104F9000636A01336362238D013B2385638D9BB27A
:104FA000013B9BB26385ABE7020010000000FFFFEE
:104FB000040001002A4631462046FFF7FEFC002887
:104FC00042D123681A69636A1A70636A01336362A3
:104FD000228D013A92B22285638D9BB2013B9BB236
:104FE00063852368596911F0040F89D0032A0FD013
:104FF00023681A69636A1A70636A01336362238DD6
:10500000013B2385638D9BB2013B9BB2638577E7B0
:105010001A6822F480621A60EAE7202384F83D309F
:10502000002384F83E3084F83C30A4E60227A2E650
:105030000227A0E601279EE601279CE601279AE6C3
:10504000012798E6012796E6012794E6002800F05C
:10505000E08170B582B00446036813F0010F3BD0C5
:105060009F4B9B6803F00C03042B2CD09C4B9B683C
:1050700003F00C03082B21D06368B3F5803F4FD0B9
:10508000B3F5A02F52D0964B1A6822F480321A60E2
:105090001A6822F480221A606368002B50D0FEF751
:1050A000CFFB05468E4B1B6813F4003F14D1FEF76F
:1050B000C7FB401B6428F5D90320B1E1884B5B682E
:1050C00013F4800FD8D0864B1B6813F4003F03D035
:1050D0006368002B00F09F81236813F0020F54D007
:1050E0007F4B9B6813F00C0F3ED07D4B9B6803F009
:1050F0000C03082B33D0E368002B68D0794B0122D6
:105100001A60FEF79DFB0546754B1B6813F0020FF6
:1051100054D1FEF795FB401B0228F5D903207FE10F
:105120006F4A136843F480331360B5E76C4B1A6819
:1051300042F480221A601A6842F480321A60ABE7A7
:10514000FEF77EFB0546664B1B6813F4003FC3D099
:10515000FEF776FB401B6428F5D9032060E1604B25
:105160005B6813F4800FC6D15D4B1B6813F0020F10
:1051700003D0E368012B40F05081594A136823F0B3
:10518000F803216943EAC1031360236813F0080F91
:1051900042D063696BB3534B0122C3F8802EFEF7F4
:1051A0004FFB05464E4B5B6F13F0020F34D1FEF7F9
:1051B00047FB401B0228F5D9032031E1484A136818
:1051C00023F0F803216943EAC1031360DDE7454B8F
:1051D00000221A60FEF734FB0546414B1B6813F0B2
:1051E000020FD2D0FEF72CFB401B0228F5D903207A
:1051F00016E13C4B0022C3F8802EFEF721FB05464A
:10520000374B5B6F13F0020F06D0FEF719FB401B04
:105210000228F5D9032003E1236813F0040F77D0A7
:105220002F4B1B6C13F0805F33D1002301932C4B69
:105230001A6C42F080521A641B6C03F08053019385
:10524000019B0125284B1B6813F4807F23D0A368A2
:10525000012B34D0052B38D0214B1A6F22F00102DC
:105260001A671A6F22F004021A67A368002B3DD058
:10527000FEF7E6FA06461A4B1B6F13F0020F46D1F3
:10528000FEF7DEFA801B41F288339842F3D90320FF
:10529000C6E00025D6E7144A136843F48073136010
:1052A000FEF7CEFA0646104B1B6813F4807FCED172
:1052B000FEF7C6FA801B0228F5D90320B0E0084AA1
:1052C000136F43F001031367CFE7054B1A6F42F0EA
:1052D00004021A671A6F42F001021A67C5E700BF9D
:1052E000003802400000474200700040FEF7A8FA74
:1052F0000646524B1B6F13F0020F08D0FEF7A0FAC0
:10530000801B41F288339842F3D9032088E0EDB93D
:10531000A369002B00F08380484A926802F00C02D7
:10532000082A51D0022B17D0454B00221A66FEF7EF
:1053300087FA0446414B1B6813F0007F42D0FEF70A
:105340007FFA001B0228F5D9032069E03B4A136C61
:1053500023F080531364DBE7394B00221A66FEF713
:105360006FFA0546354B1B6813F0007F06D0FEF739
:1053700067FA401B0228F5D9032051E0E369226A4D
:105380001343626A43EA8213A26A5208013A43EA6B
:105390000243E26A43EA0263284A5360284B01222F
:1053A0001A66FEF74DFA0446244B1B6813F0007F83
:1053B00006D1FEF745FA001B0228F5D903202FE09D
:1053C00000202DE000202BE0012B2BD01B4B5B6835
:1053D00003F48001E269914226D103F03F02216A81
:1053E0008A4223D1616A47F6C0721A40B2EB811F2C
:1053F0001ED103F44031A26A5208013AB1EB024FC8
:1054000018D103F07063E26AB3EB026F14D100208D
:1054100006E001207047012002E0012000E00020AA
:1054200002B070BD0120FBE70120F9E70120F7E79A
:105430000120F5E70120F3E70120F1E70038024001
:105440000000474208B5314B9B6803F00C03042B66
:1054500057D0082B57D12D4B5A6802F03F025B689A
:1054600013F4800F2AD0294B5968C1F3881C4FEAE6
:105470004C11B1EB0C006EEB0E0E4FEA8E1343EAAB
:1054800090638101091A63EB0E03DB0043EA517359
:10549000C90011EB0C0C43F10003590200234FEA41
:1054A0004C2041EADC51FBF731FB184B5B68C3F33E
:1054B000014301335B00B0FBF3F025E0134B596867
:1054C000C1F3881C4FEA4C11B1EB0C006EEB0E0ED1
:1054D0004FEA8E1343EA90638101091A63EB0E03CE
:1054E000DB0043EA5173C90011EB0C0C43F10003DC
:1054F000990200234FEA8C2041EA9C51FBF706FBFE
:10550000D3E7034800E0034808BD00BF003802406D
:1055100000127A000024F400002800F09B8070B58F
:105520000D4604464F4B1B6803F007038B4208D21D
:10553000CBB24C4A1370136803F007038B4240F060
:105540008B80236813F0020F17D013F0040F04D0E0
:10555000454A936843F4E0539360236813F0080FBF
:1055600004D0414A936843F4604393603E4A936891
:1055700023F0F003A1680B439360236813F0010F3D
:1055800032D06368012B21D09A1E012A25D9364AD0
:10559000126812F0020F61D033498A6822F00302C8
:1055A00013438B60FEF74CF906462F4B9B6803F0C4
:1055B0000C036268B3EB820F16D0FEF741F9801B33
:1055C00041F288339842F0D9032042E0264A12681B
:1055D00012F4003FE0D101203BE0234A126812F0B0
:1055E000007FD9D1012034E01E4B1B6803F0070374
:1055F000AB4207D9EAB21B4B1A701B6803F00703D2
:10560000AB422DD1236813F0040F06D0164A9368DD
:1056100023F4E053E1680B439360236813F0080F11
:1056200007D0114A936823F46043216943EAC10318
:105630009360FFF707FF0C4B9B68C3F303130B4A00
:10564000D35CD8400A4B18600A4B1868FDF7E2FAA1
:10565000002070BD012070470120FAE70120F8E723
:105660000120F6E7003C02400038024080170108A4
:105670003800002040000020014B1868704700BF30
:105680003800002008B5FFF7F7FF044B9B68C3F311
:105690008223034AD35CD84008BD00BF00380240D3
:1056A0009017010808B5FFF7E7FF044B9B68C3F3A9
:1056B0004233034AD35CD84008BD00BF00380240E3
:1056C000901701080F2303600B4B9A6802F0030246
:1056D00042609A6802F0F00282609A6802F4E05236
:1056E000C2609B68DB0803F4E0530361034B1B6853
:1056F00003F007030B60704700380240003C024093
:1057000030B4036A026A22F00102026242688469CC
:1057100024F073040D682C4323F0020C8B6843EAD9
:105720000C03104DA84203D005F58065A84205D1B1
:1057300023F00803CD682B4323F00403094DA8424E
:1057400003D005F58065A84205D122F440724D6969
:105750002A438D692A43426084614A684263036236
:1057600030BC70470000014030B4036A026A22F482
:10577000807202624268C46924F0730C0C6844EAC7
:105780000C0523F400738C6843EA0423114CA042F7
:1057900003D004F58064A04206D123F40063CC68F2
:1057A00043EA042323F480630A4CA04203D004F5A7
:1057B0008064A04207D122F440524C6942EA0412AC
:1057C0008C6942EA04124260C5614A68C26303629E
:1057D00030BC70470000014030B4036A026A22F412
:1057E000805202624468C26922F4E6420D6842EACD
:1057F000052223F400538D6843EA0533094DA8427E
:1058000003D005F58065A84204D124F480444D6995
:1058100044EA85144460C2614A680264036230BC91
:10582000704700BF0000014090F83D30DBB2012B13
:1058300037D1022380F83D300268D36843F001037A
:10584000D3600368194A934220D0B3F1804F1DD032
:10585000A2F57C42934219D002F58062934215D0A2
:1058600002F58062934211D002F5784293420DD046
:1058700002F57052934209D0A2F59432934205D0BA
:105880001A6842F001021A60002070479A6802F01C
:105890000702062A07D01A6842F001021A600020A7
:1058A0007047012070470020704700BF0000014092
:1058B000704770477047704770B504460368DE68EC
:1058C0001D6915F0020F10D016F0020F0DD06FF009
:1058D00002021A610123037703689B6913F0030F27
:1058E0005ED0FFF7E6FF0023237715F0040F12D0F8
:1058F00016F0040F0FD023686FF004021A61022320
:10590000237723689B6913F4407F4FD02046FFF72D
:10591000D0FF0023237715F0080F12D016F0080FE0
:105920000FD023686FF008021A61042323772368DD
:10593000DB6913F0030F40D02046FFF7BAFF0023C6
:10594000237715F0100F12D016F0100F0FD0236828
:105950006FF010021A61082323772368DB6913F4C0
:10596000407F31D02046FFF7A4FF0023237715F0B6
:10597000010F02D016F0010F2DD115F0800F02D0CB
:1059800016F0800F2FD115F0400F02D016F0400F07
:1059900031D115F0200F02D016F0200F33D170BD99
:1059A000FFF786FF2046FFF785FF9CE72046FFF7BD
:1059B0007FFF2046FFF77EFFABE72046FFF778FF2B
:1059C0002046FFF777FFBAE72046FFF771FF204632
:1059D000FFF770FFC9E723686FF001021A612046E4
:1059E00002F0F0FEC9E723686FF080021A612046DA
:1059F00000F040FBC7E723686FF040021A612046C1
:105A0000FFF759FFC5E723686FF020021A612046AF
:105A100000F02FFBC3E700000368344A904212D025
:105A2000B0F1804F0FD0A2F57C4290420BD002F52E
:105A30008062904207D002F58062904203D002F566
:105A40007842904203D123F070034A681343274AF7
:105A500090422AD0B0F1804F27D0A2F57C429042EC
:105A600023D002F5806290421FD002F580629042FE
:105A70001BD002F57842904217D002F57052904246
:105A800013D002F5806290420FD002F580629042FE
:105A90000BD0A2F59832904207D002F58062904276
:105AA00003D002F58062904203D123F44073CA68A8
:105AB000134323F080034A69134303608B68C36276
:105AC0000B688362094B984203D003F580639842C8
:105AD00001D10B69036301234361036913F0010FD3
:105AE00003D0036923F00103036170470000014004
:105AF00040B310B5044690F83D30F3B1022384F86A
:105B00003D30214651F8040BFFF786FF012384F84E
