:020000040800F2
:100000000000022055470008553700085737000800
:10001000593700085B3700085D3700080000000012
:100020000000000000000000000000001175000842
:100030005F37000800000000B17500082B7300084E
:10004000A5470008A5470008A5470008A5470008E0
:10005000A5470008A5470008A5470008A5470008D0
:10006000A5470008A5470008A5470008A5470008C0
:1000700061370008A5470008A5470008A547000804
:1000800071370008A5470008A5470008A5470008E4
:10009000A5470008A5470008A5470008A547000890
:1000A0008137000899370008B1370008A5470008D4
:1000B000C9370008D9370008E9370008A547000804
:1000C000A5470008A5470008A5470008A547000860
:1000D000A5470008A5470008F937000809380008B7
:1000E000A5470008A5470008A547000821380008D3
:1000F0003938000849380008A5470008A547000816
:10010000A5470008A547000859380008A54700087A
:10011000A5470008A5470008693800087938000895
:100120008938000899380008A5470008A547000845
:10013000A5470008A5470008A5470008A5470008EF
:10014000A5470008A5470008A5470008A5470008DF
:10015000A5470008A9380008A5470008C1380008CD
:10016000A5470008A5470008A5470008A5470008BF
:10017000A5470008A5470008A547000800000000A3
:08018000A5470008A54700088F
:1001C00081F0004102E000BF83F0004330B54FEA08
:1001D00041044FEA430594EA050F08BF90EA020F75
:1001E0001FBF54EA000C55EA020C7FEA645C7FEA08
:1001F000655C00F0E2804FEA5454D4EB5555B8BF2B
:100200006D420CDD2C4480EA020281EA030382EA9B
:10021000000083EA010180EA020281EA0303362D2D
:1002200088BF30BD11F0004F4FEA01314FF4801C00
:100230004CEA113102D0404261EB410113F0004F12
:100240004FEA03334CEA133302D0524263EB4303C9
:1002500094EA050F00F0A780A4F10104D5F1200E67
:100260000DDB02FA0EFC22FA05F2801841F10001C2
:1002700003FA0EF2801843FA05F359410EE0A5F196
:1002800020050EF1200E012A03FA0EFC28BF4CF0C7
:10029000020C43FA05F3C01851EBE37101F000457D
:1002A00007D54FF0000EDCF1000C7EEB00006EEB8A
:1002B0000101B1F5801F1BD3B1F5001F0CD3490814
:1002C0005FEA30004FEA3C0C04F101044FEA44526B
:1002D00012F5800F80F09A80BCF1004F08BF5FEAF2
:1002E000500C50F1000041EB045141EA050130BDD2
:1002F0005FEA4C0C404141EB0101013C28BFB1F5E4
:10030000801FE9D291F0000F04BF01460020B1FA2E
:1003100081F308BF2033A3F10B03B3F120020CDA01
:100320000C3208DD02F1140CC2F10C0201FA0CF0DF
:1003300021FA02F10CE002F11402D8BFC2F1200C44
:1003400001FA02F120FA0CFCDCBF41EA0C019040FA
:10035000E41AA2BF01EB0451294330BD6FEA040443
:100360001F3C1CDA0C340EDC04F11404C4F120022E
:1003700020FA04F001FA02F340EA030021FA04F340
:1003800045EA030130BDC4F10C04C4F1200220FA97
:1003900002F001FA04F340EA0300294630BD21FAD5
:1003A00004F0294630BD94F0000F83F4801306BF9B
:1003B00081F480110134013D4EE77FEA645C18BF8F
:1003C0007FEA655C29D094EA050F08BF90EA020F26
:1003D00005D054EA000C04BF1946104630BD91EA1E
:1003E000030F1EBF0021002030BD5FEA545C05D121
:1003F0004000494128BF41F0004130BD14F5800460
:100400003CBF01F5801130BD01F0004545F0FE41D3
:1004100041F470014FF0000030BD7FEA645C1ABF08
:10042000194610467FEA655C1CBF0B46024650EA3F
:10043000013406BF52EA033591EA030F41F400216B
:1004400030BD00BF90F0000F04BF0021704730B5F1
:100450004FF4806404F132044FF000054FF00001C6
:1004600050E700BF90F0000F04BF0021704730B587
:100470004FF4806404F1320410F0004548BF40425C
:100480004FF000013EE700BF42004FEAE2014FEAB1
:1004900031014FEA02701FBF12F07F4393F07F4F8C
:1004A00081F06051704732F07F4208BF704793F08F
:1004B0007F4F04BF41F40021704730B54FF46074A2
:1004C00001F0004521F000411CE700BF50EA0102A5
:1004D00008BF704730B54FF000050AE050EA01024E
:1004E00008BF704730B511F0004502D5404261EBBE
:1004F00041014FF4806404F132045FEA915C3FF4FF
:10050000D8AE4FF003025FEADC0C18BF03325FEA9B
:10051000DC0C18BF033202EBDC02C2F1200300FA4C
:1005200003FC20FA02F001FA03FE40EA0E0021FA71
:1005300002F11444BDE600BF70B54FF0FF0C4CF45F
:10054000E06C1CEA11541DBF1CEA135594EA0C0F11
:1005500095EA0C0F00F0DEF82C4481EA030621EA4C
:100560004C5123EA4C5350EA013518BF52EA033587
:1005700041F4801143F4801338D0A0FB02CE4FF039
:100580000005E1FB02E506F00042E0FB03E54FF069
:100590000006E1FB03569CF0000F18BF4EF0010E61
:1005A000A4F1FF04B6F5007F64F5407404D25FEA5D
:1005B0004E0E6D4146EB060642EAC62141EA555110
:1005C0004FEAC52040EA5E504FEACE2EB4F1FD0C52
:1005D00088BFBCF5E06F1ED8BEF1004F08BF5FEAD0
:1005E000500E50F1000041EB045170BD06F0004682
:1005F00046EA010140EA020081EA0301B4EB5C042F
:10060000C2BFD4EB0C0541EA045170BD41F4801126
:100610004FF0000E013C00F3AB8014F1360FDEBF4B
:10062000002001F0004170BDC4F10004203C35DA27
:100630000C341BDC04F11404C4F1200500FA05F3AA
:1006400020FA04F001FA05F240EA020001F000424B
:1006500021F0004110EBD37021FA04F642EB0601C1
:100660005EEA430E08BF20EAD37070BDC4F10C04EB
:10067000C4F1200500FA04F320FA05F001FA04F2AF
:1006800040EA020001F0004110EBD37041F100019B
:100690005EEA430E08BF20EAD37070BDC4F12005A6
:1006A00000FA05F24EEA020E20FA04F301FA05F20E
:1006B00043EA020321FA04F001F0004121FA04F2B6
:1006C00020EA020000EBD3705EEA430E08BF20EA86
:1006D000D37070BD94F0000F0FD101F000464000C0
:1006E00041EB010111F4801F08BF013CF7D041EA42
:1006F000060195F0000F18BF704703F00046520046
:1007000043EB030313F4801F08BF013DF7D043EA16
:100710000603704794EA0C0F0CEA135518BF95EACC
:100720000C0F0CD050EA410618BF52EA4306D1D153
:1007300081EA030101F000414FF0000070BD50EA72
:10074000410606BF1046194652EA430619D094EAFC
:100750000C0F02D150EA013613D195EA0C0F05D1E6
:1007600052EA03361CBF104619460AD181EA03013A
:1007700001F0004141F0FE4141F470014FF00000F2
:1007800070BD41F0FE4141F4780170BD70B54FF08D
:10079000FF0C4CF4E06C1CEA11541DBF1CEA13550D
:1007A00094EA0C0F95EA0C0F00F0A7F8A4EB0504EF
:1007B00081EA030E52EA03354FEA013100F08880E6
:1007C0004FEA03334FF0805545EA131343EA1263AF
:1007D0004FEA022245EA111545EA10654FEA002664
:1007E0000EF000419D4208BF964244F1FD0404F51D
:1007F000407402D25B084FEA3202B61A65EB030579
:100800005B084FEA32024FF480104FF4002CB6EB35
:10081000020E75EB030E22BFB61A754640EA0C00B5
:100820005B084FEA3202B6EB020E75EB030E22BFF5
:10083000B61A754640EA5C005B084FEA3202B6EB36
:10084000020E75EB030E22BFB61A754640EA9C00F5
:100850005B084FEA3202B6EB020E75EB030E22BFC5
:10086000B61A754640EADC0055EA060E18D04FEA83
:10087000051545EA16754FEA06164FEAC30343EA23
:1008800052734FEAC2025FEA1C1CC0D111F4801FF0
:100890000BD141EA00014FF000004FF0004CB6E7E9
:1008A00011F4801F04BF01430020B4F1FD0C88BF88
:1008B000BCF5E06F3FF6AFAEB5EB030C04BFB6EB93
:1008C000020C5FEA500C50F1000041EB045170BD86
:1008D0000EF0004E4EEA113114EB5C04C2BFD4EBB3
:1008E0000C0541EA045170BD41F480114FF0000E37
:1008F000013C90E645EA060E8DE60CEA135594EAB3
:100900000C0F08BF95EA0C0F3FF43BAF94EA0C0FB5
:100910000AD150EA01347FF434AF95EA0C0F7FF42A
:1009200025AF104619462CE795EA0C0F06D152EA7E
:1009300003353FF4FDAE1046194622E750EA410662
:1009400018BF52EA43067FF4C5AE50EA41047FF473
:100950000DAF52EA43057FF4EBAE12E74FF0FF3CD8
:1009600006E000BF4FF0010C02E000BF4FF0010CA9
:100970004DF804CD4FEA410C7FEA6C5C4FEA430C22
:1009800018BF7FEA6C5C1BD001B050EA410C0CBF71
:1009900052EA430C91EA030F02BF90EA020F0020D3
:1009A000704710F1000F91EA030F58BF994208BF3A
:1009B00090422CBFD8176FEAE37040F001007047F7
:1009C0004FEA410C7FEA6C5C02D150EA013C07D14E
:1009D0004FEA430C7FEA6C5CD6D152EA033CD3D099
:1009E0005DF8040B704700BF8446104662468C4693
:1009F0001946634600E000BF01B5FFF7B7FF0028C6
:100A000048BF10F1000F01BD4DF808EDFFF7F4FFEE
:100A10000CBF012000205DF808FB00BF4DF808ED79
:100A2000FFF7EAFF34BF012000205DF808FB00BF9C
:100A30004DF808EDFFF7E0FF94BF012000205DF8BE
:100A400008FB00BF4DF808EDFFF7CEFF94BF012073
:100A500000205DF808FB00BF4DF808EDFFF7C4FF6C
:100A600034BF012000205DF808FB00BF4FEA4102BF
:100A7000B2F1E04324BFB3F5001CDCF1FE5C0DD9FC
:100A800001F0004C4FEAC0024CEA5070B2F1004F46
:100A900040EB830008BF20F00100704711F0804F49
:100AA00021D113F13872BCBF01F00040704741F40E
:100AB00080114FEA5252C2F11802C2F1200C10FA12
:100AC0000CF320FA02F018BF40F001004FEAC123F6
:100AD0004FEAD32303FA0CFC40EA0C0023FA02F39A
:100AE0004FEA4303CCE77FEA625307D150EA013370
:100AF0001EBF4FF0FE4040F44000704701F0004040
:100B000040F0FE4040F40000704700BF53B94AB9BE
:100B1000002908BF00281CBF4FF0FF314FF0FF3005
:100B200000F074B9ADF1080C6DE904CE00F006F8E0
:100B3000DDF804E0DDE9022304B070472DE9F04759
:100B4000089D04468E46002B4DD18A42944669D9B1
:100B5000B2FA82F252B101FA02F3C2F1200120FA94
:100B600001F10CFA02FC41EA030E94404FEA1C48E2
:100B7000210CBEFBF8F61FFA8CF708FB16E341EADE
:100B8000034306FB07F199420AD91CEB030306F164
:100B9000FF3080F01F81994240F21C81023E634485
:100BA0005B1AA4B2B3FBF8F008FB103344EA034429
:100BB00000FB07F7A7420AD91CEB040400F1FF333E
:100BC00080F00A81A74240F207816444023840EA7B
:100BD0000640E41B00261DB1D4400023C5E90043B4
:100BE0003146BDE8F0878B4209D9002D00F0EF8037
:100BF0000026C5E9000130463146BDE8F087B3FA6A
:100C000083F6002E4AD18B4202D3824200F2F98051
:100C1000841A61EB030301209E46002DE0D0C5E954
:100C2000004EDDE702B9FFDEB2FA82F2002A40F0A0
:100C30009280A1EB0C014FEA1C471FFA8CFE0126A3
:100C4000200CB1FBF7F307FB131140EA01410EFB47
:100C500003F0884208D91CEB010103F1FF3802D2EE
:100C6000884200F2CB804346091AA4B2B1FBF7F0E8
:100C700007FB101144EA01440EFB00FEA64508D90B
:100C80001CEB040400F1FF3102D2A64500F2BB8048
:100C90000846A4EB0E0440EA03409CE7C6F1200797
:100CA000B34022FA07FC4CEA030C20FA07F401FADD
:100CB00006F31C43F9404FEA1C4900FA06F3B1FB66
:100CC000F9F8200C1FFA8CFE09FB181140EA0141CB
:100CD00008FB0EF0884202FA06F20BD91CEB010168
:100CE00008F1FF3A80F08880884240F28580A8F1C0
:100CF00002086144091AA4B2B1FBF9F009FB101112
:100D000044EA014100FB0EFE8E4508D91CEB0101AF
:100D100000F1FF346CD28E456AD90238614440EA52
:100D20000840A0FB0294A1EB0E01A142C846A646D2
:100D300056D353D05DB1B3EB080261EB0E0101FA5B
:100D400007F722FA06F3F1401F43C5E900710026B8
:100D50003146BDE8F087C2F12003D8400CFA02FC0E
:100D600021FA03F3914001434FEA1C471FFA8CFE1E
:100D7000B3FBF7F007FB10360B0C43EA064300FB0E
:100D80000EF69E4204FA02F408D91CEB030300F1AC
:100D9000FF382FD29E422DD9023863449B1B89B263
:100DA000B3FBF7F607FB163341EA034106FB0EF3EC
:100DB0008B4208D91CEB010106F1FF3816D28B4299
:100DC00014D9023E6144C91A46EA004638E72E4665
:100DD000284605E70646E3E61846F8E64B45A9D25D
:100DE000B9EB020864EB0C0E0138A3E74646EAE7CC
:100DF000204694E74046D1E7D0467BE7023B61447A
:100E000032E7304609E76444023842E7704700BFE2
:100E1000844641EA000313F003036DD1403A41D305
:100E200051F8043B40F8043B51F8043B40F8043BC4
:100E300051F8043B40F8043B51F8043B40F8043BB4
:100E400051F8043B40F8043B51F8043B40F8043BA4
:100E500051F8043B40F8043B51F8043B40F8043B94
:100E600051F8043B40F8043B51F8043B40F8043B84
:100E700051F8043B40F8043B51F8043B40F8043B74
:100E800051F8043B40F8043B51F8043B40F8043B64
:100E900051F8043B40F8043B51F8043B40F8043B54
:100EA000403ABDD2303211D351F8043B40F8043BF4
:100EB00051F8043B40F8043B51F8043B40F8043B34
:100EC00051F8043B40F8043B103AEDD20C3205D304
:100ED00051F8043B40F8043B043AF9D2043208D0FC
:100EE000D2071CBF11F8013B00F8013B01D30B886E
:100EF00003806046704700BF082A13D38B078DD04C
:100F000010F003038AD0C3F10403D21ADB071CBF1D
:100F100011F8013B00F8013B80D331F8023B20F887
:100F2000023B7BE7043AD9D3013A11F8013B00F8C0
:100F3000013BF9D20B7803704B7843708B78837048
:100F40006046704700000000000000000000000044
:100F50000000000000000000000000000000000091
:100F60000000000000000000000000000000000081
:100F70000000000000000000000000000000000071
:100F800090F800F06DE9024520F007016FF0000CC9
:100F900010F0070491F820F040F049804FF0000471
:100FA0006FF00700D1E9002391F840F000F108004C
:100FB00082FA4CF2A4FA8CF283FA4CF3A2FA8CF384
:100FC0004BBBD1E9022382FA4CF200F10800A4FAEB
:100FD0008CF283FA4CF3A2FA8CF3E3B9D1E904233F
:100FE00082FA4CF200F10800A4FA8CF283FA4CF376
:100FF000A2FA8CF37BB9D1E9062301F1200182FA30
:101000004CF200F10800A4FA8CF283FA4CF3A2FA35
:101010008CF3002BC6D0002A04BF04301A4612BA43
:10102000B2FA82F2FDE8024500EBD2007047D1E946
:10103000002304F00305C4F100004FEAC50514F0D5
:10104000040F91F840F00CFA05F562EA05021CBFA6
:1010500063EA050362464FF00004A9E700000000C0
:1010600001F0FF01102A2BDB10F0070F08D010F859
:10107000013B013A8B422DD010F0070F42B3F6D15D
:10108000F0B441EA012141EA014122F007047FF076
:1010900000070023F0E80256083C85EA010586EACD
:1010A000010685FA47F5A3FA87F586FA47F6A5FA09
:1010B00087F68EB9EED1F0BC01F0FF0102F0070215
:1010C00032B110F8013B013A83EA010313B1F8D1C0
:1010D0000020704701387047002D06BF35460338A1
:1010E000073815F0010F07D1013015F4807F02BFDA
:1010F000013015F4C03F0130F0BC0138704700BF2B
:101100004FEA410C7FEA6C5C02D150EA013C0AD103
:101110004FEA430C7FEA6C5C02D152EA033C02D1F5
:101120004FF0000070474FF0010070474FEA410256
:1011300012F5001215D211D56FF47873B3EB625229
:1011400012D94FEAC12343F0004343EA505311F050
:10115000004F23FA02F018BF404270474FF00000E2
:10116000704750EA013005D111F0004008BF6FF020
:10117000004070474FF00000704700BF4A0011D296
:1011800012F5001211D20DD56FF47873B3EB6252E1
:101190000ED44FEAC12343F0004343EA505323FAED
:1011A00002F070474FF00000704750EA013002D162
:1011B0004FF0FF3070474FF00000704738B5002205
:1011C000002304460D46FFF729FC28B9204629468E
:1011D000BDE8384000F00AB8204605F1004100F0B3
:1011E00005F8404261EB410138BD00BFD0B50C4B62
:1011F000002206460F46FFF79FF9FFF7BFFF0446A0
:10120000FFF720F9074B0022FFF796F902460B463D
:1012100030463946FEF7D8FFFFF7B0FF2146D0BD74
:101220000000F03D0000F04108B507E000F012FFBB
:101230000C4B00221A70C82007F032FB094B1B78B8
:10124000012BF3D0022BF6D100F004FF00F002FFD7
:1012500000F000FF00F0FEFE00F0FCFE014B00225B
:101260001A70E8E7E00900202DE9F8432DED028B24
:10127000F0EE408AB0EE608A11EE104A70EE607AAD
:1012800017EE900AFFF700F906460F462046FFF7D3
:10129000FBF821A3D3E90023FFF74EF904460D46DE
:1012A00002460B4630463946FEF78EFFFFF7DEFB5F
:1012B000154B586178EE887A17EE900AFFF7E4F83C
:1012C0008046894602460B4620462946FEF77EFFA9
:1012D000FFF7CCFB0D4B586122462B464046494652
:1012E000FEF772FFFFF7C2FB094B586122462B46FF
:1012F00030463946FEF76AFFFFF7B8FB054B5861E9
:10130000BDEC028BBDE8F883780B0020940B002025
:10131000B00B0020CC0B0020D578E9263108C03F67
:1013200008B50BE06C4B93ED021AD3ED010A93ED77
:10133000000AFFF799FF142007F0B2FA0821674866
:1013400004F0CEF8664B1870664B1B781BB9664AE2
:10135000137801331370644B1B780A2B05D9614B4A
:1013600001221A70604B00221A70604B1B781BB967
:101370005C4A1278012AD5D0022B4ED05C4B1B78E8
:10138000012B60D0002BD6D15A4B1B78012BD2D128
:10139000594CD4ED000A9FED590A594801F0FBFD64
:1013A000B0EE408A574BD3ED006A9FED577AC6EEF8
:1013B000877A77EEA77A17EE900AFFF765F844A3CD
:1013C000D3E90023FFF7B8F8FFF750FB00EE100A4F
:1013D00014F0BAFB28EE008A3F4B83ED008AD4ED6F
:1013E000007AF0EEE77AB1EE047AF4EEC77AF1EE25
:1013F00010FA08D500233E4A13703E4A1370364B4C
:1014000000221A605A60344B93ED021AD3ED010AA0
:1014100093ED000AFFF728FF8DE7324B1B78012B75
:10142000ACD1334B1B78002BA8D1324B1B78002B4F
:10143000A4D1294B93ED021AD3ED010A93ED000AD2
:10144000FFF712FF77E72B4A1278002A9AD12A4C2D
:10145000D4ED010A9FED290A294801F09CFDB1EE67
:10146000408A284BD3ED006A9FED277AC6EE877A33
:1014700077EEA77A17EE900AFFF706F814A3D3E9E0
:101480000023FFF759F8FFF7F1FA00EE100A14F005
:101490005BFB68EE000A104BC3ED010AD4ED017A44
:1014A000F0EEE77AB1EE047AF4EEC77AF1EE10FAD4
:1014B00005D50F4B00221A700E4B01221A70064BF5
:1014C00093ED021A93ED000AFFF7CEFE33E700BF5B
:1014D000182D4454FB210940000A0020000C024052
:1014E000140000202E0A00202F0A002000000020F7
:1014F0002C0A00202D0A0020E8090020000000002E
:10150000E4100020580B00200000B443000000004D
:1015100010B52DED068B0446F0EE429A70EE207A5F
:1015200077EE817A77EEA17ADFED2D6A67EEA67A03
:101530009FED2C7A67EE878AC0ED038A70EEC00AB1
:1015400030EE818A38EE618A28EE268A28EE078AF4
:1015500080ED048A244BD3ED006A9FED247AC6EE19
:10156000877A77EEA77A17EE900AFEF78DFF1AA317
:10157000D3E90023FEF7E0FFFFF778FA0AEE900ABE
:1015800000EE100A14F0E0FAB0EE40AA28EE809ABD
:10159000B0EE6A0A14F010FB68EE007A39EE679A32
:1015A00029EE299AD4ED007A37EE899A84ED009AD3
:1015B00068EE807A28EE0A8A37EE888A28EE692A51
:1015C00094ED018A38EE022A84ED012ABDEC068BE7
:1015D00010BD00BFAFF30080182D4454FB2109401B
:1015E0005555D5409A99193D580B00200000B44339
:1015F0002DE9F04105460E4617461846DDF81880DD
:10160000DDF820E0002423E000FB043206EB820238
:10161000D2ED007A0EFB03C208EB820292ED007A53
:1016200027EE877AD1ED007A77EE877AC1ED007ADE
:1016300001338342E8DB0CF1010CF44507DA0EFBC1
:1016400004C105EB810100230B600023F1E70134A5
:10165000BC4202DA4FF0000CEFE7BDE8F08130B594
:1016600004460D461046194600220FE001FB02C356
:1016700000FB0C2E04EB8E0E05EB83031B68CEF8EB
:1016800000300CF1010C8C45F0DB0132824202DAB1
:101690004FF0000CF7E730BD10B5029C4FF0000C86
:1016A0000FE001EB8C0EDEED007A02EB8C0E9EED6E
:1016B000007A00EB8C0E77EE877ACEED007A0CF193
:1016C000010C04FB03FEE645EBDC10BD000000004E
:1016D00038B52DED028B05460C4691ED008AD1ED13
:1016E000038A28EE288AD1ED017A91ED027A67EE1D
:1016F000877A38EE678AF0EEC87A17EE900AFEF71E
:10170000C3FE15A3D3E90023FFF788F9E0B9B7EECC
:10171000007AC7EE087A68EEA78AC5ED008A94EDD4
:10172000017A27EE677A85ED017A94ED027A27EE49
:10173000677A85ED027A94ED007A67EE277AC5ED37
:10174000037ABDEC028B38BD0023EB60AB606B60AD
:101750002B60F6E7AFF300808DEDB5A0F7C6B03E85
:101760002DE97043B4B0044610EE106A4FF07E527B
:101770002492002325938DED260A279328932992FE
:101780002A938DED2B0A2C932D932E922F93309329
:101790003193329333920DF1900E00F1500C0DF114
:1017A000D00875460FCDCCF80000CCF80410CCF86A
:1017B0000820CCF80C30AE460CF1100C4545F0D1A9
:1017C0003046FEF761FE8046894600224D4BFEF70B
:1017D000B3FE02460B4640464946FEF7ADFEFFF714
:1017E00045F91C9000231D931E931F902096219372
:1017F000229323961CAD0FCDC4F89000C4F894102A
:10180000C4F89820C4F89C300FCDC4F8A000C4F8E8
:10181000A410C4F8A820C4F8AC303B4D0DF1500C16
:10182000AE46BEE80F00ACE80F009EE80F008CE863
:101830000F000DF1500CBCE80F00C4F8B000C4F864
:10184000B410C4F8B820C4F8BC30BCE80F00C4F829
:10185000C000C4F8C410C4F8C820C4F8CC300DF1DE
:10186000100E05F1200CBCE80F00AEE80F00BCE83C
:101870000F00AEE80F00BCE80F00AEE80F009CE8D8
:101880000F008EE80F000DF1100E04F1D00C14AE15
:1018900075460FCDCCF80000CCF80410CCF8082029
:1018A000CCF80C30AE460CF1100CB542F0D16D46C0
:1018B000164B0FCB85E80F000FCDC4F81001C4F80C
:1018C0001411C4F81821C4F81C3100210FE04FF0A6
:1018D0007E5002EB8103043304EB83031860013272
:1018E000032A03DC9142F2D00020F2E70131032900
:1018F00005DC04EB810300221A600022F0E734B01B
:10190000BDE870830000E03F007D0108607D0108B4
:101910002DE9F041BCB005460F4600F150064FF0EE
:101920000108CDF808800424019400902346224643
:10193000314638A8FFF75CFECDF8088002230193FA
:101940000097224605F1900134A8FFF751FE0023CD
:101950000DE03CAA02EB830252ED047A12ED087A04
:1019600077EE877A05EB8302C2ED007A0133032B11
:10197000EFDD05F11007042402940194009723463B
:101980002246314624A8FFF733FE0DF150082346C6
:10199000224631464046FFF762FE02940194CDF89C
:1019A00000802346224624A904A8FFF721FE0094C4
:1019B000234605F1D00204A93846FFF76DFE3CB07E
:1019C000BDE8F0812DE9F047DCB006460C4600F199
:1019D000B0080123029304230193009002224146A0
:1019E0005AA8FFF705FE00230DE004EB8302D2EDB9
:1019F000007A5CAA02EB830212ED027A77EEC77AD4
:101A000042ED047A0133012BEFDD0DF5A07A0423BA
:101A1000022241465046FFF722FE06F110040DF562
:101A200090790225029504270197CDF800A03B4646
:101A30003A4621464846FFF7DBFD02950197CDF86F
:101A400000903B462A46414644A8FFF7D1FD009549
:101A50002B4606F5887244A90846FFF71DFE0DF5D2
:101A6000807A44A95046FFF733FE02950195CDF8E0
:101A700000A02B463A46494638A8FFF7B9FD012396
:101A80000293019558AB00932B463A4638A934A8E7
:101A9000FFF7AEFD00230DE05CAA02EB830212ED1E
:101AA000287A06EB8302D2ED007A77EE877AC2EDD0
:101AB000007A0133032BEFDD04220292022301930B
:101AC000CDF8008038A924A8FFF792FD402200211C
:101AD00014A808F0E3F9002308E003EB830214A93B
:101AE00001EB82024FF07E5111600133032BF4DDD4
:101AF000002016E003EB800214A901EB8201D1ED76
:101B0000007A5CA901EB820111ED387A77EEC77A91
:101B100004A901EB8202C2ED007A0133032BE9DD57
:101B20000130032801DC0023F8E70422029201922D
:101B30000094134604A92046FFF75AFD5CB0BDE8A7
:101B4000F0872DE9F04F2DED028B85B010EE904A15
:101B500011EE105A83468A4610EE100AFEF794FCE6
:101B600006460F462846FEF78FFC41EC180B41EC69
:101B7000100B13F04DFF53EC102B8DED000B304686
:101B80003946FEF7D9FCCDE902012046FEF77CFC80
:101B900004460D46B0EE480AF0EE680A13F08CFFDA
:101BA00059EC108B10EE102A4B4620462946FEF7C2
:101BB000C3FC02460B46DDE90201FEF705FBFEF71A
:101BC00055FFCBF8000042464B4630463946FEF7FB
:101BD000B3FC06460F4622462B46DDE90001FEF720
:101BE000ABFC02460B4630463946FEF7EFFAFEF7ED
:101BF0003DFFCAF8000005B0BDEC028BBDE8F08FD8
:101C000000B587B006F0ECFC059002A901A8174BBF
:101C100093ED001A164BD3ED000A164B93ED000A14
:101C2000FFF78FFF144D01A92846FFF771FE134CF3
:101C3000236803936368049303A92846FFF7C2FE51
:101C40009FED0F2A20460F4BD3ED031A0E4B93ED59
:101C5000031A0E4BD3ED030A0D4B93ED030AFFF766
:101C600057FC052105A806F0C9FDCBE7580B00205D
:101C7000280A0020240A0020300A0020E809002059
:101C80000AD7A33BCC0B0020B00B0020940B002004
:101C9000780B002000B583B00B46BDEEC07AF8EE9D
:101CA000C77A30EE670A002204E0F2EE047A20EEF2
:101CB000270A01329A42F8DBFDEEC07A17EE902A2D
:101CC000002A08DB009217EE102A044908F0E6FA11
:101CD00003B05DF804FB5242F4E700BFF07D010859
:101CE00070B582B017E0364A2021302000F008FDA0
:101CF000344A3021002000F003FD0C23009301231F
:101D0000314A12783021084600F0ACFC00F0E8FBC4
:101D1000C82006F0C5FD2D4BB3F90000FEF7A2FB6D
:101D200000222B4BFEF708FC00222A4BFEF704FC96
:101D30000022294BFEF700FCFEF798FE00EE100A89
:101D4000264E02213046FFF7A5FF254D02212846E9
:101D5000244B93ED000AFFF79DFF234C2246002100
:101D6000412000F0CDFC22461021202000F0C8FCCC
:101D700022462021302000F0C3FC1C4A00210846E6
:101D800000F0BEFC32460021412000F0B9FC184AA8
:101D90001021002000F0B4FC2A461021202000F081
:101DA000AFFC144A2021002000F0AAFC124B1B7843
:101DB000012B98D0114A2021302000F0A1FC97E798
:101DC000147E01081C7E0108486B00205C0B00207B
:101DD0000000303F0000144000002640600B00204F
:101DE000680B0020580B002004000020F87D01083B
:101DF000047E01080C7E010814000020187E0108F2
:101E000008B50DE09FED100A00F0E4FD0F4B002235
:101E10001A704FF47A7006F043FD322006F040FD50
:101E20000B4B93ED000A00F075FD0A4B93ED000A91
:101E300000F0A0FD054B1B78012BE3D09FED060AB7
:101E400000F0C8FDE9E700BF000034436F0B00203D
:101E50000C000020100000200000000000B583B03E
:101E60002DE0012B3DD03F4B1B78012B6DD13E4B1C
:101E7000D3ED077AFDEEE77A17EE900A00F066F9E7
:101E80003A4BD3ED077AFDEEE77A17EE900A00F0B1
:101E90007FF9374BD3ED077AFDEEE77A17EE900A1C
:101EA00000F090F9334BD3ED077AFDEEE77A17EEA9
:101EB000900A00F0A1F9052101A806F09FFC06F0A8
:101EC0008FFB01902C4B1B78002BCAD12B4A138817
:101ED00001339BB21380C72BC5D9274B01221A703F
:101EE000C1E7204B1B78012BBDD1254BD3ED030A55
:101EF00093ED050A1C4800F0BFFF224BD3ED030A07
:101F000093ED050A194800F0B7FF1F4BD3ED030A04
:101F100093ED050A164800F0AFFF1C4BD3ED030A02
:101F200093ED050A134800F0A7FF194B1B78012B0E
:101F300099D1184C184BD3ED000A94ED050A1748B7
:101F400001F029F884ED020A8DE7002000F0FEF888
:101F5000002000F01DF9002000F034F9002000F00E
:101F60004BF9A8E7140000200C11002034110020C8
:101F70005C11002084110020740B0020720B0020E3
:101F8000780B0020940B0020B00B0020CC0B00201D
:101F9000700B0020000A0020580B0020BC1000200D
:101FA00080B592B0322006F07BFC224B1E685F6841
:101FB000D3F80880D3F814901F4BD3F800A01F4A21
:101FC00015781F4A14785868FEF75EFACDE91001BB
:101FD0005046FEF759FACDE90E011A4B1868FEF784
:101FE00053FACDE90C01184B1868FEF74DFACDE90C
:101FF0000A01164B1868FEF747FACDE90801484672
:10200000FEF742FACDE906014046FEF73DFACDE97A
:1020100004013846FEF738FACDE902013046FEF7F2
:1020200033FACDE900012A462146094807F088FF26
:10203000B8E700BF000A0020E80900202D0A0020B0
:102040002C0A0020280A0020240A0020580B002017
:10205000247E010810B50A4C01224FF480712046FD
:1020600003F045FAC82006F01BFC00224FF48071F3
:10207000204603F03CFAC82002F0C2FB10BD00BFAE
:102080000000024010B514464FF47A7392B2024831
:1020900004F04FFD204610BD80180020F8B5234FF6
:1020A0003C21384604F002FB214E3C21304604F02E
:1020B000FDFA204D3C21284604F0F8FA1E4C3C2144
:1020C000204604F0F3FA3A68D36843F00103D36082
:1020D0003268D36843F00103D3602A68D36843F0C1
:1020E0000103D3602268D36843F00103D36013492E
:1020F00000234B600022CA600B740B600B814A61A5
:102100000F494B60CA600B740B600B814A610D492B
:102110004B60CA600B740B600B814A610A494B60CB
:10212000CA600B740B600B814A61F8BD301400204B
:1021300078140020C014002008150020780B00201F
:10214000940B0020B00B0020CC0B0020002807DDF2
:102150000D4B1B6800225A630C4B1B685863704779
:10216000002807DB084B1A6800235363074A1268EC
:1021700053637047044B1B6840425863034B1B6812
:1021800000225A63704700BF58130020A01300209C
:10219000002805DD0A4B1B68986300225A637047CC
:1021A000002805DB064B1B6800225A639A637047C0
:1021B000034B1B6800229A6340425863704700BF7C
:1021C000E0150020002805DD0A4B1B68586300223B
:1021D0009A637047002805DB064B1B6800225A6390
:1021E0009A637047034B1B6800225A63404298630E
:1021F000704700BF10130020002805DD0A4B1B6844
:1022000000221A64D8637047002805DB064B1B6860
:102210000022DA631A647047034B1B68404218645B
:102220000022DA63704700BF1013002084460020AC
:1022300004E01CF803201044C0B219464B1E0029CC
:10224000F7DC704742B10132034603E011F801CBDD
:1022500003F801CB013AF9D1704700002DE9F041B4
:10226000884615461E46069F18B101460A4807F0E3
:1022700067FE002404E0315D284607F061FE01346A
:10228000BC42F8D3B8F1000F03D04146024807F032
:1022900057FEBDE8F08100BF607E010830B583B015
:1022A00004460D460A4601460320FFF7EBFE009563
:1022B0002346034A03490448FFF7D0FF03B030BD6B
:1022C000647E01087C8A01086C7E010870B594B0B8
:1022D00006460D460DF1040C274C0FCCACE80F0060
:1022E0000FCCACE80F000FCCACE80F0023682CF843
:1022F000023B1B0C8CF800300023CDF83730CDF8B2
:102300003B30CDF83F30CDF84330CDF84730CDF8F5
:102310004A306B1EDBB2122B28D856B349238DF8F6
:102320003630164B1B788DF837308DF838502A46EA
:1023300031460DF13900FFF785FFA91C0DF137007B
:10234000FFF774FF05F185030DEB030404F84C0C53
:1023500005F186036B444D2203F84C2C05F137013F
:1023600001A8FFF79BFF002014B070BD4FF0FF30B5
:10237000FAE74FF0FF30F7E7707D01081500002005
:1023800000B583B003238DF80430054807F03AFE0A
:10239000012101A8FFF79AFF03B05DF804FB00BF1D
:1023A000747E010800B583B019238DF80430054808
:1023B00007F028FE012101A8FFF788FF03B05DF8B0
:1023C00004FB00BF847E010810B584B0BDF82CC0AA
:1023D0001224019400240294CDF80B408DF80500DE
:1023E0008DF806108DF807209DF81820520002F095
:1023F000060203F001031A438DF808209DF81C30F3
:102400008DF809309DF820308DF80A309DF8243081
:102410008DF80B309DF828308DF80C308DF80DC0FC
:102420004FEA1C2C8DF80EC0044807F0EBFD0B2181
:1024300001A8FFF74BFF04B010BD00BF987E010854
:1024400000B583B005238DF80430054807F0DAFDA8
:10245000012101A8FFF73AFF03B05DF804FB00BFBC
:10246000AC7E010838B5044639B101224FF4006151
:102470001A4803F03CF8002516E000224FF40061F2
:10248000164803F034F8F6E700224FF400511348E1
:1024900003F02DF801224FF48041104803F027F893
:1024A0006400E4B20135EDB2072D0FD800224FF4DD
:1024B00080410A4803F01BF814F0800FE4D0012299
:1024C0004FF40051054803F012F8E3E701224FF4FE
:1024D0000061024803F00BF838BD00BF000C024059
:1024E00038B500250DE0104B03EBC4030121585D06
:1024F000FFF7B8FF0134E4B214F0800FF3D00135D8
:10250000EDB2072D0FD8A5F150000021C0B2FFF7A2
:10251000A9FF00210846FFF7A5FF00211020FFF7C3
:10252000A1FF0024E8E738BDE80B002008B5002033
:102530000BE0094A02EBC302002111540133DBB264
:1025400013F0800FF5D00130C0B2072801D8002366
:10255000F6E7FFF7C5FF08BDE80B002010F0800F7D
:1025600020D13F291ED8CB08C3F10703DBB201F00D
:102570000701C1F107014FF0010C0CFA01F15FFAFC
:1025800081FC42B1084A02EBC000C25C4CEA020C7A
:1025900000F803C07047044A02EBC000C25C22EAA4
:1025A0000101C154704700BFE80B00202DE9F04F36
:1025B00083B0804689461F469DF830B0203AD3B29A
:1025C00001930C464FF0000A2DE0019B03EB4303FF
:1025D0001C4A02EB830313F80A502EE0BBFA8BF27D
:1025E000520921464046FFF7B9FF6D00EDB20134B4
:1025F000E4B2A4EB0903BB420CD00136F6B2072EBD
:102600000DD815F0800FE9D05A4621464046FFF715
:10261000A5FFEAE708F101085FFA88F84C460AF1DD
:10262000010A5FFA8AFABA4509D20C2FCDD0064BBF
:10263000019A03EB021313F80A500026DFE703B0F8
:10264000BDE8F08FC07E01083483010802460120F6
:1026500002E002FB00F019464B1EDBB20029F8D164
:10266000704700002DE9F04782B0824689469046C7
:102670001D469DF8286000273C461DE0700810FBB1
:1026800004F05AFA80F00123009333462022494691
:10269000C0B2FFF78BFF0DE0700810FB04F0303282
:1026A0005AFA80F0012300933346D2B24946C0B2B1
:1026B000FFF77CFF0134E4B2AC421CD2291BC9B243
:1026C0000139C9B20A20FFF7C1FFB8FBF0F00B4A8D
:1026D000A2FB003C4FEADC0C0CEB8C0CA0EB4C0C8E
:1026E0005FFA8CF2002FD7D16B1E9C42D4DA002AFD
:1026F000C4D00127D0E702B0BDE8F087CDCCCCCC68
:1027000070B582B004460D4616460CE03A2D12D83C
:10271000012300930C2316F8012B29462046FFF7CE
:1027200045FF0834E4B2337853B17A2CEED9103532
:10273000EDB20024EAE7FFF7F9FE00252C46E7E7B3
:1027400002B070BD10B53A4C00224FF480512046C3
:1027500002F0CDFE01224FF48051204602F0C7FE68
:102760000021AE20FFF77EFE0021D520FFF77AFE84
:1027700000215020FFF776FE0021A820FFF772FE0F
:1027800000213F20FFF76EFE0021D320FFF76AFEF5
:1027900000210846FFF766FE00214020FFF762FE99
:1027A00000218D20FFF75EFE00211420FFF75AFE66
:1027B00000212020FFF756FE00210220FFF752FEE5
:1027C0000021A120FFF74EFE0021C020FFF74AFEA6
:1027D0000021DA20FFF746FE00211220FFF742FE1B
:1027E00000218120FFF73EFE0021EF20FFF73AFE97
:1027F0000021D920FFF736FE0021F120FFF732FE3D
:102800000021DB20FFF72EFE00213020FFF72AFEFB
:102810000021A420FFF726FE0021A620FFF722FEBC
:102820000021AF20FFF71EFEFFF780FE10BD00BFA6
:10283000000C024008B5054B1860054B18680023D2
:1028400002221946806807F051FC08BDE80F0020FD
:1028500030000020022801D80120704708B507F099
:10286000F3FA09230360002008BD000010B5013809
:1028700001280AD814464FF0FF3392B20748006887
:1028800004F057F940B9204610BD07F0DDFA0923DE
:1028900003604FF0FF30F7E70520F5E7E80F002071
:1028A000022801D80020704708B507F0CDFA0923A7
:1028B00003604FF0FF3008BD08B507F0C5FA0923E3
:1028C00003604FF0FF3008BD08B548B94FF0FF3343
:1028D00001220848006804F092F940B9012008BDBF
:1028E00007F0B2FA092303604FF0FF30F7E7052045
:1028F000F5E700BFE80F002008B5022804D84FF420
:1029000000534B60002008BD07F09EFA09230360C6
:10291000F8E70000B5EEC00AF1EE10FA1DD4DFEDC5
:10292000107AB4EEE70AF1EE10FA01DDB0EE670AB4
:102930009FED0B7AC0EE077A9FED0A7A67EE877AF1
:102940009FED097A77EE877A084B1A68FCEEE77AF2
:1029500017EE903A9BB2136470479FED050ADEE7CD
:10296000000034430000FA440000FA4398150020A8
:1029700000000000B5EEC00AF1EE10FA1DD4DFED44
:10298000107AB4EEE70AF1EE10FA01DDB0EE670A54
:102990009FED0B7AC0EE077A9FED0A7A67EE877A91
:1029A0009FED097A77EE877A084B1A68FCEEE77A92
:1029B00017EE903A9BB2D36370479FED050ADEE7AE
:1029C000000087430000FA440000FA4398150020F5
:1029D00000000000B5EEC00AF1EE10FA1DD4DFEDE4
:1029E000107AB4EEE70AF1EE10FA01DDB0EE670AF4
:1029F0009FED0B7AC0EE077A9FED0A7A67EE877A31
:102A00009FED097A77EE877A084B1A68FCEEE77A31
:102A100017EE903A9BB2536370479FED050ADEE7CD
:102A2000000034430000FA440000FA43E813002099
:102A30000000000030B587B000231A4603E02129CA
:102A400009D00133DBB2C72B1DD8C15C3D29F6D1BB
:102A50005A1CD2B2F3E7013BDBB2815C2D2914D0C2
:102A600000240021934214D3122912D8855C85B129
:102A700001F1010C1831694401F8145C0132D2B241
:102A80005FFA8CF1EEE70023E7E70132D2B20124CE
:102A9000E7E701F118036B44002103F8141C01A8B7
:102AA00008F040FC0CB907B030BDB1EE400AFAE7BF
:102AB00030B583B005460C460846FFF7BBFF012D35
:102AC00001D003B030BD2378502B35D0492B3AD0FC
:102AD000442B3FD0502B44D0492B49D0442B4ED0CF
:102AE000532B53D0502B5BD0522B63D0502B77D02D
:102AF000532B00F08C80412B00F094805A2B00F077
:102B0000A180422B00F0B780422B00F0CF80482BF1
:102B100000F0E380422B00F0EF804E2BD1D16378A0
:102B20004F2BCED1A378412BCBD1E378472BC8D103
:102B3000794B00221A70C4E76278312AC6D1774BEC
:102B400083ED000ABDE76278312AC1D1734B83ED72
:102B5000010AB6E76278312ABCD1704B83ED020AD4
:102B6000AFE76278322AB7D16D4B83ED000AA8E750
:102B70006278322AB2D16A4B83ED010AA1E762780A
:102B8000322AADD1664B83ED020A9AE76278702A49
:102B9000A8D1A278652AA5D1624B83ED000A90E7FF
:102BA00062786F2AA0D1A278732A9DD15E4B83ED03
:102BB000000A86E76278432A98D15C4B5A1E5C492A
:102BC000204607F08BFB022803D05A4807F01AFA78
:102BD00077E7594B5A781978584807F0B1F970E7F8
:102BE0006278472A84D1564B03F1080200921A1DDD
:102BF0005449204607F072FB03287FF462AF504B24
:102C0000D3ED017AF1EE677AC3ED017A59E7627884
:102C1000522A7FF470AF434B434A4B49204607F09A
:102C20005DFB4EE76278472A7FF468AF474A484920
:102C3000204607F053FB01287FF443AF364B0122B7
:102C40001A703EE76278452A7FF45BAFA278522A79
:102C50007FF457AFE2784F2A7FF453AFFFF7F0FBD2
:102C600000233C4A13603C4A13603C4A13603C48D2
:102C700007F0C8F925E76278552A7FF445AFA278B6
:102C80005A2A7FF441AFE2785A2A7FF43DAF227985
:102C9000312A7FF439AF334B01221A70324B0022B4
:102CA0001A605A60314807F0ADF90AE76278552A90
:102CB0007FF42DAFA2785A2A7FF429AFE2785A2AFE
:102CC0007FF425AF2279322A7FF421AF254B0222EF
:102CD0001A70274807F096F9F3E66278492A7FF4DC
:102CE00019AFA278542A7FF415AF224B01221A7033
:102CF000214807F087F9E4E66278412A7FF40DAFB6
:102D0000A278432A7FF409AFE2784B2A7FF405AF1B
:102D10001A4B01221A70D4E6700B0020BC10002060
:102D20000C110020100000200C000020E5090020FC
:102D30002489010844890108E40900203089010838
:102D4000000A0020508901085C890108140A00204B
:102D500068890108580B0020500B0020540B0020FC
:102D600070890108E0090020E80900208C89010829
:102D7000A88901086F0B0020C08901082C0A0020D7
:102D800000B52E4A0023D36053612D4991612D482F
:102D900010621361D361DFED2C7AC2ED007A5360CB
:102DA000DFF8CCE0C2F808E0DFF8C8C0C2F824C001
:102DB000264AD3605361916110621361D361C2ED01
:102DC000007A5360C2F808E0C2F824C0204AD360F9
:102DD0005361916110621361D361C2ED007A536057
:102DE000C2F808E0C2F824C01A4AD3605361916166
:102DF00010621361D361C2ED007A5360C2F808E03B
:102E0000C2F824C0144AD360536191611062136107
:102E1000D361124810605360936011485062114AA8
:102E2000D36053619161104911621361D3610F49FD
:102E300011605360936050625DF804FB0C11002038
:102E400000409C4500007A44713DA24034110020AE
:102E50005C11002084110020BC1000200000704193
:102E6000CDCC4C3EE41000200000C8420000A04041
:102E7000000040410AD7233C70EE600AC0ED030A0F
:102E8000D0ED097AF4EEE70AF1EE10FA08D5F1EE8A
:102E9000677AF4EEE70AF1EE10FA01DD0023C36071
:102EA000D0ED036A90ED057A36EE877A80ED057AEB
:102EB00090ED016A27EE067AD0ED067AF1EE675AB8
:102EC000B4EEE57AF1EE10FA36D5C0ED055AB5EE5E
:102ED000400AF1EE10FA01D100234361D0ED007AEF
:102EE00066EEA77A90ED057A26EE076A77EE867A87
:102EF00090ED027A90ED046A36EEC66A27EE067A05
:102F000077EE877A90ED077A77EE877AC0ED077AC9
:102F1000B5EEC00AF1EE10FA24DBF5EEC07AF1EE60
:102F200010FA11D490ED087AF4EEC77AF1EE10FAA7
:102F30000CDD80ED077A09E0B4EEE77AF1EE10FAE5
:102F4000C5DDC0ED057AC2E70023C361C0ED046AA8
:102F5000B5EE400AF1EE10FA01D10023C36190ED05
:102F6000070A7047B5EEC00AF1EE10FAEED590ED03
:102F7000087AB1EE477AF4EEC77AF1EE10FA02D58C
:102F800080ED077AE2E7F5EEC07AF1EE10FADDDDCA
:102F90000023C361DAE770EE600AC0ED030AD0EDEA
:102FA000097AF4EEE70AF1EE10FA08D5F1EE677A45
:102FB000F4EEE70AF1EE10FA01DD0023C360D0ED74
:102FC000036A90ED057A36EE877A80ED057A90ED0A
:102FD000016A27EE067AD0ED067AF1EE675AB4EE72
:102FE000E57AF1EE10FA30D5C0ED055AD0ED007A51
:102FF00066EEA77A90ED057A26EE076A77EE867A76
:1030000090ED027A90ED046A36EEC66A27EE067AF3
:1030100077EE877AC0ED077A90ED087AF4EEC77AFA
:10302000F1EE10FA01DD80ED077AD0ED077AB1EE0E
:10303000477AF4EEC77AF1EE10FA01D580ED077AFF
:10304000C0ED046A90ED070A7047B4EEE77AF1EE3E
:1030500010FACBDDC0ED057AC8E7000000B585B0F9
:10306000002300930193029303931548154A0260CD
:103070004FF480324260836001220261027680F860
:103080002030C36210498162C360C26180F8302081
:10309000426101F063FC60B90823009301230193AE
:1030A00002936946064801F09FFD28B905B05DF816
:1030B00004FB00F049FAEFE700F046FAF6E700BF3C
:1030C000AC110020002001400100000F30B589B094
:1030D000002303930493059306930793026803F177
:1030E000804303F590339A4201D009B030BD0446C5
:1030F0000025019503F58C335A6C42F480725A64B2
:103100005A6C02F480720192019A02951A6B42F095
:1031100002021A631B6B03F002030293029B01235A
:1031200003930323049303A9104802F0E7F810481F
:10313000104B036045608560C5604FF48063036198
:103140004FF4006343614FF4005383614FF4807385
:10315000C3610562456201F0EBFE18B9044BA3633D
:103160009C63C2E700F0F0F9F8E700BF00040240FA
:10317000F41100201064024010B582B000240094C5
:103180001E4B1A6B42F480021A631A6B02F480021F
:103190000092009A01941A6B42F400121A631B6B9E
:1031A00003F400130193019B224605210C2001F03A
:1031B000F9FD0C2001F02EFE22460521102001F021
:1031C000F1FD102001F026FE22460521382001F0F5
:1031D000E9FD382001F01EFE22460521392001F0CC
:1031E000E1FD392001F016FE22460521452001F0BF
:1031F000D9FD452001F00EFE02B010BD003802409E
:10320000F0B583B0294B019317240094002380224A
:103210002749284805F051F9274B019318250095B7
:1032200000234FF480722549254805F046F9254BC7
:1032300001931B23009300234FF4807222492348FB
:1032400005F03BF9224B0193009400234FF4807268
:103250002049214805F031F9204B019300950023C6
:1032600080221F491F4805F028F91F4B01931C239A
:10327000009300234FF480721C491D4805F01DF98E
:103280001C4E1D4D1D4F01970094002340223146D6
:10329000284605F012F90197009400234022314698
:1032A000284605F00AF903B0F0BD00BF6C120020FB
:1032B000CC890108A11F000858120020D8890108F4
:1032C0002113000868120020E88901085D1E00082B
:1032D0005C120020F4890108E11C0008641200203F
:1032E000008A0108011E000860120020108A0108EF
:1032F000011C0008208A010829120008541200202D
:103300002DE9F0438DB000240794089409940A94A1
:103310000B9401945C4B1A6B42F010021A631A6B07
:1033200002F010020192019A02941A6B42F080029C
:103330001A631A6B02F080020292029A03941A6BCB
:1033400042F004021A631A6B02F004020392039A19
:1033500004941A6B42F001021A631A6B02F0010224
:103360000492049A05941A6B42F002021A631A6BD3
:1033700002F002020592059A06941A6B42F00802C6
:103380001A631B6B03F008030693069B3F4E012252
:103390000E21304602F0ABF83D4F22464FF4784103
:1033A000384602F0A4F8DFF8F08022464FF4885146
:1033B000404602F09CF822464FF40061304602F08D
:1033C00096F80125079508944FF00209CDF824904E
:1033D00007A9304601F092FF0E2307930895099440
:1033E00003230A9307A9304601F088FF4FF40043F6
:1033F00007930894099507A9264801F07FFF4FF429
:1034000078430793089509940A9407A9384601F070
:1034100075FF4FF4807307930895CDF824900A94B4
:1034200007A9404601F06AFF4FF48059CDF81C907F
:10343000089509950A9407A9404601F05FFF4FF4EB
:1034400000630793089509940A9407A9304601F090
:1034500055FFCDF81C900894099507A9304601F056
:103460004DFF042307930894099507A9384601F0F6
:1034700045FF082307930894099407A9384601F0EB
:103480003DFF0DB0BDE8F083003802400008024067
:10349000000C0240000402400000024008B50B4846
:1034A0000B4B03600B4B436000238360C3604FF4FE
:1034B0008042026143618361C361036202F01EF8CE
:1034C00000B908BD00F040F8FBE700BF7012002013
:1034D00000580040801A060030B589B000230393DD
:1034E00004930593069307930268144B9A4201D004
:1034F00009B030BD00250195114C236B43F0020348
:103500002363236B03F002030193019B4FF4406399
:10351000039312230493032306930423079303A91D
:10352000084801F0EBFE0295236C43F4800323640A
:10353000236C03F480030293029BD9E700580040F8
:10354000003802400004024072B6FEE700B595B0B4
:103550003022002108A806F0A1FC00230393049365
:103560000593069307930193204A116C41F0805113
:103570001164126C02F080520192019A02931C4B6A
:103580001A6842F480421A601B6803F48043029375
:10359000029B012308934FF48033099302220E9279
:1035A0004FF480030F9304231093A82111911292DA
:1035B000139308A802F080F898B90F23039302230D
:1035C0000493002305934FF4A05306934FF48053C4
:1035D0000793052103A802F0D5FA20B915B05DF8CC
:1035E00004FBFFF7B1FFFFF7AFFF00BF0038024059
:1035F0000070004008B501F0D7F8FFF7A7FFFFF70C
:103600007FFEFFF7B9FD00F013FD00F0A3F900F015
:10361000D3F900F003FA00F033FA00F0E9FD00F00E
:1036200025FE00F05FFE00F0FDFE00F02FFF00F031
:1036300059FAFFF713FD00F073FD00F0D9FEFFF714
:103640002DFF00F08BFE00F007FF06F067FB03F094
:1036500079FEFFF7D5FD03F087FE034806F070FC06
:10366000642001F0CDF8F8E72C8A010800B583B09A
:10367000002200920D4B596C41F480415964596C01
:1036800001F48041009100990192196C41F0805140
:1036900019641B6C03F080530193019B0F216FF0A1
:1036A000010001F07FFB03B05DF804FB003802402D
:1036B00030B589B0044600230193214B1A6C42F0C7
:1036C00020021A641B6C03F020030193019B02A9E2
:1036D00003A802F02DFB069BCBB902F009FB0346C1
:1036E0001848A0FB03239B0C013B1748174A0260B4
:1036F00040F2E732C260436000230361836083616C
:1037000002F05CFD054630B1284609B030BD02F03C
:10371000EFFA4300E4E70C4802F0ECFB0546002812
:10372000F2D1372001F076FB0F2C01D90125EBE710
:1037300000222146372001F035FB054B1C60E3E7F2
:103740000038024083DE1B43C412002000140040F6
:1037500020000020FEE7FEE7FEE7FEE7FEE77047F9
:1037600008B5024801F0DCFC08BD00BF8816002047
:1037700008B5024801F0D4FC08BD00BF281600209F
:1037800008B5034802F0FEFB024802F0FBFB08BD4F
:1037900010130020E015002008B5034802F0F2FBEA
:1037A000024802F0EFFB08BD101300205813002060
:1037B00008B5034802F0E6FB024802F0E3FB08BD4F
:1037C00010130020A013002008B5024802F0DAFB15
:1037D00008BD00BF3014002008B5024802F0D2FB3B
:1037E00008BD00BF7814002008B5024802F0CAFBEB
:1037F00008BD00BFC014002008B5024803F062FBFA
:1038000008BD00BFF017002010B5044C204603F09F
:1038100059FB204606F092F810BD00BF3818002072
:1038200008B5034802F0AEFB024802F0ABFB08BD4E
:1038300098150020E813002008B5024802F0A2FB0A
:1038400008BD00BF9815002008B5024802F09AFB99
:1038500008BD00BF9815002008B5024802F092FB91
:1038600008BD00BF0815002008B5024802F08AFB19
:1038700008BD00BF5015002008B5024802F082FBC9
:1038800008BD00BFC412002008B5024801F048FC82
:1038900008BD00BFF411002008B5024801F040FC4B
:1038A00008BD00BFE816002008B5034801F038FC49
:1038B000024806F043F808BD481700208018002091
:1038C00010B5044C204603F0FDFA204606F036F809
:1038D00010BD00BF801800200120704708B506F019
:1038E000B3FA162303604FF0FF3008BD08B54FF060
:1038F000FF31FFF7F3FFFEE710B503460C4A0D4911
:103900000D48006840B10C4800680344521A9342C5
:1039100006D8094A136010BD0748084C0460F2E756
:1039200006F092FA0C2303604FF0FF30F3E700BF7C
:1039300000000220000400000C130020A06C0020F6
:10394000034AD2F8883043F47003C2F888307047D5
:1039500000ED00E000B58DB02422002103A806F0A0
:103960009DFA00230193029312484FF080420260B7
:10397000436083604FF0FF32C260036183610323C1
:10398000039301230593099303A902F06FFC50B937
:1039900000230193029301A9064802F0EDFE28B925
:1039A0000DB05DF804FBFFF7CFFDF1E7FFF7CCFDAD
:1039B000F6E700BF3014002000B58DB024220021AE
:1039C00003A806F06BFA0023019302931148124AF0
:1039D0000260436083604FF6FF72C26003618361DF
:1039E0000323039301230593099303A902F03EFCEB
:1039F00050B900230193029301A9064802F0BCFECE
:103A000028B90DB05DF804FBFFF79EFDF1E7FFF765
:103A10009BFDF6E7781400200004004000B58DB04F
:103A20002422002103A806F039FA0023019302930F
:103A30001148124A0260436083604FF6FF72C26011
:103A4000036183610323039301230593099303A96E
:103A500002F00CFC50B900230193029301A906481F
:103A600002F08AFE28B90DB05DF804FBFFF76CFD8B
:103A7000F1E7FFF769FDF6E7C014002000080040F9
:103A800000B58DB02422002103A806F007FA002318
:103A9000019302931148124A0260436083604FF021
:103AA000FF32C26003618361032303930123059303
:103AB000099303A902F0DAFB50B9002301930293A2
:103AC00001A9064802F058FE28B90DB05DF804FBC4
:103AD000FFF73AFDF1E7FFF737FDF6E7081500209D
:103AE000000C004000B583B00023009301930F4801
:103AF0000F4A0260A7224260836040F2E733C3604E
:103B00008023836102F05AFB50B900230093019394
:103B10006946064802F030FE28B903B05DF804FBA0
:103B2000FFF712FDF1E7FFF70FFDF6E75015002054
:103B30000010004010B584B00368344A934207D0A7
:103B4000334A934229D0334A93424BD004B010BD3C
:103B500000240194304B5A6C42F001025A645B6CB1
:103B600003F001030193019B22460621182001F076
:103B700019F9182001F04EF922460621192001F00A
:103B800011F9192001F046F9224606211A2001F008
:103B900009F91A2001F03EF9D8E7002402941E4BDF
:103BA0005A6C42F002025A645B6C03F00203029307
:103BB000029B224605212B2001F0F4F82B2001F076
:103BC00029F9224605212C2001F0ECF82C2001F0E7
:103BD00021F9224605212D2001F0E4F82D2001F0E5
:103BE00019F9B3E7002203920B4B596C41F4803171
:103BF00059645B6C03F480330393039B0621182004
:103C000001F0D0F8182001F005F99FE7000001400D
:103C100000040140004001400038024070B58EB001
:103C2000002309930A930B930C930D930368B3F14C
:103C3000804F0BD0614A934247D0614A93426CD087
:103C4000604A934200F091800EB070BD0024009451
:103C500003F50E331A6C42F001021A641A6C02F07A
:103C600001020092009A01941A6B42F001021A6359
:103C70001A6B02F001020192019A02941A6B42F04F
:103C800002021A631B6B03F002030293029B4FF4C0
:103C90000043099302260A9601250D9509A94A4871
:103CA00001F02CFB082309930A960B940C940D95B4
:103CB00009A9464801F022FB224606211C2001F0FA
:103CC00071F81C2001F0A6F8BEE700240394404BD5
:103CD0001A6C42F002021A641A6C02F00202039299
:103CE000039A04941A6B42F002021A631B6B03F0EE
:103CF00002030493049B3023099302230A930D9338
:103D000009A9324801F0FAFA224606211D2001F0E5
:103D100049F81D2001F07EF896E7002405942C4B0D
:103D20001A6C42F004021A641A6C02F00402059242
:103D3000059A06941A6B42F002021A631B6B03F099
:103D400002030693069BC023099302230A930D9353
:103D500009A91E4801F0D2FA224606211E2001F0D0
:103D600021F81E2001F056F86EE700240794184B46
:103D70001A6C42F008021A641A6C02F008020792E8
:103D8000079A08941A6B42F001021A631B6B03F046
:103D900001030893089B0323099302230A930D93BD
:103DA00009A9094801F0AAFA22460621322000F0AA
:103DB000F9FF322001F02EF846E700BF0004004072
:103DC00000080040000C00400000024000040240D7
:103DD0000038024000B585B003682F4A93420BD0EB
:103DE0002E4A93421CD02E4A93422DD02D4A934204
:103DF0003ED005B05DF804FB002200922A4B196CFE
:103E000041F0100119641B6C03F010030093009B38
:103E10000521362000F0C6FF362000F0FBFFE8E762
:103E200000220192204B596C41F4003159645B6CC3
:103E300003F400330193019B0621192000F0B2FF27
:103E4000192000F0E7FFD4E700220292164B596CCC
:103E500041F4802159645B6C03F480230293029B3C
:103E600006211A2000F09EFF1A2000F0D3FFC0E7C1
:103E7000002203920C4B196C41F0400119641B6C39
:103E800003F040030393039B05212B2000F08AFFDE
:103E90002B2000F0BFFFACE70010004000440140C1
:103EA00000480140001800400038024000B58DB0C5
:103EB00000230793089309930A930B930368524ACC
:103EC000934211D0514A934226D0514A93423BD05B
:103ED000504A93424FD0504A934264D04F4A934243
:103EE00079D00DB05DF804FB002301934C4B1A6BA5
:103EF00042F010021A631B6B03F010030193019B45
:103F00004FF4D44307930223089301230B9307A98B
:103F1000444801F0F3F9E4E700230293404B1A6BA5
:103F200042F004021A631B6B03F004030293029B2A
:103F30004FF4407307930223089303230B9307A9BD
:103F4000394801F0DBF9CCE700230393344B1A6BBB
:103F500042F010021A631B6B03F010030393039BE0
:103F6000602307930223089303230B9307A92D488B
:103F700001F0C4F9B5E700230493294B1A6B42F012
:103F800002021A631B6B03F002030493049B4FF4B9
:103F9000807307930223089303230B9307A92348F5
:103FA00001F0ACF99DE7002305931D4B1A6B42F01D
:103FB00002021A631B6B03F002030593059B4FF487
:103FC000007307930223089303230B9307A9174851
:103FD00001F094F985E700230693114B1A6B42F028
:103FE00002021A631B6B03F002030693069B4FF455
:103FF000804307930223089309230B9307A90B48D7
:1040000001F07CF96DE700BF0000014000040140B1
:1040100000400140004401400048014000180040B9
:104020000038024000100240000802400004024034
:1040300010B592B000241094119409940A940B9432
:104040000C940D940E940F942022214601A805F0A3
:1040500025FF3148314B0360A7234360846040F261
:10406000E733C360046144618023836102F0D2F8C6
:1040700000283CD100231093119310A9264802F088
:104080007BFB002836D16023099300220A920B9211
:104090000C920D920E920F9209A91F4802F07AF924
:1040A00058BB042209A91C4802F074F940BB08223D
:1040B00009A9194802F06EF928BB0C2209A9164873
:1040C00002F068F910BB0023019302930393049359
:1040D00005934FF400520692089301A90E4802F08E
:1040E00091FBB0B90C48FFF7E1FE12B010BDFFF72D
:1040F0002BFABFE7FFF728FAC5E7FFF725FAD0E765
:10410000FFF722FAD3E7FFF71FFAD6E7FFF71CFA0B
:10411000D9E7FFF719FAE5E7101300200000014086
:1041200010B592B000241094119409940A940B9441
:104130000C940D940E940F942022214601A805F0B2
:10414000ADFE2948294B0360A7234360846044F6F1
:104150001F63C360046144618023836102F05AF8E5
:10416000002831D100231093119310A91E4802F0AA
:1041700003FB00282BD16023099300230A930B93A0
:104180000C930D930E930F93082209A9164802F081
:1041900001F9F8B90C2209A9134802F0FBF8E0B9BB
:1041A0000023019302930393049305934FF4005269
:1041B0000692089301A90C4802F024FB80B90A4832
:1041C000FFF774FE12B010BDFFF7BEF9CAE7FFF7A4
:1041D000BBF9D0E7FFF7B8F9DCE7FFF7B5F9DFE7A0
:1041E000FFF7B2F9EBE700BF98150020000401408B
:1041F00000B589B0002301930293039304930593C0
:10420000069307931748184A0260A722426083600A
:1042100040F2E732C26003618023836101F0FAFF5C
:10422000B8B960230193002202920392059201A97A
:104230000C4802F0AFF878B904220DEB02010948EE
:1042400002F0A8F858B90748FFF730FE09B05DF84A
:1042500004FBFFF779F9E4E7FFF776F9ECE7FFF7FE
:1042600073F9F0E7E01500200040014000B589B087
:1042700000230193029303930493059306930793FA
:104280001648174A0260A7224260836040F2E73274
:10429000C26003618023836101F090FFA0B90F48E1
:1042A00001F0B8FF98B960230193002202920392B3
:1042B000059201A9094802F06DF858B90748FFF7BF
:1042C000F5FD09B05DF804FBFFF73EF9E7E7FFF7FE
:1042D0003BF9E8E7FFF738F9F0E700BF5813002093
:1042E0000044014000B589B0002301930293039379
:1042F00004930593069307931648174A0260A72272
:104300004260836040F2E732C260036180238361D0
:1043100001F054FFA0B90F4801F07CFF98B9602369
:104320000193002202920392059201A9094802F02A
:1043300031F858B90748FFF7B9FD09B05DF804FB3B
:10434000FFF702F9E7E7FFF7FFF8E8E7FFF7FCF808
:10435000F0E700BFA01300200048014000B58DB079
:104360000023089309930A930B93019302930393F9
:1043700004930593069307931B481C4A026053223B
:104380004260836044F61F62C260036180238361E0
:1043900001F014FFE0B94FF48053089308A91248C4
:1043A00002F073F8B8B9104801F034FFB0B96023D7
:1043B0000193002202920392059201A90A4801F09A
:1043C000E9FF70B90848FFF771FD0DB05DF804FB17
:1043D000FFF7BAF8DFE7FFF7B7F8E4E7FFF7B4F85D
:1043E000E5E7FFF7B1F8EDE7E8130020001800401B
:1043F00008B50A480A4B03604FF4E13343600023D9
:104400008360C36003610C2242618361C36102F077
:1044100060FB00B908BDFFF797F8FBE7A81700207D
:104420000010014008B50A480A4B03604FF4E1331D
:10443000436000238360C36003610C224261836197
:10444000C36102F046FB00B908BDFFF77DF8FBE74A
:10445000F01700200044004008B50A480A4B0360EA
:104460004FF4E133436000238360C36003610C2297
:1044700042618361C36102F02CFB00B908BDFFF704
:1044800063F8FBE7381800200048004008B50A48E8
:104490000A4B03604FF4E133436000238360C36041
:1044A00003610C2242618361C36102F012FB00B917
:1044B00008BDFFF749F8FBE7801800200014014011
:1044C00030B58FB0002309930A930B930C930D938F
:1044D0000368904A93420CD004468F4A93422CD0F2
:1044E0008E4A93426FD08E4A934200F0B3800FB051
:1044F00030BD002101918B4B5A6C42F010025A647E
:104500005A6C02F010020192019A02911A6B42F069
:1045100001021A631B6B03F001030293029B4FF429
:10452000C063099302230A9303230C9307230D937B
:1045300009A97D4800F0E2FED9E700250395794BF3
:104540001A6C42F400321A641A6C02F400320392BC
:10455000039A04951A6B42F001021A631B6B03F075
:1045600001030493049B0C23099302230A9303235E
:104570000C9307230D9309A96B4800F0BFFE6B480D
:104580006B4B03604FF0006343608560C5604FF480
:1045900080630361456185614FF48073C361056287
:1045A000456200F0C5FC58B9604BE3639C63002290
:1045B0000621262000F0F6FB262000F02BFC96E7D3
:1045C000FEF7C2FFF0E700250595564B1A6C42F442
:1045D00080221A641A6C02F480220592059A0695CC
:1045E0001A6B42F008021A631B6B03F00803069370
:1045F000069B4FF44073099302230A9303230C9301
:1046000007230D9309A94B4800F078FE4A484B4B0D
:1046100003604FF0006343608560C5604FF48063C2
:104620000361456185614FF48073C3610562456232
:1046300000F07EFC58B9404BE3639C6300220521E7
:10464000272000F0AFFB272000F0E4FB4FE7FEF748
:104650007BFFF0E700250795324B5A6C42F02002B1
:104660005A645A6C02F020020792079A08951A6B56
:1046700042F004021A631B6B03F004030893089BC7
:10468000C023099302230A9303230C9308230D9359
:1046900009A92B4800F032FE2A482B4B03604FF04B
:1046A000206343608560C5604FF4806303614561AA
:1046B0008561C5610562456200F03AFC18BB214B7B
:1046C000E3639C632148224B03604FF02063436007
:1046D000402383600023C3604FF480620261436122
:1046E0008361C3610362436200F022FC70B9174B1F
:1046F000A3639C6300220521472000F053FB472061
:1047000000F088FBF3E6FEF71FFFD8E7FEF71CFF7B
:10471000EDE700BF001001400044004000480040A9
:10472000001401400038024000000240281600201A
:1047300088600240000C0240881600202860024079
:1047400000080240E81600202864024048170020B4
:10475000A0640240DFF834D0FFF7F2F80C480D49AE
:104760000D4A002302E0D458C4500433C4188C42CC
:10477000F9D30A4A0A4C002301E013600432A24232
:10478000FBD305F067FBFEF735FF70470000022002
:1047900000000020E009002050980108E0090020F6
:1047A0009C6C0020FEE7000008B50B4B1A6842F431
:1047B00000721A601A6842F480621A601A6842F441
:1047C00080721A60032000F0DBFA0F20FEF770FF02
:1047D000FEF74CFF002008BD003C0240034A116870
:1047E000034B1B780B441360704700BFC8180020B0
:1047F0001C000020014B1868704700BFC81800203B
:1048000038B50446FFF7F6FF0546B4F1FF3F02D086
:10481000044B1B781C44FFF7EDFF401BA042FAD36A
:1048200038BD00BF1C0000204A4B5A6822F44032B9
:104830005A605A6841680A435A600268536823F410
:104840008073536002685368016943EA012353602F
:104850000268536823F040735360026853688168AC
:104860000B4353600268936823F40063936002680B
:104870009368C1680B439360826A374B9A4257D062
:104880000268936823F07063936002689368816A9A
:104890000B4393600268936823F04053936002686F
:1048A0009368C16A0B4393600268936823F0020324
:1048B000936002689368017E43EA4103936090F835
:1048C0002030002B3FD00268536843F400635360EC
:1048D0000268536823F46043536001684B68426A7E
:1048E000013A43EA42334B600268D36A23F470030F
:1048F000D3620168CB6AC269013A43EA0253CB62D0
:104900000268936823F4007393600268936890F8D8
:10491000301043EA412393600268936823F4806374
:10492000936002689368416943EA8123936070470A
:104930000268936823F0706393600268936823F0C1
:1049400040539360B0E70268536823F400635360F8
:10495000CAE700BF002301400100000F38B310B5C3
:104960000446036C43B1236C13F0100F0BD00120ED
:10497000002384F83C3010BDFEF7A8FB00236364DD
:1049800084F83C30EFE7236C23F4885323F00203D0
:1049900043F0020323642046FFF746FF00206064D3
:1049A000236C23F0030343F001032364E0E70120B9
:1049B0007047000010B582B013460022019290F8B3
:1049C0003C20012A00F0AE800446012280F83C2001
:1049D0000268906810F0010F13D1906840F0010058
:1049E0009060534A1068534AA2FB0020800C00EBF1
:1049F0004000019002E001980138019001980028E0
:104A0000F9D12268906810F4807F03D0906820F478
:104A1000807090602268906810F0010F77D0206C51
:104A200020F4E06020F0010040F4807020645268BF
:104A300012F4806F05D0226C22F4405242F480526E
:104A40002264226C12F4805F36D0626C22F006027F
:104A50006264002284F83C20A26B3748D063A26BCA
:104A600036481064A26B3648D06422686FF022008A
:104A700010602068426842F080624260206882686C
:104A800042F48072826020680A4600F14C01A06BFB
:104A900000F0B4FA2B4B5B6813F01F0F27D123688B
:104AA000294A934211D002F58072934207D0274AD7
:104AB000934214D0002033E000226264C9E702F57B
:104AC0000072526812F01F0FF1D19A6812F0405F25
:104AD0002AD19A6842F080429A60002020E002F5D4
:104AE0008072526812F0100FEFD0002018E0236897
:104AF000154A934201D0002012E09A6812F0405FFC
:104B000014D19A6842F080429A60002008E0236C39
:104B100043F010032364636C43F0010363640020DB
:104B200002B010BD0220FBE70020F9E70020F7E704
:104B30001800002083DE1B43774B0008554B00080C
:104B4000614B000800230140002001400022014089
:104B50007047704708B5806BFFF7FBFF08BD7047D3
:104B600008B5806B40230364436C43F00403436443
:104B7000FFF7F5FF08BD08B50346806B026C12F025
:104B8000500F25D1036C43F40073036403689A68E3
:104B900012F0405F19D1027EBAB9DA6A12F4700FCE
:104BA00003D09A6812F4806F0FD15A6822F0200265
:104BB0005A60036C23F480730364036C13F4805F06
:104BC00003D1036C43F001030364FFF7C1FF08BD89
:104BD000026C12F0100F04D1826BD26C1846904711
:104BE000F5E7FFF7BCFFF2E730B482B00023019392
:104BF00090F83C30012B00F0BB80012380F83C3062
:104C00000B68092B41D90468E2689BB203EB4303AC
:104C10001E3B4FF0070C0CFA03F322EA0303E36098
:104C20000468E2680B8803EB43031E3B8D6805FABA
:104C300003F31343E3604B68062B3DD80468626BB3
:104C400003EB8303053B4FF01F0C0CFA03F322EA3E
:104C5000030363630468626B4B6803EB8303053BE8
:104C6000B1F800C00CFA03F3134363630268414BCD
:104C70009A4251D002683F4B9A4256D0002380F8A6
:104C80003C30184602B030BC7047046822699BB2C1
:104C900003EB43034FF0070C0CFA03F322EA030380
:104CA0002361046822690B8803EB43038D6805FACE
:104CB00003F313432361BEE70C2B16D805682A6B58
:104CC00003EB8303233B1F2404FA03F322EA0303C9
:104CD0002B6305682A6B4B6803EB8303233B0C882B
:104CE00004FA03F313432B63C0E70568EA6A03EB96
:104CF0008303413B1F2404FA03F322EA0303EB621C
:104D00000568EA6A4B6803EB8303413B0C8804FAAD
:104D100003F31343EB62A9E70B68122BAAD1164ADF
:104D2000536843F480035360A4E70B68103B012BE6
:104D3000A4D8114A536843F4000353600B68102B46
:104D40009CD10E4B1B6802F1467202F52E3202F224
:104D50008332A2FB03239B0C03EB83035B000193D1
:104D600002E0019B013B0193019B002BF9D185E7F8
:104D7000022087E7002001400023014018000020A6
:104D8000074AD36823F4E0631B041B0C000200F401
:104D9000E060034343F0BF6343F40033D3607047E4
:104DA00000ED00E000B5194BDB68C3F30223C3F14B
:104DB000070CBCF1040F28BF4FF0040C03F1040EE4
:104DC000BEF1060F18D9033B4FF0FF3E0EFA0CFC64
:104DD00021EA0C0199400EFA03F322EA0303194376
:104DE00000280BDB0901C9B200F1604000F5614009
:104DF00080F800135DF804FB0023E5E700F00F00E6
:104E00000901C9B2024B1954F4E700BF00ED00E0FC
:104E100014ED00E0002807DB00F01F024009012329
:104E20009340024A42F82030704700BF00E100E0A2
:104E300030B405682C6824F480242C600468636016
:104E40008368402B05D0036899600368DA6030BC42
:104E5000704703689A600368D960F8E710B4036884
:104E6000D9B210390C4AA2FB014212090B4CA25CC8
:104E7000C2655F2909D923F47F7323F00303043348
:104E80008365806D5DF8044B704723F47F7323F0D6
:104E900003038365F5E700BFABAAAAAA548A0108F9
:104EA000836A826992B9012B0AD0022B02D00BB11E
:104EB00000207047C36A13F0807F28D1002070471C
:104EC000C36AB3F1C07F24D000207047B2F5005F01
:104ED00009D0022B25D9032B25D1C36A13F0807F7B
:104EE00023D100207047032B03D8DFE803F014041C
:104EF000140A00207047C36A13F0807F0DD1002090
:104F00007047C36AB3F1C07F09D000207047012009
:104F10007047012070470120704701207047012031
:104F20007047012070470020704701207047000043
:104F300070B50446FFF75EFC002C5BD005460223EB
:104F400084F83530002384F834302268136823F065
:104F50000103136023681A6812F0010F0AD0FFF7EB
:104F600049FC431B052BF5D920236365032084F8F6
:104F7000350070BD1A68204810406168A2680A4375
:104F8000E1680A4321690A4361690A43A1690A4346
:104F9000E1690A43216A0A430243616A04291ED077
:104FA0001A602668756925F00705636A1D43042B9E
:104FB00007D1A36A1D43E36A1BB12046FFF770FFC8
:104FC00090B975612046FFF749FFE26D3F2393409A
:104FD000836000206065012384F83530C9E7E16A09
:104FE000206B01430A43DBE740236365012084F81B
:104FF0003500BEE70120BCE73F8010F038B504461D
:10500000856D90F8340001282BD0012084F83400FD
:1050100094F83500C0B2012804D0002384F834305D
:10502000022038BD022084F835000020606520464B
:10503000FFF7FEFEE26D3F239340AB6022681368EA
:1050400043F016031360236C23B12268136843F006
:10505000080313602268136843F001031360002003
:10506000DFE70220DDE770B50446866DFFF7C2FB7F
:1050700094F83530DBB2022B06D080236365002321
:1050800084F83430012070BD05462268136823F08F
:10509000160313602268536923F080035361236C65
:1050A000E3B12268136823F00803136022681368D1
:1050B00023F00103136023681B6813F0010F11D064
:1050C000FFF798FB431B052BF5D9202363650320CD
:1050D00084F83500002384F83430D4E7A36C002B27
:1050E000DFD1E3E7E26D3F239340B360012384F80F
:1050F0003530002084F83400C5E790F83530DBB255
:10510000022B03D08023436501207047052380F8DC
:1051100035300268136823F00103136000207047E4
:10512000F0B583B0044600230193724B1D68724BA7
:10513000A3FB0535AD0A876D3E68C26D0823934019
:10514000334210D003681A6812F0040F0BD01A68AB
:1051500022F004021A60C26D08239340BB60436DC5
:1051600043F001034365E26D01239340334209D0CC
:105170002268526912F0800F04D0BB60636D43F067
:1051800002036365E26D04239340334209D0226831
:10519000126812F0020F04D0BB60636D43F0040389
:1051A0006365E26D10239340334224D02268126875
:1051B00012F0080F1FD0BB6023681A6812F4802F0A
:1051C0000DD01B6813F4002F04D1236C9BB1204633
:1051D000984710E0A36C73B1204698470BE01A681B
:1051E00012F4807F03D11A6822F008021A60236C3F
:1051F0000BB120469847E26D20239340334255D0AF
:105200002268126812F0100F50D0BB6094F835304D
:10521000DBB2052B0ED023681A6812F4802F33D02E
:105220001B6813F4002F2AD1636C002B3ED020465C
:1052300098473BE02268136823F016031360226846
:10524000536923F080035361236CA3B12268136870
:1052500023F008031360E26D3F239340BB600123FA
:1052600084F83530002384F83430236D002B3FD090
:10527000204698473CE0A36C002BE7D1EBE7E36BBB
:10528000A3B12046984711E01A6812F4807F09D133
:105290001A6822F010021A60012384F835300023C6
:1052A00084F83430E36B0BB120469847636DFBB153
:1052B000636D13F0010F17D0052384F83530226891
:1052C000136823F001031360019B01330193AB4288
:1052D00004D823681B6813F0010FF5D1012384F86B
:1052E0003530002384F83430E36C0BB12046984706
:1052F00003B0F0BD18000020B5814E1B00230F2B1A
:1053000000F2E48070B582B060E085685E0003243E
:10531000B44025EA0405CC68B4402C438460456859
:1053200025EA02054C68C4F300129A402A43426001
:105330005AE0DC08083450F8246003F007029500B6
:105340000F22AA4026EA020E0A69AA4042EA0E0289
:1053500040F824205CE0072200E0002202FA0EF26E
:105360002A4302345A4D45F824205A4A94686FEA79
:105370000C0224EA0C054E6816F4801F01D04CEA9A
:105380000405544CA560E46802EA04054E6816F46E
:10539000001F01D04CEA04054E4CE560646802EA47
:1053A00004054E6816F4003F01D04CEA0405494C50
:1053B0006560246822404D6815F4803F01D04CEAB6
:1053C0000402444C226001330F2B7DD801229A4005
:1053D0000C6804EA020C32EA0404F4D14C6804F0CC
:1053E0000304013C012C90D94A6802F00302032A0D
:1053F00009D0C4685D000322AA4024EA02048A6836
:10540000AA402243C2604A6802F00302022A90D0F6
:1054100004684FEA430E032202FA0EF224EA020461
:105420004A6802F0030202FA0EF2224302604A685E
:1054300012F4403FC7D000220192274A546C44F432
:1054400080445464526C02F480420192019A9C0898
:10545000A51C1F4A52F8255003F003024FEA820EA2
:105460000F2202FA0EF225EA02051C4A90423FF48E
:1054700074AF02F5806290421AD002F580629042C9
:1054800018D002F58062904216D002F580629042F8
:1054900014D002F58062904212D002F580629042F0
:1054A00010D002F5806290423FF455AF082255E7D4
:1054B000012253E7022251E703224FE704224DE77E
:1054C00005224BE7062249E702B070BD704700BFD6
:1054D00000380140003C014000380240000002401A
:1054E0000369194201D001207047002070470AB1BA
:1054F000816170470904816170470000002800F055
:10550000CC8070B5044690F83D30002B77D0242332
:1055100084F83D302268136823F001031360226889
:10552000136843F4004313602268136823F40043B4
:10553000136000F0DDFB62685A4B9A4264D85A4B04
:1055400098428CBF00230123002B40F0A8805749CC
:10555000A1FB00318B0C25686A6822F03F0242EA09
:1055600091426A6021680A6A22F03F0266684D4DE6
:10557000AE424FD8013313430B622168CA6922F44B
:105580004F4222F0FF026668464B9E424CD8431EB3
:105590007600B3FBF6F3013340F6FC70034278D09B
:1055A000C3F30B031343CB6121680B6823F0C003E3
:1055B000E269206A024313430B6021688B6823F47D
:1055C000034323F0FF032269E068024313438B6027
:1055D0002168CB6823F0FF036269A069024313438B
:1055E000CB602268136843F001031360002020643D
:1055F000202384F83D30206384F83E0070BD80F89D
:105600003C30FDF769FF82E7294B98428CBF0023AD
:10561000012399E74FF4967505FB03F3254DA5FB90
:1056200003539B090133A6E7A368BBB9451E06EBEC
:10563000460CB5FBFCF50135C5F30B05B5FA85F550
:105640006D0945BBC3B9013806EB4603B0FBF3F364
:105650000133C3F30B0343F40043A3E7451E06EBFA
:10566000860C0CEB8C0CB5FBFCF50135C5F30B057A
:10567000B5FA85F56D09E4E7013806EB860303EB1F
:105680008303B0FBF3F30133C3F30B0343F4404351
:1056900088E7042386E7012384E70120704701207F
:1056A000ACE700BFA08601007F841E0083DE1B43A1
:1056B000FF083D00D34D6210002800F0E08170B576
:1056C00082B00446036813F0010F3BD09F4B9B68E8
:1056D00003F00C03042B2CD09C4B9B6803F00C03B1
:1056E000082B21D06368B3F5803F4FD0B3F5A02FCE
:1056F00052D0964B1A6822F480321A601A6822F44B
:1057000080221A606368002B50D0FFF773F80546BB
:105710008E4B1B6813F4003F14D1FFF76BF8401B4E
:105720006428F5D90320B1E1884B5B6813F4800F3E
:10573000D8D0864B1B6813F4003F03D06368002B5E
:1057400000F09F81236813F0020F54D07F4B9B68B9
:1057500013F00C0F3ED07D4B9B6803F00C03082B1D
:1057600033D0E368002B68D0794B01221A60FFF731
:1057700041F80546754B1B6813F0020F54D1FFF733
:1057800039F8401B0228F5D903207FE16F4A1368DE
:1057900043F480331360B5E76C4B1A6842F48022FF
:1057A0001A601A6842F480321A60ABE7FFF722F8F9
:1057B0000546664B1B6813F4003FC3D0FFF71AF889
:1057C000401B6428F5D9032060E1604B5B6813F44B
:1057D000800FC6D15D4B1B6813F0020F03D0E36846
:1057E000012B40F05081594A136823F0F8032169D6
:1057F00043EAC1031360236813F0080F42D06369C2
:105800006BB3534B0122C3F8802EFEF7F3FF05461E
:105810004E4B5B6F13F0020F34D1FEF7EBFF401BD2
:105820000228F5D9032031E1484A136823F0F80330
:10583000216943EAC1031360DDE7454B00221A608A
:10584000FEF7D8FF0546414B1B6813F0020FD2D07C
:10585000FEF7D0FF401B0228F5D9032016E13C4B90
:105860000022C3F8802EFEF7C5FF0546374B5B6F5D
:1058700013F0020F06D0FEF7BDFF401B0228F5D93A
:10588000032003E1236813F0040F77D02F4B1B6C28
:1058900013F0805F33D1002301932C4B1A6C42F03C
:1058A00080521A641B6C03F080530193019B012505
:1058B000284B1B6813F4807F23D0A368012B34D0BE
:1058C000052B38D0214B1A6F22F001021A671A6F8C
:1058D00022F004021A67A368002B3DD0FEF78AFF6E
:1058E00006461A4B1B6F13F0020F46D1FEF782FFDC
:1058F000801B41F288339842F3D90320C6E000258B
:10590000D6E7144A136843F480731360FEF772FFFE
:105910000646104B1B6813F4807FCED1FEF76AFF5A
:10592000801B0228F5D90320B0E0084A136F43F02A
:1059300001031367CFE7054B1A6F42F004021A67A1
:105940001A6F42F001021A67C5E700BF0038024033
:105950000000474200700040FEF74CFF0646524BE5
:105960001B6F13F0020F08D0FEF744FF801B41F2BB
:1059700088339842F3D9032088E0EDB9A369002B5E
:1059800000F08380484A926802F00C02082A51D045
:10599000022B17D0454B00221A66FEF72BFF044658
:1059A000414B1B6813F0007F42D0FEF723FF001B22
:1059B0000228F5D9032069E03B4A136C23F0805399
:1059C0001364DBE7394B00221A66FEF713FF054626
:1059D000354B1B6813F0007F06D0FEF70BFF401B12
:1059E0000228F5D9032051E0E369226A1343626A71
:1059F00043EA8213A26A5208013A43EA0243E26A86
:105A000043EA0263284A5360284B01221A66FEF7D4
:105A1000F1FE0446244B1B6813F0007F06D1FEF70D
:105A2000E9FE001B0228F5D903202FE000202DE01D
:105A300000202BE0012B2BD01B4B5B6803F4800173
:105A4000E269914226D103F03F02216A8A4223D1C2
:105A5000616A47F6C0721A40B2EB811F1ED103F48F
:105A60004031A26A5208013AB1EB024F18D103F05B
:105A70007063E26AB3EB026F14D1002006E00120EC
:105A80007047012002E0012000E0002002B070BD5C
:105A90000120FBE70120F9E70120F7E70120F5E706
:105AA0000120F3E70120F1E70038024000004742FF
:105AB00008B5314B9B6803F00C03042B57D0082B1F
:105AC00057D12D4B5A6802F03F025B6813F4800FE8
:105AD0002AD0294B5968C1F3881C4FEA4C11B1EB0D
:105AE0000C006EEB0E0E4FEA8E1343EA90638101B9
:105AF000091A63EB0E03DB0043EA5173C90011EB93
:105B00000C0C43F10003590200234FEA4C2041EAF8
