:020000040800F2
:1000000000000220E92600087D1E00087F1E00086F
:10001000811E0008831E0008851E000800000000E5
:100020000000000000000000000000003155000842
:10003000871E000800000000D15500087F5200080C
:100040003927000839270008392700083927000810
:100050003927000839270008392700083927000800
:1000600039270008392700083927000839270008F0
:10007000891E000839270008392700083927000899
:10008000991E000839270008392700083927000879
:1000900039270008392700083927000839270008C0
:1000A00039270008392700083927000839270008B0
:1000B00039270008A91E0008392700083927000839
:1000C0003927000839270008392700083927000890
:1000D0003927000839270008B91E0008C91E000882
:1000E000392700083927000839270008E11E0008D1
:1000F000F91E0008091F0008191F00083927000809
:10010000392700083927000839270008392700084F
:100110003927000839270008291F0008391F00085F
:10012000491F000839270008392700083927000827
:10013000392700083927000839270008392700081F
:10014000392700083927000839270008392700080F
:1001500039270008392700083927000839270008FF
:1001600039270008392700083927000839270008EF
:100170003927000839270008392700080000000047
:080180003927000839270008A7
:1001900081F0004102E000BF83F0004330B54FEA38
:1001A00041044FEA430594EA050F08BF90EA020FA5
:1001B0001FBF54EA000C55EA020C7FEA645C7FEA38
:1001C000655C00F0E2804FEA5454D4EB5555B8BF5B
:1001D0006D420CDD2C4480EA020281EA030382EACC
:1001E000000083EA010180EA020281EA0303362D5E
:1001F00088BF30BD11F0004F4FEA01314FF4801C31
:100200004CEA113102D0404261EB410113F0004F42
:100210004FEA03334CEA133302D0524263EB4303F9
:1002200094EA050F00F0A780A4F10104D5F1200E97
:100230000DDB02FA0EFC22FA05F2801841F10001F2
:1002400003FA0EF2801843FA05F359410EE0A5F1C6
:1002500020050EF1200E012A03FA0EFC28BF4CF0F7
:10026000020C43FA05F3C01851EBE37101F00045AD
:1002700007D54FF0000EDCF1000C7EEB00006EEBBA
:100280000101B1F5801F1BD3B1F5001F0CD3490844
:100290005FEA30004FEA3C0C04F101044FEA44529B
:1002A00012F5800F80F09A80BCF1004F08BF5FEA22
:1002B000500C50F1000041EB045141EA050130BD02
:1002C0005FEA4C0C404141EB0101013C28BFB1F514
:1002D000801FE9D291F0000F04BF01460020B1FA5F
:1002E00081F308BF2033A3F10B03B3F120020CDA32
:1002F0000C3208DD02F1140CC2F10C0201FA0CF010
:1003000021FA02F10CE002F11402D8BFC2F1200C74
:1003100001FA02F120FA0CFCDCBF41EA0C0190402A
:10032000E41AA2BF01EB0451294330BD6FEA040473
:100330001F3C1CDA0C340EDC04F11404C4F120025E
:1003400020FA04F001FA02F340EA030021FA04F370
:1003500045EA030130BDC4F10C04C4F1200220FAC7
:1003600002F001FA04F340EA0300294630BD21FA05
:1003700004F0294630BD94F0000F83F4801306BFCB
:1003800081F480110134013D4EE77FEA645C18BFBF
:100390007FEA655C29D094EA050F08BF90EA020F56
:1003A00005D054EA000C04BF1946104630BD91EA4E
:1003B000030F1EBF0021002030BD5FEA545C05D151
:1003C0004000494128BF41F0004130BD14F5800490
:1003D0003CBF01F5801130BD01F0004545F0FE4104
:1003E00041F470014FF0000030BD7FEA645C1ABF39
:1003F000194610467FEA655C1CBF0B46024650EA70
:10040000013406BF52EA033591EA030F41F400219B
:1004100030BD00BF90F0000F04BF0021704730B521
:100420004FF4806404F132044FF000054FF00001F6
:1004300050E700BF90F0000F04BF0021704730B5B7
:100440004FF4806404F1320410F0004548BF40428C
:100450004FF000013EE700BF42004FEAE2014FEAE1
:1004600031014FEA02701FBF12F07F4393F07F4FBC
:1004700081F06051704732F07F4208BF704793F0BF
:100480007F4F04BF41F40021704730B54FF46074D2
:1004900001F0004521F000411CE700BF50EA0102D5
:1004A00008BF704730B54FF000050AE050EA01027E
:1004B00008BF704730B511F0004502D5404261EBEE
:1004C00041014FF4806404F132045FEA915C3FF42F
:1004D000D8AE4FF003025FEADC0C18BF03325FEACC
:1004E000DC0C18BF033202EBDC02C2F1200300FA7D
:1004F00003FC20FA02F001FA03FE40EA0E0021FAA2
:1005000002F11444BDE600BF70B54FF0FF0C4CF48F
:10051000E06C1CEA11541DBF1CEA135594EA0C0F41
:1005200095EA0C0F00F0DEF82C4481EA030621EA7C
:100530004C5123EA4C5350EA013518BF52EA0335B7
:1005400041F4801143F4801338D0A0FB02CE4FF069
:100550000005E1FB02E506F00042E0FB03E54FF099
:100560000006E1FB03569CF0000F18BF4EF0010E91
:10057000A4F1FF04B6F5007F64F5407404D25FEA8D
:100580004E0E6D4146EB060642EAC62141EA555140
:100590004FEAC52040EA5E504FEACE2EB4F1FD0C82
:1005A00088BFBCF5E06F1ED8BEF1004F08BF5FEA00
:1005B000500E50F1000041EB045170BD06F00046B2
:1005C00046EA010140EA020081EA0301B4EB5C045F
:1005D000C2BFD4EB0C0541EA045170BD41F4801157
:1005E0004FF0000E013C00F3AB8014F1360FDEBF7C
:1005F000002001F0004170BDC4F10004203C35DA58
:100600000C341BDC04F11404C4F1200500FA05F3DA
:1006100020FA04F001FA05F240EA020001F000427B
:1006200021F0004110EBD37021FA04F642EB0601F1
:100630005EEA430E08BF20EAD37070BDC4F10C041B
:10064000C4F1200500FA04F320FA05F001FA04F2DF
:1006500040EA020001F0004110EBD37041F10001CB
:100660005EEA430E08BF20EAD37070BDC4F12005D6
:1006700000FA05F24EEA020E20FA04F301FA05F23E
:1006800043EA020321FA04F001F0004121FA04F2E6
:1006900020EA020000EBD3705EEA430E08BF20EAB6
:1006A000D37070BD94F0000F0FD101F000464000F0
:1006B00041EB010111F4801F08BF013CF7D041EA72
:1006C000060195F0000F18BF704703F00046520076
:1006D00043EB030313F4801F08BF013DF7D043EA47
:1006E0000603704794EA0C0F0CEA135518BF95EAFD
:1006F0000C0F0CD050EA410618BF52EA4306D1D184
:1007000081EA030101F000414FF0000070BD50EAA2
:10071000410606BF1046194652EA430619D094EA2C
:100720000C0F02D150EA013613D195EA0C0F05D116
:1007300052EA03361CBF104619460AD181EA03016A
:1007400001F0004141F0FE4141F470014FF0000022
:1007500070BD41F0FE4141F4780170BD70B54FF0BD
:10076000FF0C4CF4E06C1CEA11541DBF1CEA13553D
:1007700094EA0C0F95EA0C0F00F0A7F8A4EB05041F
:1007800081EA030E52EA03354FEA013100F0888016
:100790004FEA03334FF0805545EA131343EA1263DF
:1007A0004FEA022245EA111545EA10654FEA002694
:1007B0000EF000419D4208BF964244F1FD0404F54D
:1007C000407402D25B084FEA3202B61A65EB0305A9
:1007D0005B084FEA32024FF480104FF4002CB6EB66
:1007E000020E75EB030E22BFB61A754640EA0C00E6
:1007F0005B084FEA3202B6EB020E75EB030E22BF26
:10080000B61A754640EA5C005B084FEA3202B6EB66
:10081000020E75EB030E22BFB61A754640EA9C0025
:100820005B084FEA3202B6EB020E75EB030E22BFF5
:10083000B61A754640EADC0055EA060E18D04FEAB3
:10084000051545EA16754FEA06164FEAC30343EA53
:1008500052734FEAC2025FEA1C1CC0D111F4801F20
:100860000BD141EA00014FF000004FF0004CB6E719
:1008700011F4801F04BF01430020B4F1FD0C88BFB8
:10088000BCF5E06F3FF6AFAEB5EB030C04BFB6EBC3
:10089000020C5FEA500C50F1000041EB045170BDB6
:1008A0000EF0004E4EEA113114EB5C04C2BFD4EBE3
:1008B0000C0541EA045170BD41F480114FF0000E67
:1008C000013C90E645EA060E8DE60CEA135594EAE3
:1008D0000C0F08BF95EA0C0F3FF43BAF94EA0C0FE6
:1008E0000AD150EA01347FF434AF95EA0C0F7FF45B
:1008F00025AF104619462CE795EA0C0F06D152EAAF
:1009000003353FF4FDAE1046194622E750EA410692
:1009100018BF52EA43067FF4C5AE50EA41047FF4A3
:100920000DAF52EA43057FF4EBAE12E74FF0FF3C08
:1009300006E000BF4FF0010C02E000BF4FF0010CD9
:100940004DF804CD4FEA410C7FEA6C5C4FEA430C52
:1009500018BF7FEA6C5C1BD001B050EA410C0CBFA1
:1009600052EA430C91EA030F02BF90EA020F002003
:10097000704710F1000F91EA030F58BF994208BF6A
:1009800090422CBFD8176FEAE37040F00100704727
:100990004FEA410C7FEA6C5C02D150EA013C07D17E
:1009A0004FEA430C7FEA6C5CD6D152EA033CD3D0C9
:1009B0005DF8040B704700BF8446104662468C46C3
:1009C0001946634600E000BF01B5FFF7B7FF0028F6
:1009D00048BF10F1000F01BD4DF808EDFFF7F4FF1F
:1009E0000CBF012000205DF808FB00BF4DF808EDAA
:1009F000FFF7EAFF34BF012000205DF808FB00BFCD
:100A00004DF808EDFFF7E0FF94BF012000205DF8EE
:100A100008FB00BF4DF808EDFFF7CEFF94BF0120A3
:100A200000205DF808FB00BF4DF808EDFFF7C4FF9C
:100A300034BF012000205DF808FB00BF4FEA4102EF
:100A4000B2F1E04324BFB3F5001CDCF1FE5C0DD92C
:100A500001F0004C4FEAC0024CEA5070B2F1004F76
:100A600040EB830008BF20F00100704711F0804F79
:100A700021D113F13872BCBF01F00040704741F43E
:100A800080114FEA5252C2F11802C2F1200C10FA42
:100A90000CF320FA02F018BF40F001004FEAC12326
:100AA0004FEAD32303FA0CFC40EA0C0023FA02F3CA
:100AB0004FEA4303CCE77FEA625307D150EA0133A0
:100AC0001EBF4FF0FE4040F44000704701F0004070
:100AD00040F0FE4040F40000704700BF53B94AB9EF
:100AE000002908BF00281CBF4FF0FF314FF0FF3036
:100AF00000F088B9ADF1080C6DE904CE00F006F8FD
:100B0000DDF804E0DDE9022304B070472DE9F04789
:100B1000089D8E4604468846002B4AD18A421746D5
:100B200062D9B2FA82F64EB1C6F1200301FA06F894
:100B300020FA03F3B74043EA0808B4404FEA174EDF
:100B40001FFA87FCB8FBFEF1230C0EFB118843EA69
:100B5000084301FB0CF29A4209D9FB1801F1FF305E
:100B600080F0EA809A4240F2E78002393B449A1AC8
:100B7000A3B2B2FBFEF00EFB102243EA024300FBDD
:100B80000CFC9C4509D9FB1800F1FF3280F0D6809F
:100B90009C4540F2D3803B44023840EA0140A3EB3D
:100BA0000C0300211DB1F3400022C5E90032BDE86D
:100BB000F0878B4205D90DB1C5E900010021084637
:100BC000F5E7B3FA83F1002946D1734502D3824297
:100BD00000F20581841A6EEB030201209046002D7D
:100BE000E5D0C5E90048E2E7002A00F09080B2FABB
:100BF00082F6002E40F0A4808A1A030C4FEA174EAA
:100C000080B2BCB20121B2FBFEFC0EFB1C2243EA07
:100C1000024304FB0CF29A4207D9FB180CF1FF388F
:100C200002D29A4200F2E080C4469B1AB3FBFEF265
:100C30000EFB123340EA034302FB04F49C4207D943
:100C4000FB1802F1FF3002D29C4200F2CA80024639
:100C50001B1B42EA0C40A5E7C1F120068B4022FA9B
:100C600006F71F430EFA01F420FA06F32EFA06FEE9
:100C70004FEA1749234300FA01F81FFA87FCBEFB2D
:100C8000F9F01C0C09FB10EE44EA0E4400FB0CFECC
:100C9000A64502FA01F209D93C1900F1FF3A80F0A9
:100CA0009C80A64540F2998002383C44A4EB0E0497
:100CB0001FFA83FEB4FBF9F309FB13444EEA044424
:100CC00003FB0CFCA44508D93C1903F1FF3E80F05E
:100CD0008280A4457FD9023B3C4443EA0040A4EB18
:100CE0000C04A0FB02EC64457346E14662D35FD07E
:100CF0005DB1B8EB030264EB090404FA06F622FACC
:100D000001F31E43CC40C5E9006400214FE7B1FB6D
:100D1000F2FC010C41EA0E4180B240EA01423B463E
:100D200038463C46B846BE462026B1FBF7F1A2EB5A
:100D3000080241EA0C4166E7014618E710462CE735
:100D4000C6F120022EFA02F3B740B14020FA02F2B7
:100D50004FEA174E0A43B3FBFEF8BCB20EFB183342
:100D6000110C41EA034108FB04F9B04089454FEA00
:100D7000104380B23ED9791808F1FF3C01D2894571
:100D80001FD8A1EB0901B1FBFEF909FB04F80EFB2A
:100D9000191192B242EA0142424529D2BA1809F128
:100DA000FF31C4D24245C2D2A9F102013A44BEE7A2
:100DB000F0459DD2BEEB02036CEB070C0138E14617
:100DC00096E7A7EB09094944A8F1020CB1FBFEF92B
:100DD00009FB04F8DBE773467FE7504666E7084601
:100DE000FDE63B44023A33E7ACF1020C3B441CE71E
:100DF00049469CE7A1EB0901C446B1FBFEF909FB9A
:100E000004F8C4E7704700BF034613F8012B002A1B
:100E1000FBD1181A013870470000000000000000E4
:100E200001F0FF01102A2BDB10F0070F08D010F89B
:100E3000013B013A8B422DD010F0070F42B3F6D19F
:100E4000F0B441EA012141EA014122F007047FF0B8
:100E500000070023F0E80256083C85EA010586EA0F
:100E6000010685FA47F5A3FA87F586FA47F6A5FA4B
:100E700087F68EB9EED1F0BC01F0FF0102F0070257
:100E800032B110F8013B013A83EA010313B1F8D102
:100E90000020704701387047002D06BF35460338E3
:100EA000073815F0010F07D1013015F4807F02BF1C
:100EB000013015F4C03F0130F0BC0138704700BF6D
:100EC0004FEA410C7FEA6C5C02D150EA013C0AD146
:100ED0004FEA430C7FEA6C5C02D152EA033C02D138
:100EE0004FF0000070474FF0010070474FEA410299
:100EF00012F5001215D211D56FF47873B3EB62526C
:100F000012D94FEAC12343F0004343EA505311F092
:100F1000004F23FA02F018BF404270474FF0000024
:100F2000704750EA013005D111F0004008BF6FF062
:100F3000004070474FF00000704700BF4A0011D2D8
:100F400012F5001211D20DD56FF47873B3EB625223
:100F50000ED44FEAC12343F0004343EA505323FA2F
:100F600002F070474FF00000704750EA013002D1A4
:100F70004FF0FF3070474FF00000704738B5002247
:100F8000002304460D46FFF731FD28B920462946C7
:100F9000BDE8384000F00AB8204605F1004100F0F5
:100FA00005F8404261EB410138BD00BFD0B50C4BA4
:100FB000002206460F46FFF7A7FAFFF7BFFF0446D9
:100FC000FFF728FA074B0022FFF79EFA02460B466E
:100FD00030463946FFF7E0F8FFF7B0FF2146D0BDB5
:100FE0000000F03D0000F04100B583B00B46BDEEBF
:100FF000C07AF8EEC77A30EE670A002204E0F2EE1B
:10100000047A20EE270A01329A42F8DBFDEEC07A1C
:1010100017EE902A002A08DB009217EE102A0449E6
:1010200007F04CF903B05DF804FB5242F4E700BF4F
:101030006801010870B51C4DB5F90000FFF7FAF919
:1010400000221A4BFFF78AFBFFF7F8FC00EE100AAC
:10105000174E02213046FFF7C7FF164C22460021EB
:10106000412000F06DFA22461021202000F068FA9D
:1010700022462021302000F063FA0F4A0021084662
:1010800000F05EFA32460021412000F059FA00F0EB
:10109000A1F901222946094801F036FC4FF4FA7003
:1010A00005F0BCFBC7E700BFE00600200000594088
:1010B000E40600200000002070010108240C00203C
:1010C00008B5E8E0824B00221A70824C94ED000AC9
:1010D000B0EEC00A00F03EFB7F4B18807F4B93EDD3
:1010E000000AB0EEC00A00F035FB7D4B1880266880
:1010F0003046FFF7B1F904460D466FA3D3E900234C
:10110000FFF792FC002847D16DA3D3E900232046C6
:101110002946FFF76BFCC0B107EE906AF0EEE77A64
:1011200017EE900AFFF798F967A3D3E90023FFF7BA
:1011300053FC002856D100224FF40071694802F098
:101140007DF90021684803F085F9644B1E6830463C
:10115000FFF782F904460D4657A3D3E90023FFF7B2
:1011600063FC002856D007EE906AF0EEE77A17EE9F
:10117000900AFFF771F954A3D3E90023FFF72CFC81
:1011800000283BD101228021564802F057F9002166
:10119000564803F05FF988E001224FF4007151488E
:1011A00002F04CF94B4BD3ED007AF0EEE77A17EEF4
:1011B000900AFFF751F944A3D3E90023FFF70CFC91
:1011C00020B90021484803F045F9BEE7642005F046
:1011D00025FB404B00221A60C8220021444807F03A
:1011E00000F9EEE7642005F019FB3A4B00221A6083
:1011F000C82200213E4807F0F4F89CE7642005F07F
:101200000DFB364B00221A60C8220021384807F037
:10121000E8F8B7E72AA3D3E9002320462946FFF7D9
:10122000E5FB002841D007EE906AF0EEE77A17EE72
:10123000900AFFF711F924A3D3E90023FFF7CCFBB1
:1012400048B900228021274802F0F8F800212748F9
:1012500003F000F929E0642005F0E0FA1F4B0022BA
:101260001A60C8220021224807F0BBF8E9E7214CA8
:1012700001220421204602F0E1F8C82005F0CEFA50
:1012800000220421204602F0D9F81B4B00221A70DC
:101290000A2005F0C3FA01220421164802F0CEF814
:1012A0000B4B1B78002B7FF40DAF134B1B78002BDF
:1012B000DDD1EDE7AFF300809A9999999999A93F0B
:1012C0009A9999999999A9BFB81E85EB51B8AE3FE3
:1012D000EA060020F0060020F6060020EC060020BA
:1012E000F4060020000802401C0D0020F40D002030
:1012F000FC0A0020000C0240E906002000B585B081
:101300000F4B1868FFF7A8F804460D460D4B1E78E2
:101310000D4BB3F9003003930C4BB3F9003002933B
:101320000B4B1868FFF798F8CDE9000122462B46D1
:101330003146084806F0A4FE6D2005F06FFADFE79D
:10134000F0060020E9060020F4060020F606002042
:10135000EC0600207C01010838B5044639B10122B1
:101360004FF400611A4802F069F8002516E00022E7
:101370004FF40061164802F061F8F6E700224FF4DE
:101380000051134802F05AF801224FF480411048EE
:1013900002F054F86400E4B20135EDB2072D0FD825
:1013A00000224FF480410A4802F048F814F0800F00
:1013B000E4D001224FF40051054802F03FF8E3E782
:1013C00001224FF40061024802F038F838BD00BF36
:1013D000000C024038B500250DE0104B03EBC403B0
:1013E0000121585DFFF7B8FF0134E4B214F0800F1B
:1013F000F3D00135EDB2072D0FD8A5F15000002133
:10140000C0B2FFF7A9FF00210846FFF7A5FF0021A2
:101410001020FFF7A1FF0024E8E738BDF806002000
:1014200008B500200BE0094A02EBC3020021115469
:101430000133DBB213F0800FF5D00130C0B20728C2
:1014400001D80023F6E7FFF7C5FF08BDF806002026
:1014500010F0800F20D13F291ED8CB08C3F107031D
:10146000DBB201F00701C1F107014FF0010C0CFAEA
:1014700001F15FFA81FC3AB1084A02EBC002D15C8B
:1014800041EA0C01D1547047044A02EBC002D05C1F
:10149000C94349B20140D154704700BFF80600204B
:1014A0002DE9F04F83B0804689461F469DF830B045
:1014B000203AD3B201930C464FF0000A2DE0019B75
:1014C00003EB43021C4B03EB820313F80A502EE09C
:1014D000BBFA8BF2520921464046FFF7B9FF6D0077
:1014E000EDB20134E4B2A4EB0903BB420CD00136E7
:1014F000F6B2072E0DD815F0800FE9D05A462146D6
:101500004046FFF7A5FFEAE708F101085FFA88F80F
:101510004C460AF1010A5FFA8AFABA4509D20C2F41
:10152000CDD0064B019A03EB021313F80A500026A4
:10153000DFE703B0BDE8F08FF407010804020108FB
:1015400070B582B004460D4616460CE03A2D12D80E
:10155000012300930C2316F8012B29462046FFF7A0
:101560009FFF0834E4B2337853B17A2CEED91035AA
:10157000EDB20024EAE7FFF753FF00252C46E7E72A
:1015800002B070BD10B53A4C00224FF48051204695
:1015900001F054FF01224FF48051204601F04EFF2C
:1015A0000021AE20FFF7D8FE0021D520FFF7D4FEA2
:1015B00000215020FFF7D0FE0021A820FFF7CCFE2D
:1015C00000213F20FFF7C8FE0021D320FFF7C4FE13
:1015D00000210846FFF7C0FE00214020FFF7BCFEB7
:1015E00000218D20FFF7B8FE00211420FFF7B4FE84
:1015F00000212020FFF7B0FE00210220FFF7ACFE03
:101600000021A120FFF7A8FE0021C020FFF7A4FEC3
:101610000021DA20FFF7A0FE00211220FFF79CFE38
:1016200000218120FFF798FE0021EF20FFF794FEB4
:101630000021D920FFF790FE0021F120FFF78CFE5A
:101640000021DB20FFF788FE00213020FFF784FE19
:101650000021A420FFF780FE0021A620FFF77CFEDA
:101660000021AF20FFF778FEFFF7DAFE10BD00BFC4
:10167000000C024008B5054B1860054B18680023A4
:1016800002221946806806F05FFD08BDF80A0020B6
:101690008C010020022801D80120704708B506F00F
:1016A0003BFF09230360002008BD000010B501388E
:1016B00001280AD814464FF0FF3392B20748006859
:1016C00003F0CBF940B9204610BD06F025FF0923F1
:1016D00003604FF0FF30F7E70520F5E7F80A002038
:1016E000022801D80020704708B506F015FF09232D
:1016F00003604FF0FF3008BD08B506F00DFF092369
:1017000003604FF0FF3008BD08B548B94FF0FF3314
:1017100001220848006803F006FA40B9012008BD1C
:1017200006F0FAFE092303604FF0FF30F7E70520CB
:10173000F5E700BFF80A002008B5022804D84FF4E6
:1017400000534B60002008BD06F0E6FE092303604D
:10175000F8E700009FED087AC0EE077A9FED077A60
:1017600067EE877A9FED067A67EE877AFCEEE77A76
:1017700017EE903A98B270470000B4430000484317
:101780000000004230B587B000231A4603E021294B
:1017900009D00133DBB2C72B1DD8C15C3D29F6D17E
:1017A0005A1CD2B2F3E7013BDBB2815C2D2914D085
:1017B00000240021934214D3122912D8855C85B1EC
:1017C00001F1010C1831694401F8145C0132D2B204
:1017D0005FFA8CF1EEE70023E7E70132D2B2012491
:1017E000E7E701F118036B44002103F8141C01A87A
:1017F00006F020FB0CB907B030BDB1EE400AFAE7A5
:1018000038B505460C460846FFF7BCFF012D00D051
:1018100038BD2378412B12D02378532BF8D163782D
:10182000482BF5D1A3784F2BF2D1E3784F2BEFD192
:101830002379542BECD10D4B01221A70E8E7637821
:10184000472BE9D10A4B01221A700A4B0A4A0B496D
:10185000204606F055FD022803D1054B01221A70DF
:10186000DAE7074806F068FCD6E700BFE906002083
:10187000EA060020EC060020F0060020980101088E
:10188000A401010800B585B00023009301930293E1
:1018900003931548154A02604FF48032426083601A
:1018A00001220261027680F82030C3621049816211
:1018B000C360C26180F83020426100F0F9FF68B96E
:1018C00008230093012301930023029369460648ED
:1018D00001F02AF928B905B05DF804FB00F0DEF943
:1018E000EEE700F0DBF9F6E7240C002000200140D1
:1018F0000100000F30B589B00023039304930593D2
:1019000006930793026803F1804303F590339A42EC
:1019100001D009B030BD04460025019503F58C3394
:101920005A6C42F480725A645A6C02F480720192CA
:10193000019A02951A6B42F002021A631B6B03F0C4
:1019400002030293029B012303930323049303A93D
:101950000F4801F07DFC0F480F4B03604560856028
:10196000C5604FF4806303614FF4006343614FF43B
:1019700000538361C5610562456201F083FA18B9BD
:10198000044BA3639C63C4E700F088F9F8E700BF49
:1019900000040240C40B00201064024010B582B065
:1019A00000240094164B1A6B42F400121A631A6B4F
:1019B00002F400120092009A01941A6B42F4800221
:1019C0001A631B6B03F480030193019B22460521DC
:1019D0000C2001F0C7F90C2001F0D4F922460521B2
:1019E000102001F0BFF9102001F0CCF922460521AA
:1019F000382001F0B7F9382001F0C4F902B010BD69
:101A00000038024008B5012003F0CFFCFBE70000DE
:101A100010B582B0134A0021134803F06BFC134B3E
:101A20001860134B0193172400940023802211495E
:101A3000114804F054FD114B0193009400234FF41E
:101A400080720F490F4804F04AFD0F4B0193182391
:101A5000009300234FF480720C490D4804F03FFDC1
:101A600002B010BD680C0108051A00086C0C0020BB
:101A7000780C0020B8010108FD120008740C002049
:101A8000C401010835100008700C0020D0010108C5
:101A9000C11000082DE9F0418CB00024079408948F
:101AA00009940A940B9401944D4B1A6B42F08002F6
:101AB0001A631A6B02F080020192019A02941A6B67
:101AC00042F001021A631A6B02F001020292029ABA
:101AD00003941A6B42F002021A631A6B02F00202BC
:101AE0000392039A04941A6B42F010021A631A6B61
:101AF00002F010020492049A05941A6B42F0080254
:101B00001A631A6B02F008020592059A06941A6B82
:101B100042F004021A631B6B03F004030693069B56
:101B2000DFF8C88001224FF40041404601F086FCF6
:101B30002C4F224647F60401384601F07FFC2A4E1E
:101B400022464FF42861304601F078FC01224FF420
:101B50008071304601F072FC4FF400430793012579
:101B6000089509950A9407A9404601F071FB4FF4C6
:101B7000F0430793089509940A9407A9384601F0A1
:101B800067FB4FF4C0730793089509950A9407A95A
:101B9000304601F05DFB4FF40073079308950994FC
:101BA0000A9407A9304601F053FB4FF400630793F2
:101BB00008954FF00208CDF824800A9407A9304612
:101BC00001F046FB042307930895CDF824800A947E
:101BD00007A9384601F03CFB0CB0BDE8F08100BF1E
:101BE00000380240000C024000080240000402409D
:101BF00008B50B480B4B03600B4B4360002383601D
:101C0000C3604FF48042026143618361C361036238
:101C100001F024FC00B908BD00F040F8FBE700BF6C
:101C20007C0C002000580040801A060030B589B0B6
:101C30000023039304930593069307930268144BC0
:101C40009A4201D009B030BD00250195114C236B9B
:101C500043F002032363236B03F002030193019B10
:101C60004FF4406303931223049303230693042346
:101C7000079303A9084801F0EBFA0295236C43F49B
:101C800080032364236C03F480030293029BD9E74F
:101C900000580040003802400004024072B6FEE7DF
:101CA00000B595B03022002108A806F09AFB002369
:101CB000039304930593069307930193204A116CB1
:101CC00041F080511164126C02F080520192019A2D
:101CD00002931C4B1A6842F480421A601B6803F49A
:101CE00080430293029B012308934FF480330993AE
:101CF00002220E924FF480030F9304231093A82125
:101D000011911292139308A801F086FC98B90F2341
:101D1000039302230493002305934FF4A0530693E7
:101D20004FF480530793052103A801F0DFFE20B98B
:101D300015B05DF804FBFFF7B1FFFFF7AFFF00BF81
:101D4000003802400070004008B500F0F7FCFFF7D3
:101D5000A7FFFFF79FFEFFF721FE00F0A1FA00F0BA
:101D6000F9FA00F0B3FB00F035F900F095FBFFF74E
:101D70003FFF00F0C5FBFFF785FD00F053F900F0D1
:101D800041FB05F00BFA03F087FAFFF741FE03F081
:101D900095FAFEE700B583B0002200920D4B596C16
:101DA00041F480415964596C01F4804100910099DB
:101DB0000192196C41F0805119641B6C03F080533F
:101DC0000193019B0F216FF0010000F0CBFF03B0E6
:101DD0005DF804FB0038024030B589B004460023AA
:101DE0000193214B1A6C42F020021A641B6C03F021
:101DF00020030193019B02A903A801F04DFF069B5C
:101E0000CBB901F029FF0346184AA2FB03239B0C20
:101E1000013B1748174A026040F2E732C260436054
:101E2000002303618360836102F07AF9054630B1D3
:101E3000284609B030BD01F00FFF4300E4E70C482D
:101E400002F010F805460028F2D1372000F09AFF82
:101E50000F2C01D90125EBE700222146372000F0A5
:101E600081FF054B1C60E3E70038024083DE1B4323
:101E7000D00C0020001400400C000020FEE7FEE71C
:101E8000FEE7FEE7FEE7704708B5024801F0F2F80A
:101E900008BD00BF840E002008B5024801F0EAF832
:101EA00008BD00BFE40E002008B5024802F021F88A
:101EB00008BD00BFF40D002008B5024802F096FFEF
:101EC00008BD00BF8C0F002010B5044C204602F066
:101ED0008DFF204605F0D6F810BD00BF440F00204E
:101EE00008B5034802F005F8024802F002F808BD00
:101EF000640D00201C0D002008B5024801F0F9FF18
:101F000008BD00BF640D002008B5024801F0F1FFD4
:101F100008BD00BF640D002008B5024801F0E9FFCC
:101F200008BD00BF640D002008B5024801F0E1FFC4
:101F300008BD00BFAC0D002008B5024801F0D9FF74
:101F400008BD00BFD00C002008B5024801F092F88F
:101F500008BD00BFC40B00200120704708B506F083
:101F6000DBFA162303604FF0FF3008BD08B54FF0D1
:101F7000FF31FFF7F3FFFEE710B503460C4A0D49AA
:101F80000D48006840B10C4800680344521A93425F
:101F900006D8094A136010BD0748084C0460F2E7F0
:101FA00006F0BAFA0C2303604FF0FF30F3E700BFEE
:101FB0000000022000040000180D0020485E0020F0
:101FC000034AD2F8883043F47003C2F8883070476F
:101FD00000ED00E000B583B00023009301930F48AB
:101FE0000F4A0260A7224260836040F2E733C36079
:101FF0008023836102F094F850B900230093019389
:102000006946064802F04EFB28B903B05DF804FBB0
:10201000FFF744FEF1E7FFF741FEF6E7AC0D0020C5
:102020000010004000B587B000230293039304938F
:102030000593009301931548154A0260A722426058
:10204000836040F2E732C26003614361836102F062
:1020500067F890B94FF48053029302A90B4802F03D
:102060006AF968B90023009301936946074802F0B2
:1020700019FB40B907B05DF804FBFFF70FFEE9E775
:10208000FFF70CFEEEE7FFF709FEF3E7640D002013
:10209000000401400268094B9A4200D0704782B0A8
:1020A00000230193064B5A6C42F001025A645B6CA8
:1020B00003F001030193019B02B07047000001404F
:1020C0000038024010B584B003683B4A93420AD0FE
:1020D0003A4A93421BD03A4A93422CD0394A93420F
:1020E00056D004B010BD00220092374B196C41F05D
:1020F000020119641B6C03F002030093009B05218D
:102100001D2000F02FFE1D2000F03CFEE9E700221C
:1021100001922D4B196C41F0100119641B6C03F0F6
:1021200010030193019B0521362000F01BFE362091
:1021300000F028FED5E700240294234B5A6C42F0AD
:1021400002025A645B6C03F002030293029B224674
:1021500005212B2000F006FE2B2000F013FE224666
:1021600005212C2000F0FEFD2C2000F00BFE224665
:1021700005212D2000F0F6FD2D2000F003FE224663
:1021800005212E2000F0EEFD2E2000F0FBFDA8E73B
:10219000002203920C4B196C41F0400119641B6C36
:1021A00003F040030393039B05212B2000F0DAFD8D
:1021B0002B2000F0E7FD94E70004004000100040F1
:1021C00000040140001800400038024000B589B00A
:1021D0000023039304930593069307930368294A06
:1021E000934208D0284A93421DD0284A934230D0C7
:1021F00009B05DF804FB00230093254B1A6B42F0F5
:1022000010021A631B6B03F010030093009B4FF442
:1022100080430393022304930123079303A91D48DA
:1022200001F016F8E4E700230193194B1A6B42F012
:1022300004021A631B6B03F004030193019B402308
:10224000039302230493079303A9134801F000F8B2
:10225000CEE7002302930E4B1A6B42F002021A6380
:102260001B6B03F002030293029B4FF48043039322
:10227000022304930923079303A9084800F0E8FF09
:10228000B6E700BF00000140000400400018004015
:1022900000380240001002400008024000040240E2
:1022A00010B592B000241094119409940A940B94E0
:1022B0000C940D940E940F942022214601A806F050
:1022C00090F82248224B0360446084604FF6FF730D
:1022D000C36004614461846101F04EFF002829D18C
:1022E00000231093119310A9184802F0DBF920BBCA
:1022F0006023099300230A930B930D930E930F937E
:102300000C2209A9114801F09BFFC8B900230193D1
:1023100002930393049305934FF40052069208939B
:1023200001A90A4802F004FA68B90848FFF74EFF0D
:1023300012B010BDFFF7B2FCD2E7FFF7AFFCD7E752
:10234000FFF7ACFCE2E7FFF7A9FCEEE73C0E00204C
:102350000000014000B58FB000230A930B930C934B
:102360000D930893099301930293039304930593A8
:10237000069307932148224A0260A72242608360A5
:1023800040F2F312C2600361836101F0C9FE28BB11
:102390004FF480530A930AA9184801F0CCFF00BB00
:1023A000164801F0E9FEF8B900230893099308A93B
:1023B000124802F077F9D0B960230193F923029310
:1023C00000220392059201A90C4801F039FF88B957
:1023D0000A48FFF7FBFE0FB05DF804FBFFF75EFC59
:1023E000D6E7FFF75BFCDBE7FFF758FCDCE7FFF71E
:1023F00055FCE1E7FFF752FCEAE700BFF40D0020CF
:102400000004004000B58DB00023089309930A939F
:102410000B930193029303930493059306930793FD
:102420001B481C4A0260A7224260836040F2F312FC
:10243000C2600361836101F073FEE8B94FF4805319
:10244000089308A9124801F076FFC0B9104801F0BE
:1024500093FEB8B960230193F923029300220392FB
:10246000059201A90A4801F0EBFE70B90848FFF790
:10247000ADFE0DB05DF804FBFFF710FCDEE7FFF7E3
:102480000DFCE3E7FFF70AFCE4E7FFF707FCEDE7E5
:102490001C0D00200018004008B50A480A4B0360D4
:1024A0004FF4E133436000238360C36003610C2277
:1024B00042618361C36102F0A0FA00B908BDFFF771
:1024C000EDFBFBE7D40F00200010014008B50A48DF
:1024D0000A4B03604FF4E133436000238360C36021
:1024E00003610C2242618361C36102F086FA00B984
:1024F00008BDFFF7D3FBFBE78C0F00200044004032
:1025000008B50A480A4B03604FF4E13343600023E7
:102510008360C36003610C2242618361C36102F086
:102520006CFA00B908BDFFF7B9FBFBE7440F0020C8
:102530000048004030B58DB00023079308930993FD
:102540000A930B9303685E4A934208D004465D4A9F
:10255000934228D05C4A93426BD00DB030BD00212D
:1025600001915A4B5A6C42F010025A645A6C02F0B4
:1025700010020192019A02911A6B42F001021A6351
:102580001B6B03F001030293029B4FF4C06307939C
:102590000223089303230A9307230B9307A94C48AC
:1025A00000F056FED9E700250395484B1A6C42F41B
:1025B00000321A641A6C02F400320392039A0495F2
:1025C0001A6B42F001021A631B6B03F001030493C0
:1025D000049B0C2307930223089303230A930723E6
:1025E0000B9307A93A4800F033FE3A483A4B036090
:1025F0004FF0006343608560C5604FF48063036102
:10260000456185614FF48073C3610562456200F0E6
:1026100039FC58B92F4BE3639C6300220621262026
:1026200000F0A0FB262000F0ADFB96E7FFF736FB9D
:10263000F0E700250595254B1A6C42F480221A64B8
:102640001A6C02F480220592059A06951A6B42F0E4
:1026500008021A631B6B03F008030693069B4FF4F2
:10266000407307930223089303230A9307230B93D2
:1026700007A91A4800F0ECFD19481A4B03604FF007
:10268000006343608560C5604FF48063036145610A
:1026900085614FF48073C3610562456200F0F2FB0F
:1026A00058B90F4BE3639C6300220521272000F0FB
:1026B00059FB272000F066FB4FE7FFF7EFFAF0E742
:1026C0000010014000440040004800400038024033
:1026D00000000240E40E002088600240000C02402E
:1026E000840E002028600240DFF834D0FFF768FC39
:1026F0000C480D490D4A002302E0D458C45004335D
:10270000C4188C42F9D30A4A0A4C002301E0136032
:102710000432A242FBD305F005FFFFF715FB70471B
:102720000000022000000020E00600203C1101080B
:10273000E0060020445E0020FEE7000008B50B4BD9
:102740001A6842F400721A601A6842F480621A60D1
:102750001A6842F480721A60032000F0F1FA0F2028
:10276000FFF73AFBFFF716FB002008BD003C0240D4
:10277000014B1868704700BF1C1000204A4B5A6874
:1027800022F440325A605A6841680A435A6002682B
:10279000536823F48073536002685368016943EA05
:1027A000012353600268536823F04073536002684A
:1027B000536881680B4353600268936823F4006395
:1027C000936002689368C1680B439360826A374BD9
:1027D0009A4257D00268936823F07063936002684E
:1027E0009368816A0B4393600268936823F04053B7
:1027F000936002689368C16A0B43936002689368B0
:1028000023F00203936002689368017E43EA410368
:10281000936090F82030002B3FD00268536843F457
:10282000006353600268536823F460435360016897
:102830004B68426A013A43EA42334B600268D36A0A
:1028400023F47003D3620168CB6AC269013A43EA98
:102850000253CB620268936823F4007393600268AA
:10286000936890F8301043EA4123936002689368BC
:1028700023F48063936002689368416943EA81238B
:10288000936070470268936823F0706393600268F6
:10289000936823F040539360B0E70268536823F4D1
:1028A00000635360CAE700BF002301400100000F2E
:1028B00038B310B50446036C43B1236C13F0100F0A
:1028C0000BD00120002384F83C3010BDFFF712F834
:1028D0000023636484F83C30EFE7236C23F48853CF
:1028E00023F0020343F0020323642046FFF746FF70
:1028F00000206064236C23F0030343F0010323648E
:10290000E0E701207047000010B582B013460022B6
:10291000019290F83C20012A00F0A7800446012291
:1029200080F83C200268906810F0010F13D1906885
:1029300040F0010090604E4A10684E4AA2FB002011
:10294000800C00EB4000019002E0019801380190FA
:1029500001980028F9D12268906810F4807F03D094
:10296000906820F4807090602268906810F0010FE9
:1029700070D0206C20F4E06020F0010040F4807002
:102980002064526812F4806F05D0226C22F4405209
:1029900042F480522264226C12F4805F3BD0626C5D
:1029A00022F006026264002284F83C20A26B3248C6
:1029B000D063A26B31481064A26B3148D0642268A6
:1029C0006FF0220010602068426842F0806242602E
:1029D0002068826842F48072826020680A4600F1B2
:1029E0004C01A06B00F0B4FA264B5B6813F01F0F8C
:1029F00023D12368244A934216D002F58072934271
:102A00000CD0224A93422ED102F58072526812F005
:102A1000100F28D108E000226264C4E702F50072BA
:102A2000526812F01F0FECD19A6812F0405F1AD171
:102A30009A6842F080429A6015E02368124A9342F5
:102A400011D19A6812F0405F0DD19A6842F080422D
:102A50009A6008E0236C43F010032364636C43F036
:102A600001036364002002B010BD0220FBE700BF39
:102A70000800002083DE1B43B72A0008952A0008BF
:102A8000A12A00080023014000200140002201404B
:102A90007047704708B5806BFFF7FBFF08BD7047B4
:102AA00008B5806B40230364436C43F00403436424
:102AB000FFF7F5FF08BD08B50346806B026C12F006
:102AC000500F25D1036C43F40073036403689A68C4
:102AD00012F0405F19D1027EBAB9DA6A12F4700FAF
:102AE00003D09A6812F4806F0FD15A6822F0200246
:102AF0005A60036C23F480730364036C13F4805FE7
:102B000003D1036C43F001030364FFF7C1FF08BD69
:102B1000026C12F0100F04D1826BD26C18469047F1
:102B2000F5E7FFF7BCFFF2E730B482B00022019274
:102B300090F83C20012A00F0B6800346012280F87C
:102B40003C200A68092A40D90468E06892B202EB86
:102B500042021E3A4FF0070C0CFA02F220EA02027F
:102B6000E2601C68E0680A8802EB42021E3A8D6847
:102B700005FA02F20243E2604A68062A3CD81C6861
:102B8000606B02EB8202053A4FF01F0C0CFA02F266
:102B900020EA020262631C68606B4A6802EB8202F0
:102BA000053AB1F800C00CFA02F2024362631868F9
:102BB0003E4A904250D018683C4A904255D000207E
:102BC00083F83C0002B030BC70470468206992B2C0
:102BD00002EB42024FF0070C0CFA02F220EA02026A
:102BE00022611C6820690A8802EB42028D6805FA9E
:102BF00002F202432261BFE70C2A16D81D68286B37
:102C000002EB8202233A1F2404FA02F220EA0202B3
:102C10002A631D68286B4A6802EB8202233A0C88FB
:102C200004FA02F202432A63C1E71D68E86A02EB74
:102C30008202413A1F2404FA02F220EA0202EA6206
:102C40001D68E86A4A6802EB8202413A0C8804FA7D
:102C500002F20243EA62AAE70A68122AABD11448D8
:102C6000426842F480024260A5E70A68103A012AED
:102C7000A5D80F48426842F4000242600A68102A50
:102C80009DD10C4A12680C49A1FB0212920C02EB76
:102C900082025200019202E0019A013A0192019AE5
:102CA000002AF9D18BE702208CE700BF0020014009
:102CB000002301400800002083DE1B43002807DBBF
:102CC00000F01F02400901239340024A42F82030DD
:102CD000704700BF00E100E0002808DB0901C9B22D
:102CE00000F1604000F5614080F80013704700F08B
:102CF0000F000901C9B2014B1954704714ED00E0EF
:102D000000B500F00700C0F1070CBCF1040F28BFAC
:102D10004FF0040C031D062B0FD9C31E4FF0FF3ECE
:102D20000EFA0CF021EA000199400EFA03FE22EAA5
:102D30000E0241EA02005DF804FB0023EEE700000A
:102D4000074AD36823F4E0631B041B0C000200F461
:102D5000E060034343F0BF6343F40033D360704744
:102D600000ED00E010B50446054BD868C0F3022022
:102D7000FFF7C6FF01462046FFF7AEFF10BD00BFBC
:102D800000ED00E008B5FFF799FF08BD30B4056815
:102D90002C6824F480242C60046863608368402BD2
:102DA00005D0036899600368DA6030BC7047036837
:102DB0009A600368D960F8E710B40368D9B2103993
:102DC0000A4AA2FB01421209094CA25CC2655F29B2
:102DD00007D96FF3090304338365806D5DF8044BF5
:102DE00070476FF309038365F7E700BFABAAAAAA90
:102DF000A40C0108836A826992B9012B0AD0022BC4
:102E000002D00BB100207047C36A13F0807F28D135
:102E100000207047C36AB3F1C07F24D00020704700
:102E2000B2F5005F09D0022B25D9032B25D1C36A47
:102E300013F0807F23D100207047032B03D8DFE8F5
:102E400003F01404140A00207047C36A13F0807F53
:102E50000DD100207047C36AB3F1C07F09D00020B4
:102E60007047012070470120704701207047012002
:102E700070470120704701207047002070470120F3
:102E80007047000070B50446FFF772FC002C5BD061
:102E90000546022384F83530002384F83430226854
:102EA000136823F00103136023681A6812F0010FFE
:102EB0000AD0FFF75DFC431B052BF5D92023636582
:102EC000032084F8350070BD1A68204911406268FB
:102ED000A0680243E068024320690243606902433C
:102EE000A0690243E0690243206A02430A43616A1F
:102EF00004291ED01A602668756925F00705636AE3
:102F00001D43042B07D1A36A1D43E36A1BB120466E
:102F1000FFF770FF90B975612046FFF74DFFE26D36
:102F20003F239340836000206065012384F835309F
:102F3000C9E7E16A206B01430A43DBE7402363658D
:102F4000012084F83500BEE70120BCE73F8010F087
:102F500038B50446856D90F8340001282BD0012047
:102F600084F8340094F83500C0B2012804D000235E
:102F700084F83430022038BD022084F83500002067
:102F800060652046FFF702FFE26D3F239340AB6090
:102F90002268136843F016031360236C23B1226880
:102FA000136843F0080313602268136843F00103B9
:102FB00013600020DFE70220DDE770B50446866D70
:102FC000FFF7D6FB94F83530DBB2022B06D0802316
:102FD0006365002384F83430012070BD0546226803
:102FE000136823F0160313602268536923F08003EB
:102FF0005361236CE3B12268136823F00803136064
:103000002268136823F00103136023681B6813F020
:10301000010F11D0FFF7ACFB431B052BF5D9202383
:103020006365032084F83500002384F83430D4E746
:10303000A36C002BDFD1E3E7E26D3F239340B36045
:10304000012384F83530002084F83400C5E790F877
:103050003530DBB2022B03D080234365012070475B
:10306000052380F835300268136823F001031360EC
:1030700000207047F0B583B0044600230193724BE3
:103080001D68724BA3FB0535AD0A876D3E68C26DA6
:1030900008239340334210D003681A6812F0040FDB
:1030A0000BD01A6822F004021A60C26D0823934004
:1030B000BB60436D43F001034365E26D0123934020
:1030C000334209D02268526912F0800F04D0BB60ED
:1030D000636D43F002036365E26D04239340334262
:1030E00009D02268126812F0020F04D0BB60636D31
:1030F00043F004036365E26D10239340334224D010
:103100002268126812F0080F1FD0BB6023681A688B
:1031100012F4802F0DD01B6813F4002F04D1236C00
:103120009BB12046984710E0A36C73B120469847A6
:103130000BE01A6812F4807F03D11A6822F00802AB
:103140001A60236C0BB120469847E26D2023934010
:10315000334255D02268126812F0100F50D0BB6075
:1031600094F83530DBB2052B0ED023681A6812F4C0
:10317000802F33D01B6813F4002F2AD1636C002BEF
:103180003ED0204698473BE02268136823F01603A0
:1031900013602268536923F080035361236CA3B149
:1031A0002268136823F008031360E26D3F23934005
:1031B000BB60012384F83530002384F83430236D5C
:1031C000002B3FD0204698473CE0A36C002BE7D172
:1031D000EBE7E36BA3B12046984711E01A6812F4BD
:1031E000807F09D11A6822F010021A60012384F846
:1031F0003530002384F83430E36B0BB12046984718
:10320000636DFBB1636D13F0010F17D0052384F8D4
:1032100035302268136823F001031360019B0133EA
:103220000193AB4204D823681B6813F0010FF5D15A
:10323000012384F83530002384F83430E36C0BB17B
:103240002046984703B0F0BD08000020B5814E1B12
:1032500000230F2B00F2E98070B582B065E085682D
:103260004FEA430E032404FA0EF425EA0405CC6861
:1032700004FA0EF42C438460446824EA02044A6889
:10328000C2F300129A40224342605CE0DC0808343A
:1032900050F8242003F00705AD004FF00F0E0EFA92
:1032A00005FE22EA0E0E0A69AA4042EA0E0240F822
:1032B00024205CE0072200E0002202FA0EF22A43FA
:1032C00002345A4D45F82420594A94686FEA0C029A
:1032D00024EA0C054E6816F4801F01D04CEA040560
:1032E000534CA560E46802EA04054E6816F4001F1A
:1032F00001D04CEA04054E4CE560646802EA04051E
:103300004E6816F4003F01D04CEA0405484C656055
:10331000246822404D6815F4803F01D04CEA040235
:10332000434C226001330F2B7DD801229A400C6858
:1033300004EA020C32EA0404F4D14C6804F00304F9
:10334000013C012C8BD94A6802F00302032A09D000
:10335000C4685D000322AA4024EA02048A68AA40E5
:103360002243C2604A6802F00302022A8ED0046837
:103370004FEA430E032202FA0EF224EA02044A68DC
:1033800002F0030202FA0EF2224302604A6812F4CB
:10339000403FC7D000220192264A546C44F4804436
:1033A0005464526C02F480420192019A9C08A51C5C
:1033B0001E4A52F8255003F0030E4FEA8E0E0F22DC
:1033C00002FA0EF225EA02051B4A90423FF474AF5E
:1033D00002F5806290421AD002F58062904218D0C5
:1033E00002F58062904216D002F58062904214D0BD
:1033F00002F58062904212D002F58062904210D0B5
:1034000002F5806290423FF455AF082255E7012251
:1034100053E7022251E703224FE704224DE705223A
:103420004BE7062249E702B070BD70470038014003
:10343000003C014000380240000002400AB18161B6
:103440007047090481617047436901EA030221EA78
:10345000030141EA0241816170470000002800F049
:10346000CC8070B5044690F83D30002B77D02423F3
:1034700084F83D302268136823F00103136022684A
:10348000136843F4004313602268136823F4004375
:10349000136000F0E1FB62685A4B9A4264D85A4BC1
:1034A00098428CBF00230123002B40F0A88057498D
:1034B000A1FB00318B0C25686A6822F03F0242EACA
:1034C00091426A6021680A6A22F03F0266684D4DA7
:1034D000AE424FD8013313430B622168CA6922F40C
:1034E0004F4222F0FF026568464B9D424CD8431E76
:1034F0006D00B3FBF5F3013340F6FC70034278D066
:10350000C3F30B031A43CA6121680B6823F0C0039D
:10351000E269206A024313430B6021688B6823F43D
:10352000034323F0FF032269E068024313438B60E7
:103530002168CB6823F0FF036269A069024313434B
:10354000CB602268136843F00103136000202064FD
:10355000202384F83D30206384F83E0070BD80F85D
:103560003C30FEF763FB82E7294B98428CBF002377
:10357000012399E74FF4967505FB03F3254DA5FB51
:1035800003539B090133A6E7A668BEB9431E05EBAA
:10359000450CB3FBFCF30133C3F30B03B3FA83F322
:1035A0005B0943BBC6B9431E05EB4505B3FBF5F309
:1035B0000133C3F30B0343F40043A3E7431E05EBBE
:1035C000850C0CEB8C0CB3FBFCF30133C3F30B0346
:1035D000B3FA83F35B09E4E7431E05EB850505EBCE
:1035E0008505B3FBF5F30133C3F30B0343F4404309
:1035F00088E7042386E7012384E701207047012040
:10360000ACE700BFA08601007F841E0083DE1B4361
:10361000FF083D00D34D6210002800F0E08170B536
:1036200082B00446036813F0010F3BD09F4B9B68A8
:1036300003F00C03042B2CD09C4B9B6803F00C0371
:10364000082B21D06368B3F5803F4FD0B3F5A02F8E
:1036500052D0964B1A6822F480321A601A6822F40B
:1036600080221A606368002B50D0FFF781F805466E
:103670008E4B1B6813F4003F14D1FFF779F8401B01
:103680006428F5D90320B1E1884B5B6813F4800FFF
:10369000D8D0864B1B6813F4003F03D06368002B1F
:1036A00000F09F81236813F0020F54D07F4B9B687A
:1036B00013F00C0F3ED07D4B9B6803F00C03082BDE
:1036C00033D0E368002B68D0794B01221A60FFF7F2
:1036D0004FF80546754B1B6813F0020F54D1FFF7E6
:1036E00047F8401B0228F5D903207FE16F4A136891
:1036F00043F480331360B5E76C4B1A6842F48022C0
:103700001A601A6842F480321A60ABE7FFF730F8AB
:103710000546664B1B6813F4003FC3D0FFF728F83B
:10372000401B6428F5D9032060E1604B5B6813F40B
:10373000800FC6D15D4B1B6813F0020F03D0E36806
:10374000012B40F05081594A136823F0F803216996
:1037500043EAC1031360236813F0080F42D0636982
:103760006BB3534B0122C3F8802EFFF701F80546D7
:103770004E4B5B6F13F0020F34D1FEF7F9FF401B85
:103780000228F5D9032031E1484A136823F0F803F1
:10379000216943EAC1031360DDE7454B00221A604B
:1037A000FEF7E6FF0546414B1B6813F0020FD2D02F
:1037B000FEF7DEFF401B0228F5D9032016E13C4B43
:1037C0000022C3F8802EFEF7D3FF0546374B5B6F10
:1037D00013F0020F06D0FEF7CBFF401B0228F5D9ED
:1037E000032003E1236813F0040F77D02F4B1B6CE9
:1037F00013F0805F33D1002301932C4B1A6C42F0FD
:1038000080521A641B6C03F080530193019B0125C5
:10381000284B1B6813F4807F23D0A368012B34D07E
:10382000052B38D0214B1A6F22F001021A671A6F4C
:1038300022F004021A67A368002B3DD0FEF798FF20
:1038400006461A4B1B6F13F0020F46D1FEF790FF8E
:10385000801B41F288339842F3D90320C6E000254B
:10386000D6E7144A136843F480731360FEF780FFB1
:103870000646104B1B6813F4807FCED1FEF778FF0D
:10388000801B0228F5D90320B0E0084A136F43F0EB
:1038900001031367CFE7054B1A6F42F004021A6762
:1038A0001A6F42F001021A67C5E700BF00380240F4
:1038B0000000474200700040FEF75AFF0646524B98
:1038C0001B6F13F0020F08D0FEF752FF801B41F26E
:1038D00088339842F3D9032088E0EDB9A369002B1F
:1038E00000F08380484A926802F00C02082A51D006
:1038F000022B17D0454B00221A66FEF739FF04460B
:10390000414B1B6813F0007F42D0FEF731FF001BD4
:103910000228F5D9032069E03B4A136C23F0805359
:103920001364DBE7394B00221A66FEF721FF0546D8
:10393000354B1B6813F0007F06D0FEF719FF401BC4
:103940000228F5D9032051E0E369226A1343626A31
:1039500043EA8213A26A5208013A43EA0243E26A46
:1039600043EA0263284A5360284B01221A66FEF795
:10397000FFFE0446244B1B6813F0007F06D1FEF7C0
:10398000F7FE001B0228F5D903202FE000202DE0D0
:1039900000202BE0012B2BD01B4B5B6803F4800134
:1039A000E269914226D103F03F02216A8A4223D183
:1039B000616A47F6C0721A40B2EB811F1ED103F450
:1039C0004031A26A5208013AB1EB024F18D103F01C
:1039D0007063E26AB3EB026F14D1002006E00120AD
:1039E0007047012002E0012000E0002002B070BD1D
:1039F0000120FBE70120F9E70120F7E70120F5E7C7
:103A00000120F3E70120F1E70038024000004742BF
:103A100008B5334B9B6803F00C03042B5BD0082BD9
:103A20005BD12F4B5A6802F03F025B6813F4800FA2
:103A30002CD02B4B5868C0F388104FEA401CBCEBCD
:103A4000000C6EEB0E0E4FEA8E1343EA9C634FEAB6
:103A50008C11B1EB0C0163EB0E03DB0043EA5173F5
:103A6000C90011EB000C43F10003590200234FEA97
:103A70004C2041EADC51FDF731F8194B5B68C3F388
:103A8000014301335B00B0FBF3F008BD144B5868F1
:103A9000C0F388104FEA401CBCEB000C6EEB0E0E1E
:103AA0004FEA8E1343EA9C634FEA8C11B1EB0C0191
:103AB00063EB0E03DB0043EA5173C90011EB000C0A
:103AC00043F10003990200234FEA8C2041EA9C5104
:103AD000FDF704F8D1E70348D7E70348D5E700BF6F
:103AE0000038024000127A000024F400002800F0A0
:103AF0009B8070B50D4604464F4B1B6803F00703CF
:103B00008B4208D2CBB24C4A1370136803F0070300
:103B10008B4240F08B80236813F0020F17D013F014
:103B2000040F04D0454A936843F4E053936023683C
:103B300013F0080F04D0414A936843F46043936044
:103B40003E4A936823F0F003A1680B439360236817
:103B500013F0010F32D06368012B21D09A1E012A85
:103B600025D9364A126812F0020F61D033498A68AB
:103B700022F0030213438B60FEF7FAFD06462F4B3B
:103B80009B6803F00C036268B3EB820F16D0FEF75C
:103B9000EFFD801B41F288339842F0D9032042E0C8
:103BA000264A126812F4003FE0D101203BE0234A8C
:103BB000126812F0007FD9D1012034E01E4B1B683F
:103BC00003F00703AB4207D9EAB21B4B1A701B681C
:103BD00003F00703AB422DD1236813F0040F06D086
:103BE000164A936823F4E053E1680B43936023681B
:103BF00013F0080F07D0114A936823F4604321693A
:103C000043EAC1039360FFF703FF0C4B9B68C3F3C8
:103C100003130B4AD35CD8400A4B18600A4B186850
:103C2000FEF7DAF8002070BD012070470120FAE7A6
:103C30000120F8E70120F6E7003C0240003802408E
:103C4000940C0108080000200C000020014B1868AB
:103C5000704700BF0800002008B5FFF7F7FF044BCE
:103C60009B68C3F38223034AD35CD84008BD00BFDE
:103C7000003802408C0C010808B5FFF7E7FF044B41
:103C80009B68C3F34233034AD35CD84008BD00BFEE
:103C9000003802408C0C01080F2303600B4B9A681C
:103CA00002F0030242609A6802F0F00282609A68B1
:103CB00002F4E052C2609B68DB0803F4E053036146
:103CC000034B1B6803F007030B607047003802408A
:103CD000003C024030B4036A026A22F00102026230
:103CE0004268846924F0730C0C6844EA0C0423F0E5
:103CF000020C8B6843EA0C03114DA84203D005F572
:103D00008065A84205D123F00803CD682B4323F03A
:103D100004030B4DA84203D005F58065A84207D1E6
:103D200022F440724D6945EA020C8A6942EA0C02AB
:103D3000426084614A684263036230BC704700BFDE
:103D40000000014030B4036A026A22F48072026209
:103D50004268C46924F0730C0C6844EA0C0523F42F
:103D600000738C6843EA0423114CA04203D004F58D
:103D70008064A04206D123F40063CC6843EA0423A4
:103D800023F480630A4CA04203D004F58064A0426F
:103D900007D122F440524C6942EA04128C6942EA8B
:103DA00004124260C5614A68C263036230BC704756
:103DB0000000014030B4036A026A22F480520262B9
:103DC0004468C26922F4E6420D6842EA052223F4FF
:103DD00000538D6843EA0533094DA84203D005F529
:103DE0008065A84204D124F480444D6944EA8514D6
:103DF0004460C2614A680264036230BC704700BF1D
:103E00000000014010B4036A046A24F00104046253
:103E1000846924F0F00C4CEA021223F00A030B43ED
:103E2000826103625DF8044B704710B4036A046A50
:103E300024F010040462846924F4704C4CEA0232C9
:103E400023F0A00343EA0113826103625DF8044B8F
:103E50007047836823F070030B4343F007038360CC
:103E60007047000090F83D30DBB2012B37D10223C0
:103E700080F83D300268D36843F00103D3600368E3
:103E8000194A934220D0B3F1804F1DD0A2F57C4255
:103E9000934219D002F58062934215D002F58062F8
:103EA000934211D002F5784293420DD002F5705240
:103EB000934209D0A2F59432934205D01A6842F099
:103EC00001021A60002070479A6802F00702062A71
:103ED00007D01A6842F001021A60002070470120E2
:103EE00070470020704700BF0000014070477047D6
:103EF000704770B504460368DE681D6915F0020F4F
:103F000010D016F0020F0DD06FF002021A610123DB
:103F1000037703689B6913F0030F5ED0FFF7E7FF99
:103F20000023237715F0040F12D016F0040F0FD0E2
:103F300023686FF004021A610223237723689B69C8
:103F400013F4407F4FD02046FFF7D1FF00232377A3
:103F500015F0080F12D016F0080F0FD023686FF07D
:103F600008021A61042323772368DB6913F0030F27
:103F700040D02046FFF7BBFF0023237715F0100F3A
:103F800012D016F0100F0FD023686FF010021A61D4
:103F9000082323772368DB6913F4407F31D0204660
:103FA000FFF7A5FF0023237715F0010F02D016F0CD
:103FB000010F2DD115F0800F02D016F0800F2FD1F8
:103FC00015F0400F02D016F0400F31D115F0200F40
:103FD00002D016F0200F33D170BDFFF787FF2046C7
:103FE00003F06CF89CE72046FFF780FF204603F0C3
:103FF00065F8ABE72046FFF779FF204603F05EF84F
:10400000BAE72046FFF772FF204603F057F8C9E7EA
:1040100023686FF001021A61204603F04DF8C9E7EA
:1040200023686FF080021A61204600F0ABFBC7E7FF
:1040300023686FF040021A612046FFF759FFC5E779
:1040400023686FF020021A61204600F09AFBC3E754
:104050000368324A904212D0B0F1804F0FD0A2F5DF
:104060007C4290420BD002F58062904207D002F56C
:104070008062904203D002F57842904203D123F04F
:1040800070034A681343254A90422AD0B0F1804F0A
:1040900027D0A2F57C42904223D002F58062904264
:1040A0001FD002F5806290421BD002F57842904208
:1040B00017D002F57052904213D002F58062904200
:1040C0000FD002F5806290420BD0A2F59832904258
:1040D00007D002F58062904203D002F580629042E0
:1040E00003D123F44073CA68134323F080034A6961
:1040F00013438A68C2620A688262084A904203D007
:1041000002F58062904201D10A690263026842F0BE
:104110000402026001224261036070470000014016
:1041200040B310B5044690F83D30F3B1022384F853
:104130003D30214651F8040BFFF78AFF012384F834
:10414000463084F83E3084F83F3084F8403084F8BC
:10415000413084F8423084F8433084F8443084F8A5
:10416000453084F83D30002010BD80F83C30FDF72C
:10417000A9FFDBE70120704740B310B5044690F873
:104180003D30F3B1022384F83D30214651F8040B51
:10419000FFF75EFF012384F8463084F83E3084F850
:1041A0003F3084F8403084F8413084F8423084F85D
:1041B000433084F8443084F8453084F83D300020A2
:1041C00010BD80F83C30FDF765FFDBE7012070474C
:1041D00030B4036A026A22F0100202624468826903
:1041E00022F4E6420D6842EA052223F020038D689E
:1041F00043EA0513114DA84203D005F58065A84296
:1042000006D123F08003CD6843EA051323F0400371
:104210000A4DA84203D005F58065A84207D124F4D1
:1042200040644D6944EA85048D6944EA850444602C
:1042300082614A688263036230BC704700000140BB
:1042400038B590F83C30012B66D004460D4601236A
:1042500080F83C300C2A5AD8DFE802F00759595947
:104260001B5959593059595944000068FFF732FD1C
:104270002268936943F0080393612268936923F0ED
:10428000040393612268936929690B4393610020B9
:104290003EE00068FFF79CFF2268936943F40063E7
:1042A00093612268936923F4806393612268936920
:1042B000296943EA01239361002029E00068FFF7A0
:1042C00041FD2268D36943F00803D3612268D369B2
:1042D00023F00403D3612268D36929690B43D361B6
:1042E000002015E00068FFF765FD2268D36943F4FC
:1042F0000063D3612268D36923F48063D3612268A9
:10430000D369296943EA0123D361002000E0012039
:10431000002384F83C3038BD0220FCE710B48468E8
:1043200024F47F4C42EA03220A4342EA0C028260F0
:104330005DF8044B704790F83C30012B78D010B5F5
:104340000446012380F83C30022380F83D300268A7
:10435000936823F47F4323F0770393600B68602B0B
:104360004CD023D8402B54D011D8202B03D00AD8BE
:104370000BB1102B05D119462068FFF76AFD00200C
:1043800028E0012026E0302BF5D0012022E0502B40
:104390000AD1CA6849680068FFF734FD50212068D7
:1043A000FFF757FD002015E0012013E0B3F5805F13
:1043B0003AD0B3F5005F14D0702B37D1CB684A6880
:1043C00089680068FFF7AAFF2268936843F07703C3
:1043D00093600020012384F83D30002384F83C30B2
:1043E00010BDCB684A6889680068FFF797FF2268AC
:1043F000936843F4804393600020EBE7CA68496800
:104400000068FFF712FD60212068FFF722FD002001
:10441000E0E7CA6849680068FFF7F4FC40212068BB
:10442000FFF717FD0020D5E70020D3E70120D1E7F3
:104430000220704701F01F014FF0010C0CFA01FC43
:10444000036A23EA0C030362036A8A40134303628C
:104450007047000010B504460846002948D194F87A
:104460003E30DBB2013B18BF0123002B40F0A3809C
:10447000002856D1022384F83E302268D36843F0E6
:104480000203D360012201462068FFF7D3FF2368AF
:104490004C4A934203D002F58062934203D15A6C96
:1044A00042F400425A642368464A934278D0B3F1FA
:1044B000804F75D0A2F57C42934271D002F58062A4
:1044C00093426DD002F58062934269D002F5784242
:1044D000934265D002F57052934261D0A2F59432B6
:1044E00093425DD01A6842F001021A60002061E038
:1044F000042908D008290DD094F84130DBB2013BE3
:1045000018BF0123B1E794F83F30DBB2013B18BF7D
:104510000123AAE794F84030DBB2013B18BF012326
:10452000A3E7042824D008282BD0022384F84130A4
:104530000C2842D801A353F820F000BF7B440008A8
:10454000BB450008BB450008BB450008774500088F
:10455000BB450008BB450008BB450008894500086D
:10456000BB450008BB450008BB4500089545000851
:10457000022384F83F302268D36843F00403D360F9
:1045800080E7022384F840302268D36843F00803B0
:10459000D36077E72268D36843F01003D36071E7F4
:1045A0009A6802F00702062A09D01A6842F001024E
:1045B0001A60002010BD0120FCE70120FAE700206E
:1045C000F8E700BF0000014038B505460C460C294D
:1045D00063D8DFE801F0076262622E6262623462D1
:1045E00062623A000268D36823F00203D3600022BB
:1045F00021462868FFF71EFF2B68294A93422AD0DC
:1046000002F58062934226D02B68196A41F211129A
:10461000114208D1196A40F24442114203D11A688A
:1046200022F001021A602CBB012385F83E300020E5
:1046300034E00268D36823F00403D360D7E702684C
:10464000D36823F00803D360D1E70268D36823F06E
:104650001003D360CBE7196A41F211121142D3D192
:10466000196A40F244421142CED15A6C22F40042FF
:104670005A64C9E7042C06D0082C09D0012385F818
:10468000413000200AE0012385F83F30002005E09A
:10469000012385F84030002000E0012038BD00BF34
:1046A0000000014090F83C20012A3DD010B40346A0
:1046B000012280F83C20022280F83D2002685068E8
:1046C000946820F0700C086840EA0C0050601A688A
:1046D000164882421AD0B2F1804F17D0A0F57C4024
:1046E000824213D000F5806082420FD000F58060D6
:1046F00082420BD000F57840824207D000F570501E
:10470000824203D0A0F59430824204D124F0800488
:10471000496821439160012283F83D20002083F8FD
:104720003C005DF8044B70470220704700000140D8
:10473000024690F83C30012B21D0012380F83C3018
:10474000CB6823F440738868034323F4806348688C
:10475000034323F400630868034323F48053086988
:10476000034323F400534869034323F48043C96996
:104770000B4311684B64002082F83C007047022014
:10478000704770477047026802F10C0353E8003F1E
:1047900023F0C0030C3242E800310029F3D120237A
:1047A00080F841307047026802F10C0353E8003F83
:1047B00023F490730C3242E800310029F3D10268EF
:1047C00002F1140353E8003F23F00103143242E8DE
:1047D00000310029F3D1036B012B05D0202380F891
:1047E0004230002303637047026802F10C0353E870
:1047F000003F23F010030C3242E800310029F3D1CE
:10480000ECE790F84130DBB2212B01D00220704759
:104810008368B3F5805F17D0036A5A1C02621A7866
:1048200003685A60C38C9BB2013B9BB2C3844BB9F3
:104830000268D36823F08003D3600268D36843F032
:104840004003D360002070470369002BE4D1036A62
:104850001B880268C3F308035360036A02330362D0
:10486000E0E7000010B504460268136923F44053E2
:10487000C1680B431361836802691A4343691A4391
:10488000C3691A430168CB6823F4164323F00C0371
:104890001343CB600268536923F4407381690B436F
:1048A00053610368314A934206D002F58062934215
:1048B00002D0FFF7D1F901E0FFF7DEF9E369B3F5C4
:1048C000004F29D00021031849411B1841F1000174
:1048D000C90041EA5371DB00181863684FEA83028C
:1048E0004FEA937341F10001FCF7F8F8204AA2FB6C
:1048F00000314909642303FB11031B013233A2FB7E
:1049000003235B0903F0F00202EB011203F00F0333
:10491000216813448B6010BD0023021843EB030190
:10492000121841F10001C90041EA5271D200101879
:1049300041F10001626892185B41FCF7CFF80C4A24
:10494000A2FB00314909642303FB1103DB0032336E
:10495000A2FB03235B095A0002F4F87202EB011276
:1049600003F00703216813448B60D4E70010014073
:104970001F85EB512DE9F04383B005460E461746DF
:104980009946DDF828802B681C6836EA04040CBFC1
:1049900001240024BC4228D1B8F1FF3FF3D0FDF739
:1049A000E7FEA0EB0900404523D8B8F1000F22D064
:1049B0002B68DA6812F0040FE5D0802EE3D0402E89
:1049C000E1D01A6812F0080FDDD0002401941A68B3
:1049D00001925B680193019B2846FFF7E4FE0823E0
:1049E0006B6485F84040012000E0002003B0BDE882
:1049F000F0830320FAE70320F8E760B310B504461C
:104A000090F8413013B3242384F841302268D368EE
:104A100023F40053D3602046FFF724FF2268136974
:104A200023F4904313612268536923F02A035361EE
:104A30002268D36843F40053D360002060642023CD
:104A400084F8413084F84230606310BD80F8403013
:104A5000FDF770FDD7E7012070472DE9F04182B0E6
:104A60001E4690F84130DBB2202B56D104460D464D
:104A70009046002955D00AB901204FE00023436435
:104A8000212380F84130FDF773FE0746A4F8248007
:104A9000A4F82680A368B3F5805F02D04FF0000829
:104AA00014E023692BB34FF000080FE0202384F8B3
:104AB0004130032032E038F8023B2268C3F3080398
:104AC0005360E28C92B2013A92B2E284E38C9BB2E0
:104AD00093B100963B46002280212046FFF74AFF13
:104AE0000028E3D1002DE6D015F8012B23685A6089
:104AF000E7E7A8460025E9E700963B46002240216B
:104B00002046FFF737FF18B9202384F8413005E02D
:104B1000202384F84130032000E0022002B0BDE8E9
:104B2000F0810120FAE72DE9F04182B01E4690F8AD
:104B30004230DBB2202B59D104460D469046002965
:104B400058D00AB9012052E000234364222280F8A1
:104B500042200363FDF70CFE0746A4F82C80A4F85E
:104B60002E80A368B3F5805F02D04FF000081CE0F0
:104B7000236913B14FF0000817E0A846002514E0A0
:104B8000202384F84230032031E023685B68C3F3BC
:104B9000080328F8023B03E023685B682B700135AB
:104BA000E28D92B2013A92B2E285E38D9BB2C3B13B
:104BB00000963B46002220212046FFF7DBFE00281E
:104BC000DED1002DE1D0A368B3F5805FE4D013B946
:104BD0002369002BE0D023685B6803F07F032B7010
:104BE000DDE7202384F84230002000E0022002B0FC
:104BF000BDE8F0810120FAE710B5044603685A6960
:104C000090F84130DBB2212B0AD023685A6902F0B8
:104C1000400294F84230DBB2222B19D0002010BDA4
:104C200002F08002002AF0D0226802F1140353E857
:104C3000003F23F08003143242E800310029F3D111
:104C4000A06B08B1FEF7B9F92046FFF79CFDDCE741
:104C5000002AE3D0226802F1140353E8003F23F056
:104C60004003143242E800310029F3D1E06B08B16F
:104C7000FEF7A3F92046FFF796FDCFE7704708B58A
:104C80000168CA6822F04002CA60202280F84120F0
:104C9000FFF7F4FF002008BD7047704710B5846B24
:104CA00023685A6994F84130DBB2212B10D0236875
:104CB0005A6902F0400294F84230DBB2222B11D044
:104CC000636C43F0100363642046FFF7E6FF10BDFA
:104CD00002F08002002AEAD00023E3842046FFF796
:104CE00052FDE4E7002AEBD00023E3852046FFF7DE
:104CF0005AFDE5E708B5806B0023C385FFF7CDFFBC
:104D000008BD704790F84230DBB2222B69D183682E
:104D1000B3F5805F4FD0826AB3F5805F04D0002B7B
:104D200056D10369002B53D103685B681370836A03
:104D300001338362C38D9BB2013B9BB2C385002BC1
:104D400051D100B583B00268D36823F02003D3604B
:104D50000268D36823F48073D3600268536923F038
:104D600001035361202380F8423000234363036B27
:104D7000012B33D100230363026802F10C0353E8D3
:104D8000003F23F010030C3242E800310029F3D138
:104D900003681A6812F0100F06D0002201921A68F8
:104DA00001925B680193019B818DFFF7AAFF0020B0
:104DB00003B05DF804FB0269002AACD1826A036883
:104DC0005B68C3F308031380836A02338362B1E72D
:104DD00003685B6803F07F031370A8E702F0E6F84E
:104DE000E5E70220704700207047000010B582B050
:104DF000044602681368D068516913F00F0F09D197
:104E000013F0200F0CD010F0200F09D02046FFF730
:104E100079FF16E011F0010115D110F4907F12D145
:104E2000216B012979D013F0800F03D010F0800F8F
:104E300040F0218113F0400F03D010F0400F40F0FC
:104E40001E8102B010BD13F0010F06D010F4807F58
:104E500003D0626C42F00102626413F0040F04D0CC
:104E600019B1626C42F00202626413F0020F04D0C6
:104E700019B1626C42F00402626413F0080F07D0AB
:104E800010F0200F00D119B1626C42F00802626488
:104E9000626C002AD5D013F0200F02D010F0200F42
:104EA00029D123685B6903F04003626C12F0080F9C
:104EB00000D163B32046FFF776FC23685B6913F0EB
:104EC000400F20D0226802F1140353E8003F23F082
:104ED0004003143242E800310029F3D1E36B73B18F
:104EE000694A1A65E06BFEF7B2F80028A9D0E06BBA
:104EF000036D9847A5E72046FFF704FFD1E720465A
:104F0000FFF7CBFE9DE72046FFF7C7FE99E7204657
:104F1000FFF7C3FE0023636493E713F0100F82D002
:104F200010F0100F3FF47FAF00230193136801933B
:104F300053680193019B536913F0400F5FD0E26BFC
:104F400013685B689BB2002B4AD0A18D994247D968
:104F5000E385D369B3F5807F37D0226802F10C0373
:104F600053E8003F23F480730C3242E800310029FB
:104F7000F3D1226802F1140353E8003F23F0010348
:104F8000143242E800310029F3D1226802F11403FF
:104F900053E8003F23F04003143242E80031002977
:104FA000F3D1202384F8423000232363226802F1E6
:104FB0000C0353E8003F23F010030C3242E80031A9
:104FC0000029F3D1E06BFDF7F8FF02236363A18DA5
:104FD000E38D9BB2C91A89B22046FFF792FE30E7F3
:104FE000A18D99427FF42DAFD369B3F5807F7FF413
:104FF00028AF022363632046FFF783FE21E7A18DDC
:10500000E38D9BB2C91A89B2E38D9BB2002B3FF4AA
:1050100018AF00293FF415AF226802F10C0353E8E2
:10502000003F23F490730C3242E800300028F3D1A3
:10503000226802F1140353E8003F23F00103143205
:1050400042E800300028F3D1202384F842300023C6
:105050002363226802F10C0353E8003F23F010039E
:105060000C3242E800300028F3D10223636320466B
:10507000FFF747FEE5E62046FFF7C3FBE1E62046E3
:10508000FFF7FDFDDDE600BFF54C000808B5806BBD
:1050900001234363036B012B02D0FFF7FDFD08BD25
:1050A000818D4908FFF72DFEF9E708B50346806BAF
:1050B0001B681B6813F4807F2BD10023C385026813
:1050C00002F10C0353E8003F23F480730C3242E8F2
:1050D00000310029F3D1026802F1140353E8003FC4
:1050E00023F00103143242E800310029F3D10268B1
:1050F00002F1140353E8003F23F04003143242E866
:1051000000310029F3D1202380F84230036B012BBA
:1051100007D000234363036B012B0FD001F046FF40
:1051200008BD026802F10C0353E8003F23F01003AE
:105130000C3242E800310029F3D1EAE7818DFFF714
:10514000E0FDEDE781628285C2850023436422236E
:1051500080F84230036923B10268D36843F4807356
:10516000D3600268536943F0010353610268D36856
:1051700043F02003D3600020704708B590F8423018
:10518000DBB2202B08D149B10AB9012008BD0023A8
:105190000363FFF7D7FFF9E70220F7E70120F5E700
:1051A00030B583B004461346816282850022426492
:1051B000222084F84200E06B244DC563E06B244D4F
:1051C0000564E06B234DC564E06B026520680A4608
:1051D000011DE06BFDF7BCFE00282FD100230193D9
:1051E00023681A6801925B680193019B23695BB194
:1051F000226802F10C0353E8003F43F480730C3241
:1052000042E800310029F3D1226802F1140353E887
:10521000003F43F00103143242E800310029F3D18A
:10522000226802F1140353E8003F43F040031432B4
:1052300042E800310029F3D103B030BD102363648C
:10524000202384F842300120F6E700BFAB5000086D
:105250008D5000089D4C000808B590F84230DBB234
:10526000202B08D149B10AB9012008BD00230363EE
:10527000FFF796FFF9E70220F7E70120F5E708B509
:105280004FF0E0231B6901F00FFC012800D108BD9D
:1052900000F0D0F9FBE70000EFF305832BB9064BD4
:1052A000186828B901221A6070476FF0050070472E
:1052B0004FF0FF30704700BF60190020EFF3058307
:1052C00073B90A4B1B68012B0DD110B50024084B94
:1052D000DC77064B02221A6001F034F9204610BD3B
:1052E0006FF0050070474FF0FF30704760190020E5
:1052F00000ED00E0F0B587B000240594EFF30584DD
:105300000CBB00B3002A35D0156893692BB11E463B
:10531000013B372B02D9002016E01826536813F002
:10532000010F40D154698CB14FEA940C936833B1AA
:10533000D768B7F5D07F02D3176907B184B943B1F5
:105340004FF0FF330BB3059807B0F0BD4FF0800C62
:10535000ECE7D368A3B91369ABB14FF0FF33F1E7C2
:105360000293019700960B466246294601F07AF8AF
:105370000590E8E71546002318264FF0800CE1E77A
:105380004FF0FF33DEE70023DCE705AB0193009627
:105390000B461FFA8CF2294601F0A1F80128D2D061
:1053A00000230593CFE70020CEE708B5EFF3058390
:1053B00033B908B9002008BD01F030FA0020FAE73F
:1053C0006FF00500F7E70000034B0360034B0B6031
:1053D00080231360704700BFC0170020C015002055
:1053E000034B0360034B0B604FF4807313607047F3
:1053F000201400202010002000F1080343604FF02B
:10540000FF328260C36003610023036070470023A2
:105410000361704743684B609A688A605160996085
:105420000861036801330360704730B40D68B5F15B
:10543000FF3F11D000F108031C465B681A68AA42BE
:10544000FAD963684B6099608C6061600861036899
:105450000133036030BC70470469F2E703694168B7
:1054600082688A60416851605A68824206D0002290
:1054700002611A68013A1A601868704782685A60B7
:10548000F5E7000082B0002301930D4B1B68B3F1D8
:10549000FF3F08D04FF0500383F31188BFF36F8FA5
:1054A000BFF34F8FFEE74FF0500383F31188BFF334
:1054B0006F8FBFF34F8F019B002BFCD002B0704762
:1054C0001000002008480068006880F308884FF04A
:1054D000000080F3148862B661B6BFF34F8FBFF34C
:1054E0006F8F00DF00BF000008ED00E0DFF80C0068
:1054F000016841F4700101607047000088ED00E030
:105500004FF0807340F8043C21F0010140F8081C82
:10551000054B40F80C3C40F8202C6FF0020340F89B
:10552000243C4438704700BF855400080000000048
:10553000074B19680868B0E8F04F80F30988BFF39B
:105540006F8F4FF0000080F311887047AFF3008039
:10555000C85A00204FF0500383F31188BFF36F8FB8
:10556000BFF34F8F0B4A136801331360012B00D038
:1055700070474FF0E023D3F8043D13F0FF0FF7D04E
:105580004FF0500383F31188BFF36F8FBFF34F8F3A
:10559000FEE700BF10000020094B1B6843B94FF025
:1055A000500383F31188BFF36F8FBFF34F8FFEE774
:1055B000013B034A13600BB983F31188704700BFA6
:1055C00010000020000000000000000000000000AB
:1055D000EFF30980BFF36F8F154B1A681EF0100FA1
:1055E00008BF20ED108A20E9F04F10602DE9090076
:1055F0004FF0500080F31188BFF34F8FBFF36F8FD0
:1056000001F032F94FF0000080F3118809BC1968ED
:105610000868B0E8F04F1EF0100F08BFB0EC108A19
:1056200080F30988BFF36F8F704700BFAFF300802E
:10563000C85A002008B54FF0500383F31188BFF318
:105640006F8FBFF34F8F00F0E1FF28B14FF0E023E1
:105650004FF08052C3F8042D002383F3118808BD56
:105660004FF0E022002313619361054B1B6805494D
:10567000A1FB03139B09013B53610723136170478F
:1056800008000020D34D62104FF0E023D3F8002D26
:105690003D4B9A421CD04FF0E023D3F8002D3B4BFA
:1056A0009A421ED030B583B0394B1A78D2B20192EB
:1056B000FF221A701B78DBB28DF803309DF803309F
:1056C00003F05003334A1370334B07221A601BE078
:1056D0004FF0500383F31188BFF36F8FBFF34F8FE9
:1056E000FEE74FF0500383F31188BFF36F8FBFF3D2
:1056F0004F8FFEE7284A1368013B13609DF8033083
:105700005B00DBB28DF803309DF8033013F0800F9F
:10571000F0D1214B1B68032B08D04FF0500383F3CB
:105720001188BFF36F8FBFF34F8FFEE71B021A4A3A
:10573000136003F4E0631360019BDBB2144A13703F
:105740004FF0E024D4F8203D43F47003C4F8203D2A
:10575000D4F8203D43F07043C4F8203DFFF780FFAC
:1057600000250E4B1D60FFF7C1FED4F8343F43F017
:105770004043C4F8343FFFF7A5FE01F075F8FFF78A
:1057800081FE284603B030BD71C20F4170C20F4187
:1057900000E400E0681900206419002010000020D7
:1057A000EFF305830F2B0FD9114A9B5CDBB2114A33
:1057B00012789A4208D94FF0500383F31188BFF34F
:1057C0006F8FBFF34F8FFEE74FF0E023D3F80C3D10
:1057D00003F4E063084A1268934208D94FF050037B
:1057E00083F31188BFF36F8FBFF34F8FFEE77047CE
:1057F000F0E300E06819002064190020124A12F05A
:10580000070F1ED0D11D21F00701C1F570531344BD
:105810000A460E480260002141601344083B23F011
:1058200007030B48036059601960991A51601360AF
:10583000084B1960084B1960084B4FF000421A6082
:1058400070474FF47053E4E78C190020841900204E
:1058500080190020781900207C1900206C19002084
:10586000164B1A461B688342FBD3516802EB010CAE
:10587000844509D0416800EB010C634509D0036001
:10588000904219D010607047406801445160104642
:10589000F0E710B40A4C2468A3420BD05B681944AB
:1058A000416013681B680360904200D010605DF88F
:1058B000044B70470460F7E7704700BF841900206D
:1058C0008019002038B5044600F092FE384B1B6862
:1058D000B3B1384B1B681C4250D1002C50D004F19E
:1058E000080214F0070F02D022F007020832002A43
:1058F00055D0314B1B68934253D330490C6804E0B8
:10590000FFF77CFFE5E721461C466368934202D21D
:105910002368002BF7D1264B1B68A34243D00D68A8
:10592000083523680B6063689B1A102B10D9A018E8
:1059300010F0070F08D04FF0500383F31188BFF326
:105940006F8FBFF34F8FFEE743606260FFF788FF02
:10595000626819490B689B1A0B60194909688B42E8
:1059600001D217490B60134B1B681343636000237C
:105970002360144A13680133136002E0002500E03D
:10598000002500F0CFFE15F0070F0ED04FF05003AA
:1059900083F31188BFF36F8FBFF34F8FFEE70025AE
:1059A000EFE70025EDE70025EBE7284638BD00BF0F
:1059B000801900206C1900207C1900208419002017
:1059C0007819002074190020002834D038B5044616
:1059D000A0F1080550F8043C174A1268134208D198
:1059E0004FF0500383F31188BFF36F8FBFF34F8FD6
:1059F000FEE750F8081C41B14FF0500383F31188C3
:105A0000BFF36F8FBFF34F8FFEE723EA020340F827
:105A1000043C00F0EDFD54F8041C084A13680B44E4
:105A200013602846FFF71CFF054A13680133136013
:105A300000F078FE38BD70476C1900207C190020FA
:105A40007019002010B50446FFF784FDA26BE36BCC
:105A50009A4204D00024FFF79FFD204610BD012488
:105A6000F9E710B50446FFF775FDA36B23B90124D0
:105A7000FFF792FD204610BD0024F9E770B50446FB
:105A80001546866B026C5AB903681BB100200136BB
:105A9000A66370BD806801F017F80023A360F6E7E5
:105AA0006DB9406802F066FD6368226C1344636060
:105AB000A268934219D3236863602846E7E7C06869
:105AC00002F058FDE368226C51429B1AE3602268A1
:105AD000934202D2A3680B44E360022D01D0002060
