:020000040800F2
:1000000000000220E53C00080D3200080F32000815
:1000100011320008133200081532000800000000F9
:10002000000000000000000000000000315C00083B
:100030001732000800000000D15C00087959000860
:10004000353D0008353D0008353D0008353D0008C8
:10005000353D0008353D0008353D0008353D0008B8
:10006000353D0008353D0008353D0008353D0008A8
:10007000353D0008353D0008353D0008353D000898
:10008000353D0008353D0008353D0008353D000888
:10009000353D0008353D0008353D0008353D000878
:1000A000193200083132000849320008353D000895
:1000B000613200087132000881320008353D0008C5
:1000C000353D0008353D0008353D0008353D000848
:1000D000353D0008353D000891320008353D0008E7
:1000E000353D0008353D0008353D0008353D000828
:1000F000353D0008353D0008353D0008353D000818
:10010000353D0008353D0008A1320008353D0008A6
:10011000353D0008353D0008B1320008C132000805
:10012000353D0008353D0008353D0008353D0008E7
:10013000353D0008353D0008353D0008353D0008D7
:10014000353D0008353D0008353D0008353D0008C7
:10015000353D0008353D0008353D0008D132000826
:10016000353D0008353D0008353D0008353D0008A7
:10017000353D0008353D0008353D00080000000011
:08018000353D0008353D000883
:1001C00081F0004102E000BF83F0004330B54FEA08
:1001D00041044FEA430594EA050F08BF90EA020F75
:1001E0001FBF54EA000C55EA020C7FEA645C7FEA08
:1001F000655C00F0E2804FEA5454D4EB5555B8BF2B
:100200006D420CDD2C4480EA020281EA030382EA9B
:10021000000083EA010180EA020281EA0303362D2D
:1002200088BF30BD11F0004F4FEA01314FF4801C00
:100230004CEA113102D0404261EB410113F0004F12
:100240004FEA03334CEA133302D0524263EB4303C9
:1002500094EA050F00F0A780A4F10104D5F1200E67
:100260000DDB02FA0EFC22FA05F2801841F10001C2
:1002700003FA0EF2801843FA05F359410EE0A5F196
:1002800020050EF1200E012A03FA0EFC28BF4CF0C7
:10029000020C43FA05F3C01851EBE37101F000457D
:1002A00007D54FF0000EDCF1000C7EEB00006EEB8A
:1002B0000101B1F5801F1BD3B1F5001F0CD3490814
:1002C0005FEA30004FEA3C0C04F101044FEA44526B
:1002D00012F5800F80F09A80BCF1004F08BF5FEAF2
:1002E000500C50F1000041EB045141EA050130BDD2
:1002F0005FEA4C0C404141EB0101013C28BFB1F5E4
:10030000801FE9D291F0000F04BF01460020B1FA2E
:1003100081F308BF2033A3F10B03B3F120020CDA01
:100320000C3208DD02F1140CC2F10C0201FA0CF0DF
:1003300021FA02F10CE002F11402D8BFC2F1200C44
:1003400001FA02F120FA0CFCDCBF41EA0C019040FA
:10035000E41AA2BF01EB0451294330BD6FEA040443
:100360001F3C1CDA0C340EDC04F11404C4F120022E
:1003700020FA04F001FA02F340EA030021FA04F340
:1003800045EA030130BDC4F10C04C4F1200220FA97
:1003900002F001FA04F340EA0300294630BD21FAD5
:1003A00004F0294630BD94F0000F83F4801306BF9B
:1003B00081F480110134013D4EE77FEA645C18BF8F
:1003C0007FEA655C29D094EA050F08BF90EA020F26
:1003D00005D054EA000C04BF1946104630BD91EA1E
:1003E000030F1EBF0021002030BD5FEA545C05D121
:1003F0004000494128BF41F0004130BD14F5800460
:100400003CBF01F5801130BD01F0004545F0FE41D3
:1004100041F470014FF0000030BD7FEA645C1ABF08
:10042000194610467FEA655C1CBF0B46024650EA3F
:10043000013406BF52EA033591EA030F41F400216B
:1004400030BD00BF90F0000F04BF0021704730B5F1
:100450004FF4806404F132044FF000054FF00001C6
:1004600050E700BF90F0000F04BF0021704730B587
:100470004FF4806404F1320410F0004548BF40425C
:100480004FF000013EE700BF42004FEAE2014FEAB1
:1004900031014FEA02701FBF12F07F4393F07F4F8C
:1004A00081F06051704732F07F4208BF704793F08F
:1004B0007F4F04BF41F40021704730B54FF46074A2
:1004C00001F0004521F000411CE700BF50EA0102A5
:1004D00008BF704730B54FF000050AE050EA01024E
:1004E00008BF704730B511F0004502D5404261EBBE
:1004F00041014FF4806404F132045FEA915C3FF4FF
:10050000D8AE4FF003025FEADC0C18BF03325FEA9B
:10051000DC0C18BF033202EBDC02C2F1200300FA4C
:1005200003FC20FA02F001FA03FE40EA0E0021FA71
:1005300002F11444BDE600BF4FEA4102B2F1E043CC
:1005400024BFB3F5001CDCF1FE5C0DD901F0004CBA
:100550004FEAC0024CEA5070B2F1004F40EB83000A
:1005600008BF20F00100704711F0804F21D113F136
:100570003872BCBF01F00040704741F480114FEA6F
:100580005252C2F11802C2F1200C10FA0CF320FAF8
:1005900002F018BF40F001004FEAC1234FEAD32315
:1005A00003FA0CFC40EA0C0023FA02F34FEA43037F
:1005B000CCE77FEA625307D150EA01331EBF4FF008
:1005C000FE4040F44000704701F0004040F0FE4023
:1005D00040F40000704700BF53B94AB9002908BF72
:1005E00000281CBF4FF0FF314FF0FF3000F074B90E
:1005F000ADF1080C6DE904CE00F006F8DDF804E07A
:10060000DDE9022304B070472DE9F047089D044658
:100610008E46002B4DD18A42944669D9B2FA82F2B5
:1006200052B101FA02F3C2F1200120FA01F10CFAF1
:1006300002FC41EA030E94404FEA1C48210CBEFB29
:10064000F8F61FFA8CF708FB16E341EA034306FBB2
:1006500007F199420AD91CEB030306F1FF3080F041
:100660001F81994240F21C81023E63445B1AA4B28E
:10067000B3FBF8F008FB103344EA034400FB07F730
:10068000A7420AD91CEB040400F1FF3380F00A8171
:10069000A74240F207816444023840EA0640E41B66
:1006A00000261DB1D4400023C5E900433146BDE812
:1006B000F0878B4209D9002D00F0EF800026C5E9B4
:1006C000000130463146BDE8F087B3FA83F6002ECC
:1006D0004AD18B4202D3824200F2F980841A61EB44
:1006E000030301209E46002DE0D0C5E9004EDDE762
:1006F00002B9FFDEB2FA82F2002A40F09280A1EB4A
:100700000C014FEA1C471FFA8CFE0126200CB1FB9E
:10071000F7F307FB131140EA01410EFB03F0884297
:1007200008D91CEB010103F1FF3802D2884200F224
:10073000CB804346091AA4B2B1FBF7F007FB1011B6
:1007400044EA01440EFB00FEA64508D91CEB040454
:1007500000F1FF3102D2A64500F2BB800846A4EBAF
:100760000E0440EA03409CE7C6F12007B34022FA9A
:1007700007FC4CEA030C20FA07F401FA06F31C43C9
:10078000F9404FEA1C4900FA06F3B1FBF9F8200CD6
:100790001FFA8CFE09FB181140EA014108FB0EF01C
:1007A000884202FA06F20BD91CEB010108F1FF3A6C
:1007B00080F08880884240F28580A8F10208614478
:1007C000091AA4B2B1FBF9F009FB101144EA014186
:1007D00000FB0EFE8E4508D91CEB010100F1FF3431
:1007E0006CD28E456AD90238614440EA0840A0FBC9
:1007F0000294A1EB0E01A142C846A64656D353D09F
:100800005DB1B3EB080261EB0E0101FA07F722FAC2
:1008100006F3F1401F43C5E9007100263146BDE8EB
:10082000F087C2F12003D8400CFA02FC21FA03F34E
:10083000914001434FEA1C471FFA8CFEB3FBF7F0CF
:1008400007FB10360B0C43EA064300FB0EF69E42F4
:1008500004FA02F408D91CEB030300F1FF382FD28D
:100860009E422DD9023863449B1B89B2B3FBF7F635
:1008700007FB163341EA034106FB0EF38B4208D90E
:100880001CEB010106F1FF3816D28B4214D9023E4F
:100890006144C91A46EA004638E72E46284605E76D
:1008A0000646E3E61846F8E64B45A9D2B9EB02083E
:1008B00064EB0C0E0138A3E74646EAE7204694E7CE
:1008C0004046D1E7D0467BE7023B614432E7304601
:1008D00009E76444023842E7704700BF844641EAB2
:1008E000000313F003036DD1403A41D351F8043BA8
:1008F00040F8043B51F8043B40F8043B51F8043BFA
:1009000040F8043B51F8043B40F8043B51F8043BE9
:1009100040F8043B51F8043B40F8043B51F8043BD9
:1009200040F8043B51F8043B40F8043B51F8043BC9
:1009300040F8043B51F8043B40F8043B51F8043BB9
:1009400040F8043B51F8043B40F8043B51F8043BA9
:1009500040F8043B51F8043B40F8043B51F8043B99
:1009600040F8043B51F8043B40F8043B403ABDD208
:10097000303211D351F8043B40F8043B51F8043BAA
:1009800040F8043B51F8043B40F8043B51F8043B69
:1009900040F8043B103AEDD20C3205D351F8043B39
:1009A00040F8043B043AF9D2043208D0D2071CBF05
:1009B00011F8013B00F8013B01D30B88038060462E
:1009C000704700BF082A13D38B078DD010F00303A4
:1009D0008AD0C3F10403D21ADB071CBF11F8013B14
:1009E00000F8013B80D331F8023B20F8023B7BE763
:1009F000043AD9D3013A11F8013B00F8013BF9D28E
:100A00000B7803704B7843708B7883706046704727
:100A100000000000000000000000000000000000D6
:100A200000000000000000000000000000000000C6
:100A300000000000000000000000000000000000B6
:100A400090F800F06DE9024520F007016FF0000C0E
:100A500010F0070491F820F040F049804FF00004B6
:100A60006FF00700D1E9002391F840F000F1080091
:100A700082FA4CF2A4FA8CF283FA4CF3A2FA8CF3C9
:100A80004BBBD1E9022382FA4CF200F10800A4FA30
:100A90008CF283FA4CF3A2FA8CF3E3B9D1E9042384
:100AA00082FA4CF200F10800A4FA8CF283FA4CF3BB
:100AB000A2FA8CF37BB9D1E9062301F1200182FA75
:100AC0004CF200F10800A4FA8CF283FA4CF3A2FA7B
:100AD0008CF3002BC6D0002A04BF04301A4612BA89
:100AE000B2FA82F2FDE8024500EBD2007047D1E98C
:100AF000002304F00305C4F100004FEAC50514F01B
:100B0000040F91F840F00CFA05F562EA05021CBFEB
:100B100063EA050362464FF00004A9E70000000005
:100B200001F0FF01102A2BDB10F0070F08D010F89E
:100B3000013B013A8B422DD010F0070F42B3F6D1A2
:100B4000F0B441EA012141EA014122F007047FF0BB
:100B500000070023F0E80256083C85EA010586EA12
:100B6000010685FA47F5A3FA87F586FA47F6A5FA4E
:100B700087F68EB9EED1F0BC01F0FF0102F007025A
:100B800032B110F8013B013A83EA010313B1F8D105
:100B90000020704701387047002D06BF35460338E6
:100BA000073815F0010F07D1013015F4807F02BF1F
:100BB000013015F4C03F0130F0BC0138704700BF70
:100BC00070B54FF0FF0C4CF4E06C1CEA11541DBFE3
:100BD0001CEA135594EA0C0F95EA0C0F00F0DEF8AE
:100BE0002C4481EA030621EA4C5123EA4C5350EA93
:100BF000013518BF52EA033541F4801143F48013E4
:100C000038D0A0FB02CE4FF00005E1FB02E506F074
:100C10000042E0FB03E54FF00006E1FB03569CF0C9
:100C2000000F18BF4EF0010EA4F1FF04B6F5007FCF
:100C300064F5407404D25FEA4E0E6D4146EB060641
:100C400042EAC62141EA55514FEAC52040EA5E50CA
:100C50004FEACE2EB4F1FD0C88BFBCF5E06F1ED874
:100C6000BEF1004F08BF5FEA500E50F1000041EBAB
:100C7000045170BD06F0004646EA010140EA020058
:100C800081EA0301B4EB5C04C2BFD4EB0C0541EA7A
:100C9000045170BD41F480114FF0000E013C00F38F
:100CA000AB8014F1360FDEBF002001F0004170BDB3
:100CB000C4F10004203C35DA0C341BDC04F11404CC
:100CC000C4F1200500FA05F320FA04F001FA05F258
:100CD00040EA020001F0004221F0004110EBD37025
:100CE00021FA04F642EB06015EEA430E08BF20EA51
:100CF000D37070BDC4F10C04C4F1200500FA04F3F4
:100D000020FA05F001FA04F240EA020001F0004185
:100D100010EBD37041F100015EEA430E08BF20EAF8
:100D2000D37070BDC4F1200500FA05F24EEA020E40
:100D300020FA04F301FA05F243EA020321FA04F06F
:100D400001F0004121FA04F220EA020000EBD37026
:100D50005EEA430E08BF20EAD37070BD94F0000F26
:100D60000FD101F00046400041EB010111F4801F5A
:100D700008BF013CF7D041EA060195F0000F18BF0B
:100D8000704703F00046520043EB030313F4801F47
:100D900008BF013DF7D043EA0603704794EA0C0F01
:100DA0000CEA135518BF95EA0C0F0CD050EA410617
:100DB00018BF52EA4306D1D181EA030101F0004194
:100DC0004FF0000070BD50EA410606BF10461946BC
:100DD00052EA430619D094EA0C0F02D150EA0136C8
:100DE00013D195EA0C0F05D152EA03361CBF104609
:100DF00019460AD181EA030101F0004141F0FE41A8
:100E000041F470014FF0000070BD41F0FE4141F42B
:100E1000780170BD70B54FF0FF0C4CF4E06C1CEA2B
:100E200011541DBF1CEA135594EA0C0F95EA0C0FE0
:100E300000F0A7F8A4EB050481EA030E52EA03359B
:100E40004FEA013100F088804FEA03334FF08055BC
:100E500045EA131343EA12634FEA022245EA1115E9
:100E600045EA10654FEA00260EF000419D4208BF9A
:100E7000964244F1FD0404F5407402D25B084FEA47
:100E80003202B61A65EB03055B084FEA32024FF4F3
:100E900080104FF4002CB6EB020E75EB030E22BF50
:100EA000B61A754640EA0C005B084FEA3202B6EB10
:100EB000020E75EB030E22BFB61A754640EA5C00BF
:100EC0005B084FEA3202B6EB020E75EB030E22BF4F
:100ED000B61A754640EA9C005B084FEA3202B6EB50
:100EE000020E75EB030E22BFB61A754640EADC000F
:100EF00055EA060E18D04FEA051545EA16754FEA71
:100F000006164FEAC30343EA52734FEAC2025FEA8E
:100F10001C1CC0D111F4801F0BD141EA00014FF01D
:100F200000004FF0004CB6E711F4801F04BF0143EE
:100F30000020B4F1FD0C88BFBCF5E06F3FF6AFAE0A
:100F4000B5EB030C04BFB6EB020C5FEA500C50F19A
:100F5000000041EB045170BD0EF0004E4EEA11311D
:100F600014EB5C04C2BFD4EB0C0541EA045170BD24
:100F700041F480114FF0000E013C90E645EA060E68
:100F80008DE60CEA135594EA0C0F08BF95EA0C0F96
:100F90003FF43BAF94EA0C0F0AD150EA01347FF4DE
:100FA00034AF95EA0C0F7FF425AF104619462CE7B5
:100FB00095EA0C0F06D152EA03353FF4FDAE104618
:100FC000194622E750EA410618BF52EA43067FF469
:100FD000C5AE50EA41047FF40DAF52EA43057FF4F9
:100FE000EBAE12E74FF0FF3C06E000BF4FF0010C04
:100FF00002E000BF4FF0010C4DF804CD4FEA410C68
:101000007FEA6C5C4FEA430C18BF7FEA6C5C1BD034
:1010100001B050EA410C0CBF52EA430C91EA030FB5
:1010200002BF90EA020F0020704710F1000F91EA12
:10103000030F58BF994208BF90422CBFD8176FEAE0
:10104000E37040F0010070474FEA410C7FEA6C5CAE
:1010500002D150EA013C07D14FEA430C7FEA6C5CB5
:10106000D6D152EA033CD3D05DF8040B704700BFE1
:101070008446104662468C461946634600E000BF2F
:1010800001B5FFF7B7FF002848BF10F1000F01BD01
:101090004DF808EDFFF7F4FF0CBF012000205DF8CC
:1010A00008FB00BF4DF808EDFFF7EAFF34BF012051
:1010B00000205DF808FB00BF4DF808EDFFF7E0FFEA
:1010C00094BF012000205DF808FB00BF4DF808ED3B
:1010D000FFF7CEFF94BF012000205DF808FB00BFA2
:1010E0004DF808EDFFF7C4FF34BF012000205DF884
:1010F00008FB00BF4FEA410C7FEA6C5C02D150EA6A
:10110000013C0AD14FEA430C7FEA6C5C02D152EAFF
:10111000033C02D14FF0000070474FF001007047D0
:101120004FEA410212F5001215D211D56FF478730F
:10113000B3EB625212D94FEAC12343F0004343EAB2
:10114000505311F0004F23FA02F018BF404270478D
:101150004FF00000704750EA013005D111F0004017
:1011600008BF6FF0004070474FF00000704700BFAD
:1011700008B500F0DDF900F053FA044B187000F0E8
:1011800043FA142005F040FFF3E700BF080A0020EF
:1011900008B559E04C4B05221A7025E04A4B06224F
:1011A0001A7021E0484B07221A701DE0464B0822B6
:1011B0001A7019E0454BD3ED007AB1EE047A77EE60
:1011C000C77AC3ED007A0FE0404BD3ED007AB1EE61
:1011D000047A77EE877AC3ED007A05E03C4B002273
:1011E0001A703C4B00221A60374B1B78053B032BCF
:1011F0001AD8DFE803F00E4D555D364B364A1A60BB
:10120000F2E7344B354A1A60EEE7324B344A1A6043
:10121000EAE7304BD3ED007AF1EE677A314BC3ED5C
:10122000007A314B00221A60304B93ED001AB1EE78
:10123000411A2D4BD3ED000A2A4B93ED000A06F01C
:10124000BBFC642005F0E0FE214B1B78012BF8D19C
:10125000274B1B78053B0B2BC6D801A252F823F075
:10126000951100089D110008A5110008AD11000896
:10127000C9110008B5110008E9110008DD110008C6
:10128000E3110008FB110008031200080B1200080C
:10129000144B00221A600F4B1A68134B1A60C3E7F5
:1012A0000C4B1A680F4B1A600F4B00221A60BBE7F9
:1012B0000C4B00221A60074BD3ED007AF1EE677AEF
:1012C000094BC3ED007AAFE700000020900B00202F
:1012D00001000020940B00200000F041000070424B
:1012E00000001643F0090020F4090020F80900204E
:1012F000080A002008B509E072B60F4AD2F8D030CB
:10130000013BC2F8D03062B601F06CF90A4BD3F859
:10131000D030002BFAD0084AD2F8CC30D05CD2F8CA
:10132000CC300133C2F8CC30C72BE5D913460022AC
:10133000C3F8CC20E0E700BF0C0A002080B582B0E3
:1013400005F002FD01902E4F2E4BD3ED030A2E4BDC
:1013500093ED000A384601F03FFC2C4B93ED000A58
:101360002B4E2C4BD3ED030AB1EE400A304601F070
:1013700033FC294D294BD3ED030A294B93ED000A89
:10138000284601F029FC274B93ED000A264C274BF9
:10139000D3ED030AB1EE400A204601F01DFC244BB8
:1013A000D3ED000A234B93ED000A234801F0A7FC7C
:1013B000224B83ED000AD7ED077AFDEEE77A17EEB0
:1013C000900A00F099FAD6ED077AFDEEE77A17EE6B
:1013D000900A00F0ABFAD5ED077AFDEEE77A17EE4A
:1013E000900A00F0B7FAD4ED077AFDEEE77A17EE2F
:1013F000900A00F0C3FA052101A805F0B3FD9FE7AC
:10140000C00B0020E00A0020480D0020500D0020F5
:10141000E80B0020F40A0020100C0020080B00202C
:10142000580D0020600D0020380C00201C0B0020FF
:10143000380B0020900B0020980B0020F8090020AA
:1014400008B5372005F0E0FD04A3D3E900230248E6
:1014500006F09EFCF5E700BFB0E2000885EB51B84E
:101460001E15574010B5044603F05EF9054BA3FB6B
:1014700000231B0D04FB03F003460138002BFBD1B6
:1014800010BD00BF83DE1B4330B583B0054601238A
:10149000ADF80630244A00215170ADF806300CE05A
:1014A00000220221214802F022FE14E0BDF806309D
:1014B0009BB25B009BB2ADF80630BDF806309BB224
:1014C000FF2B2CD8BDF806301D42E9D001220221A5
:1014D000164802F00CFE154C01220821204602F0AD
:1014E00006FE0520FFF7BEFF00220821204602F07D
:1014F000FEFD0520FFF7B6FF01220821204602F07D
:10150000F6FD0121204602F0EBFD0028CED0BDF80B
:1015100006309AB204494B7813434B70C6E710204B
:10152000FFF7A0FF03B030BDFC0900200008024017
:1015300010B582B000228DF807200123ADF80430E9
:1015400004212E4802F0D3FD2D4C2078FFF79CFF9C
:101550006078FFF799FF02238DF807303EE0BDF871
:1015600004309BB25B009BB2ADF80430BDF8043090
:101570009BB2FF2B29D8214C01220821204602F0E2
:10158000B6FD0520FFF76EFF00220821204602F07D
:10159000AEFD0520FFF766FF01220821204602F07C
:1015A000A6FD0121204602F09BFD0028D7D0BDF802
:1015B000042091B29DF80730DBB21248C25C9DF85E
:1015C0000730DBB20A43C254C9E71020FFF74AFFD5
:1015D0009DF807300133DBB28DF807309DF80730F6
:1015E000DBB2082B03D80123ADF80430BEE701229B
:1015F0000421024802F07BFD02B010BD0008024049
:1016000004000020FC090020002304E0034A00211C
:10161000D1540133DBB2082BF8D97047FC09002004
:1016200008B5FFF7F1FFFFF783FF0D4B1A79D97863
:1016300041EA02210B4B198000230F2B0ED80A4AD6
:1016400032F81320013A41FA02F212F0010F02D0EF
:101650000133DBB2F1E70133D8B200E0002008BD6E
:10166000FC090020060A00200800002010B5104CDC
:1016700000220421204602F03AFD1020FFF7F2FE7E
:101680000120FFF701FF4220FFF7FEFE0020FFF7D9
:10169000FBFE0020FFF7F8FE0020FFF7F5FE012219
:1016A0000421204602F023FD1020FFF7DBFE10BDD1
:1016B0000008024010B5164C00220421204602F01A
:1016C00016FD1020FFF7CEFE0120FFF7DDFE4320C0
:1016D000FFF7DAFE0020FFF7D7FE0120FFF7D4FE68
:1016E0000020FFF7D1FE0020FFF7CEFE0020FFF71D
:1016F000CBFE0020FFF7C8FE0020FFF7C5FE012249
:101700000421204602F0F3FC1020FFF7ABFE10BDD1
:101710000008024010B5154C00220421204602F0BA
:10172000E6FC0120FFF7B0FE4420FFF7ADFE0020ED
:10173000FFF7AAFE0120FFF7A7FEEE20FFF7A4FEA9
:101740000020FFF7A1FE0020FFF79EFE0020FFF71C
:101750009BFE0020FFF798FE01220421204602F0A4
:10176000C6FC1020FFF77EFE10BD00BF000802403F
:1017700010B5104C00220421204602F0B8FC1020C5
:10178000FFF770FE0120FFF77FFE4D20FFF77CFE84
:101790000020FFF779FE0020FFF776FE0120FFF71B
:1017A00073FE01220421204602F0A1FC1020FFF765
:1017B00059FE10BD0008024010B5164C002204214D
:1017C000204602F094FC1020FFF74CFE0120FFF7AA
:1017D0005BFE4320FFF758FE0020FFF755FE002078
:1017E000FFF752FE5A20FFF74FFE5A20FFF74CFE3C
:1017F0005A20FFF749FE5A20FFF746FE5A20FFF70E
:1018000043FE01220421204602F071FC1020FFF764
:1018100029FE10BD0008024008B5FFF727FFFFF7BB
:1018200025FFFFF723FFFFF745FFFFF773FFFFF7E4
:101830009FFFFFF7C1FF08BD10B514464FF47A7340
:1018400092B2024803F0CBFD204610BD44100020A8
:10185000F8B5214F3C21384603F08EFB1F4E3C214A
:10186000304603F089FB1E4D3C21284603F084FBE3
:101870001C4C3C21204603F07FFB3A68D36843F0C0
:101880000103D3603268D36843F00103D3602A6850
:10189000D36843F00103D3602268D36843F00103A7
:1018A000D360114A002353600021D1601374136088
:1018B00013810E4A5360D1601374136013810C4A74
:1018C0005360D1601374136013810A4A5360D1606E
:1018D000137413601381F8BD940E0020DC0E0020F9
:1018E000240F00206C0F0020E00A0020F40A0020E2
:1018F000080B00201C0B0020002807DD094B1B688B
:1019000000225A63084B1B6858637047002800DBAD
:101910007047044B1B6840425863034B1B6800220E
:101920005A63F5E7040E00204C0E0020002805DD68
:10193000074B1B68586300229A637047002800DB3E
:101940007047034B1B6800225A6340429863F7E7D5
:10195000FC0F0020002805DD074B1B6858630022A0
:101960009A637047002800DB7047034B1B68002216
:101970005A6340429863F7E7BC0D0020002805DD5C
:10198000074B1B680022DA6318647047002800DBED
:101990007047034B1B684042D86300221A64F7E784
:1019A000BC0D002008B50A4601460320FFF744FF9E
:1019B00008BD8446002004E01CF803201044C0B297
:1019C00019464B1E0029F7DC704742B1013203462D
:1019D00003E011F801CB03F801CB013AF9D17047CC
:1019E0002DE9F041884615461E46069F18B101466E
:1019F0000A4806F0CDF9002404E0315D284606F0DF
:101A0000C7F90134BC42F8D3B8F1000F03D0414606
:101A1000024806F0BDF9BDE8F08100BFC0E2000851
:101A20002DE9F0412DED048B82B004460378023B92
:101A3000362B3BD8DFE813F037003F0047004B0060
:101A40004F00530057003A003A003A003A003A007B
:101A50003A003A003A005B002E04320436043B049C
:101A600040044504740479043A003A003A003A000C
:101A70003A003A007E0483049B04A004A604AB044D
:101A80003A00BD043A003A00C204C704CC04D104B1
:101A9000DA04DF04E504EA044300F004F504FC047E
:101AA000010507050C05A84806F0D4F902B0BDEC05
:101AB000048BBDE8F081A54806F0CCF9F6E7A44810
:101AC00006F0C8F9F2E7A34806F0C4F9EEE7A24829
:101AD00006F0C0F9EAE7A14806F0BCF9E6E7A0483D
:101AE00006F0B8F9E2E79F4806F0B4F9DEE7867839
:101AF000437843EA062613F0010F63D1072516F059
:101B0000020F40F0BC8016F0040F40F04F8116F039
:101B1000080F40F0B08116F0100F40F0118216F05F
:101B2000200F40F0678216F0400F2ED02B1DDBB245
:101B3000E2185278E35C43EA02231BB207EE903AC4
:101B4000F8EEE77A9FED887A67EE877A0635EDB290
:101B5000864B93ED007A864A82ED007AC3ED007AD7
:101B600077EEC77A9FED837AF4EEC77AF1EE10FA3A
:101B700040F39F829FED807A77EEC77A7F4B93ED9B
:101B8000007A77EE277AC3ED007A16F0800F01D045
:101B90000635EDB216F4807F40F0D48216F4007F53
:101BA00040F0088316F4806F40F0698316F4006FEC
:101BB0003FF47CAF615D01F00F020909704806F047
:101BC000E7F873E7027AC37943EA02231BB208EE0F
:101BD000103AB8EEC88ADFED6B9A28EE298A18EE23
:101BE000100AFEF751FC02460B46674806F0D0F893
:101BF000A27A637A43EA02231BB209EE103AB8EEE6
:101C0000C99A29EE299A19EE100AFEF73DFC024600
:101C10000B465E4806F0BCF8227BE37A43EA0223D7
:101C20001BB208EE903AF8EEE88A68EEA98A18EE40
:101C3000900AFEF729FC02460B46554806F0A8F824
:101C400028EE088A29EE099A78EE097A68EEA88AC1
:101C500077EEA87A17EE900AFEF716FC41EC100B0F
:101C60000CF0DAF951EC100BFEF766FCFEF70CFCF9
:101C700002460B46474806F08BF80D253FE76319EF
:101C80005A78635D43EA02231BB208EE103AB8EEBD
:101C9000C88ADFED3C9A28EE298AAF1CFFB218EE05
:101CA000100AFEF7F1FB02460B463B4806F070F8BF
:101CB000E3195A78E35D43EA02231BB209EE103AB6
:101CC000B8EEC99A29EE299A2F1DFFB219EE100A13
:101CD000FEF7DAFB02460B46304806F059F8E319E6
:101CE0005A78E35D43EA02231BB208EE903AF8EE1D
:101CF000E88A68EEA98A0635EDB218EE900AFEF77A
:101D0000C3FB02460B46264806F042F828EE088A36
:101D100029EE099A78EE097A68EEA88A77EEA87A11
:101D200017EE900AFEF7B0FB41EC100B0CF074F9C3
:101D300051EC100BFEF700FCFEF7A6FB02460B462B
:101D4000184806F025F8DEE6CCE20008E4E20008D8
:101D5000FCE2000818E3000834E3000850E3000840
:101D600074E30008ACE300080000B43B680D0020F9
:101D7000340B0020000034430000B443380B002033
:101D8000B0E50008CDCC9C3BD4E30008E0E30008BC
:101D9000ECE30008F8E3000808E4000814E4000895
:101DA00020E400082CE4000800007A3D63195A780A
:101DB000635D43EA02231BB208EE103AB8EEC88A0C
:101DC0005FED079A28EE298AAF1CFFB218EE100AC1
:101DD000FEF75AFB02460B46C34805F0D9FFE3194C
:101DE0005A78E35D43EA02231BB209EE103AB8EEDB
:101DF000C99A29EE299A2F1DFFB219EE100AFEF793
:101E000043FB02460B46B94805F0C2FFE3195A7876
:101E1000E35D43EA02231BB208EE903AF8EEE88A4B
:101E200068EEA98A0635EDB218EE900AFEF72CFB93
:101E300002460B46AE4805F0ABFF28EE088A29EEB5
:101E4000099A78EE097A68EEA88A77EEA87A17EEF2
:101E5000900AFEF719FB41EC100B0CF0DDF851EC89
:101E6000100BFEF769FBFEF70FFB02460B46A1487D
:101E700005F08EFF4BE663195A78635D43EA02234F
:101E80001BB208EE103AB8EEC88ADFED9B9A28EE36
:101E9000298AAF1CFFB218EE100AFEF7F5FA0246C7
:101EA0000B46964805F074FFE3195A78E35D43EA60
:101EB00002231BB209EE103AB8EEC99A29EE299A0C
:101EC0002F1DFFB219EE100AFEF7DEFA02460B468E
:101ED0008B4805F05DFFE3195A78E35D43EA02237E
:101EE0001BB208EE903AF8EEE88A68EEA98A063549
:101EF000EDB218EE900AFEF7C7FA02460B4681488B
:101F000005F046FF28EE088A29EE099A78EE097A4C
:101F100068EEA88A77EEA87A17EE900AFEF7B4FA70
:101F200041EC100B0CF078F851EC100BFEF704FBB1
:101F3000FEF7AAFA02460B46734805F029FFEAE5C8
:101F400063195A78635D43EA02231BB207EE903AA5
:101F5000F8EEE77AAF1CFFB29FED6C7A67EE877AF6
:101F600017EE900AFEF790FA02460B46684805F015
:101F70000FFFE31999785A78120242EA0142E35DB1
:101F8000134312F4000F01D043F07F4307EE903A61
:101F9000F8EEE77A6F1DFFB29FED5E7A67EE877A03
:101FA00017EE900AFEF770FA02460B465A4805F003
:101FB000EFFEE31999785A78120242EA0142E35D92
:101FC000134312F4000F01D043F07F4307EE903A21
:101FD000F8EEE77A0835EDB29FED507A67EE877A32
:101FE00017EE900AFEF750FA02460B464C4805F0F1
:101FF000CFFE94E563195A78635D43EA02231BB26E
:1020000007EE903AF8EEE77A9FED468AAF1CFFB2F2
:1020100067EE887A17EE900AFEF736FA02460B460C
:10202000414805F0B5FEE3195A78E35D43EA02231F
:102030001BB207EE903AF8EEE77A2F1DFFB267EE7B
:10204000887A17EE900AFEF71FFA02460B463748C9
:1020500005F09EFEE3195A78E35D43EA02231BB2C2
:1020600007EE903AF8EEE77AAF1DFFB267EE887A96
:1020700017EE900AFEF708FA02460B462C4805F0C8
:1020800087FEE3195A78E35D43EA02231BB207EEA9
:10209000903AF8EEE77A0835EDB267EE887A17EEF7
:1020A000900AFEF7F1F902460B46224805F070FE51
:1020B00039E59FED217AF4EEC77AF1EE10FA0BD5EF
:1020C0009FED1E7A77EE877A1D4B93ED007A77EEBF
:1020D000277AC3ED007A58E5194B93ED007A77EE35
:1020E000277AC3ED007A50E53CE4000848E4000894
:1020F00054E4000860E4000800B01A3E70E40008F0
:102100007CE4000888E4000894E400080AD7233C33
:10211000A4E4000800007A39BCE4000800A08C3A6E
:10212000D4E4000800000038E4E40008F0E400080B
:10213000FCE4000808E50008000034C30000B443D4
:10214000380B00206219D17893781B0443EA0163AD
:10215000527843EA0223615D2F1DFFB21943BF4845
:1021600005F016FEE75D0535EDB217F0010F19D049
:10217000BB49BC4805F00CFE17F0020F14D0B8495B
:10218000B94805F005FE17F0040F0FD0B449B74861
:1021900005F0FEFD17F0080F0AD0B149B44805F06C
:1021A000F7FDFBE4B349E4E7B249E9E7B149EEE7FB
:1021B000B049F3E763195A78635D43EA02231BB21F
:1021C00008EE103AB8EEC88ADFEDAB9A28EE298AFD
:1021D000AF1CFFB218EE100AFEF756F902460B4686
:1021E000A64805F0D5FDE3195A78E35D43EA0223DA
:1021F0001BB209EE103AB8EEC99A29EE299A2F1DA2
:10220000FFB219EE100AFEF73FF902460B469C4852
:1022100005F0BEFDE3195A78E35D43EA02231BB2E1
:1022200008EE903AF8EEE88A68EEA98A0635EDB233
:1022300018EE900AFEF728F902460B46914805F081
:10224000A7FD28EE088A29EE099A78EE097A68EE49
:10225000A88A77EEA87A17EE900AFEF715F941ECF6
:10226000100B0BF0D9FE51EC100BFEF765F9FEF7E1
:102270000BF902460B46844805F08AFD92E4631987
:102280005978635D0235EDB243EA01217F4805F0DC
:102290007FFD8BE47E4805F0DDFD07E47D4805F019
:1022A000D9FD03E47C4805F0D5FDFFF7FFBB7B4873
:1022B00005F0D0FDFFF7FABB794805F0CBFDFFF73D
:1022C000F5BB4178FF290DD0FE2910D0FD2913D090
:1022D000FC2916D0FB2919D0E9B1724805F058FD48
:1022E000FFF7E4BB704805F0B5FDFFF7DFBB6F48B3
:1022F00005F0B0FDFFF7DABB6D4805F0ABFDFFF769
:10230000D5BB6C4805F0A6FDFFF7D0BB6A4805F0C9
:10231000A1FDFFF7CBBB694805F09CFDFFF7C6BBED
:10232000674805F097FDFFF7C1BB664805F092FDD1
:10233000FFF7BCBB644805F08DFDFFF7B7BB634FEB
:10234000634E644D4FF00908CDF80080431C3A46B7
:1023500031462846FFF744FBCDF8008004F10A031C
:102360003A4631462846FFF73BFBFFF79FBB5A48EA
:1023700005F070FDFFF79ABB411C584805F008FDB9
:10238000FFF794BB564805F065FDFFF78FBB41781A
:10239000544805F0FDFCA178534805F0F9FCE178BC
:1023A000524805F0F5FC2179514805F0F1FCFFF7A2
:1023B0007DBB504805F04EFDFFF778BB4E4805F059
:1023C00049FDFFF773BB4D4805F044FDFFF76EBBB9
:1023D0004B4805F03FFDFFF769BB417801EB8101F8
:1023E0004900484805F0D4FCFFF760BB464805F0BB
:1023F00031FDFFF75BBB4178444805F0C9FCFFF7AE
:1024000055BB434805F026FDFFF750BB41784148D6
:1024100005F0BEFCFFF74ABB3F4805F01BFDFFF788
:1024200045BB827841783D4805F0B2FCFFF73EBBE2
:102430003B4805F00FFDFFF739BB4178394805F0FF
:10244000A7FCFFF733BB384805F004FDFFF72EBBB0
:102450004178364805F09CFCFFF728BB14E50008DE
:10246000C8E2000824E5000834E5000844E5000857
:1024700054E50008C4E20008CDCC9C3B64E50008AC
:1024800074E5000884E5000894E50008A4E5000868
:10249000C8E50008E4E5000804E6000840E6000896
:1024A00078E6000854E7000890E60008C0E6000857
:1024B000E0E600080CE7000830E700087CE70008C9
:1024C00098E70008ACE70008C0E70008E0E700086C
:1024D000E8E70008ECE7000808E8000820E8000842
:1024E00038E8000870E8000890E80008A8E800084C
:1024F000C4E80008DCE80008F0E8000800E900088B
:1025000014E9000838E900085CE9000890E90008CF
:10251000BCE90008D4E90008E4E900080CEA000876
:102520002CEA000848EA00085CEA000874EA00089F
:1025300070B594B006460D460DF1040C274C0FCC37
:10254000ACE80F000FCCACE80F000FCCACE80F00EC
:1025500023682CF8023B1B0C8CF800300023CDF8CC
:102560003730CDF83B30CDF83F30CDF84330CDF8A3
:102570004730CDF84A306B1EDBB2122B28D856B349
:1025800049238DF83630164B1B788DF837308DF88F
:1025900038502A4631460DF13900FFF716FAA91CCA
:1025A0000DF13700FFF705FA05F185030DEB030484
:1025B00004F84C0C05F186036B444D2203F84C2CB7
:1025C00005F1370101A8FFF7EDF9002014B070BD47
:1025D0004FF0FF30FAE74FF0FF30F7E730E2000846
:1025E0002800002008B50346494A117808181070E1
:1025F000484A1078052800F28580DFE800F00315CE
:10260000283D5065492B00D008BD434900220A707F
:1026100001230B7041494FF0490C81F800C03C493F
:102620000A703C4A1370EFE73B490A7802F1010C4B
:1026300081F800C039498B54FF2B04D00130354B51
:1026400018700020E0E70020324B1870DCE73249B8
:102650000A7802F1010C81F800C030498B54013B2B
:10266000DBB2482B03D900202A4B1870CCE701308D
:10267000284B18700020C7E7274991F800C00CF1DB
:102680000102D2B20A70254901F80C308B7802336E
:1026900093423BDA01301F4B18700020B4E71C4A0C
:1026A0001170994203D000201A4B1870ACE71A49F8
:1026B0000A7802F1010C81F800C018498B540130EE
:1026C000144B187000209FE7124A002111704D2B07
:1026D00001D0002098E710490878421CD2B20A7055
:1026E0000E490B5449780E4B1B78994203D0FF2BAF
:1026F00001D0002088E7053AD1B20A48FFF790F9E7
:10270000012081E70020034B18707DE700207BE764
:10271000300B0020310B00208A0B00203C0B0020E6
:10272000280000203F0B002000B583B003238DF864
:102730000430012101A8FFF7FBFE03B05DF804FBA4
:1027400000B583B019238DF80430012101A8FFF7EB
:10275000EFFE03B05DF804FB10B584B0BDF82CC0EB
:102760001224019400240294CDF80B408DF805004A
:102770008DF806108DF807209DF81820520002F001
:10278000060203F001031A438DF808209DF81C305F
:102790008DF809309DF820308DF80A309DF82430EE
:1027A0008DF80B309DF828308DF80C308DF80DC069
:1027B0004FEA1C2C8DF80EC00B2101A8FFF7B8FEC4
:1027C00004B010BD00B583B005238DF8043001219D
:1027D00001A8FFF7ADFE03B05DF804FB08B5054B9B
:1027E0001860054B1868002302221946806805F01E
:1027F000A5FB08BD8C0B002040000020022801D85A
:102800000120704708B505F047FA0923036000204E
:1028100008BD000010B5013801280AD814464FF051
:10282000FF3392B20748006802F0D9FD40B9204654
:1028300010BD05F031FA092303604FF0FF30F7E7D0
:102840000520F5E78C0B0020022801D800207047F6
:1028500008B505F021FA092303604FF0FF3008BDE9
:1028600008B505F019FA092303604FF0FF3008BDE1
:1028700008B548B94FF0FF3301220848006802F05C
:1028800014FE40B9012008BD05F006FA09230360D3
:102890004FF0FF30F7E70520F5E700BF8C0B002075
:1028A00008B5022804D84FF400534B60002008BD3F
:1028B00005F0F2F909230360F8E700000023194648
:1028C00003E0212A0AD00133DBB2C72B1FD8544AB8
:1028D000D25C3D2AF5D1591CC9B2F2E7013BDBB20B
:1028E0004F4A525C2D2A14D000225B1ADBB201330E
:1028F000DBB2042B6DD010B4052B0ED0062B35D0D7
:102900009FED480A002A61D15DF8044B704700230F
:10291000E6E70131C9B20122E7E7414C605C30389B
:1029200000EB80004300481C205C3038034400EE7C
:10293000103ACB1CE35C303B07EE903AF8EEE77AB6
:102940009FED397A67EE877AB8EEC00A30EE270A33
:102950000431635C303B07EE903AF8EEE77A9FED86
:10296000337A67EE877A30EE270ACBE72C4C635C2C
:10297000A3F1300C4B1CE05C303800EB80004300CE
:10298000642000FB0C33881C205C3038034400EECC
:10299000103A0B1DE35C303B07EE903AF8EEE77A15
:1029A0009FED217A67EE877AB8EEC00A30EE270AEB
:1029B0000531635C303B07EE903AF8EEE77A9FED25
:1029C0001B7A67EE877A30EE270A9BE7B1EE400A62
:1029D0009AE71348435C303B00EE103A8B1CC35C13
:1029E000303B07EE903AF8EEE77A9FED0F7A67EE0C
:1029F000877AB8EEC00A30EE270A0331435C303BD9
:102A000007EE903AF8EEE77A9FED087A67EE877A5C
:102A100030EE270A02B97047B1EE400A704700BF96
:102A20007C0C002000000000CDCCCC3D0AD7233C1C
:102A300010B50446FFF742FF012C00D010BD2D4B0E
:102A40001B78502B19D0492B1FD0442B25D0502B4D
:102A50002BD0492B31D0442B37D0532B3DD0502B8A
:102A6000ECD1244B5B786F2BE8D1224B9B78732BF6
:102A7000E4D1214B83ED000AE0E71E4A5278312A67
:102A8000E1D11E4B83ED000AD8E71A4A5278312A69
:102A9000DBD11A4B83ED010AD0E7164A5278312A6E
:102AA000D5D1164B83ED020AC8E7124A5278322A72
:102AB000CFD1134B83ED000AC0E70E4A5278322A79
:102AC000C9D10F4B83ED010AB8E70A4A5278322A7E
:102AD000C3D10B4B83ED020AB0E7064A5278702A45
:102AE000BDD1044A9278652AB9D1064B83ED000A1C
:102AF000A4E700BF7C0C0020900B0020980B002066
:102B0000C00B0020940B002000B5284A0023D3609E
:102B10005361DFF8BCC0C2F818C0254810621361C9
:102B2000D361DFED247AC2ED007A5360DFF8A4E0D0
:102B3000C2F808E020495162204AD3605361C2F8CC
:102B400018C010621361D361C2ED007A5360C2F8FD
:102B500008E051621A4AD3605361C2F818C010628B
:102B60001361D361C2ED007A5360C2F808E051628C
:102B7000144AD3605361C2F818C010621361D36164
:102B8000C2ED007A5360C2F808E051620E4AD36089
:102B90005361C2F818C010621361D3610B48106012
:102BA0005360936051625DF804FB00BFC00B0020CE
:102BB00000007A44713DA2400AD7233CE80B002074
:102BC000100C0020380C0020980B00200000204141
:102BD00000409C450000404170EE600AC0ED030AD1
:102BE000D0ED097AF4EEE70AF1EE10FA08D5F1EE2D
:102BF000677AF4EEE70AF1EE10FA01DD0023C36014
:102C000090ED036A90ED057A36EE077A80ED057A4D
:102C1000D0ED016A27EE267AD0ED067AF1EE675AFA
:102C2000B4EEE57AF1EE10FA38D5C5EEA67AC0ED2D
:102C3000057AB5EE400AF1EE10FA01D100234361A6
:102C4000D0ED007A66EE277A90ED057A66EE876A17
:102C500077EEA67A90ED027AD0ED046A76EE666A97
:102C600027EE267A77EE877A90ED077A77EE877AE5
:102C7000C0ED077AB5EEC00AF1EE10FA26DBF5EEEC
:102C8000C07AF1EE10FA13D490ED087AF4EEC77A18
:102C9000F1EE10FA0EDD80ED077A0BE0B4EEE77A84
:102CA000F1EE10FAC5DD87EEA67A80ED057AC0E771
:102CB0000023C36180ED046AB5EE400AF1EE10FA1C
:102CC00001D10023C36190ED070A7047B5EEC00A39
:102CD000F1EE10FAEED590ED087AB1EE477AF4EE07
:102CE000C77AF1EE10FA02D580ED077AE2E7F5EE49
:102CF000C07AF1EE10FADDDD0023C361DAE770EE91
:102D0000600AC0ED030AD0ED097AF4EEE70AF1EEAD
:102D100010FA08D5F1EE677AF4EEE70AF1EE10FA50
:102D200001DD0023C360D0ED036AD0ED057A76EEB5
:102D3000A77AC0ED057A90ED017A67EE877A90ED7B
:102D4000066AF1EE465AF4EEE57AF1EE10FA23D572
:102D5000C5EE877AC0ED057AB5EE400AF1EE10FABD
:102D600001D10023436190ED000A26EE800AD0EDE8
:102D7000057A27EE277A30EE070AD0ED027A90ED39
:102D8000047A36EEC77A67EE877A30EE270A80ED4E
:102D9000070AC0ED046A7047F4EEC67AF1EE10FA45
:102DA000DADDC6EE077AC0ED057AD5E708B5012071
:102DB00002F07BFEFBE7000010B586B0FEF748FD91
:102DC000FFF7A2FEFFF7B0FC40230593092304930D
:102DD00004230393022302936423019303230093A8
:102DE00000231A46FF210520FFF7B6FCFFF7EAFC97
:102DF000FFF7A6FC002201210A2003F0DCFA1D4B9C
:102E000018601D4A00211D4802F0F0FD1C4B18609F
:102E10001C4B019318240094002380221A491B485C
:102E200003F0FFFE1A4B01930094002380221949FE
:102E3000194803F0F6FE194B0193009400238022F9
:102E40001749184803F0EDFE174B01930094002337
:102E500080221649164803F0E4FE164B019319230D
:102E60000093002380221449144803F0DAFE06B0D0
:102E700010BD00BF700C0020D0EA0008AD2D000886
:102E8000600C0020780C002084EA0008411400083F
:102E9000640C002090EA000891110008740C0020D6
:102EA000A0EA000871110008680C0020ACEA0008D4
:102EB000F51200086C0C0020B8EA00083D13000869
:102EC0002DE9F0418CB000240794089409940A94E9
:102ED0000B940194504B1A6B42F010021A631A6B58
:102EE00002F010020192019A02941A6B42F08002E1
:102EF0001A631A6B02F080020292029A03941A6B10
:102F000042F004021A631A6B02F004020392039A5D
:102F100004941A6B42F001021A631A6B02F0010268
:102F20000492049A05941A6B42F002021A631A6B17
:102F300002F002020592059A06941A6B42F008020A
:102F40001A631B6B03F008030693069B334E22465D
:102F500040F60E01304601F0CAF8314F22464FF4D8
:102F60000041384601F0C3F8DFF8BC8022464FF438
:102F70008851404601F0BBF841F2010307930894E1
:102F80000125099507A9304600F0B8FF0E230793E5
:102F90000895099402230A9307A9304600F0AEFF72
:102FA0004FF4404307930894099507A91D4800F082
:102FB000A5FF4FF400430793089509940A9407A9C5
:102FC000384600F09BFF4FF48073079308950994EF
:102FD0000A9407A9404600F091FF4FF480530793ED
:102FE000089509950A9407A9404600F087FF4FF419
:102FF00000630793089509940A9407A9304600F0E6
:103000007DFF042307930894099507A9384600F02B
:1030100075FF0CB0BDE8F0810038024000080240A6
:10302000000C0240000402400000024072B6FEE7BD
:1030300000B595B03022002108A804F057FE002307
:10304000039304930593069307930193204A116C0D
:1030500041F080511164126C02F080520192019A89
:1030600002931C4B1A6842F480421A601B6803F4F6
:1030700080430293029B012308934FF4803309930A
:1030800002220E924FF480030F9304231093A82181
:1030900011911292139308A801F030F898B90F23F8
:1030A000039302230493002305934FF4A053069344
:1030B0004FF480530793052103A801F085FA20B946
:1030C00015B05DF804FBFFF7B1FFFFF7AFFF00BFDE
:1030D000003802400070004008B500F02DFEFFF7F8
:1030E000A7FFFFF7EDFE00F029FC00F037F900F034
:1030F00067F900F097F900F0C7F900F097FC00F0CD
:10310000D3FC00F00DFD00F047FD00F05FFD00F086
:10311000EDF904F007FD02F03BFCFFF74DFE02F075
:1031200049FCFEE700B583B0002200920D4B596CBC
:1031300041F480415964596C01F480410091009937
:103140000192196C41F0805119641B6C03F080539B
:103150000193019B0F216FF0010000F02BFE03B0E3
:103160005DF804FB0038024030B589B00446002306
:103170000193214B1A6C42F020021A641B6C03F07D
:1031800020030193019B02A903A801F0F3FA069B17
:10319000CBB901F0CFFA03461848A0FB03239B0CE0
:1031A000013B1748174A026040F2E732C2604360B1
:1031B000002303618360836101F0F2FC054630B1B6
:1031C000284609B030BD01F0B5FA4300E4E70C48E9
:1031D00001F082FB05460028F2D1372000F022FEE4
:1031E0000F2C01D90125EBE700222146372000F002
:1031F000E1FD054B1C60E3E70038024083DE1B4322
:10320000700D00200014004038000020FEE7FEE7AB
:10321000FEE7FEE7FEE7704708B5034801F0A4FBB0
:10322000024801F0A1FB08BDBC0D0020FC0F0020EE
:1032300008B5034801F098FB024801F095FB08BD72
:10324000BC0D0020040E002008B5034801F08CFBE3
:10325000024801F089FB08BDBC0D00204C0E002087
:1032600008B5024801F080FB08BD00BF940E0020A5
:1032700008B5024801F078FB08BD00BFDC0E002055
:1032800008B5024801F070FB08BD00BF240F002004
:1032900008B5024802F0FEF908BD00BF4410002046
:1032A00008B5024801F060FB08BD00BF6C0F0020AC
:1032B00008B5024801F058FB08BD00BFB40F00205C
:1032C00008B5024801F050FB08BD00BF700D00209A
:1032D00008B5024802F0DEF908BD00BF8C100020DE
:1032E0000120704708B504F0D7FC162303604FF0A7
:1032F000FF3008BD08B54FF0FF31FFF7F3FFFEE7E1
:1033000010B503460C4A0D490D48006840B10C4801
:1033100000680344521A934206D8094A136010BD4C
:103320000748084C0460F2E704F0B6FC0C23036085
:103330004FF0FF30F3E700BF000002200004000060
:10334000B80D0020D8620020034AD2F8883043F438
:103350007003C2F88830704700ED00E000B58DB012
:103360002422002103A804F0C1FC0023019302934E
:1033700012484FF080420260436083604FF0FF329A
:10338000C2600361836103230393012305930993BF
:1033900003A901F05DFC50B900230193029301A938
:1033A000064801F04FFE28B90DB05DF804FBFFF7A9
:1033B0003DFEF1E7FFF73AFEF6E700BF940E00206E
:1033C00000B58DB02422002103A804F08FFC002357
:1033D000019302931148124A0260436083604FF6E2
:1033E000FF72C2600361836103230393012305938A
:1033F000099303A901F02CFC50B900230193029317
:1034000001A9064801F01EFE28B90DB05DF804FBC5
:10341000FFF70CFEF1E7FFF709FEF6E7DC0E0020F0
:103420000004004000B58DB02422002103A804F060
:103430005DFC0023019302931148124A026043602D
:1034400083604FF6FF72C2600361836103230393BD
:1034500001230593099303A901F0FAFB50B9002356
:103460000193029301A9064801F0ECFD28B90DB0C3
:103470005DF804FBFFF7DAFDF1E7FFF7D7FDF6E7AC
:10348000240F00200008004000B58DB02422002148
:1034900003A804F02BFC0023019302931148124A65
:1034A0000260436083604FF0FF32C260036183615A
:1034B0000323039301230593099303A901F0C8FB98
:1034C00050B900230193029301A9064801F0BAFD07
:1034D00028B90DB05DF804FBFFF7A8FDF1E7FFF791
:1034E000A5FDF6E76C0F0020000C004000B583B08E
:1034F0000023009301930F480F4A0260A722426005
:10350000836040F2E733C3608023836101F048FBAE
:1035100050B90023009301936946064801F092FDDB
:1035200028B903B05DF804FBFFF780FDF1E7FFF772
:103530007DFDF6E7B40F00200010004010B582B00A
:103540000368204A934204D01F4A934226D002B017
:1035500010BD002400941D4B5A6C42F001025A64C5
:103560005B6C03F001030093009B224606211820A8
:1035700000F020FC182000F055FC224606211920FE
:1035800000F018FC192000F04DFC224606211A20FC
:1035900000F010FC1A2000F045FCD8E70022019250
:1035A0000A4B596C41F4803159645B6C03F48033ED
:1035B0000193019B0621182000F0FCFB182000F06D
:1035C00031FCC4E7000001400040014000380240E7
:1035D00070B58EB0002309930A930B930C930D934F
:1035E0000368B3F1804F0BD0614A934247D0614AE0
:1035F00093426CD0604A934200F091800EB070BD4F
:103600000024009403F50E331A6C42F001021A6490
:103610001A6C02F001020092009A01941A6B42F0B7
:1036200001021A631A6B02F001020192019A0294DC
:103630001A6B42F002021A631B6B03F0020302933F
:10364000029B4FF40043099302260A9601250D952B
:1036500009A94A4800F052FC082309930A960B94E2
:103660000C940D9509A9464800F048FC2246062115
:103670001C2000F09FFB1C2000F0D4FBBEE70024C0
:103680000394404B1A6C42F002021A641A6C02F066
:1036900002020392039A04941A6B42F002021A6324
:1036A0001B6B03F002030493049B30230993022352
:1036B0000A930D9309A9324800F020FC2246062106
:1036C0001D2000F077FB1D2000F0ACFB96E70024E6
:1036D00005942C4B1A6C42F004021A641A6C02F026
:1036E00004020592059A06941A6B42F002021A63CC
:1036F0001B6B03F002030693069BC023099302236E
:103700000A930D9309A91E4800F0F8FB22460621F2
:103710001E2000F04FFB1E2000F084FB6EE700240B
:103720000794184B1A6C42F008021A641A6C02F0E3
:1037300008020792079A08941A6B42F001021A6372
:103740001B6B03F001030893089B032309930223D7
:103750000A930D9309A9094800F0D0FB22460621DF
:10376000322000F027FB322000F05CFB46E700BF70
:103770000004004000080040000C0040000002402F
:10378000000402400038024000B585B00368244AB6
:10379000934208D0234A934219D0234A93422AD015
:1037A00005B05DF804FB00220192204B196C41F03A
:1037B000100119641B6C03F010030193019B052198
:1037C000362000F0F7FA362000F02CFBE8E7002264
:1037D0000292164B596C41F4003159645B6C03F44E
:1037E00000330293029B0621192000F0E3FA19200E
:1037F00000F018FBD4E7002203920C4B596C41F403
:10380000802159645B6C03F480230393039B06219E
:103810001A2000F0CFFA1A2000F004FBC0E700BF26
:1038200000100040004401400048014000380240C0
:1038300000B58BB000230593069307930893099373
:103840000368374A93420BD0364A934220D0364A17
:10385000934234D0354A934249D00BB05DF804FB13
:1038600000230193324B1A6B42F010021A631B6B58
:1038700003F010030193019B4FF4D44305930223FB
:1038800006930123099305A92A4800F037FBE4E7D2
:1038900000230293264B1A6B42F010021A631B6B33
:1038A00003F010030293029B602305930223069307
:1038B0000323099305A91F4800F020FBCDE700234F
:1038C00003931B4B1A6B42F002021A631B6B03F04B
:1038D00002030393039B4FF4807305930223069323
:1038E0000323099305A9144800F008FBB5E700235A
:1038F00004930F4B1A6B42F002021A631B6B03F026
:1039000002030493049B4FF4007305930223069370
:103910000323099305A9084800F0F0FA9DE700BFCA
:1039200000000140004001400044014000480140C7
:1039300000380240001002400004024010B592B06E
:1039400000241094119409940A940B940C940D94EF
:103950000E940F942022214601A804F0C7F93148A3
:10396000314B0360A7234360846040F2E733C360B8
:10397000046144618023836101F03EF900283CD159
:1039800000231093119310A9264801F05BFB002837
:1039900036D16023099300220A920B920C920D9269
:1039A0000E920F9209A91F4801F0E6F958BB0422B4
:1039B00009A91C4801F0E0F940BB082209A91948EF
:1039C00001F0DAF928BB0C2209A9164801F0D4F954
:1039D00010BB0023019302930393049305934FF4C8
:1039E00000520692089301A90E4801F071FBB0B98C
:1039F0000C48FFF71DFF12B010BDFFF717FBBFE724
:103A0000FFF714FBC5E7FFF711FBD0E7FFF70EFB4D
:103A1000D3E7FFF70BFBD6E7FFF708FBD9E7FFF784
:103A200005FBE5E7BC0D00200000014000B589B0B2
:103A30000023019302930393049305930693079342
:103A40001748184A0260A7224260836040F2E732BA
:103A5000C26003618023836101F0CEF8B8B96023AE
:103A60000193002202920392059201A90C4801F0F1
:103A700083F978B904220DEB0201094801F07CF9C1
:103A800058B90748FFF7D4FE09B05DF804FBFFF70B
:103A9000CDFAE4E7FFF7CAFAECE7FFF7C7FAF0E779
:103AA000FC0F00200040014000B589B000230193C5
:103AB0000293039304930593069307931648174ABA
:103AC0000260A7224260836040F2E732C260036175
:103AD0008023836101F064F8A0B90F4801F08CF8ED
:103AE00098B960230193002202920392059201A9E2
:103AF000094801F041F958B90748FFF799FE09B0A4
:103B00005DF804FBFFF792FAE7E7FFF78FFAE8E7C3
:103B1000FFF78CFAF0E700BF040E002000440140DC
:103B200000B589B000230193029303930493059396
:103B3000069307931648174A0260A72242608360E3
:103B400040F2E732C26003618023836101F028F80C
:103B5000A0B90F4801F050F898B9602301930022F2
:103B600002920392059201A9094801F005F958B99A
:103B70000748FFF75DFE09B05DF804FBFFF756FA52
:103B8000E7E7FFF753FAE8E7FFF750FAF0E700BF7F
:103B90004C0E00200048014008B50A480A4B03605B
:103BA0004FF4E133436000238360C36003610C2260
:103BB00042618361C36101F0E2FB00B908BDFFF718
:103BC00035FAFBE7441000200044004008B50A48DD
:103BD0000A4B03604FF4E133436000238360C3600A
:103BE00003610C2242618361C36101F0C8FB00B92B
:103BF00008BDFFF71BFAFBE78C1000200014014002
:103C000010B58AB000230593069307930893099390
:103C100003682F4A934204D02E4A93422CD00AB014
:103C200010BD002401942C4B1A6C42F400321A642B
:103C30001A6C02F400320192019A02941A6B42F05B
:103C400001021A631B6B03F001030293029B0C2316
:103C5000059302230693032308930723099305A9D9
:103C60001E4800F04BF922460621262000F0A2F85B
:103C7000262000F0D7F8D2E700240394164B5A6CA4
:103C800042F020025A645A6C02F020020392039A16
:103C900004941A6B42F004021A631B6B03F00403D2
:103CA0000493049BC02305930223069303230893E4
:103CB0000823099305A90A4800F020F922460521A6
:103CC000472000F077F8472000F0ACF8A7E700BFE6
:103CD000004400400014014000380240000002404F
:103CE00000080240DFF834D0FFF72EFB0C480D49E6
:103CF0000D4A002302E0D458C4500433C4188C4247
:103D0000F9D30A4A0A4C002301E013600432A242AC
:103D1000FBD303F0C7FFFFF7DFF970470000022075
:103D200000000020EC09002050EF0008F0090020FE
:103D3000D4620020FEE7000008B50B4B1A6842F47D
:103D400000721A601A6842F480621A601A6842F4BB
:103D500080721A60032000F01BF80F20FFF704FAAE
:103D6000FFF7E0F9002008BD003C0240034A11685B
:103D7000034B1B780B441360704700BFD410002026
:103D800034000020014B1868704700BFD410002099
:103D9000074AD36823F4E0631B041B0C000200F401
:103DA000E060034343F0BF6343F40033D3607047E4
:103DB00000ED00E000B5194BDB68C3F30223C3F14B
:103DC000070CBCF1040F28BF4FF0040C03F1040EE4
:103DD000BEF1060F18D9033B4FF0FF3E0EFA0CFC64
:103DE00021EA0C0199400EFA03F322EA0303194376
:103DF00000280BDB0901C9B200F1604000F5614009
:103E000080F800135DF804FB0023E5E700F00F00E5
:103E10000901C9B2024B1954F4E700BF00ED00E0FC
:103E200014ED00E0002807DB00F01F024009012329
:103E30009340024A42F82030704700BF00E100E0A2
:103E400070B50446866DFFF79DFF94F83530DBB200
:103E5000022B06D080236365002384F834300120D0
:103E600070BD05462268136823F0160313602268AC
:103E7000536923F080035361236CE3B12268136814
:103E800023F0080313602268136823F00103136012
:103E900023681B6813F0010F11D0FFF773FF431B5A
:103EA000052BF5D920236365032084F83500002312
:103EB00084F83430D4E7A36C002BDFD1E3E7E26D64
:103EC0003F239340B360012384F83530002084F809
:103ED0003400C5E790F83530DBB2022B03D08023E5
:103EE000436501207047052380F835300268136868
:103EF00023F00103136000207047000000230F2B04
:103F000000F2E48070B582B060E085685E00032452
:103F1000B44025EA0405CC68B4402C43846045686D
:103F200025EA02054C68C4F300129A402A43426015
:103F30005AE0DC08083450F8246003F007029500CA
:103F40000F22AA4026EA020E0A69AA4042EA0E029D
:103F500040F824205CE0072200E0002202FA0EF282
:103F60002A4302345A4D45F824205A4A94686FEA8D
:103F70000C0224EA0C054E6816F4801F01D04CEAAE
:103F80000405544CA560E46802EA04054E6816F482
:103F9000001F01D04CEA04054E4CE560646802EA5B
:103FA00004054E6816F4003F01D04CEA0405494C64
:103FB0006560246822404D6815F4803F01D04CEACA
:103FC0000402444C226001330F2B7DD801229A4019
:103FD0000C6804EA020C32EA0404F4D14C6804F0E0
:103FE0000304013C012C90D94A6802F00302032A21
:103FF00009D0C4685D000322AA4024EA02048A684A
:10400000AA402243C2604A6802F00302022A90D00A
:1040100004684FEA430E032202FA0EF224EA020475
:104020004A6802F0030202FA0EF2224302604A6872
:1040300012F4403FC7D000220192274A546C44F446
:1040400080445464526C02F480420192019A9C08AC
:10405000A51C1F4A52F8255003F003024FEA820EB6
:104060000F2202FA0EF225EA02051C4A90423FF4A2
:1040700074AF02F5806290421AD002F580629042DD
:1040800018D002F58062904216D002F5806290420C
:1040900014D002F58062904212D002F58062904204
:1040A00010D002F5806290423FF455AF082255E7E8
:1040B000012253E7022251E703224FE704224DE792
:1040C00005224BE7062249E702B070BD704700BFEA
:1040D00000380140003C014000380240000002402E
:1040E0000369194201D001207047002070470AB1CE
:1040F000816170470904816170470000002800F069
:10410000E08170B582B00446036813F0010F3BD024
:104110009F4B9B6803F00C03042B2CD09C4B9B689B
:1041200003F00C03082B21D06368B3F5803F4FD018
:10413000B3F5A02F52D0964B1A6822F480321A6041
:104140001A6822F480221A606368002B50D0FFF7AF
:1041500019FE05468E4B1B6813F4003F14D1FFF780
:1041600011FE401B6428F5D90320B1E1884B5B6840
:1041700013F4800FD8D0864B1B6813F4003F03D094
:104180006368002B00F09F81236813F0020F54D066
:104190007F4B9B6813F00C0F3ED07D4B9B6803F068
:1041A0000C03082B33D0E368002B68D0794B012235
:1041B0001A60FFF7E7FD0546754B1B6813F0020F09
:1041C00054D1FFF7DFFD401B0228F5D903207FE122
:1041D0006F4A136843F480331360B5E76C4B1A6879
:1041E00042F480221A601A6842F480321A60ABE707
:1041F000FFF7C8FD0546664B1B6813F4003FC3D0AC
:10420000FFF7C0FD401B6428F5D9032060E1604B37
:104210005B6813F4800FC6D15D4B1B6813F0020F6F
:1042200003D0E368012B40F05081594A136823F012
:10423000F803216943EAC1031360236813F0080FF0
:1042400042D063696BB3534B0122C3F8802EFFF752
:1042500099FD05464E4B5B6F13F0020F34D1FFF70B
:1042600091FD401B0228F5D9032031E1484A13682B
:1042700023F0F803216943EAC1031360DDE7454BEE
:1042800000221A60FFF77EFD0546414B1B6813F0C4
:10429000020FD2D0FFF776FD401B0228F5D903208C
:1042A00016E13C4B0022C3F8802EFFF76BFD05465C
:1042B000374B5B6F13F0020F06D0FFF763FD401B17
:1042C0000228F5D9032003E1236813F0040F77D007
:1042D0002F4B1B6C13F0805F33D1002301932C4BC9
:1042E0001A6C42F080521A641B6C03F080530193E5
:1042F000019B0125284B1B6813F4807F23D0A36802
:10430000012B34D0052B38D0214B1A6F22F001023B
:104310001A671A6F22F004021A67A368002B3DD0B7
:10432000FFF730FD06461A4B1B6F13F0020F46D104
:10433000FFF728FD801B41F288339842F3D9032010
:10434000C6E00025D6E7144A136843F4807313606F
:10435000FFF718FD0646104B1B6813F4807FCED183
:10436000FFF710FD801B0228F5D90320B0E0084AB2
:10437000136F43F001031367CFE7054B1A6F42F049
:1043800004021A671A6F42F001021A67C5E700BFFC
:10439000003802400000474200700040FFF7F2FC86
:1043A0000646524B1B6F13F0020F08D0FFF7EAFCD2
:1043B000801B41F288339842F3D9032088E0EDB99D
:1043C000A369002B00F08380484A926802F00C0237
:1043D000082A51D0022B17D0454B00221A66FFF74E
:1043E000D1FC0446414B1B6813F0007F42D0FFF71D
:1043F000C9FC001B0228F5D9032069E03B4A136C75
:1044000023F080531364DBE7394B00221A66FFF771
:10441000B9FC0546354B1B6813F0007F06D0FFF74B
:10442000B1FC401B0228F5D9032051E0E369226A60
:104430001343626A43EA8213A26A5208013A43EACA
:104440000243E26A43EA0263284A5360284B01228E
:104450001A66FFF797FC0446244B1B6813F0007F95
:1044600006D1FFF78FFC001B0228F5D903202FE0AF
:1044700000202DE000202BE0012B2BD01B4B5B6894
:1044800003F48001E269914226D103F03F02216AE0
:104490008A4223D1616A47F6C0721A40B2EB811F8B
:1044A0001ED103F44031A26A5208013AB1EB024F27
:1044B00018D103F07063E26AB3EB026F14D10020ED
:1044C00006E001207047012002E0012000E000200A
:1044D00002B070BD0120FBE70120F9E70120F7E7FA
:1044E0000120F5E70120F3E70120F1E70038024061
:1044F0000000474208B5314B9B6803F00C03042BC6
:1045000057D0082B57D12D4B5A6802F03F025B68F9
:1045100013F4800F2AD0294B5968C1F3881C4FEA45
:104520004C11B1EB0C006EEB0E0E4FEA8E1343EA0A
:1045300090638101091A63EB0E03DB0043EA5173B8
:10454000C90011EB0C0C43F10003590200234FEAA0
:104550004C2041EADC51FCF73FF8184B5B68C3F391
:10456000014301335B00B0FBF3F025E0134B5968C6
:10457000C1F3881C4FEA4C11B1EB0C006EEB0E0E30
:104580004FEA8E1343EA90638101091A63EB0E032D
:10459000DB0043EA5173C90011EB0C0C43F100033B
:1045A000990200234FEA8C2041EA9C51FCF714F851
:1045B000D3E7034800E0034808BD00BF00380240CD
:1045C00000127A000024F400002800F09B8070B5EF
:1045D0000D4604464F4B1B6803F007038B4208D27D
:1045E000CBB24C4A1370136803F007038B4240F0C0
:1045F0008B80236813F0020F17D013F0040F04D040
:10460000454A936843F4E0539360236813F0080F1E
:1046100004D0414A936843F4604393603E4A9368F0
:1046200023F0F003A1680B439360236813F0010F9C
:1046300032D06368012B21D09A1E012A25D9364A2F
:10464000126812F0020F61D033498A6822F0030227
:1046500013438B60FFF796FB06462F4B9B6803F0D6
:104660000C036268B3EB820F16D0FFF78BFB801B45
:1046700041F288339842F0D9032042E0264A12687A
:1046800012F4003FE0D101203BE0234A126812F00F
:10469000007FD9D1012034E01E4B1B6803F00703D3
:1046A000AB4207D9EAB21B4B1A701B6803F0070331
:1046B000AB422DD1236813F0040F06D0164A93683D
:1046C00023F4E053E1680B439360236813F0080F71
:1046D00007D0114A936823F46043216943EAC10378
:1046E0009360FFF707FF0C4B9B68C3F303130B4A60
:1046F000D35CD8400A4B18600A4B1868FEF734FDAB
:10470000002070BD012070470120FAE70120F8E782
:104710000120F6E7003C024000380240F4EA0008BD
:104720003000002038000020014B1868704700BF9F
:104730003000002008B5FFF7F7FF044B9B68C3F378
:104740008223034AD35CD84008BD00BF0038024032
:1047500004EB000808B5FFF7E7FF044B9B68C3F3C1
:104760004233034AD35CD84008BD00BF0038024042
:1047700004EB00080F2303600B4B9A6802F003025E
:1047800042609A6802F0F00282609A6802F4E05295
:10479000C2609B68DB0803F4E0530361034B1B68B2
:1047A00003F007030B60704700380240003C0240F2
:1047B00030B4036A026A22F001020262426884692C
:1047C00024F073040D682C4323F0020C8B6843EA39
:1047D0000C03104DA84203D005F58065A84205D111
:1047E00023F00803CD682B4323F00403094DA842AE
:1047F00003D005F58065A84205D122F440724D69C9
:104800002A438D692A43426084614A684263036295
:1048100030BC70470000014030B4036A026A22F4E1
:10482000807202624268C46924F0730C0C6844EA26
:104830000C0523F400738C6843EA0423114CA04256
:1048400003D004F58064A04206D123F40063CC6851
:1048500043EA042323F480630A4CA04203D004F506
:104860008064A04207D122F440524C6942EA04120B
:104870008C6942EA04124260C5614A68C2630362FD
:1048800030BC70470000014030B4036A026A22F471
:10489000805202624468C26922F4E6420D6842EA2C
:1048A000052223F400538D6843EA0533094DA842DD
:1048B00003D005F58065A84204D124F480444D69F5
:1048C00044EA85144460C2614A680264036230BCF1
:1048D000704700BF0000014090F83D30DBB2012B73
:1048E00037D1022380F83D300268D36843F00103DA
:1048F000D3600368194A934220D0B3F1804F1DD092
:10490000A2F57C42934219D002F58062934215D001
:1049100002F58062934211D002F5784293420DD0A5
:1049200002F57052934209D0A2F59432934205D019
:104930001A6842F001021A60002070479A6802F07B
:104940000702062A07D01A6842F001021A60002006
:104950007047012070470020704700BF00000140F1
:10496000704770477047704770B504460368DE684B
:104970001D6915F0020F10D016F0020F0DD06FF068
:1049800002021A610123037703689B6913F0030F86
:104990005ED0FFF7E6FF0023237715F0040F12D057
:1049A00016F0040F0FD023686FF004021A6102237F
:1049B000237723689B6913F4407F4FD02046FFF78D
:1049C000D0FF0023237715F0080F12D016F0080F40
:1049D0000FD023686FF008021A610423237723683D
:1049E000DB6913F0030F40D02046FFF7BAFF002326
:1049F000237715F0100F12D016F0100F0FD0236888
:104A00006FF010021A61082323772368DB6913F41F
:104A1000407F31D02046FFF7A4FF0023237715F015
:104A2000010F02D016F0010F2DD115F0800F02D02A
:104A300016F0800F2FD115F0400F02D016F0400F66
:104A400031D115F0200F02D016F0200F33D170BDF8
:104A5000FFF786FF2046FFF785FF9CE72046FFF71C
:104A60007FFF2046FFF77EFFABE72046FFF778FF8A
:104A70002046FFF777FFBAE72046FFF771FF204691
:104A8000FFF770FFC9E723686FF001021A61204643
:104A900002F0F0FEC9E723686FF080021A61204639
:104AA00000F040FBC7E723686FF040021A61204620
:104AB000FFF759FFC5E723686FF020021A6120460F
:104AC00000F02FFBC3E700000368344A904212D085
:104AD000B0F1804F0FD0A2F57C4290420BD002F58E
:104AE0008062904207D002F58062904203D002F5C6
:104AF0007842904203D123F070034A681343274A57
:104B000090422AD0B0F1804F27D0A2F57C4290424B
:104B100023D002F5806290421FD002F5806290425D
:104B20001BD002F57842904217D002F570529042A5
:104B300013D002F5806290420FD002F5806290425D
:104B40000BD0A2F59832904207D002F580629042D5
:104B500003D002F58062904203D123F44073CA6807
:104B6000134323F080034A69134303608B68C362D5
:104B70000B688362094B984203D003F58063984227
:104B800001D10B69036301234361036913F0010F32
:104B900003D0036923F00103036170470000014063
:104BA00040B310B5044690F83D30F3B1022384F8C9
:104BB0003D30214651F8040BFFF786FF012384F8AE
:104BC000463084F83E3084F83F3084F8403084F832
:104BD000413084F8423084F8433084F8443084F81B
:104BE000453084F83D30002010BD80F83C30FEF7A1
:104BF000CBFDDBE70120704740B310B5044690F8C9
:104C00003D30F3B1022384F83D30214651F8040BC6
:104C1000FFF75AFF012384F8463084F83E3084F8C9
:104C20003F3084F8403084F8413084F8423084F8D2
:104C3000433084F8443084F8453084F83D30002017
:104C400010BD80F83C30FEF779FCDBE701207047AF
:104C5000002856D0F8B50D46044690F83D30002B9C
:104C60004AD0022384F83D302268936823F48043BD
:104C700023F007039360214651F8040BFFF724FF4C
:104C800021688A688B690E6A2868104323F4407C87
:104C90002CF0030CAA68AB6942EA032343EA0C0335
:104CA00023F47C4323F0FC03EA69EF6847EA022C13
:104CB0004CEA030C2A6A13032A6943EA021343EA03
:104CC0000C0326F0AA066A686D6942EA05123243AF
:104CD000886021688B6123681A62012384F846305A
:104CE00084F83E3084F83F3084F8423084F8433012
:104CF00084F83D300020F8BD80F83C30FEF768FCB9
:104D0000AFE701207047000030B4036A026A22F066
:104D1000100202624468826922F4E6420D6842EAA7
:104D2000052223F020038D6843EA0513114DA842A4
:104D300003D005F58065A84206D123F08003CD6835
:104D400043EA051323F040030A4DA84203D005F5BA
:104D50008065A84207D124F440644D6944EA850483
:104D60008D6944EA8504446082614A688263036213
:104D700030BC70470000014038B590F83C30012B42
:104D800066D004460D46012380F83C300C2A5AD8E0
:104D9000DFE802F0075959591B59595930595959E7
:104DA00044000068FFF704FD2268936943F008039C
:104DB00093612268936923F00403936122689369E5
:104DC00029690B43936100203EE00068FFF79CFFD8
:104DD0002268936943F4006393612268936923F422
:104DE0008063936122689369296943EA012393618F
:104DF000002029E00068FFF70FFD2268D36943F027
:104E00000803D3612268D36923F00403D3612268C5
:104E1000D36929690B43D361002015E00068FFF7CF
:104E200033FD2268D36943F40063D3612268D369F8
:104E300023F48063D3612268D369296943EA01239B
:104E4000D361002000E00120002384F83C3038BD0D
:104E50000220FCE701F01F01012303FA01FC036AB1
:104E600023EA0C030362036A02FA01F10B430362B3
:104E70007047000010B504460846002942D194F856
:104E80003E30DBB2013B18BF0123002B6ED100285E
:104E900051D1022384F83E30012201462068FFF7F9
:104EA000D9FF2368334A934203D002F580629342CC
:104EB00003D15A6C42F400425A6423682D4A93424B
:104EC00049D0B3F1804F46D0A2F57C42934242D004
:104ED00002F5806293423ED002F5806293423AD05E
:104EE00002F57842934236D002F57052934232D0A6
:104EF000A2F5943293422ED01A6842F001021A6051
:104F0000002032E0042908D008290DD094F841305F
:104F1000DBB2013B18BF0123B7E794F83F30DBB2A7
:104F2000013B18BF0123B0E794F84030DBB2013BEE
:104F300018BF0123A9E7042805D0082807D00223B9
:104F400084F84130A8E7022384F83F30A4E7022325
:104F500084F84030A0E79A6802F00702062A07D0DA
:104F60001A6842F001021A60002010BD0120FCE71F
:104F70000020FAE70000014038B5044690F83E00F2
:104F8000C0B294F83F3094F84220D2B294F843C0B3
:104F90000D46B1B9012849D1012A48D1022384F82C
:104FA0003E3084F842307DB3042D39D001220021F7
:104FB0002068FFF74FFF012204212068FFF74AFF16
:104FC00027E0DBB25FFA8CFC042912D0012833D130
:104FD000012B2CD1012A31D1BCF1010F30D1022398
:104FE00084F83E3084F83F3084F8423084F843300F
:104FF000D9E7012B1CD1BCF1010F1BD1022384F88E
:105000003F3084F84330CEE7012200212068FFF7CB
:1050100021FF2268136843F001031360002006E0BB
:10502000012204212068FFF715FFF2E7012038BDB7
:105030000120FCE71846FAE70120F8E71846F6E7F2
:105040001046F4E790F83C30012B3DD010B401231A
:1050500080F83C30022380F83D3003685A689C6831
:1050600022F0700C0A6842EA0C025A600368174A80
:1050700093421AD0B3F1804F17D0A2F57C429342ED
:1050800013D002F5806293420FD002F58062934202
:105090000BD002F57842934207D002F5705293424A
:1050A00003D0A2F59432934204D124F080044A68DC
:1050B00014439C60012380F83D30002380F83C308D
:1050C00018465DF8044B704702207047000001400D
:1050D00090F83C30012B22D0012380F83C30CB6883
:1050E00023F440738A68134323F480634A681343AC
:1050F00023F400630A68134323F480530A691343BB
:1051000023F400534A69134323F48043CA691343C9
:1051100002685364002380F83C3018467047022030
:10512000704770477047026802F10C0353E8003F74
:1051300023F490730C3242E800310029F3D1026865
:1051400002F1140353E8003F23F00103143242E854
:1051500000310029F3D1036B012B05D0202380F807
:105160004230002303637047026802F10C0353E8E6
:10517000003F23F010030C3242E800310029F3D144
:10518000ECE790F84130DBB2212B01D002207047D0
:105190008368B3F5805F17D0036A5A1C02621A78DD
:1051A00003685A60C38C9BB2013B9BB2C3844BB96A
:1051B0000268D36823F08003D3600268D36843F0A9
:1051C0004003D360002070470369002BE4D1036AD9
:1051D0001B880268C3F308035360036A0233036247
:1051E000E0E7000038B504460268136923F4405331
:1051F000C1680B4313618368026913434269134317
:10520000C2691A430168CB6823F4164323F00C03E8
:105210001343CB600268536923F4407381690B43E5
:1052200053610368314A934206D002F5806293428B
:1052300002D0FFF77FFA01E0FFF78CFAE369B3F5DC
:10524000004F29D00021031849411B1841F10001EA
:10525000C90041EA5371DB00181863684FEA830202
:105260004FEA937341F10001FBF7B6F9204DA5FB1E
:1052700000325109642303FB11031B013233A5FBE8
:1052800003235B0903F0F00202EB011203F00F03AA
:10529000216813448B6038BD0023021843EB0301DF
:1052A000121841F10001C90041EA5271D2001018F0
:1052B00041F10001626892185B41FBF78DF90C4DDA
:1052C000A5FB00325109642303FB1103DB003233D9
:1052D000A5FB03235B095A0002F4F87202EB0112EA
:1052E00003F00703216813448B60D4E700100140EA
:1052F0001F85EB512DE9F04383B005460E46174656
:105300009946DDF828802C68246836EA04030CBF2F
:105310004FF0010C4FF0000CBC4528D1B8F1FF3F15
:10532000F1D0FEF72FFDA0EB0900404523D8B8F1DE
:10533000000F22D02B68DA6812F0040FE3D0802E21
:10534000E1D0402EDFD01A6812F0080FDBD0002425
:1053500001941A6801925B680193019B2846FFF74C
:10536000E2FE08236B6485F84040012000E0002045
:1053700003B0BDE8F0830320FAE70320F8E760B349
:1053800010B5044690F8413013B3242384F841301B
:105390002268D36823F40053D3602046FFF722FF2E
:1053A0002268136923F4904313612268536923F040
:1053B0002A0353612268D36843F40053D36000206A
:1053C0006064202384F8413084F84230606310BD6B
:1053D00080F84030FEF714FCD7E7012070472DE934
:1053E000F04182B01E4690F84130DBB2202B56D1FE
:1053F00004460D469046002955D00AB901204FE0D9
:1054000000234364212380F84130FEF7BBFC0746AC
:10541000A4F82480A4F82680A368B3F5805F02D0A6
:105420004FF0000814E023692BB34FF000080FE0A1
:10543000202384F84130032032E038F8023B226810
:10544000C3F308035360E28C92B2013A92B2E28451
:10545000E38C9BB293B100963B460022802120460C
:10546000FFF748FF0028E3D1002DE6D015F8012B07
:1054700023685A60E7E7A8460025E9E700963B461F
:10548000002240212046FFF735FF18B9202384F879
:10549000413005E0202384F84130032000E0022061
:1054A00002B0BDE8F0810120FAE72DE9F04182B0B9
:1054B0001E4690F84230DBB2202B59D104460D46EF
:1054C0009046002958D00AB9012052E000234364D5
:1054D000222280F842200363FEF754FC0746A4F81A
:1054E0002C80A4F82E80A368B3F5805F02D04FF023
:1054F00000081CE0236913B14FF0000817E0A8462C
:10550000002514E0202384F84230032031E0236892
:105510005B68C3F3080328F8023B03E023685B6879
:105520002B700135E28D92B2013A92B2E285E38DA1
:105530009BB2C3B100963B46002220212046FFF7D4
:10554000D9FE0028DED1002DE1D0A368B3F5805F3D
:10555000E4D013B92369002BE0D023685B6803F023
:105560007F032B70DDE7202384F84230002000E029
:10557000022002B0BDE8F0810120FAE7704708B5CB
:105580000168CA6822F04002CA60202280F84120E7
:10559000FFF7F4FF002008BD704708B5806B0023BB
:1055A000C385C384FFF7F8FF08BD704790F8423009
:1055B000DBB2222B69D18368B3F5805F4FD0826A5A
:1055C000B3F5805F04D0002B56D10369002B53D173
:1055D00003685B681370836A01338362C38D9BB277
:1055E000013B9BB2C385002B51D100B583B002684B
:1055F000D36823F02003D3600268D36823F4807358
:10560000D3600268536923F001035361202380F8BB
:10561000423000234363036B012B33D10023036328
:10562000026802F10C0353E8003F23F010030C3230
:1056300042E800310029F3D103681A6812F0100F14
:1056400006D0002201921A6801925B680193019BC7
:10565000818DFFF7AAFF002003B05DF804FB02690B
:10566000002AACD1826A03685B68C3F30803138025
:10567000836A02338362B1E703685B6803F07F03E8
:105680001370A8E702F086F8E5E7022070470020D3
:105690007047000030B583B0044602681368D068D4
:1056A000516913F00F0505D113F0200F02D010F04F
:1056B000200F19D12DB111F0010119D110F4907FF3
:1056C00016D1216B01297DD013F0800F03D010F08B
:1056D000800F40F0198113F0400F03D010F0400FFD
:1056E00040F0168103B030BD2046FFF75FFFF9E7B9
:1056F00013F0010F06D010F4807F03D0626C42F0EB
:105700000102626413F0040F04D019B1626C42F01C
:105710000202626413F0020F04D019B1626C42F00D
:105720000402626413F0080F07D010F0200F00D1BC
:1057300019B1626C42F008026264626C002AD1D036
:1057400013F0200F02D010F0200F29D123685B69DD
:1057500003F04003626C12F0080F00D163B32046DF
:10576000FFF7E1FC23685B6913F0400F20D022684B
:1057700002F1140353E8003F23F04003143242E8DF
:1057800000310029F3D1E36B73B1634A1A65E06B12
:10579000FEF7A0FB0028A5D0E06B036D9847A1E7BA
:1057A0002046FFF703FFD1E72046FFF7F5FE99E714
:1057B0002046FFF7F1FE95E72046FFF7EDFE0023B8
:1057C00063648FE713F0100F3FF47EAF10F0100FFB
:1057D0003FF47AAF00230193136801935368019358
:1057E000019B536913F0400F52D0E26B13685B6862
:1057F0009BB2002B3FF476AFA18D99427FF672AF3A
:10580000E385D369B3F5807F37D0226802F10C03BA
:1058100053E8003F23F480730C3242E80031002942
:10582000F3D1226802F1140353E8003F23F001038F
:10583000143242E800310029F3D1226802F1140346
:1058400053E8003F23F04003143242E800310029BE
:10585000F3D1202384F8423000232363226802F12D
:105860000C0353E8003F23F010030C3242E80031F0
:105870000029F3D1E06BFEF7E3FA02236363A18D05
:10588000E38D9BB2C91A89B22046FFF78EFE29E745
:10589000A18DE38D9BB2C91A89B2E38D9BB2002B17
:1058A0003FF420AF00293FF41DAF226802F10C0342
:1058B00053E8003F23F490730C3242E80030002894
:1058C000F3D1226802F1140353E8003F23F00103EF
:1058D000143242E800300028F3D1202384F842300B
:1058E00000232363226802F10C0353E8003F23F0F6
:1058F00010030C3242E800300028F3D10223636326
:105900002046FFF752FEEDE62046FFF73AFCE9E6B7
:105910002046FFF734FEE5E69B550008816282854C
:10592000C28500234364222380F84230036923B1F7
:105930000268D36843F48073D3600268536943F00C
:10594000010353610268D36843F02003D360002051
:10595000704708B590F84230DBB2202B08D149B12E
:105960000AB9012008BD00230363FFF7D7FFF9E759
:105970000220F7E70120F5E708B54FF0E0231B69A7
:1059800001F086FC012800D108BD00F0D3F9FBE747
:10599000EFF305832BB9064B186828B901221A606A
:1059A00070476FF0050070474FF0FF30704700BF41
:1059B00060170020EFF3058373B90A4B1B68012BB6
:1059C0000DD110B50024084BDC77064B02221A607B
:1059D00001F05CF9204610BD6FF0050070474FF0F4
:1059E000FF3070476017002000ED00E0F0B587B091
:1059F00000240594EFF305847CBB70B32AB31568CB
:105A0000936903B918235C1E372C4AD8546814F0E4
:105A1000010F48D1566976B14FEA960C946834B1BB
:105A2000D768B7F5916F02D3176907B1C6B92CB122
:105A30004FF0FF340EE04FF0800CEFE7D4688CB9E4
:105A4000146994B14FF0FF3404E015460024182384
:105A50004FF0800C012C0AD0ACB1059807B0F0BD16
:105A60000124F7E74FF0FF34F4E70024F2E714696C
:105A700092680292019400930B466246294601F017
:105A800093F80590E9E705AA019200930B461FFAE7
:105A90008CF2294601F0C5F80128DED000230593D9
:105AA000DBE70020DAE70020D8E708B5EFF305834D
:105AB00033B908B9002008BD01F0A6FA0020FAE7C2
:105AC0006FF00500F7E70000034B0360034B0B602A
:105AD00080231360704700BFD8120020D810002028
:105AE000034B0360034B0B604FF4807313607047EC
:105AF000681B00206417002000F1080343604FF08A
:105B0000FF328260C360036100230360704700239B
